:100000000C9449000C945B080C945B080C945B08FE
:100010000C945B080C945B080C945B080C945B08D4
:100020000C945B080C945B080C945B080C945B08C4
:100030000C945B080C945B080C9415050C945B08FD
:100040000C945B080C945B080C94B8050C945B084A
:100050000C945B080C945B080C945B080C945B0894
:100060000C945B080C945B080C945B080C945B0884
:100070000C945B080C943E050C9467050C945B088B
:100080000C945B080C945B080C945B080100016104
:10009000800011241FBECFEFD0E1DEBFCDBFECE862
:1000A000F0E040E017C0B591A591359125910591FB
:1000B00007FD0CC095918591EF01F92FE82F059070
:1000C0000D92A217B307D9F7FE0104C01D92A21723
:1000D000B307E1F7E139F40731F70E944B030C94C1
:0600E000BC07F894FFCFFD
:1000E600474956452053454E534F52200A0D004B63
:1000F600415049204B41504154200A0D0051003ACD
:10010600003F004D41494E31003C0052003E005335
:10011600454E534F522054414D414D4C414E44495A
:10012600200A0D004B415049204B41504154205468
:10013600414D414D4C414E4449200A0D0057484916
:100146004C4520425245414B4544200A0D0055413D
:0E0156005254310A0D0055415254320A0D0028
:100164004F925F926F927F928F929F92AF92BF92C3
:10017400FF920F931F93CF93DF93F12CC1E0D0E054
:1001840000E41FE1882E912CA12CB12C02C0C0E008
:10019400D1E0F394C801BE010E94470780E090E0DB
:1001A4000E94E9039B01AC0160E070E080E89FE3FA
:1001B4000E9451082B013C01C501B4010E94EB03CC
:1001C400A30192010E9451082B013C0120E03FEF62
:1001D4004FE757E40E94440888238CF0CC0FDD1FBE
:1001E400CC0FDD1FCC0FDD1FC11582E0D80779F2DB
:1001F400C11588E0D80769F6C0E0D4E0CACF1092F0
:100204008B00A301920160E07FEF8FE797E40E94E7
:1002140012080E948F0470935A0160935901CB0114
:100224000E94D107F0928A0081E00E947E07DF914C
:10023400CF911F910F91FF90BF90AF909F908F909F
:0A0244007F906F905F904F90089537
:10024E004F925F926F927F928F929F92AF92BF92D8
:10025E00FF920F931F93CF93DF93F12CC1E0D0E069
:10026E0000E41FE1882E912CA12CB12C02C0C0E01D
:10027E00D1E0F394C801BE010E94470780E090E0F0
:10028E000E94E9039B01AC0160E070E080E89FE30F
:10029E000E9451082B013C01C501B4010E94EB03E1
:1002AE00A30192010E9451082B013C0120E03FEF77
:1002BE004FE757E40E94440888238CF0CC0FDD1FD3
:1002CE00CC0FDD1FCC0FDD1FC11582E0D80779F2F0
:1002DE00C11588E0D80769F6C0E0D4E0CACF1FBCCC
:1002EE00A301920160E07FEF8FE797E40E9412086E
:1002FE000E948F0470935C0160935B010E9404085E
:10030E00FEBC81E00E94C707DF91CF911F910F9134
:10031E00FF90BF90AF909F908F907F906F905F9067
:04032E004F9008954F
:1003320010C00E94200858F00E94190840F029F4C9
:100342005F3F29F00C94340851110C9428080C9446
:1003520058080E942A0668F39923B1F3552391F3B2
:10036200951B550BBB27AA2762177307840738F022
:100372009F5F5F4F220F331F441FAA1FA9F335D07F
:100382000E2E3AF0E0E832D091505040E695001C33
:10039200CAF72BD0FE2F29D0660F771F881FBB1FED
:1003A200261737074807AB07B0E809F0BB0B802DCB
:1003B200BF01FF2793585F4F3AF09E3F510578F0F7
:1003C2000C9434080C9428085F3FE4F3983ED4F36D
:1003D200869577956795B795F7959F5FC9F7880FCB
:1003E200911D9695879597F90895E1E0660F771F1D
:1003F200881FBB1F621773078407BA0720F0621BAE
:0E040200730B840BBA0BEE1F88F7E09508957C
:1004100021E030E002C0220F331F6A95E2F7483432
:1004200071F5813421F48BB3282B2BBB08958234D2
:1004300021F488B3282B28BB0895833421F485B395
:10044000282B25BB0895843421F482B3282B22BBAA
:100450000895853421F483B1282B23B90895863477
:1004600031F4E2E6F0E08081282B20830895873480
:10047000E1F5E5E6F0E08081282B208308954C34F7
:10048000A1F5813429F48BB3209528232BBB089543
:10049000823429F488B32095282328BB0895833417
:1004A00029F485B32095282325BB0895843429F4A5
:1004B00082B32095282322BB0895853429F483B183
:1004C0002095282323B90895863439F4E2E6F0E034
:1004D00080812095282320830895873431F4E5E630
:0C04E000F0E080812095282320830895FF
:1004EC0021E030E002C0220F331F6A95E2F74F344F
:1004FC0071F5813421F48AB3282B2ABB08958234F8
:10050C0021F487B3282B27BB0895833421F484B3BB
:10051C00282B24BB0895843421F481B3282B21BBD0
:10052C000895853421F482B1282B22B9089586349C
:10053C0031F4E1E6F0E08081282B208308958734A4
:10054C00E1F5E4E6F0E08081282B2083089549341E
:10055C00A1F5813429F48AB3209528232ABB089568
:10056C00823429F487B32095282327BB089583343C
:10057C0029F484B32095282324BB0895843429F4CA
:10058C0081B32095282321BB0895853429F482B1A9
:10059C002095282322B90895863439F4E1E6F0E059
:1005AC0080812095282320830895873431F4E4E654
:0C05BC00F0E08081209528232083089522
:1005C80011C00E94190838F00E94200820F039F460
:1005D8009F3F19F426F40C9458080EF4E095E7FBB5
:1005E8000C943408E92F0E942A0658F3BA176207B8
:1005F80073078407950720F079F4A6F50C9427086B
:100608000EF4E0950B2EBA2FA02D0B01B901900125
:100618000C01CA01A0011124FF27591B99F0593F69
:1006280050F4503E68F11A16F040A22F232F342FB1
:100638004427585FF3CF469537952795A795F040FF
:100648005395C9F77EF41F16BA0B620B730B840B14
:10065800BAF09150A1F0FF0FBB1F661F771F881FCC
:10066800C2F70EC0BA0F621F731F841F48F4879524
:1006780077956795B795F7959E3F08F0B0CF939516
:0E068800880F08F09927EE0F97958795089533
:1006960000E220E042E46FE484E40E94090721E0DE
:1006A60042E46FE484E40E9409076FE177E081E0A9
:1006B60090E00E94A4076AE378E081E090E00E945F
:1006C600B0074EEA56E060E875E280E090E00E94EE
:1006D60098074DEC56E060E07BE480E090E00E94F5
:1006E6008C0720EE35E04AE050E069E080E091E0DA
:1006F6000E94FD072AED37E040E050E060E087E029
:1007060091E00E94FD072FEE37E040E050E060E008
:100716008EE091E00E94FD0781E00E942E0864E5CC
:1007260071E080E00E946E066CE571E080E00E9458
:100736008E060E94A3030E94A3030E94F607FDCF24
:1007460021EE37E048E853E169E084E491E00E9455
:10075600FD0728EE37E040EA5FE06DE08DE391E0CB
:100766000E94FD0781E080935F0124C084E491E04C
:100776000E94EB04882329F065E171E080E00E9485
:100786006E068DE391E00E94EB04882329F06AE26D
:1007960071E080E00E946E068DE391E00E944908B8
:1007A600811108C084E491E00E944908811102C0C9
:1007B60010925F010E94F60780915F018111D6CFEA
:0C07C60063E471E080E00E946E0608957C
:1007D200E89409C097FB3EF49095809570956195D9
:1007E2007F4F8F4F9F4F9923A9F0F92F96E9BB278F
:1007F2009395F695879577956795B795F111F8CF0B
:10080200FAF4BB0F11F460FF1BC06F5F7F4F8F4F75
:100812009F4F16C0882311F096E911C0772321F06B
:100822009EE8872F762F05C0662371F096E8862F03
:1008320070E060E02AF09A95660F771F881FDAF75A
:0A084200880F9695879597F90895A1
:10084C0021E030E002C0220F331F6A95E2F78134B9
:10085C0021F48BB328272BBB0895823421F488B361
:10086C00282728BB0895833421F485B3282725BB7A
:10087C000895843421F482B3282722BB089585344B
:10088C0021F483B1282723B90895863431F4E2E6A4
:10089C00F0E08081282720830895873429F4E5E649
:0A08AC00F0E08081282720830895E2
:1008B600EBE9F0E0208122602083EAE9F0E0208184
:1008C60028692083EDE9F0E0208126602083DC01A1
:1008D600CB018E7F880F991FAA1FBB1F880F991FF8
:1008E600AA1FBB1F9C01AD01220F331F441F551FBA
:1008F60060E072E18AE790E00E944C06DA01C901E5
:100906000197A109B10980939900892F9A2FAB2FDE
:08091600BB27809398000895AF
:10091E000E94320688F09F5798F0B92F9927B75149
:10092E00B0F0E1F0660F771F881F991F1AF0BA9585
:10093E00C9F714C0B13091F00E942708B1E00895B4
:10094E000C942708672F782F8827B85F39F0B93FA6
:10095E00CCF3869577956795B395D9F73EF4909538
:0E096E008095709561957F4F8F4F9F4F089534
:10097C00599A2AB128692AB9E5E9F0E02081266064
:10098C002083DC01CB018E7F880F991FAA1FBB1F10
:10099C00880F991FAA1FBB1F9C01AD01220F331F8B
:1009AC00441F551F60E072E18AE790E00E944C06FC
:1009BC00DA01C9010197A109B10989B9892F9A2FC7
:0A09CC00AB2FBB2780939000089525
:1009D600CF93DF93FC01208120FF1EC0EC016181D3
:1009E600728103960E943307882319F088818460F8
:1009F6008883888182FF12C08B7F8883ED81FE8188
:100A06000995882319F098819E7F9883988193FD94
:100A160006C09E7F988303C080E001C080E0DF911E
:040A2600CF910895CF
:100A2A001F920F920FB60F9211242F933F934F9359
:100A3A005F936F937F938F939F93AF93BF93EF933C
:100A4A00FF930E940408E0915301F0915401099523
:100A5A00FF91EF91BF91AF919F918F917F916F918C
:100A6A005F914F913F912F910F900FBE0F901F9062
:020A7A001895CD
:100A7C001F920F920FB60F9211242F933F934F9307
:100A8C005F936F937F938F939F93AF93BF93EF93EA
:100A9C00FF930E94D107E0915101F0915201099509
:100AAC00FF91EF91BF91AF919F918F917F916F913A
:100ABC005F914F913F912F910F900FBE0F901F9010
:020ACC0018957B
:100ACE001F920F920FB60F9211242F933F934F93B5
:100ADE005F936F937F938F939F93AF93BF93EF9398
:100AEE00FF9380919C00E0915501F091560109957C
:100AFE00FF91EF91BF91AF919F918F917F916F91E8
:100B0E005F914F913F912F910F900FBE0F901F90BD
:020B1E00189528
:100B2000FC019081838121E0280F2383911109C06A
:100B30008083615071097283618381E080936001D9
:100B40000895981311C0818192818230910538F007
:100B500001979283818382E08093600108951082DF
:100B600083E08093600108951092600180E0089511
:100B70001F920F920FB60F9211242F933F934F9312
:100B80005F936F937F938F939F93AF93BF93EF93F5
:100B9000FF938CB1E0915701F09158010995FF91B5
:100BA000EF91BF91AF919F918F917F916F915F91E5
:100BB0004F913F912F910F900FBE0F901F9018955E
:100BC0008BE491E00E944D086AE070E08BE491E0D4
:100BD0000E949005882341F00E945508813021F43D
:100BE00060E082E40E9426046AE570E08BE491E014
:100BF0000E949005882341F00E945508813021F41D
:0C0C000060E082E40E94260480E0089579
:100C0C00990F0008550FAA0BE0E8FEEF1616170611
:100C1C00E807F907C0F012161306E407F50798F079
:100C2C00621B730B840B950B39F40A2661F0232B92
:100C3C00242B252B21F408950A2609F4A140A6950E
:080C4C008FEF811D811D089549
:100C540057FD9058440F551F59F05F3F71F0479569
:100C6400880F97FB991F61F09F3F79F0879508954E
:100C7400121613061406551FF2CF4695F1DF08C06D
:100C8400161617061806991FF1CF8695710561058A
:040C94000894089523
:100C9800A1E21A2EAA1BBB1BFD010DC0AA1FBB1F78
:100CA800EE1FFF1FA217B307E407F50720F0A21BEA
:100CB800B30BE40BF50B661F771F881F991F1A9457
:100CC80069F760957095809590959B01AC01BD0181
:040CD800CF010895AB
:100CDC00CF92DF92EF92CF936B01E82EFB018491C0
:100CEC00E7FC8081882379F0C0E00E940B08CF5F7D
:100CFC00AE2DC6018C0F911DA11DFC018491A7FD89
:100D0C0080818111F2CFCF91EF90DF90CF90089539
:100D1C00CF92DF92EF92CF936B01E82EFB0184917F
:100D2C00E7FC8081882379F0C0E00E945B07CF5FED
:100D3C00AE2DC6018C0F911DA11DFC018491A7FD48
:100D4C0080818111F2CFCF91EF90DF90CF900895F9
:100D5C008C3319F410925E0108958E3359F4E0919E
:100D6C005E01F0E0E75DFE4F10828EE091E00E94A4
:100D7C003F080895E0915E01E43140F491E09E0F4C
:0E0D8C0090935E01F0E0E75DFE4F80830895D6
:100D9A00883219F410925D010895893259F4E0916C
:100DAA005D01F0E0EB5EFE4F108287E091E00E9469
:100DBA003F080895E0915D01E43140F491E09E0F0F
:0E0DCA0090935D01F0E0EB5EFE4F8083089594
:100DD8000F931F93CF93DF936115710589F08C01F1
:100DE800EC0187E0869F9001879F300D1124020F48
:100DF800131FCE010E94EB042796C017D107C9F72D
:0A0E0800DF91CF911F910F91089523
:100E12000F931F93CF93DF93162FC42FD22F402F00
:100E2200622F8C2F0E940802412F6D2F8C2F0E945F
:0C0E32007602DF91CF911F910F9108957F
:100E3E0080914F0190915001019621F41092500132
:100E4E0010924F0180914F01909150010196909315
:080E5E00500180934F0108953B
:100E660020914F0130915001FC0140815181F901DF
:100E7600E41BF50BE617F70728F0FC013183208306
:080E860081E0089580E0089569
:100E8E00AA1BBB1B51E107C0AA1FBB1FA617B707A2
:100E9E0010F0A61BB70B881F991F5A95A9F78095BE
:080EAE009095BC01CD010895EF
:100EB600EBE9F0E0908195FFFDCF80939C00EBE994
:100EC600F0E0808186FFFDCFEBE9F0E08081806471
:040ED6008083089578
:100EDA00092E0394000C11F4882352F0BB0F40F43E
:100EEA00BF2B11F460FF04C06F5F7F4F8F4F9F4F7E
:020EFA00089559
:100EFC00882331F0EDE7F0E08081846080830895F1
:0C0F0C00EDE7F0E080818B7F808308958A
:100F1800CF93DF93EA010E94BE04D0935801C09397
:080F28005701DF91CF910895FC
:100F3000CF93DF93EA010E945B04D0935601C093E4
:080F40005501DF91CF910895E6
:100F4800CF93DF93EB010E942701D0935401C09304
:080F58005301DF91CF910895D0
:100F6000CF93DF93EB010E94B200D0935201C09364
:080F70005101DF91CF910895BA
:100F7800EC010E9460080E945F08CE010E9461088F
:060F8800CE010E945D088D
:100F8E00882321F087B7846087BF089587B78B7F4A
:040F9E0087BF08956C
:100FA2008091590190915A01909389008093880011
:020FB2000895A0
:0E0FB40065E171E080E80E946E0681E008951C
:0E0FC20066EE70E080E00E946E0681E0089509
:0E0FD00065EF70E080E00E946E0681E00895FB
:0E0FDE0069E271E080E80E948E0681E00895CD
:0E0FEC0063E070E080E091E00E94EC06089562
:0E0FFA00FC0136832583608352834183089572
:0E10080080915B0190915C019DBD8CBD0895AF
:0E1016005D9BFECF8CB95E9BFECF5E9A089567
:0E1024005058BB27AA270E94E4020C946D07C7
:0E10320000240A9416161706180609060895DB
:0E10400000240A9412161306140605060895DD
:0E104E00E894BB2766277727CB0197F9089512
:0C105C00882311F078940895F89408950A
:0C10680097F99F6780E870E060E0089551
:0A10740061E082E40E942604089562
:0A107E00FC019081916090830895B9
:0A1088000E94060608F481E00895B6
:08109200FC01808181700895CA
:08109A0021E0FC01238308950D
:0810A2000E9499010C946D07F6
:0610AA0080916001089531
:0610B0009FEF80EC0895A3
:0410B6000C94000096
:0410BA000E9471001F
:0210BE00089593
:0210C000089591
:0210C20008958F
:00000001FF
