:04000000CCEF00F051
:100008005782FACF05F0FBCF06F0D9CF07F0DACF49
:1000180008F00E0138A110D038917FEC1EF001D8FD
:10002800ADD00500FA6E01016A51FD6E6B51FE6E8E
:100038006C51FF6EFA50120038A513D038957AEC3F
:100048001EF001D80BD00500FA6E01016451FD6E57
:100058006551FE6E6651FF6EFA5012007AEC1EF082
:100068008DD038A906D0389975EC1EF075EC1EF0C5
:1000780085D038AD02D0389D81D036AB36BF7ED022
:1000880037A30FD001D87AD00500FA6E0101735159
:10009800FD6E7451FE6E7551FF6EFA500E01EA51F5
:1000A800120037A737BB6AD029A968D09351D8B4B2
:1000B8001ED093A102D093911AD093A302D0939308
:1000C80016D093A502D0939512D093A702D09397F8
:1000D8000ED093A902D093990AD093AB02D0939BE8
:1000E80006D093AD02D0939D02D093BF939F9B51AE
:1000F800D8B41ED0A8A102D0A8911AD0A8A302D023
:10010800A89316D0A8A502D0A89512D0A8A702D067
:10011800A8970ED0A8A902D0A8990AD0A8AB02D057
:10012800A89B06D0A8AD02D0A89D02D0A8BFA89FC2
:10013800A851D8B41ED0A8A102D0A8911AD0A8A3BB
:1001480002D0A89316D0A8A502D0A89512D0A8A727
:1001580002D0A8970ED0A8A902D0A8990AD0A8AB17
:1001680002D0A89B06D0A8AD02D0A89D02D0A8BFF7
:10017800A89FB551D8A4B5AB01D0B59B08C0DAFF8C
:1001880007C0D9FF06C0FBFF05C0FAFF5792110050
:040198005EEF14F012
:100E0000004D41494E3100256C5800256C75003A63
:100E1000003C003E003F005100520000000E020165
:100E2000896F000E886F000E10EC1DF009C076F27D
:100E30000AC077F2040E10EC1DF009500201816F18
:100E4000C3C009F0C4C00AF0820E0B6E020E0C6E15
:100E5000010E0D6E010E0E6E32EC1BF0C3C009F0D8
:100E6000C4C00AF0780E0B6E020E0C6E020E0D6EF0
:100E7000050E0E6E32EC1BF0C3C009F0C4C00AF0C0
:100E80008A0E0B6E020E0C6E060E0D6E070E0E6EA7
:100E900032EC1BF0C3C009F0C4C00AF07E0E0B6E2A
:100EA000020E0C6E080E0D6E090E0E6E32EC1BF06B
:100EB000C3C009F0C4C00AF0860E0B6E020E0C6EA1
:100EC0000A0E0D6E0A0E0E6E32EC1BF0C3C00EF051
:100ED000C4C00FF04E0E106E020E116E9CEC16F098
:100EE000780E096E020E0A6E51EC16F009C088F2F7
:100EF0000AC089F28A0E096E020E0A6E51EC16F0D3
:100F000009500201856F7E0E096E020E0A6E51ECC9
:100F100016F009500201926F4E0E206E020E216EE5
:100F2000925174EC19F020C08EF221C08FF222C0D1
:100F300090F223C091F2820E096E020E0A6E170E15
:100F40000B6EF8EC18F00009D8A4120002018851C9
:100F50008911D8A408D09205D8B41CD000019F51A3
:100F6000D8B4120017D09251D8B404D0040E9219FC
:100F7000D8A404D000019F51D8A40CD0020176510E
:100F8000881903E177518919D8A412008151851974
:100F9000D8A4120002018D6B580E8D25D96EDA6A25
:100FA000020EDA22DF6A8D2B130E8D65F5D7860EC1
:100FB000096E020E0A6E0F0E0B6EF8EC18F00009A7
:100FC000D8A48AD00201925186EC1DF000019F51F5
:100FD000D8A402D0010E01D0000E0916000E0A1688
:100FE0000AB612000201925186EC1DF00AA212000C
:100FF00002019205D8A459D08E518F1190119111F0
:10100000D8A411D000019F6B88EC1EF0000E0B6E6F
:10101000000E0C6E000E0D6E000E0E6E020192514F
:1010200029EC17F04DD0925110EC1DF0570E020133
:101030008E190001C56F040E02018F190001C66FE1
:10104000000E020190190001C76F000E02019119F4
:101050000001C86F0950C5191AE10A50C61917E1F5
:101060000B50C71914E10C50C819D8A410D09F69AF
:101070008EC20BF08FC20CF090C20DF091C20EF038
:101080000201925129EC17F08CEC1EF019D09F6BE5
:10109000000E0B6E000E0C6E000E0D6E000E0E6E2E
:1010A0000201925129EC17F0EFD78EC20BF08FC2DC
:1010B0000CF090C20DF091C20EF0925129EC17F095
:1010C0000201925186EC1DF00AA806D03A0E1A6E63
:1010D000020192517EEC1BF0860E096E020E0A6E22
:1010E000150E0B6EF8EC18F00009D8A42BD00201F5
:1010F000925186EC1DF00AA4120002019205D8A4B8
:1011000015D08FEC1EF00009D8B4120057EC1DF07A
:101110006BEC1EF009C00BF00AC00CF00D6A0E6AF1
:101120000201925129EC17F08CEC1EF00201925151
:1011300086EC1DF00AA806D03F0E1A6E02019251ED
:101140007EEC1BF00201925186EC1DF00AA604D041
:101150000201925167EC1DF06C0E0001BF6F020E90
:10116000C06F02019251DCEC0BF0000E10EC1DF090
:1011700009C038F00AC039F00BC03AF00CC03BF09F
:10118000780E3C6E020E3D6E040E3E6E66EC12F062
:10119000040E10EC1DF009C038F00AC039F00BC085
:1011A0003AF00CC03BF08A0E3C6E020E3D6E020E11
:1011B0003E6E66EC12F00201925186EC1DF00AAC14
:1011C0000CD0580E096E020E0A6E010E0B6E0B50FB
:1011D000D8A40E0E0C6EB9EC18F0580E096E020E63
:1011E0000A6E110E0B6E0B50D8A40E0E0C6EB9ECDD
:1011F00018F0580E096E020E0A6E820E0B6E020E69
:101200000C6EB9EC18F0580E096E020E0A6E190E2B
:101210000B6E0B50D8A40E0E0C6EB9EC18F0580ED5
:10122000096E020E0A6E780E0B6E020E0C6EB9EC91
:1012300018F0580E096E020E0A6E8A0E0B6E020E20
:101240000C6EB9EC18F0580E096E020E0A6E7E0E86
:101250000B6E020E0C6EB9EC18F0580E096E020EF1
:101260000A6E0F0E0B6E0B50D8A40E0E0C6EB9EC5E
:1012700018F0580E096E020E0A6E6C0E0B6E020EFE
:101280000C6EB9EC18F0580E096E020E0A6E130EB1
:101290000B6E0B50D8A40E0E0C6EB9EC18F00201B8
:1012A000925186EC1DF00AAA1200580E116E020E21
:1012B000126EBDEC1CF012002750800B346E2750CC
:1012C00027243B6E26BE3B803B50D8B40ED03B2833
:1012D000D8A408D0000E246E000E256E000E266ED7
:1012E000000E276E268E276A08D0000E246E000E90
:1012F000256E000E266E000E276E2B50800B341AC2
:101300002B502B243C6E2ABE3C803C50D8B40ED0CF
:101310003C28D8A408D0000E286E000E296E000EBE
:101320002A6E000E2B6E2A8E2B6A08D0000E286EB5
:10133000000E296E000E2A6E000E2B6E285029100A
:101340002A102B10D8A417D0000E246E000E256E84
:10135000000E266E000E276E800E26127F0E2712BC
:101360003450271224C024F025C025F026C026F0D2
:1013700027C027F012003B50D8A409D0000E246EDD
:10138000000E256E000E266E000E276E12003C50D9
:101390003BC02CF02D6A2C5E000E2D5A7F0E2C24A3
:1013A000356E000E2D20366E24C030F025C031F091
:1013B00026C032F027C033F0000E246E000E256EDA
:1013C000000E266E000E276E000E376E000E386E71
:1013D000000E396E000E3A6E3C6A28D03C50D8B4EC
:1013E00011D0D8903036313632363336D890243654
:1013F0002536263627363ABE2480D89037363836FA
:1014000039363A362850305C295031582A503258F3
:101410002B503358D8A009D03A8C2850305E295030
:10142000315A2A50325A2B50335A3C2A190E3C64F6
:10143000D5D73050311032103310D8B411D0378096
:101440000FD0D89024362536263627363ABE24804B
:10145000D8903736383639363A363506D8A036067B
:1014600026AEEFD73C6A3AAE17D0FF0E37142C6E7B
:10147000FF0E38142D6EFF0E39142E6E7F0E3A14A7
:101480002F6E2C502D102E102F10D8B403D0010E1B
:101490003C6E02D024B0FBD73C50D8B41FD0010E14
:1014A0002426000E25222622272227A017D024C07A
:1014B0002CF025C02DF026C02EF027C02FF02F34A1
:1014C0002F322E322D322C322CC024F02DC025F09C
:1014D0002EC026F02FC027F0354A362A36BE10D04F
:1014E000365003E13528D8A00BD0000E366E356893
:1014F000000E246E000E256E000E266E000E276E66
:1015000036BE05D0365010E13504D8B00DD0000EEF
:10151000366E000E356E000E246E000E256E000E27
:10152000266E000E276E346A35C03BF03BA002D019
:10153000268E01D0269ED8903B30276E11D71750AB
:10154000D96EDA6ADFCFF6FF0E0EF76E000EF86E78
:101550000800F550250AD8A41DD11750D96EDA6AB3
:10156000DF2A000E0101926F000E916F91C18FF082
:10157000936994691750D96EDA6ADF501C6E1CC0EB
:10158000F6FF0E0EF76E000EF86E0800F5CF21F094
:1015900007D01C2A10D0690E216E0DD0216A0BD005
:1015A0002150580AD8B4F7D7340AD8B4F2D7190A58
:1015B000D8B4F1D7F3D71CC0F6FF0E0EF76E000EAD
:1015C000F86E0800F550580AD8B430D01CC0F6FFA9
:1015D0000E0EF76E000EF86E0800F550750AD8B4BE
:1015E00025D0D3D01850D96EDA6ADF50DF2ADF2A2F
:1015F000D96EDA6ADECF19F0DDCF1AF019C01DF00E
:101600001AC01EF01F6A206A18D01850D96EDA6A04
:10161000040EDF26DF5CD96EDA6ADECF1DF0DECF86
:101620001EF0DECF1FF0DECF20F007D02150690A78
:10163000D8B4D8D7050AD8B4E8D71750D96EDA6A23
:101640001C28DF6E94D0200E216E2106930E2124DB
:10165000D96EDA6A020EDA221DC009F01EC00AF045
:101660001FC00BF020C00CF00A0E0D6E000E0E6EA7
:10167000000E0F6E000E106E1EEC1AF00950300FA7
:10168000DF6E1DC009F01EC00AF01FC00BF020C0A5
:101690000CF00A0E0D6E000E0E6E000E0F6E000E98
:1016A000106EF7EC17F009C01DF00AC01EF00BC059
:1016B0001FF00CC020F01D501E101F102010D8B4B9
:1016C00014D02150D8B411D0C0D7930E2124D96E94
:1016D000DA6A020EDA22DF50196E1950096E0A6AB0
:1016E00016C00BF079EC18F0212A200E2118D8B47E
:1016F0001200EBD7200E216E1D500F0B1B6E0A0E31
:101700001B6002D0300E01D0370E1B262106930E2F
:101710002124D96EDA6A020EDA221BC0DFFF040E22
:10172000196ED89020321F321E321D32192EF9D771
:101730001D501E101F102010D8B414D02150D8B442
:1017400011D0DAD7930E2124D96EDA6A020EDA228A
:10175000DF50196E1950096E0A6A16C00BF079EC49
:1017600018F0212A200E2118D8B41200EBD71CC083
:10177000F6FF0E0EF76E000EF86E0800F550580AD0
:10178000D8B4B8D72D0AD8B45ED71750D96EDA6A54
:10179000DF2A12001750D96EDA6ADFCFF6FF0E0E7D
:1017A000F76E000EF86E0800F550096E0A6A16C052
:1017B0000BF079EC18F0E9D74D6E4D50110DB30ECA
:1017C000F324D96E020EF420DA6EDECFC1F0DDCF45
:1017D000C2F00001C1A518D04D50110DB50EF32473
:1017E000D96E020EF420DA6EDECF38F0DECF39F09B
:1017F000DECF3AF0DECF3BF0BFC03CF0C0C03DF0E2
:10180000020E3E6E66EC12F04D50110DB30EF32435
:10181000D96E020EF420DA6EDECFC1F0DDCFC2F059
:101820000001C1A718D04D50110DB50EF324D96E8B
:10183000020EF420DA6EDECF38F0DECF39F0DECFE4
:101840003AF0DECF3BF0BFC03CF0C0C03DF0040E2C
:101850003E6E66EC12F04D50110DB30EF324D96EAE
:10186000020EF420DA6EDECFC1F0DDCFC2F000014F
:10187000C1A918D04D50110DB50EF324D96E020E2A
:10188000F420DA6EDECF38F0DECF39F0DECF3AF07A
:10189000DECF3BF0BFC03CF0C0C03DF0010E3E6E5D
:1018A000FBEC11F04D50110DB30EF324D96E020E66
:1018B000F420DA6EDECFC1F0DDCFC2F00001C1ABA3
:1018C00018D04D50110DB50EF324D96E020EF42030
:1018D000DA6EDECF38F0DECF39F0DECF3AF0DECF91
:1018E0003BF0BFC03CF0C0C03DF0020E3E6EFBECD2
:1018F00011F04D50110DB30EF324D96E020EF420E9
:10190000DA6EDECFC1F0DDCFC2F00001C1AD18D07C
:101910004D50110DB50EF324D96E020EF420DA6E7F
:10192000DECF38F0DECF39F0DECF3AF0DECF3BF05D
:10193000BFC03CF0C0C03DF0030E3E6EFBEC11F0AA
:101940004D50110DB30EF324D96E020EF420DA6E51
:10195000DECFC1F0DDCFC2F00001C1AF18D04D50D5
:10196000110DB50EF324D96E020EF420DA6EDECF1F
:1019700038F0DECF39F0DECF3AF0DECF3BF0BFC03B
:101980003CF0C0C03DF0040E3E6EFBEC11F04D503B
:10199000110DB30EF324D96E020EF420DA6EDECFF1
:1019A000C1F0DDCFC2F00001C2A112004D50110DF7
:1019B000B50EF324D96E020EF420DA6EDECF38F0C5
:1019C000DECF39F0DECF3AF0DECF3BF0BFC03CF0E7
:1019D000C0C03DF0050E3E6EFBEC11F01200400E53
:1019E000A7EC1CF04F0E116E420E126E060E136E17
:1019F000480E146E440E77EC1DF04F0E116E420E21
:101A0000126E070E136E4C0E146E440E77EC1DF022
:101A10004F0E116E460E126E010E136E4C0E146EAA
:101A2000440E77EC1DF0490E116E440E126E000E3E
:101A3000136E4C0E146E440E77EC1DF0490E116EB1
:101A4000480E126E020E136E4C0E146E440E77EC9E
:101A50001DF04F0E116E450E126E050E136E4C0EDC
:101A6000146E440E77EC1DF0DEEC0DF0840E126E59
:101A70000F0E136E7C0E146E0F0E156E8C0E166EFE
:101A80000F0E176E000E186E880E196E0F0E1A6E5E
:101A9000800E1B6E0F0E1C6E900E1D6E0F0E1E6EB6
:101AA000020E1F6E84EC1AF0000E096E010E0A6E13
:101AB000440E35EC10F0020E096E010E0A6E480E4F
:101AC00035EC10F0000E466E010E456EDE0E476ED0
:101AD0003B0E486E000E496EC8EC1DF0000E466EBF
:101AE000010E456E400E476E3C0E486E000E496E6C
:101AF000AEEC1DF0800E2D6E250E2E6E000E2F6E9C
:101B0000000E306EA20E316E340E326E000E336E49
:101B100094EC1DF0950E096E010E0A6E090E0B6E07
:101B2000000E0D6E640E0C6E5E0E0E6E330E0F6E9A
:101B3000000E106EE9EC1BF09D0E096E010E0A6E90
:101B4000000E0B6E000E0D6E000E0C6E840E0E6EEF
:101B50003C0E0F6E000E106EE9EC1BF0A50E096E28
:101B6000010E0A6E000E0B6E000E0D6E000E0C6E56
:101B70002E0E0E6E3D0E0F6E000E106EE9EC1BF079
:101B8000AD0E096E010E0A6E090E0B6E000E0D6E83
:101B9000000E0C6E080E0E6E3D0E0F6E000E106ED7
:101BA000E9EC1BF0330E096E020E0A6E5CEC1EF0BF
:101BB000010E08EC1EF0FCEC1DF0FDD7000E096EC6
:101BC000000E0A6E000E0B6E2E0E0D6E090E0C6EC0
:101BD000000E0E6E000E0F6E000E106E000E116ED7
:101BE000FF0E126EFF0E136E000E146E000E156EB9
:101BF000000E166E000E176E000E186E000E196E97
:101C0000000E05EC16F0000E096E000E0A6E000EB6
:101C10000B6E260E0D6E090E0C6E000E0E6E000E73
:101C20000F6E000E106E000E116EFF0E126EFF0E84
:101C3000136E000E146E000E156E000E166E000E62
:101C4000176E000E186E000E196E010E05EC16F0E0
:101C5000000E096E000E0A6E000E0B6E2E0E0D6E3B
:101C6000090E0C6E000E0E6E000E0F6E000E106E42
:101C7000000E116EFF0E126EFF0E136E000E146E2C
:101C8000000E156E000E166E000E176E000E186E0A
:101C9000000E196E020E05EC16F0000E096E000E15
:101CA0000A6E000E0B6E240E0D6E090E0C6E010EE8
:101CB0000E6E000E0F6E000E106E000E116EFF0EF7
:101CC000126EFF0E136E000E146E000E156E000ED7
:101CD000166E000E176E000E186E000E196E030EB3
:101CE00005EC16F0000E096E000E0A6E000E0B6E6B
:101CF0002E0E0D6E050E0C6E000E0E6E000E0F6E8B
:101D0000000E106E000E116EFF0E126E000E136E9E
:101D1000000E146E000E156E000E166E000E176E7D
:101D2000000E186E000E196E040E05EC16F08C0EE7
:101D3000096E3A0E0A6E000E0B6E340E0D6E820E98
:101D40000C6E000E0E6E000E0F6E000E106E000E6A
:101D5000116EFF0E126EFF0E136E000E146E000E4B
:101D6000156E000E166E000E176E000E186E000E29
:101D7000196E060E05EC16F0460E226E370E236E17
:101D8000000E246EF80E256E390E266E000E276E9C
:101D900062EC15F01200010E416EC96AC982010E93
:101DA000CC6E426A4150040DF3CF3FF0F4CF40F0C7
:101DB0003FC00DF040C00EF0000E0EBEFF0E0F6EC5
:101DC000106E000E096EFA0E0A6E000E0B6E000EFB
:101DD0000C6EF7EC17F009C016F00AC017F00BC034
:101DE00018F00CC019F0000EE4EC10F016C053F01F
:101DF00017C054F018C055F019C056F0000E246EEC
:101E0000000E256E800E266E3F0E276E53C028F002
:101E100054C029F055C02AF056C02BF05CEC09F0F4
:101E200024C053F025C054F026C055F027C056F00A
:101E30003DC016F03EC017F0186A196A000EE4ECB7
:101E400010F016C024F017C025F018C026F019C0F5
:101E500027F053C028F054C029F055C02AF056C0CE
:101E60002BF05CEC09F024C053F025C054F026C0E0
:101E700055F027C056F053C009F054C00AF055C0C1
:101E80000BF056C00CF0000E0D6E000E0E6E800EA4
:101E90000F6E470E106ED0EC12F0D8A00AD0020ED2
:101EA0004102F350416E100EC926422A030E4264CD
:101EB00079D753C009F054C00AF055C00BF056C092
:101EC0000CF001EC14F009C043F00AC044F0435098
:101ED0000008436E4450D8A0E82A0008446E0E0162
:101EE000389543C0C7FF44C0C8FF43C071F044C029
:101EF00072F0010E2CEC1EF0010EBBEC1DF0120076
:101F0000010E416ECF6ACF82010ED26E426A4150FD
:101F1000040DF3CF3FF0F4CF40F03FC00DF040C0D0
:101F20000EF0000E0EBEFF0E0F6E106E000E096E4C
:101F3000FA0E0A6E000E0B6E000E0C6EF7EC17F028
:101F400009C016F00AC017F00BC018F00CC019F049
:101F5000000EE4EC10F016C053F017C054F018C097
:101F600055F019C056F0000E246E000E256E800E3E
:101F7000266E3F0E276E53C028F054C029F055C07E
:101F80002AF056C02BF05CEC09F024C053F025C0B9
:101F900054F026C055F027C056F03DC016F03EC0A4
:101FA00017F0186A196A000EE4EC10F016C024F05D
:101FB00017C025F018C026F019C027F053C028F02C
:101FC00054C029F055C02AF056C02BF05CEC09F043
:101FD00024C053F025C054F026C055F027C056F059
:101FE00053C009F054C00AF055C00BF056C00CF0B5
:101FF000000E0D6E000E0E6E800E0F6E470E106EF0
:10200000D0EC12F0D8A00AD0020E4102F350416E7B
:10201000100ECF26422A030E426479D753C009F02E
:1020200054C00AF055C00BF056C00CF001EC14F08F
:1020300009C043F00AC044F043500008436E4450C6
:10204000D8A0E82A0008446E0E01389143C0CDFFA5
:1020500044C0CEFF43C073F044C074F0010E37ECAF
:102060001EF0010ED5EC1DF012000D6E09C00BF034
:10207000010E0C6E0B2A02D0D8900C360B2EFCD71A
:102080000C500E6E410E0D18D8A410D00A04D8A41E
:1020900004D00E0191510E1007D00A50D8A491D04F
:1020A0000E50FF0A0E019115916F8BD0420E0D1844
:1020B000D8A410D00A04D8A404D00E0199510E104F
:1020C00007D00A50D8A47DD00E50FF0A0E019915F2
:1020D000996F77D0430E0D18D8A410D00A04D8A455
:1020E00004D00E01A1510E1007D00A50D8A469D017
:1020F0000E50FF0A0E01A115A16F63D0440E0D18FA
:10210000D8A410D00A04D8A404D00E01A6510E10F1
:1021100007D00A50D8A455D00E50FF0A0E01A615BC
:10212000A66F4FD0450E0D18D8A410D00A04D8A41D
:1021300004D00E01AE510E1007D00A50D8A441D0E1
:102140000E50FF0A0E01AE15AE6F3BD0460E0D18B5
:10215000D8A410D00A04D8A404D00E01B3510E1094
:1021600007D00A50D8A42DD00E50FF0A0E01B31587
:10217000B36F27D0470E0D18D8A410D00A04D8A4E6
:1021800004D00E01BB510E1007D00A50D8A419D0AC
:102190000E50FF0A0E01BB15BB6F13D0480E0D1871
:1021A000D8A40FD00A04D8A404D00E01C0510E1038
:1021B00007D00A50D8A405D00E50FF0A0E01C01552
:1021C000C06F0E01298912001E6E1E50D8A419AED0
:1021D0001AD016C01AF017C01BF018C01CF019C096
:1021E0001DF01A1E1B1E1C1E1D1E1A2A000E1B226D
:1021F0001C221D221AC020F01BC021F01CC022F09E
:102200001DC023F008D016C020F017C021F018C060
:1022100022F019C023F01650171018101910D8A466
:1022200009D0000E166E000E176E000E186E000E0E
:10223000196E1200960E1F6E06D01F2AD8902332F8
:10224000223221322032000E20141A6E000E211488
:102250001B6E000E22141C6EFE0E23141D6E1A50EF
:102260001B101C101D10D8B40DD0E7D71F2A010E6B
:102270002026000E212222222322D890233222322D
:1022800021322032000E20141A6E000E21141B6E13
:10229000000E22141C6EFF0E23141D6E1A501B100C
:1022A0001C101D10D8B407D0E1D71F06D8902036D7
:1022B00021362236233622BE03D0020E1F60F5D708
:1022C0001FA0229ED8901F321FC01AF01B6A1C6AE2
:1022D0001D6A1AC01DF01C6A1B6A1A6A1A50201265
:1022E0001B5021121C5022121D5023121E50D8A424
:1022F00019AE01D0238E20C016F021C017F022C0E5
:1023000018F023C019F0120009C0D9FF0AC0DAFF83
:10231000DF500F6E20EE03F00950D9260A50DA2262
:10232000DF50106E20EE03F00950D9260A50DA2251
:1023300010EE03F00950E1260A50E222E7500D6E3C
:102340000D28DF6E0F50D8A420D009C0D9FF0AC0D5
:10235000DAFFDF50102409C0D9FF0AC0DAFFDF6EB0
:10236000FF0E0B240D6EFF0E0C200E6E20EE01F002
:102370000950D9260A50DA220DC0DEFF0EC0DDFF5B
:10238000010E00019E6F010E120010500F18D8A40C
:102390002ED020EE01F00950D9260A50DA22010E83
:1023A000DB5004E1020EDE5CD8A00ED020EE01F07E
:1023B0000950D9260A50DA22DE06000EDD5A020E36
:1023C00000019E6F020E120009C0D9FF0AC0DAFF99
:1023D000DF500D6E1050FF0A0D1409C0D9FF0AC05E
:1023E000DAFFDF6E030E00019E6F030E1200000184
:1023F0009E6B000E1200B10E266E0B0E276E38C0BB
:1024000028F039C029F03AC02AF03BC02BF074EC18
:102410001CF00001BD6B01D0BD2BBD51B10FD96EB9
:10242000DA6ADF50D8A4F8D73E50BD5DD8A01BD0E3
:10243000BE6B0DD0BE51B10FD96EDA6ABE513C24CD
:10244000E16E000E3D20E26EDFCFE7FFBE2BBD51F7
:10245000BE5DD8A0EFD7BD513C24D96E000E3D2003
:10246000DA6EDF6A1200BD513E5CBC6FBE6B09D0F4
:10247000BE513C24D96E000E3D20DA6E300EDF6E68
:10248000BE2BBC51BE5DD8A0F3D7BE6B13D0BE51DE
:10249000B10FD96EDA6ABC513C243F6E000E3D206C
:1024A000406EBE513F24E16E000E4020E26EDFCF51
:1024B000E7FFBE2BBD51BE5DD8A0E9D73E503C24FE
:1024C000D96E000E3D20DA6EDF6A1200410E266ED4
:1024D000070E276E38C028F039C029F03AC02AF01C
:1024E0003BC02BF074EC1CF04B6A01D04B2A4B50D4
:1024F000410FD96EDA6ADF50D8A4F8D73E504B5C52
:10250000D8A01BD04C6A0DD04C50410FD96EDA6A5E
:102510004C503C24E16E000E3D20E26EDFCFE7FF21
:102520004C2A4B504C5CD8A0EFD74B503C24D96E72
:10253000000E3D20DA6EDF6A12004B503E5C4A6EA0
:102540004C6A09D04C503C24D96E000E3D20DA6E06
:10255000300EDF6E4C2A4A504C5CD8A0F3D74C6A40
:1025600013D04C50410FD96EDA6A4A503C243F6E6A
:10257000000E3D20406E4C503F24E16E000E402086
:10258000E26EDFCFE7FF4C2A4B504C5CD8A0E9D776
:102590003E503C24D96E000E3D20DA6EDF6A1200F8
:1025A000000E0914116E000E0A14126E800E0B1428
:1025B000136E7F0E0C14146E1150121013101410A1
:1025C000D8A408D0000E096E000E0A6E000E0B6E25
:1025D000000E0C6E000E0D14116E000E0E14126E15
:1025E000800E0F14136E7F0E1014146E1150121003
:1025F00013101410D8A408D0000E0D6E000E0E6E2D
:10260000000E0F6E000E106E0CAE09D0096C0A1E83
:10261000D8B00A2A0B1ED8B00B2A800E0C5610AE6A
:1026200009D00D6C0E1ED8B00E2A0F1ED8B00F2A7E
:10263000800E1056000E091A000E0A1A000E0B1A10
:10264000800E0C1A000E0D1A000E0E1A000E0F1A34
:10265000800E101A0D50095C0E500A580F500B587E
:1026600010500C58D8B002D0D8901200D880120068
:1026700020EE19F0070EDE6AE806FDE21150121096
:10268000131014101510161017101810D8B446D0C7
:10269000010E216E0AD0D890113612361336143638
:1026A0001536163617361836212A18AEF4D7D890B4
:1026B00019361A361B361C361D361E361F36203686
:1026C0001150095C12500A5813500B5814500C58F2
:1026D00015500D5816500E5817500F5818501058C6
:1026E000D8A011D01150095E12500A5A13500B5A3B
:1026F00014500C5A15500D5A16500E5A17500F5AA6
:102700001850105A1980D8901832173216321532D4
:102710001432133212321132212EC9D719C009F0E6
:102720001AC00AF01BC00BF01CC00CF01DC00DF04D
:102730001EC00EF01FC00FF020C010F01200C9C064
:10274000D9FFCAC0DAFF0001DFA01200030EC925BD
:10275000096E000ECA210A6E20EE01F0C951D92679
:10276000CA51DA22DECF0BF0DDCF0CF0C8EC1BF043
:102770000009D8B40BD0C9C0D9FFCAC0DAFFDF50F6
:102780000409C9C0D9FFCAC0DAFFDF6EC9C0D9FFCA
:10279000CAC0DAFF0001DFA41200C9C0D9FFCAC055
:1027A000DAFFDF50FB0BC9C0D9FFCAC0DAFFDF6E0A
:1027B00020EE05F0C951D926CA51DA2201D80AD033
:1027C0000500FA6EDE50FD6EDE50FE6EDE50FF6ECE
:1027D000FA5012000001CB6FC9C0D9FFCAC0DAFF9E
:1027E000DFB61200CB51D8B41200C9C0D9FFCAC09D
:1027F000DAFFDF50FE0BC9C0D9FFCAC0DAFFDF6EB7
:1028000012000B340C34126E1250D8A409D0000EF2
:10281000096E000E0A6E000E0B6E000E0C6E12009A
:1028200009C00DF00AC00EF00BC00FF00CC010F084
:10283000200E05D0D89010320F320E320D32E82E15
:10284000F9D70D50116E0B8EFF0E0916FF0E0A16EA
:10285000FF0E0B16000E0C16960E125E12AE0DD069
:102860001250800A970FD8A0D2D7D8900C320B32D2
:102870000A320932123EF9D70DD01F0E126407D06A
:10288000C6D7D89009360A360B360C3612061250C7
:10289000D8A4F7D71150D8B408D00C1E0B1E0A1EAE
:1028A000096C000E0A220B220C2209C009F00AC092
:1028B0000AF00BC00BF00CC00CF01200160EF66EF6
:1028C000360EF76E000EF86E02EE00F010EE4EF0CF
:1028D0000900F5CFEEFFE550E150FAE11C0EF66E6F
:1028E000390EF76E000EF86E01EECDF010EE32F0FC
:1028F0000900F5CFEEFFE550E150FAE12A0EF66E41
:102900003D0EF76E000EF86E00EED4F010EE04F0FF
:102910000900F5CFEEFFE550E150FAE102EEB3F029
:1029200011EEA9F0EE6AE550E150FCE1E250FAE167
:1029300002EE93F0200EEE6AE806FDE101EE00F0F3
:10294000CD0EEE6AE806FDE100EE60F0510EEE6A93
:10295000E806FDE100EE4EF0090EEE6AE806FDE144
:10296000579057920001EFEF0CF00001A351D8B43B
:102970001200A251D8A41CD0010EA26FAD0E096E98
:1029800054EC1EF08BC0D9FF8CC0DAFFDE04D8A453
:1029900008D0010E096E480E0A6E460EB3EC17F011
:1029A00007D0010E096E4C0E0A6E460EB3EC17F0FE
:1029B000AD0E096E0A6A000120EE01F08B51D92696
:1029C0008C51DA22DECF0BF0DDCF0CF0C8EC1BF01F
:1029D0000009D8B412000001A26B030E8B27000E71
:1029E0008C238BC0D9FF8CC0DAFFDF50D8A4120033
:1029F00020EE01F08B51D9268C51DA22DE50DE1008
:102A0000D8A41200010E096E4C0E0A6E460EB3ECED
:102A100017F00001A36B1200030E096E450E37EC90
:102A200019F00E01136F100E796FEE9DEF9D400EA1
:102A3000256E420E266E0F0E276E000E286E000EBB
:102A4000296E000E2A6E000E2B6E000E2C6E25C015
:102A500009F026C00AF027C00BF028C00CF029C0EE
:102A60000DF02AC00EF02BC00FF02CC010F022C0C9
:102A700011F023C012F0136A146A156A166A176AF5
:102A8000186A38EC13F009C025F00AC026F00BC014
:102A900027F00CC028F00DC029F00EC02AF00FC09E
:102AA0002BF010C02CF025C024F0FF0E242624505B
:102AB0000E01EC6FED6BEF8BEE89EE8F010EA1EC4A
:102AC0001DF0120022C009F023C00AF024C00BF050
:102AD00025C00CF026C00DF027C00EF0E2EC1DF072
:102AE0001A0E34EC1DF0CD0E1C1806E1AB0E1D18AD
:102AF0001E101F10D8B421D02A6A2A50110DB30E0F
:102B0000F324D96E020EF420DA6EDECF28F0DDCF8A
:102B100029F029A603D02A5067EC1DF02A2A180EA6
:102B20002A64EBD7CD0E1C6EAB0E1D6E000E1E6E12
:102B3000000E1F6E1A0E22EC1DF02B6A2B50110D89
:102B4000B30EF324D96E020EF420DA6EDECF28F035
:102B5000DDCF29F029A603D02B50E7EC1CF02B2A5F
:102B6000180E2B64EBD71200000E156E000E166EB9
:102B7000000E176E000E186E000E1B6E000E1A6E01
:102B80000C501A24096E0D501B200A6E01D80BD070
:102B90000500FA6E01017C51FD6E7D51FE6E7E5185
:102BA000FF6EFA501200196E1AC010F0D89010364D
:102BB000D8901036D890103619C011F0126A136AE6
:102BC000146A102A05D0D8901136123613361436EE
:102BD000102EF9D711501512125016121350171249
:102BE000145018121A4A1B2A1BBECAD71B5004E1E4
:102BF000040E1A5CD8A0C4D715C00CF016C00DF096
:102C000017C00EF018C00FF012001A6E1A50110DF6
:102C1000C10EF324D96E020EF420DA6E09C0DEFF75
:102C20000AC0DEFF0BC0DEFF1A50110DB30EF324F5
:102C3000D96E020EF420DA6E0CC0DEFF0DC0DDFF8F
:102C40001A50110DB50EF324D96E020EF420DA6E6F
:102C50000EC0DEFF0FC0DEFF10C0DEFF11C0DEFFC2
:102C60001A50110DB90EF324D96E020EF420DA6E4B
:102C700012C0DEFF13C0DEFF14C0DEFF15C0DEFF92
:102C80001A50110DBD0EF324D96E020EF420DA6E27
:102C900016C0DEFF17C0DEFF18C0DEFF19C0DEFF62
:102CA0001200000E116E000E126E000E136E000E5A
:102CB000146E2ED0040ED8901136123613361436F8
:102CC000E82EF9D72F0E156405D03A0E156002D004
:102CD000D00E0FD0400E156405D0470E156002D0FF
:102CE000C90E07D0600E156413D0670E156010D0A2
:102CF000A90E15240D6E0E6AFF0E0E220F6A106AC1
:102D00000D5011120E5012120F50131210501412B7
:102D100009C0D9FF0AC0DAFF094A0A2ADF50156E36
:102D20001550D8A4C7D711C009F012C00AF013C0BB
:102D30000BF014C00CF012000EC009F00FC00AF026
:102D4000000E0C6E3A0E0B6E59EC1CF009C014F01C
:102D50000AC015F00EC009F00FC00AF0000E0C6E8C
:102D60003E0E0B6E59EC1CF009C012F00AC013F0B5
:102D700014501510D8B421D012501310D8B41DD04F
:102D80001250145C13501558D8B017D0144A152A95
:102D90000ED014C0D9FF15C0DAFF10C0E1FF11C07A
:102DA000E2FFDFCFE7FF144A152A104A112A12501A
:102DB000145C13501558D8A0ECD710C0D9FF11C01F
:102DC000DAFFDF6A1200000E1B6E000E1C6E000E92
:102DD0001D6E000E29D02F0E1F6427D03A0E1F60E3
:102DE00024D0D00E1F24196E1A6AFF0E1A221BC09F
:102DF00009F01CC00AF01DC00BF01EC00CF00A0E3A
:102E00000D6E000E0E6E000E0F6E000E106EB5EC05
:102E10001AF0195009241B6E1A500A201C6E000E5D
:102E20000B201D6E000E0C201E6E15C0D9FF16C0A3
:102E3000DAFF154A162ADF501F6E1F50D8A4CBD7D1
:102E40001BC015F01CC016F01DC017F01EC018F0F6
:102E50001200176E1750110DB50EF324D96E020E25
:102E6000F420DA6E1750110DB90EF324E16E020E44
:102E7000F420E26EDE50E65CDE50E658DE50E658A6
:102E8000DE50E658D8A012001750110DBD0EF324E5
:102E9000D96E020EF420DA6E1750110DB50EF32420
:102EA000E16E020EF420E26EDE50E65CDE50E65883
:102EB000DE50E658DE50E658D8A012001750110D2B
:102EC000B50EF324D96E020EF420DA6E0BC0DEFFCD
:102ED0000CC0DEFF0DC0DEFF0EC0DEFF12000D6E67
:102EE00009C00BF0010E0C6E0B2A02D0D8900C36E4
:102EF0000B2EFCD70C500E6E400E0D240F6E106A78
:102F00000F0E10224F0E0A18D8B407D06F0E0A18F1
:102F1000D8B403D00A50D8A40FD00FC0D9FF10C026
:102F2000DAFFDF500B6E0E50FF0A0B140FC0D9FFF3
:102F300010C0DAFFDF6E1200490E0A18D8B407D0AD
:102F4000690E0A18D8B403D00A04D8A412000FC01E
:102F5000D9FF10C0DAFFDF500E100FC0D9FF10C02C
:102F6000DAFFDF6E12000D6E09C00BF0010E0C6E61
:102F70000B2A02D0D8900C360B2EFCD70C500E6EBC
:102F8000380E0D240F6E106A0F0E10224C0E0A1808
:102F9000D8B407D06C0E0A18D8B403D00A50D8A4FD
:102FA0000FD00FC0D9FF10C0DAFFDF500B6E0E50EC
:102FB000FF0A0B140FC0D9FF10C0DAFFDF6E12003A
:102FC000480E0A18D8B407D0680E0A18D8B403D02F
:102FD0000A04D8A412000FC0D9FF10C0DAFFDF50D6
:102FE0000E100FC0D9FF10C0DAFFDF6E1200000E06
:102FF000126E000E136E000E146E000E156E0D5044
:103000000E100F101010D8B42AD0010E116E06D079
:10301000D8900D360E360F361036112A10AEF8D76E
:10302000D89012361336143615360D50095C0E50F2
:103030000A580F500B5810500C58D8A009D00D50FA
:10304000095E0E500A5A0F500B5A10500C5A12803B
:10305000D89010320F320E320D32112EE1D712C03D
:1030600009F013C00AF014C00BF015C00CF01200E8
:10307000000E1B6E000E1A6E1AC014F0D890143693
:10308000D8901436D8901436145010C015F011C0D2
:1030900016F012C017F013C018F0E82A05D0D89027
:1030A0001832173216321532E82EF9D71550196E2C
:1030B0000E501A24096E0F501B200A6E19C00BF017
:1030C00001D80BD00500FA6E01017F51FD6E8051D1
:1030D000FE6E8151FF6EFA5012001A4A1B2A1BBE67
:1030E000CBD71B5005E1040E1A5CD8B01200C4D730
:1030F00012000B50D8B403D00B50D8A404D0095000
:1031000099EC1EF012000B50D96EDA6A090ED9261E
:10311000DE50DE10D8B414D00B50D96EDA6A090E26
:10312000D9260B50E16EE26A020EE126DE50E65C23
:10313000E650800A106EDE50800A1058D8B0120097
:103140000B50D96EDA6A020ED926DF500C6E0B5086
:10315000D96EDA6ADF500C24D96EDA6A09C0DFFF53
:103160000B50D96EDA6A020ED926DE2A000EDD2255
:10317000120002D0094A0A2A09C0D9FF0AC0DAFFA0
:10318000DF50D8B41BD0F6D70BC0F6FF0CC0F7FF4A
:10319000000EF86E09C0D9FF0AC0DAFF0D0EF76401
:1031A00003D00800F55005D0F6CFE9FFF7CFEAFFCE
:1031B000EF50DF6E0B4A0C2A094A0A2A0BC0F6FFB1
:1031C0000CC0F7FF000EF86E0D0EF76403D0080078
:1031D000F55005D0F6CFE9FFF7CFEAFFEF50000931
:1031E000D8A4D2D709C0D9FF0AC0DAFFDF6A12001B
:1031F00016D009C0D9FF0AC0DAFFDF500C6E0BC031
:10320000F6FF0E0EF76E000EF86E0800F5500C1863
:10321000D8B402D0010E1200094A0A2A0B2A09C0AA
:10322000D9FF0AC0DAFFDF50D8B40BD00BC0F6FFCD
:103230000E0EF76E000EF86E0800F5500009D8A4C7
:10324000D8D7010E0D6E09C0D9FF0AC0DAFFDF50D2
:10325000D8A40BD00BC0F6FF0E0EF76E000EF86E62
:103260000800F5500009D8B40D6A0D5012000B6E1D
:10327000410E0B18D8A402D00A6A2DD0420E0B18AA
:10328000D8A402D0010E23D0430E0B18D8A402D02C
:10329000020E1DD0440E0B18D8A402D0030E17D076
:1032A000450E0B18D8A402D0040E11D0460E0B18F0
:1032B000D8A402D0050E0BD0470E0B18D8A402D00C
:1032C000060E05D0480E0B18D8A403D0070E0A6EC0
:1032D00002D0000E12000A38E842F80B0A6E0A50BB
:1032E00009240A6E0A501200266E2650110DB30EE4
:1032F000F324D96E020EF420DA6EDECF24F0DDCF97
:1033000025F024A00FD020C009F021C00AF051EC14
:1033100016F009C020F00AC021F00BC022F00CC04A
:1033200023F012002650110DB30EF324D96E020EB5
:10333000F420DA6EDECF24F0DDCF25F024A21200D7
:1033400020C015F021C016F0E3EC16F015C020F0F7
:1033500016C021F017C022F018C023F01200C90EC9
:10336000096E010E0A6E4BEC1EF0C90E096E010EBD
:103370000A6E000E0C6E010E0B6E84EC11F000094B
:10338000D8B40CD092EC1EF0E806D8A407D0060EF4
:10339000096E480E0A6E420EB3EC17F0C90E096EA4
:1033A000010E0A6E000E0C6E090E0B6E84EC11F00D
:1033B0000009D8B40CD092EC1EF0E806D8A407D0CF
:1033C000060E096E4C0E0A6E420EB3EC17F0000E9C
:1033D0001200A5C009F0A6C00AF0A7C00BF0A8C053
:1033E0000CF02D0E0D6E7F0E0E6E950E0F6E4C0EA8
:1033F000106EB5EC1AF0010E09240001A56F000E45
:103400000A20A66F000E0B20A76F000E0C20A86FDD
:10341000A5C017F0A6C018F0A7C019F0A8C01AF0F0
:10342000120E05D0D8901A32193218321732E82EFF
:10343000F9D717C015F018C016F012000D500E1075
:103440000F101010D8B424D0010E116E06D0D890F1
:103450000D360E360F361036112A10AEF8D70D5035
:10346000095C0E500A580F500B5810500C58D8A039
:1034700008D00D50095E0E500A5A0F500B5A1050CA
:103480000C5AD89010320F320E320D32112EE7D76F
:1034900009C009F00AC00AF00BC00BF00CC00CF018
:1034A0001200036E03C004F03C0E0418D8A403D02D
:1034B0000001A06B1BD03E0E0418D8A417D0B50E87
:1034C0000001A025D96EDA6A010EDA2204C0DFFFFE
:1034D000A02BB50EA025D96EDA6A010EDA22DF6ABA
:1034E0009D0E016E010E026E14EC1EF0140E000112
:1034F000A0611200B50EA025D96EDA6A010EDA229B
:1035000004C0DFFFA02B120012C016F113C017F188
:1035100014C014F115C015F116C018F117C019F137
:1035200018C01AF119C01DF11AC01EF11BC01BF101
:103530001CC01CF11DC01FF11EC020F11FC021F1D5
:10354000010E106E010E06EC1CF0010E106E000E46
:1035500006EC1CF0000E106E010E22EC1CF0000EAA
:10356000106E000E22EC1CF01200000E116E000E08
:10357000126E000E136E000E146E09A008D00D50CE
:1035800011260E5012220F50132210501422D890E0
:103590000D360E360F361036D8900C320B320A32FA
:1035A000093209500A100B100C10D8A4E6D711C02C
:1035B00009F012C00AF013C00BF014C00CF0120096
:1035C00009C0D9FF0AC0DAFFDF500F6E0C50D8B423
:1035D0000DD00BC00DF0010E0E6E0D2A02D0D8904A
:1035E0000E360D2EFCD70E500F100DD00BC00DF067
:1035F000010E0E6E0D2A02D0D8900E360D2EFCD77D
:103600000E50FF0A0F140F6E09C0D9FF0AC0DAFF6F
:103610000FC0DFFF120001140000140001140000AD
:10362000140001140000140001140000140001141F
:103630000000140001140000140001140000140024
:1036400001140000140000000001500000320001CD
:1036500050000032000150000032000150000032E2
:10366000000000000F6A10D00D500924D96E000E22
:103670000A20DA6E0F500B24E16E000E0C20E26E71
:10368000DFCFE7FF0D2A0F2A0D500E5CD8A009D01E
:103690000D500924D96E000E0A20DA6EDF50D8A42E
:1036A000E3D70F500B24D96E000E0C20DA6EDF6AC0
:1036B0001200000E0001D36F000ED26F18D0D2C0DE
:1036C000D0F0D3C0D1F0D890D037D137D890D03700
:1036D000D137D890D037D137D051CC25C96FD151FF
:1036E000CD21CA6F9FEC13F00001D24BD32BCE51EA
:1036F000D25DCF51D359D8B01200E1D71E6E1E5003
:10370000110DC10EF324D96E020EF420DA6EDE50D4
:10371000DE10DE10D8B412001E50110DC10EF324BD
:10372000D96E020EF420DA6E01D812000500FA6E8E
:10373000DE50FD6EDE50FE6EDE50FF6EFA501AC097
:1037400018F01E501200000EF2BE010E0D6E0A504F
:10375000030B756E09C074FF0BC076FF3F0E771622
:103760007784F29E550E786EAA0E786E7782680E78
:103770000C6EE40EE82EFED70C2EFCD700D077B2EC
:10378000FED777920DB002D0F29E01D0F28E1200D9
:1037900009C0D9FF0AC0DAFFDECF0DF0DDCF0EF091
:1037A0000D500001895D0F6E0E508A59106E0B503E
:1037B0000F5C0C501058D8A00AD009C0D9FF0AC01D
:1037C000DAFF89C0DEFF8AC0DDFF010E1200000EA5
:1037D000120020EE05F00950D9260A50DA220EC058
:1037E000DEFF0FC0DEFF10C0DEFF09C0D9FF0AC038
:1037F000DAFF0BC0DFFF20EE01F00950D9260A5096
:10380000DA220CC0DEFF0DC0DDFF1200116E1104C4
:10381000D8A40AD016C109F017C10AF01AC10BF0DA
:1038200010C00CF0E0EC1AF01150D8A412001DC129
:1038300009F01EC10AF021C10BF010C00CF0E0EC41
:103840001AF01200116E1104D8A40AD014C109F0A4
:1038500015C10AF01AC10BF010C00CF0E0EC1AF020
:103860001150D8A412001BC109F01CC10AF021C1DB
:103870000BF010C00CF0E0EC1AF0120023C025F0A1
:1038800008D022C016F0250E176E24C018F09FEC49
:103890000AF025C0F6FF0E0EF76E000EF86E080057
:1038A000F5500009D8A4EDD7000E236E000E226E4D
:1038B000120009C0D9FF0AC0DAFF0B50DE18D8A4E5
:1038C00005D009C009F00AC00AF0120009C0D9FFEA
:1038D0000AC0DAFF094A0A2ADF50D8A4EAD7000E44
:1038E000096E000E0A6E1200280E2C6E26C02DF0F6
:1038F000000E306E000E2F6E000E376E000E366E0C
:103900002D0E226E27C023F02C0E246E3EEC1CF0F0
:1039100026502F24D96EDA6ADF6A120001E803000C
:1039200064000164000064000164000064000000A1
:103930000001E8030064000164000064000000006E
:10394000010A00000A00010A000000005704050EE9
:103950000A6E0F0E096EF10EE82EFED7092EFCD767
:103960000A2EFAD70000080E0E01496F926B9A6B6F
:10397000A76BAF6BB46BBC6B1200050E096E480EE3
:103980000A6E450EB3EC17F011C00AF012C00BF02E
:10399000D2EC1CF0050E096E4C0E0A6E450EB3EC0F
:1039A00017F0120009D00AC0D9FF0BC0DAFFDF50B0
:1039B00064EC1EF00A4A0B2A0AC0D9FF0BC0DAFFDA
:1039C000DF50D8A4F0D70E01EFB31200FCD7216E60
:1039D000215034EC1DF02150110DB50EF324D96E99
:1039E000020EF420DA6E1CC0DEFF1DC0DEFF1EC01A
:1039F000DEFF1FC0DEFF12000A50030B756E09C008
:103A000074FF3F0E77167780680E0B6EE40EE82E7B
:103A1000FED70B2EFCD700D000000000765012001D
:103A20000D6E0D50110DB50EF324D96E020EF4205B
:103A3000DA6EDECF09F0DECF0AF0DECF0BF0DECF9C
:103A40000CF01200206E2050040DF3CF0EF0F4CFD6
:103A50000FF01CC010F01DC011F01EC012F01FC0EE
:103A600013F038EC18F01200206E2050040DF3CF44
:103A70000CF0F4CF0DF0B4EC15F00CC01CF00DC040
:103A80001DF00EC01EF00FC01FF01200196E3F0E89
:103A90001818D8A4120070EC1EF009C00BF00AC070
:103AA0000CF00D6A0E6A195029EC17F01200000193
:103AB0009751D8B41200E9EC19F015C075F016C092
:103AC00076F0000175517611D8A41200F4D7216E5A
:103AD000215010EC1DF009C01CF00AC01DF00BC0F5
:103AE0001EF00CC01FF0215022EC1DF0120013C07C
:103AF00009F014C00AF01250B3EC17F013C009F02B
:103B000011C00AF012506FEC17F012000B6E0B5040
:103B1000110DB30EF324D96E020EF420DA6EDECF4F
:103B200009F0DDCF0AF012002DC022F02EC023F0E4
:103B30000CEC15F031C073F132C074F133C075F183
:103B40001200096E0904D8A403D00E012D831200BF
:103B50000950D8A412000E012D93120045C03DF06B
:103B600046C03EF0CBEC0EF047C064F148C065F1B2
:103B700049C066F11200096E0904D8A403D00E01F1
:103B80002E8512000950D8A412000E012E951200A5
:103B900045C03DF046C03EF080EC0FF047C06AF1F2
:103BA00048C06BF149C06CF11200096E0904D8A439
:103BB00003D00E012E8112000950D8A412000E016C
:103BC0002E91120009C07FF10AC080F10BC081F173
:103BD0000CC07CF10DC07DF10EC07EF11200000121
:103BE000892907E18A29D8A404D0000E8A6F000E23
:103BF000896F894B8A2B1200950E0001CC6F010E44
:103C0000CD6F000ECF6F040ECE6F59EC1BF012007B
:103C1000096EF28C0904D8A402D0F28E1200095069
:103C2000D8A41200F29E120001C0D9FF02C0DAFF30
:103C3000DF50010901C0D9FF02C0DAFFDF6E1200B8
:103C40005250D8B4120000017B2903E17C29D8B47A
:103C500012007B4B7C2B1200096E0904D8A402D001
:103C6000C98012000950D8A41200C9901200096E30
:103C70000904D8A402D0CF8012000950D8A41200A1
:103C8000CF901200B50E0001C36F010EC46F0EEC91
:103C900007F0010E120020EE03F00950D9260A5059
:103CA000DA22010EDF6E12000950D96EDA6A89C07D
:103CB000DEFF8AC0DDFF120009C08BF00AC08CF065
:103CC000010E0001A36F1200096E0E0137A1FDD78E
:103CD00009C0EBFE120075C009F076C00AF01200B0
:103CE00083C009F084C00AF012006FC0C1FF70C029
:103CF000C2FF120071C0C7FF72C0C8FF120073C0BC
:103D0000CDFF74C0CEFF1200B5EC14F0000E12000F
:103D1000010E0001976F12000001976B1200000165
:103D20009751120000019E511200FF076405010E19
:043D3000120012006B
:020000040020DA
:10000000FF0FFF0FFF0FFF0FFF0FFF0FFF0FFF0F80
:020000040030CA
:0C0000008CD7FFE784C7FFCFFCFFFFFF99
:00000001FF
