:0400000035EF00F0E8
:100008004B82E1CF28F0E2CF29F0D9CF2AF0DACF1E
:100018002BF09EA005D016EC0DF0C6EC0CF017D016
:10002800A1A203D010EC0DF012D07EA203D00AECEE
:100038000DF00DD09EAA05D09E9AAE509EEC0BF006
:1000480006D0A4AA04D0A49A7450C1EC0BF02BC01B
:10005800DAFF2AC0D9FF29C0E2FF28C0E1FF4B928E
:06006800110011EF0BF086
:10100000004D41494E3100256C5800256C75003A61
:10101000003C003E003F0051005200000001C56F3F
:10102000000E0001BD6F240EBE6FF40EBF6F000EE8
:10103000C06FD6C0B9F0D7C0BAF0D8C0BBF0D9C025
:10104000BCF0000EC76F000EC66F000ECD6F000E15
:10105000CC6FBDC02CF0BEC02DF0BFC02EF0C0C004
:101060002FF0CC51B90FD96EDA6ADF50456E45507A
:10107000306E316A326A336AD0EC0AF02CC0C1F0AB
:101080002DC0C2F02EC0C3F02FC0C4F0E80E306EE9
:10109000030E316E000E326E000E336EC1C02CF0A6
:1010A000C2C02DF0C3C02EF0C4C02FF0D0EC0AF0A7
:1010B0002CC039F02DC03AF02EC03BF02FC03CF0D0
:1010C0000001C5513D6E3E6A3F6A406A73EC0BF009
:1010D00039C0C8F03AC0C9F03BC0CAF03CC0CBF040
:1010E0000001CB5118E1C805000EC959010ECA59BB
:1010F000D8B011D0CCC045F0453ACD504518CF0BF3
:101100004518CD6EC8510008C66FC951D8A0E82A4D
:101110000008C76F0AD0CC4BCD2BCDBF9AD7CD518D
:1011200004E1040ECC5DD8A094D7C6C009F0C7C0B6
:101130000AF009C0CEFF0AC0CFFF010E7FEC0CF011
:10114000010EACEC0CF012002C50D96EDA6ADF50B4
:10115000316E2C50D96EDA6A030ED926DF50326E0A
:101160002C50D96EDA6A030ED9262C50E16EE26A51
:10117000030EE126E7502F6E2F28DF6E3150D8A4E2
:101180001CD02C50D96EDA6A2C50E16EE26AE7501E
:101190003224DF6EFF0E2D242F6EFF0E2E20306EB8
:1011A0002C50D96EDA6A010ED9262FC0DEFF30C06E
:1011B000DDFF010E1B6E010E120032503118D8A453
:1011C00028D02C50D96EDA6A010ED926010EDB50D8
:1011D00004E1020EDE5CD8A00CD02C50D96EDA6A85
:1011E000010ED926DE06000EDD5A020E1B6E020E1F
:1011F00012002C50D96EDA6A2C50E16EE26AE75088
:101200002F6E3250FF0A2F14DF6E030E1B6E030E7B
:101210001200000E1B6E000E1200720E2C6E000EDD
:1012200020EC0CF04F0E346E420E356E000E366E12
:10123000200E376E440E53EC0CF04F0E346E420EFF
:10124000356E010E366E200E376E440E53EC0CF0E8
:10125000010E0EEC08F0400E396E420E3A6E0F0E83
:101260003B6E000E3C6EB5EC09F0010EBAEC0CF0D2
:10127000740E2C6E090E2D6E000E2F6E0A0E2E6E41
:10128000880E306E160E316E3BEC0CF07B0E2C6E21
:10129000000E2D6E000E2F6E000E2E6E380E306E6C
:1012A0001A0E316E3BEC0CF0820E2C6E000E2D6E81
:1012B000000E2F6E000E2E6E420E306E1A0E316E24
:1012C0003BEC0CF0E7EC0CF0FDD73350D96EDA6A4A
:1012D000DFA012003350030F2C6E3350D96EDA6A40
:1012E000010ED926DECF2DF0DDCF2EF002EC0CF072
:1012F0000009D8B409D03350D96EDA6A3350E16EA0
:10130000E26AE7500409DF6E3350D96EDA6ADFA46F
:1013100012003350D96EDA6A3350E16EE26AE75058
:10132000FB0BDF6E3350D96EDA6A050ED926DECF9D
:1013300034F0DDCF35F001D809D00500FA6E345015
:10134000FD6E3550FE6EFF6AFA5012003350D96EB2
:10135000DA6ADFB612003350D96EDA6A3350E16EC2
:10136000E26AE750FE0BDF6E12004F0E346E430E42
:10137000356E060E366E200E376E440E53EC0CF0B2
:10138000490E346E430E356E070E366E200E376EE4
:10139000440E53EC0CF0000E2C6E900E2D6ED00E01
:1013A0002E6E030E2F6E39C03DF03AC03EF03BC0AA
:1013B0003FF03CC040F0060ED8903D363E363F36FA
:1013C0004036E82EF9D73DC030F03EC031F03FC086
:1013D00032F040C033F0D0EC0AF02C50416E2D506A
:1013E000426E2E50436E2F50446E456A466A476ADD
:1013F000486A4104AF6E200EAC6E900EAB6EAC949A
:10140000010ED2EC0CF01200306E2CC02EF0010E4A
:101410002F6E2E2A02D0D8902F362E2EFCD72F508A
:10142000316E510E3024326E336A0F0E33224F0E5E
:101430002D18D8B407D06F0E2D18D8B403D02D5066
:10144000D8A40FD032C0D9FF33C0DAFFDF502E6EE0
:101450003150FF0A2E1432C0D9FF33C0DAFFDF6EDD
:101460001200490E2D18D8B407D0690E2D18D8B423
:1014700003D02D04D8A4120032C0D9FF33C0DAFF44
:10148000DF50311032C0D9FF33C0DAFFDF6E1200F7
:10149000306E2CC02EF0010E2F6E2E2A02D0D89066
:1014A0002F362E2EFCD72F50316E480E3024326E40
:1014B000336A0F0E33224C0E2D18D8B407D06C0EA1
:1014C0002D18D8B403D02D50D8A40FD032C0D9FFD6
:1014D00033C0DAFFDF502E6E3150FF0A2E1432C0B7
:1014E000D9FF33C0DAFFDF6E1200480E2D18D8B4D2
:1014F00007D0680E2D18D8B403D02D04D8A412003C
:1015000032C0D9FF33C0DAFFDF50311032C0D9FF0B
:1015100033C0DAFFDF6E1200306E2CC02EF0010EE9
:101520002F6E2E2A02D0D8902F362E2EFCD72F5079
:10153000316EF70E3024326E336A0E0E3322440EB3
:101540002D18D8B407D0640E2D18D8B403D02D5060
:10155000D8A40FD032C0D9FF33C0DAFFDF502E6ECF
:101560003150FF0A2E1432C0D9FF33C0DAFFDF6ECC
:101570001200410E2D18D8B407D0610E2D18D8B422
:1015800003D02D04D8A4120032C0D9FF33C0DAFF33
:10159000DF50311032C0D9FF33C0DAFFDF6E1200E6
:1015A000000E346E000E356E000E366E000E376E75
:1015B0003050311032103310D8B42AD0010E386EAA
:1015C00006D0D8903036313632363336382A33AEFC
:1015D000F8D7D890343635363636373630502C5C1E
:1015E00031502D5832502E5833502F58D8A009D092
:1015F00030502C5E31502D5A32502E5A33502F5AC3
:101600003480D8903332323231323032382EE1D712
:1016100034C02CF035C02DF036C02EF037C02FF07E
:101620001200F00EF66E190EF76E000EF86E00EE58
:10163000CEF010EE0CF00900F5CFEEFFE550E150D2
:10164000FAE1500EF66E1A0EF76E000EF86E0900F3
:10165000F5CF49F00900F5CF4AF001EE00F0A00EF9
:10166000EE6AE806FDE100EE60F0590EEE6AE8066B
:10167000FDE100EE01F0240EEE6AE806FDE14B907C
:101680004B9200010DEF09F0B50E2C6EF0EC0CF052
:10169000B50E2C6E000E2E6E0A0E2D6EA4EC08F008
:1016A0000009D8B40AD026EC0DF0E806D8A405D07D
:1016B000000E2C6E420EE3EC0BF0B50E2C6E000EFD
:1016C0002E6E5A0E2D6EA4EC08F00009D8B412004C
:1016D00026EC0DF0E806D8A41200000E2C6E420E87
:1016E000E3EC0BF01200000E416E000E426E000E95
:1016F000436E000E446E39A008D03D5041263E5046
:1017000042223F50432240504422D8903D363E363C
:101710003F364036D8903C323B323A32393239503B
:101720003A103B103C10D8A4E6D741C039F042C073
:101730003AF043C03BF044C03CF01200266E26C095
:1017400027F0280E2718D8A403D0000E1C6E120014
:10175000290E2718D8A40AD01C50890FD96EDA6A2E
:10176000DF6A7B0E256EDDEC0CF01200140E1C609F
:1017700012001C50890FD96EDA6A27C0DFFF1C2ABD
:101780001200266E26C027F03C0E2718D8A403D0DE
:10179000000E1D6E0DD03E0E2718D8A409D01D5086
:1017A0009D0FD96EDA6ADF6A820E256EDDEC0CF0D1
:1017B000140E1D6012001D509D0FD96EDA6A27C0ED
:1017C000DFFF1D2A12002F6E2CC02DF0010E2E6E91
:1017D0002D2A02D0D8902E362D2EFCD72E50306ECA
:1017E000480E2F24316E326A0F0E322231C0D9FFDB
:1017F00032C0DAFFDF50301831C0D9FF32C0DAFF13
:10180000DF6E12002C50D96EDA6ADECF2FF0DDCFFA
:1018100030F02F50115C316E30501258326E2D5016
:10182000315C2E503258D8A009D02C50D96EDA6ACB
:1018300011C0DEFF12C0DDFF010E1200000E12000B
:101840002D6E2D50D8A40BD0400E2C18D8A4120009
:10185000300ED36E840ED26E400E9B6E12002D049D
:10186000D8A412002CA202D0D28E9B8C2CC0D3FF05
:10187000D3B41200FDD72C50D96EDA6A050ED926E2
:1018800030C0DEFF31C0DDFF2C50D96EDA6A2DC0CA
:10189000DFFF2C50D96EDA6A010ED9262EC0DEFF8A
:1018A0002FC0DDFF1200386E36C02CF037C02DF08F
:1018B000355048EC0AF036C02CF034C02DF03550CD
:1018C00004EC0AF036C02CF038C02DF035508CEC0A
:1018D0000AF01200000E3A6E000E396E09D039502F
:1018E000070D3650F324336E65EC09F0394A3A2A75
:1018F0003750395C38503A58D8B01200F0D72D6EB6
:101900009E902D50D8B403D02C6A2C2A01D02C6A7A
:101910009D502C18FE0B2C189D6E120007D02D50D8
:10192000D96EDA6ADF50FEEC0CF02D2A2D50D96EFC
:10193000DA6ADF50D8B41200F2D707D02D50D96E32
:10194000DA6ADF5004EC0DF02D2A2D50D96EDA6AD8
:10195000DF50D8B41200F2D72D6E2D50D8B403D07A
:101960002C6A2C2A01D02C6ACD502C18FE0B2C1876
:10197000CD6E12002C6EF28C2C04D8A402D0F28E04
:1019800012002C50D8A41200F29E1200112807E178
:101990001228D8A404D0000E126E000E116E114A47
:1019A000122A12002C6E2C04D8A402D09D8A120098
:1019B0002C50D8A412009D9A12002550D96EDA6AD4
:1019C0002550E16EE26AE7500109DF6E1200740EE5
:1019D000366E000E386E030E376E6AEC0CF0120095
:1019E0002C50D96EDA6A030ED926010EDF6E120072
:1019F0000102040801020408010204082C6EA4A8D4
:101A0000FED72CC073FF12002C6E9EA8FED72CC0F0
:101A1000ADFF12007E9205C04FFF06C050FF1200BE
:101A2000A19207C0B2FF08C0B3FF12009E9009C088
:101A3000CEFF0AC0CFFF1200890E2D6E9DEC0CF078
:101A400012009D0E2D6E8EEC0CF012001B50120039
:021A5000570439
:020000040020DA
:08000000FFFFFFFFFFFFFFFF00
:020000040030CA
:0E000000FF131F3CFF3480FF0F000FE00F4086
:00000001FF
