:100000000C946D000C94B41C0C94B41C0C94B41C93
:100010000C94B41C0C94B41C0C94B41C0C94B41C20
:100020000C94B41C0C94B41C0C94B41C0C94B41C10
:100030000C94B41C0C94B41C0C94F3130C94B41CCA
:100040000C94B41C0C94B41C0C94F9160C94B41CB1
:100050000C94B41C0C94B41C0C94B41C0C94B41CE0
:100060000C94B41C0C94B41C0C94B41C0C94B41CD0
:100070000C94B41C0C941E170C9487160C94B41C8E
:100080000C94B41C0C94B41C0C94B41C010005001A
:10009000800500055000396C0550059680059605D1
:1000A000FA0039BC05FA062C80062C06A4003A207A
:1000B00006A406EA8006EA06F6003A9806F607085D
:1000C0008007080726003AA40726073B80073B075E
:1000D00053003AC207530785800011241FBECFEF9B
:1000E000D0E1DEBFCDBFECE8F0E040E017C0B59155
:1000F000A59135912591059107FD0CC095918591AC
:10010000EF01F92FE82F05900D92A217B307D9F749
:10011000FE0104C01D92A217B307E1F7E93DF40701
:0E01200031F70E94230E0C949500F894FFCF47
:10012E000810205F0000000000000000000000002A
:10013E0000000000000000FCFC0000000000003386
:10014E003300000000FCFC0000FCFC00000000007E
:10015E000000000030FCFC3030FCFC30030F0F03BD
:10016E00030F0F030078FCCFCFCC8C00000C0C3C9F
:10017E003C0F0700001C1CC0F03C0C00000C0F03D1
:10018E00000E0E0000CEFFF33F0E00001F3F303377
:10019E001F3F3300000000FCFC00000000000000C8
:1001AE0000000000000000F0F81C04000000000F2A
:1001BE001F38200000041CF8F00000000020381F3B
:1001CE000F000000C0CCFCF0F0FCCCC0000C0F0304
:1001DE00030F0C0000C0C0F8F8C0C00000000007FC
:1001EE000700000000000000000000000000C07CBE
:1001FE003C00000000C0C0C0C0C0C0000000000035
:10020E000000000000000000000000000000003CA4
:10021E003C00000000000080E07C1C0000383E071F
:10022E000100000000F8FC0C8CFCF800001F3F31B0
:10023E00303F1F00000030FCFC0000000030303F5B
:10024E003F30300000383C0CCCFC380000303C3FD6
:10025E0033303000000C0CCCFC3C0C00001C3C304D
:10026E00333F1C000000C0F0FCFC0000000F0F0C20
:10027E003F3F0C0000FCFCCCCCCC8C00001838307E
:10028E00303F1F0000F0F89C8C8C0000001F3F31A7
:10029E00313F1F00000C0C0CCCFC3C0000003C3F1E
:1002AE00030000000038FCCCCCFC3800001F3F30AF
:1002BE00303F1F000078FCCCCCFCF8000000303042
:1002CE00381F0F00000000F0F00000000000003C9E
:1002DE003C000000000000F0F00000000000C07CB8
:1002EE003C00000080C0E0703818080000010307D1
:1002FE000E0C0800003030303030300000030303A5
:10030E000303030008183870E0C08000080C0E07C5
:10031E000301000000383C0CCCFC38000000003714
:10032E0037000000F0F81CCC4C98F0000F1F38334B
:10033E003233190000F0F81C1CF8F000003F3F03A8
:10034E00033F3F0000FCFCCCCCFC7800003F3F306C
:10035E00303F1F0000F8FC0C0C3C3800001F3F30F3
:10036E00303C1C0000FCFC0C1CF8F000003F3F3041
:10037E00381F0F0000FCFCCCCCCC0C00003F3F30F3
:10038E003030300000FCFCCCCCCC0C00003F3F00E9
:10039E000000000000F8FC0CCCCCCC00001F3F305D
:1003AE00303F1F0000FCFCC0C0FCFC00003F3F00C3
:1003BE00003F3F00000C0CFCFC0C0C000030303FEA
:1003CE003F3030000000000000FCFC00001C3C3000
:1003DE00303F1F00FCFCC0F03C0C00003F3F000310
:1003EE000F3C300000FCFC0000000000003F3F30DE
:1003FE0030303000FCFC70C070FCFC003F3F000150
:10040E00003F3F0000FCFCE080FCFC00003F3F0191
:10041E00073F3F0000F8FC0C0CFCF800001F3F30BB
:10042E00303F1F0000FCFC0C0CFCF800003F3F03AB
:10043E000303010000F8FC0C0CFCF800001F3F3019
:10044E0018372F00FCFC8C8CFCF800003F3F01039A
:10045E000F3C30000078FCCC8C0C0C00003030319E
:10046E00333F1E00000C0CFCFC0C0C000000003F87
:10047E003F00000000FCFC0000FCFC00001F3F30B1
:10048E00303F1F0000FCFC0000FCFC0000030F3C92
:10049E003C0F0300FCFC008000FCFC003F1F0E071D
:1004AE000E1F3F00001C7CE0E07C1C0000383E0765
:1004BE00073E3800003CFCC0C0FC3C000000003F82
:1004CE003F000000000C0CCCFC3C0C00003C3F3309
:1004DE0030303000000000FCFC0C0C000000003F2F
:1004EE003F303000001C7CE0800000000000000166
:1004FE00073E3800000C0CFCFC0000000030303FC2
:10050E003F00000080E0781E78E0800001010000CE
:10051E00000101000000000000000000303030300B
:10052E003030300000070E1C387000000000000054
:10053E00000000000000606060E0C000001E3F335D
:10054E00333F3F0000FCFC6060E0C000003F3F30E6
:10055E00303F1F0000C0E06060600000001F3F30B1
:10056E003030300000C0E06060FCFC00001F3F3007
:10057E00303F3F0000C0E06060E0C000001F3F322F
:10058E003233330000C0C0F8FCCCCC000000003F7A
:10059E003F00000000C0E06060E0E00000CFDFD868
:1005AE00D8FF7F0000FCFC6060E0C000003F3F0011
:1005BE00003F3F00000060ECEC0000000000303F08
:1005CE003F30000000000000ECEC000000C0C0C096
:1005DE00FF7F0000FCFC80C0E06000003F3F03078F
:1005EE001E38300000000CFCFC0000000000303F04
:1005FE003F300000C0E0E0C0E0E0C0003F3F000739
:10060E00003F3F0000C0E06060E0C000003F3F00E0
:10061E00003F3F0000C0E06060E0C000001F3F30C0
:10062E00303F1F0000E0E06060E0C00000FFFF30E0
:10063E00303F1F0000C0E06060E0E000001F3F3070
:10064E0030FFFF0000E0E06060E0C000003F3F00D0
:10065E000000000000C0E0606060600000313333D5
:10066E00363E1C00006060F8F86060000000001F5D
:10067E003F30300000E0E00000E0E000001F3F30BF
:10068E00303F3F0000E0E00000E0E00000030F3CE0
:10069E003C0F0300E0E0008000E0E0003F1F0E078B
:1006AE000E1F3F000060E08080E0600000303D0FD4
:1006BE000F3D300000E0E00000E0E00000CFDFD8AA
:1006CE00D8FF7F0000606060E0E0600000303C3FDB
:1006DE00333030008080C0FC7E0202000101033FF7
:1006EE007E404000000000FEFE0000000000007F83
:1006FE007F00000002027EFCC080800040407E3FF2
:10070E0003010100C060E0C08080E0000100000134
:04071E0001010000D5
:100722002563292025730025632F25630053415635
:1007320045440025632029202573004D415820207F
:10074200204E4F57202020204D494E00494E5055F3
:1007520054204D454E550052414E444F4D204D457B
:100762004E5500434F554E544552204D454E55006F
:1007720041524D204D454E550052454C4159204D58
:10078200454E55004D41494E204D454E5500494E6E
:100792005055542053455454494E47530041524DED
:1007A2002053455454494E47530052454C41592019
:1007B20053455454494E47530053595354454D20C1
:1007C200434F554E5445520052414E444F4D2053D3
:1007D2004F525445520044524F502041524D204DE9
:1007E2004F4445004D4F544F52204D4F4445004D0C
:1007F2004F544F52205350454544004D4F544F5291
:1008020020425245414B205350454544004D4153EF
:100812003132205354415455530050415353495699
:1008220045004143544956450044495341424C45D1
:10083200004A55535420454D47004A5553542050C1
:100842004F574552204641494C00504F5745522080
:100852004641494C202620454D4700494E505554AB
:10086200204D4F444500494E5055542054494D4562
:10087200204F555400494E50555420425546464546
:100882005200454D47204D4F4445004E2F4F004EDC
:100892002F43004652454500434F4E54524F4C00A1
:1008A20052414E444F4D2041204D4F44450052414C
:1008B2004E444F4D2042204D4F44450052454C413D
:1008C20059204120414D4F554E540052454C4159FB
:1008D200204220414D4F554E54004D4F4445204437
:1008E200495341424C45004D4F444520454E4142FB
:1008F2004C4500464958204120434F554E544552DD
:1009020000464958204220434F554E544552005408
:10091200454D50204120434F554E544552005445B9
:100922004D50204220434F554E54455200455241AE
:1009320053452044415441203F0043414E542045F9
:10094200524153450052454C41592041204D4F449C
:10095200450052454C41592042204D4F44450052DA
:10096200454C41592042555359204D4F4445005260
:10097200454C415920414C41524D204D4F44450078
:1009820052454C415920412054494D450052454C55
:10099200415920422054494D450052454C4159206D
:1009A200425553592054494D450052454C41592016
:1009B200414C41524D2054494D45004D4F44452034
:0D09C2004E2F4F004D4F4445204E2F430057
:0309CF002564009C
:1009D2002F923F924F926F927F928F929F92AF92FD
:1009E200BF92CF92DF92EF92FF920F931F93CF931A
:1009F200DF93CDB7DEB762970FB6F894DEBF0FBEB6
:100A0200CDBF6C013A01862E7901FC011086178256
:100A1200848181FFE7C19E012F5F3F4F3D872C8775
:100A2200C901A0E8888B998BAA8B9FE3992EF301C9
:100A3200849187FC8081882309F4D0C1482D9301D9
:100A42002F5F3F4F4F4F853219F03901842E0AC074
:100A5200F901849147FD808192E0690E711C811C2D
:100A6200853229F4B60190E00E948113E0CFB12CC7
:100A720000E010E01032A0F48B3269F030F48032E2
:100A820059F0833269F410612CC08D3239F0803311
:100A920039F4116026C01260146023C0186021C0AE
:100AA20017FD29C090ED980F9A3078F416FF06C012
:100AB200AAE0BA9E900D1124B92E13C0EAE00E9F4F
:100AC200900D1124092F10620CC08E3221F416FDF4
:100AD20085C1106406C08C3611F4106802C08836D5
:100AE20051F4F301849187FC8081FFEF6F1A7F0A32
:100AF2008F0A8111BFCF982F9F7D9554933028F490
:100B020024E0E20EF11C99820FC0833631F0833764
:100B120091F0833509F063C027C0F7018081898392
:100B220097012E5F3F4F7901288839884A88AA2485
:100B3200A394B12C17C0A7014D5F5F4F5F874E870B
:100B4200F70120803180428016FF03C04B2D50E018
:100B520002C04FEF5FEF842DB1010E94CA185C0101
:100B6200EE84FF841F7718C097012D5F3F4F3F87A8
:100B72002E87F70120803180428016FF03C04B2D63
:100B820050E002C04FEF5FEF842DB1010E94CA18FE
:100B92005C011068EE84FF8413FD1DC0802F90E07D
:100BA200A816B906C0F4B60180E290E00E94811353
:100BB2000150F4CFF101849147FC8081FFEF2F1A9D
:100BC2003F0A4F0AB60190E00E94811301110150C1
:100BD20021E0A21AB108A114B10461F7F5C084366C
:100BE20011F0893671F5F70117FF08C06081718134
:100BF2008281938197012C5F3F4F09C0608171818F
:100C0200072E000C880B990B97012E5F3F4F79013D
:100C12001F76312E97FF0AC0909580957095619549
:100C22007F4F8F4F9F4F312F3068332E2AE030E0B5
:100C3200AE014F5F5F4F0E945812482E4C85441AF6
:100C42004AC0853729F41F7EA12E2AE030E025C054
:100C5200512F597FA52E8F36C1F018F4883579F0BF
:100C6200BDC0803719F0883721F0B8C0852F806168
:100C7200A82EA4FE0DC09A2D9460A92E09C014FFBF
:100C82000AC0A52FA660AA2E06C028E030E005C043
:100C920020E130E002C020E132E0F701A7FE08C007
:100CA2006081718182819381A7014C5F5F4F07C090
:100CB2006081718180E090E0A7014E5F5F4F7A0111
:100CC200AE014F5F5F4F0E945812482E5C85451A55
:100CD2008A2D8F77382E36FE0DC0932D9E7FA92E3A
:100CE2004B1458F434FE0BC032FC09C0A32DAE7E67
:100CF200AA2E05C0142DA32C03C0142D01C01B2D38
:100D0200A4FE0EC0FE01E40DF11D8081803321F4AA
:100D1200EA2DE97EAE2E08C0A2FE05C01E5F04C009
:100D22008A2D867809F01F5FA3FC11C0A0FE06C0C1
:100D3200101788F4040DB02EB11A0EC0101760F40B
:100D4200B60180E290E00E9481131F5FF7CF101777
:100D520018F4011B02C0B42C00E0A4FE10C0B601BE
:100D620080E390E00E948113A2FE17C0A1FC03C0A1
:100D720088E790E002C088E590E0B6010CC08A2DB9
:100D8200867859F0A1FE02C08BE201C080E2A7FC86
:100D92008DE2B60190E00E9481134B1438F4B60143
:100DA20080E390E00E948113BA94F7CF4A94E1E085
:100DB200F0E0EC0FFD1FE40DF11D8081B60190E023
:100DC2000E9481134110F2CF002309F430CEB60104
:100DD20080E290E00E9481130150F6CFF6018781F4
:100DE200908502C08FEF9FEF62960FB6F894DEBF38
:100DF2000FBECDBFDF91CF911F910F91FF90EF906A
:100E0200DF90CF90BF90AF909F908F907F906F9028
:080E12004F903F902F900895CE
:100E1A000F931F9390917D0791110EC08F3409F0A3
:100E2A0093C160E080915D0790915E070E94F6147D
:100E3A0081E080937D071EC18535B1F580915B07FE
:100E4A0090915C07892B29F12091590730915A0713
:100E5A008091800790E0FC01EE0FFF1F880F991F19
:100E6A00880F991F880F991F8E0F9F1FE0915F07A8
:100E7A00F0916007E80FF91F8681978128173907D3
:100E8A0008F05CC12F5F3F4F30935A0720935907F0
:100E9A0055C18091800790918107891708F04EC14A
:100EAA008F5F809380074AC18434A1F580915B07E4
:100EBA0090915C07892B29F12091590730915A07A3
:100ECA008091800790E0FC01EE0FFF1F880F991FA9
:100EDA00880F991F880F991F8E0F9F1FE0915F0738
:100EEA00F0916007E80FF91F8085918582179307B3
:100EFA0008F0BBC02150310930935A072093590793
:100F0A00B4C080918007882309F4AFC081508093D0
:100F1A008007ABC0823409F013C180915B079091BE
:100F2A005C07019731F410925C0710925B0780E02E
:100F3A0090C080917F07811104C010927D0782E0E2
:100F4A0088C00E94921880E084C08091800790E057
:100F5A00FC01EE0FFF1F880F991F880F991F880F3A
:100F6A00991F8E0F9F1FE0915F07F0916007E80FAE
:100F7A00F91F838180FF06C061E0848195810E9408
:100F8A00F61473C083FF2EC080915B0790915C07B3
:100F9A00892BC1F410925A07109259070480F581DF
:100FAA00E02D309741F06FE077E280E00995909369
:100FBA005A078093590781E090E090935C078093E9
:100FCA005B0753C00480F581E02D309731F06091C2
:100FDA00590770915A0781E0099510925C0710929F
:100FEA005B0743C0867009F440C080915B0790910B
:100FFA005C07892BC1F410925A0710925907048092
:10100A00F581E02D309741F06FE077E280E00995B5
:10101A0090935A078093590781E090E090935C0778
:10102A0080935B0722C00480F581E02D309761F040
:10103A006091590770915A0781E009950E94BD1382
:10104A0084EF91E00E94811910925C0710925B076D
:10105A000CC0823051F4E0916907F0916A07099552
:10106A00E0916707F0916807099580917D078823C9
:10107A0009F46AC080915B0790915C07892B09F497
:10108A0042C08091800790E0FC01EE0FFF1F880F9D
:10109A00991F880F991F880F991F8E0F9F1FE09124
:1010AA005F07F0916007E80FF91F838181FF0EC087
:1010BA000091590710915A07208531854681578139
:1010CA006081718182810E94EF0A3EC082FF0CC05A
:1010DA0040916107509162076081718182812091FC
:1010EA0059070E94AE0B30C083FF2EC040915907AA
:1010FA0050915A0760915607709157078091580787
:10110A000E940E0F21C040918007842F90E0FC01BD
:10111A00EE0FFF1F880F991F880F991F880F991FBD
:10112A008E0F9F1FE0915F07F0916007E80FF91F8C
:10113A006081718182810E94940D06C080E089CF0E
:0E114A008F3409F402CF91CF1F910F910895B9
:101158002F923F924F925F926F927F928F929F92BF
:10116800AF92BF92CF92DF92EF92FF920F931F93AD
:10117800CF93DF93CDB7DEB728970FB6F894DEBFCD
:101188000FBECDBF9E838D837A83698380910407C8
:10119800982F977009F0ABC0E0E0F7E0538186958F
:1011A80086958695242F30E09581291B310990E09A
:1011B800589FB001599F700D1124269F3001279F19
:1011C800700C369F700C112498878F83892B09F433
:1011D80024C1252F30E03C832B83C301ED81FE81A0
:1011E8008E1B9F0B9C012C5F3F4F3901A980BA8051
:1011F800212C312C4B805C804E0E5F1E0F2EF0E0B0
:10120800CF2EF7E0DF2EF02D88248394912C68C030
:10121800F60180819181A2819301200F311F820FF5
:10122800931FA11D37FDAA95FC01E490A7FDE0805E
:10123800F12C1A821982C401098002C0880F991FF3
:101248000A94E2F78E219F21892BB1F0F60187815C
:10125800811109C041E069817A816A0D7B1DC8014D
:101268000E94FE121EC040E069817A816A0D7B1DD2
:10127800C8010E94FE1215C0F6018781811109C0BC
:1012880040E069817A816A0D7B1DC8010E94FE12C7
:1012980008C041E069817A816A0D7B1DC8010E94FE
:1012A800FE1229813A812F5F3F4F3A8329832830E4
:1012B800310509F60F5F1F4F4016510609F0A8CFF8
:1012C8003FEF231A330A88E0A80EB11CEB81FC819A
:1012D8006E0E7F1E2F8138852215330509F49DC0B7
:1012E8008B819C81892B61F30D811E8191CF209088
:1012F8000307E0E0F7E0242F30E09581291B31094E
:10130800289EA0011124552314F4495F5F4F559579
:1013180047955595479555954795249FB001259F25
:10132800700D349F700D11246C5F7F4F20813181C7
:101338004281260F371F411D77FD4A95F901049117
:1013480047FD008110E0312C2114310409F465C0F7
:10135800ED81FE81E20DF31DFC83EB838D809E8081
:101368000F2EF7E06F2E712CF02D482E512CC980CE
:10137800DA80C40CD51CEE24E394F12C0F2EF0E097
:10138800AF2EF7E0BF2EF02D40C0C7010D8002C080
:10139800880F991F0A94E2F780239123892B81F003
:1013A800F5018781811106C041E0B101C4010E94A5
:1013B800FE1215C040E0B101C4010E94FE120FC028
:1013C800F5018781811106C040E0B101C4010E9486
:1013D800FE1205C041E0B101C4010E94FE122D8138
:1013E8003E81215031093E832D833FEF231A330A72
:1013F800C214D30451F6641875088FEF881A980A36
:10140800EB81FC81E815F90541F041145104A9F379
:1014180029803A807E826D82B8CF28960FB6F894DC
:10142800DEBF0FBECDBFDF91CF911F910F91FF900F
:10143800EF90DF90CF90BF90AF909F908F907F906C
:0C1448006F905F904F903F902F900895A0
:10145400909376078093750770937407609373076E
:101464005093720740937107FC010995E09173074B
:10147400F091740788E70995E0917307F091740778
:1014840080E00995E0917307F09174078EEA09955D
:10149400E0917307F091740782E00995E091730776
:1014A400F091740780E10995E0917307F091740756
:1014B40080EB0995E0917307F091740788EC099526
:1014C400E0917307F091740780E40995E091730744
:1014D400F091740781E80995E0917307F09174071E
:1014E4008FE70995E0917307F091740781EA0995F4
:1014F400E0917307F091740786EA0995E091730708
:10150400F091740788EA0995E0917307F0917407E4
:101514008FE30995E0917307F091740784EA0995C4
:10152400E0917307F091740783ED0995E0917307D7
:10153400F091740780E00995E0917307F0917407C6
:1015440085ED0995E0917307F091740780EF099593
:10155400E0917307F091740789ED0995E0917307A1
:10156400F091740782E20995E0917307F091740792
:101574008AED0995E0917307F091740782E109956A
:10158400E0917307F09174078BED0995E09173076F
:10159400F091740780E20995E0917307F091740764
:1015A4008DE80995E0917307F091740784E109953A
:1015B400E0917307F09174078FEA0995E091710740
:1015C400F091720709956EE271E080E00E94B11516
:0A15D4000E94131C0E94FA110895F2
:1015DE006F927F928F92AF92BF92CF92DF92EF92E5
:1015EE00FF920F931F93CF93DF93CDB7DEB76E9716
:1015FE000FB6F894DEBF0FBECDBF3B01882E6A0139
:10160E007901E0916907F0916A07099520E1CE0111
:10161E0001965C01AC01882DB3010E949C119501CD
:10162E0040E8E0916307F091640760E070E080E0CD
:10163E0090E00995E0916307F09164072DE337E0A0
:10164E0040E068E170E080E090E00995960140E0AE
:10165E0050E0E0916507F091660760E370E080E08E
:10166E0090E0099598EEE91693E0F90668F0970177
:10167E0040E050E0E0916507F091660760E370E0AE
:10168E0087E690E009951DC084E6E816F10468F03F
:10169E00970140E050E0E0916507F091660760E346
:1016AE0070E08DE690E009950CC0970140E050E0A7
:1016BE00E0916507F091660760E370E084E790E0E3
:1016CE000995083E93E0190768F0980140E050E054
:1016DE00E0916507F091660760E370E083E390E0C8
:1016EE0009951CC00436110568F0980140E050E0E1
:1016FE00E0916507F091660760E370E085E390E0A6
:10170E0009950CC0980140E050E0E0916507F0911A
:10171E00660760E370E088E390E00995E091670763
:10172E00F091680709956E960FB6F894DEBF0FBE5E
:10173E00CDBFDF91CF911F910F91FF90EF90DF9072
:0E174E00CF90BF90AF908F907F906F900895D6
:10175C006F927F928F92CF92DF92EF92FF920F93C4
:10176C001F93CF93DF93CDB7DEB76E970FB6F89478
:10177C00DEBF0FBECDBF3B01882E6A01F22EE09179
:10178C006907F0916A07099520E18E010F5F1F4FE1
:10179C00A801882DB3010E949C11380180E8882E85
:1017AC00E0916307F0916407482D930160E070E0CD
:1017BC0080E090E009952F2D30E0790191E6E90E5B
:1017CC00F11CF901EE0FFF1FE20FF31FEC0DFD1DD5
:1017DC0082818F9381818F9380818F93FF92EF927F
:1017EC0085E397E0A0E0AF939F938F931F930F93A4
:1017FC000E94AD17E0916307F0916407482D9301A7
:10180C0068E170E080E090E009958091800790E0BD
:10181C00FC01EE0FFF1F880F991F880F991F880F6F
:10182C00991F8E0F9F1FE0915F07F0916007E80FE3
:10183C00F91F868197818F599F4F9F938F93FF92AA
:10184C00EF9289E297E0A0E0AF939F938F931F9361
:10185C000F930E94AD17E0916307F0916407482D38
:10186C00930160E370E089E690E00995E0916707E9
:10187C00F091680709950FB6F894DEBF0FBECDBF87
:10188C006E960FB6F894DEBF0FBECDBFDF91CF9131
:10189C001F910F91FF90EF90DF90CF908F907F90E2
:0418AC006F9008959C
:1018B00065E082E40E94D31623E04AE0682F87E3C4
:1018C00097E00E948415882389F1813019F587E318
:1018D00097E00E94981C853F914040F187E397E094
:1018E0000E94981CAC019C01ADECBCEC0E945E1BFC
:1018F00096958795969587959C01220F331F220F09
:10190000331F820F931F4817590781F485E50E9402
:1019100014180CC0823051F487E397E00E94981CA1
:10192000833F914018F485E50E94141866E082E434
:101930000E94D31623E04AE0682F83E397E00E94D9
:1019400084158823C9F0813059F483E397E00E941D
:10195000981C843F914081F482E40E9414180CC0CA
:10196000823051F483E397E00E94981C833F9140BA
:1019700018F48FE40E94141867E082E40E94D316E2
:1019800023E04AE0682F8FE297E00E9484158823C5
:1019900089F1813019F58FE297E00E94981C853F0C
:1019A000914040F18FE297E00E94981CAC019C01AD
:1019B000ADECBCEC0E945E1B96958795969587953D
:1019C0009C01220F331F220F331F820F931F4817D2
:1019D000590781F484E40E9414180895823051F468
:1019E0008FE297E00E94981C833F914018F484E4B2
:0619F0000E941418089586
:1019F60080915F079091600725E08639920721F470
:101A060024E02093810710C025E08030920721F45E
:101A160027E02093810710C026E08C37920721F437
:101A260023E02093810710C026E08435920721F435
:101A360023E02093810710C026E08C32920721F420
:101A460023E02093810719C025E0883C920721F402
:101A560024E02093810722C025E08639920769F4A5
:101A660020914A0730914B0740914C07209353072A
:101A7600309354074093550722C025E080309207E3
:101A860069F4209147073091480740914907209310
:101A96005307309354074093550722C025E0883CEE
:101AA600920769F420914407309145074091460713
:101AB60020935307309354074093550722C026E0DE
:101AC6008C37920769F48091410790914207A09163
:101AD60043078093530790935407A093550708959F
:101AE60026E08435920769F480913E0790913F077E
:101AF600A09140078093530790935407A0935507EE
:101B060008958C52964061F480913B0790913C0772
:101B1600A0913D078093530790935407A0935507D0
:021B2600089520
:101B28006F927F928F92BF92CF92DF92EF92FF9245
:101B38000F931F93CF93DF93CDB7DEB76E970FB692
:101B4800F894DEBF0FBECDBFD62EC72EB82E042FF9
:101B5800E0916907F0916A070995609153077091C0
:101B680054078091550720E1AE014F5F5F4F7A011E
:101B78000E949C11370150E8852EE0916307F0918F
:101B88006407482D930160E070E080E090E00995DB
:101B980010E00F5C1F4FBF92CF92DF921F930F93FD
:101BA80082E297E0A0E0AF939F938F93FF92EF922A
:101BB8000E94AD17E0916307F0916407482D9301E7
:101BC80064E170E080E090E009958091810790E001
:101BD800C1969F938F931F930F9389E297E0A0E09C
:101BE800AF939F938F93FF92EF920E94AD17E0916E
:101BF8006307F0916407482D930160E370E089E67C
:101C080090E00995E0916707F091680709950FB68C
:101C1800F894DEBF0FBECDBF6E960FB6F894DEBF48
:101C28000FBECDBFDF91CF911F910F91FF90EF9025
:0E1C3800DF90CF90BF908F907F906F900895B7
:101C460008E425E042E469E484E40E94AE1926E053
:101C560042E469E484E40E94AE1927E042E469E4C0
:101C660084E40E94AE190CE426E043E46FE484E4C5
:101C76000E94AE1924E042E46FE484E40E94AE19A7
:101C86000E94171B81E00E949C0E60E970ED83E0C4
:101C960090E00E945D1464E670E080E090E00E94AF
:101CA600A01C44E05BE162E477E181EF9AE10E94E7
:101CB6002A0A83E19CE190936A07809369078AEF79
:101CC60091E1909368078093670789EC90E1909380
:101CD60066078093650786EB92E19093640780938D
:101CE600630786E995E090935E0780935D0725EC90
:101CF60034E14AE069E080E00E94DE1A2BEA3CE12A
:101D060041E069E081E00E94DE1A48EA5CE160E0B9
:101D160080E00E94291B48E959E160E081E00E94C9
:101D2600291B81E00E94821C0E948E1C0E940A16BA
:021D3600FBCFE1
:101D38004F925F926F927F928F929F92AF92BF92D3
:101D4800FF920F931F93CF93DF93F12CC1E0D0E064
:101D580000E41FE1882E912CA12CB12C02C0C0E018
:101D6800D1E0F394C801BE010E94CA1A80E090E055
:101D78000E9444139B01AC0160E070E080E89FE39F
:101D88000E94A41C2B013C01C501B4010E9446130A
:101D9800A30192010E94A41C2B013C0120E03FEF0B
:101DA8004FE757E40E94931C88238CF0CC0FDD1F6B
:101DB800CC0FDD1FCC0FDD1FC11582E0D80779F2EB
:101DC800C11588E0D80769F6C0E0D4E0CACF1FBCC7
:101DD800A301920160E07FEF8FE797E40E94601C07
:101DE8000E9427157093700760936F070E94441C28
:101DF800FEBC81E00E941E1CDF91CF911F910F91C4
:101E0800FF90BF90AF909F908F907F906F905F9062
:041E18004F9008954A
:101E1C006F927F928F92EF92FF920F931F93CF93BB
:101E2C00DF93CDB7DEB76E970FB6F894DEBF0FBE5B
:101E3C00CDBF3B01882E7A01E0916907F0916A07CA
:101E4C00099520E18E010F5F1F4FA801882DB3016A
:101E5C000E949C11980140E8E0916307F09164079F
:101E6C0060E070E080E090E0099588EEE81683E091
:101E7C00F80668F0970140E050E0E0916507F091BA
:101E8C00660768E170E083E390E009951DC084E685
:101E9C00E816F10468F0970140E050E0E091650726
:101EAC00F091660768E170E085E390E009950CC05D
:101EBC00970140E050E0E0916507F091660768E11A
:101ECC0070E088E390E00995E0916707F09168076E
:101EDC0009956E960FB6F894DEBF0FBECDBFDF919D
:101EEC00CF911F910F91FF90EF908F907F906F90FB
:021EFC00089547
:101EFE0021E030E002C0220F331F6A95E2F748342A
:101F0E0071F5813421F48BB3282B2BBB08958234C9
:101F1E0021F488B3282B28BB0895833421F485B38C
:101F2E00282B25BB0895843421F482B3282B22BBA1
:101F3E000895853421F483B1282B23B9089586346E
:101F4E0031F4E2E6F0E08081282B20830895873477
:101F5E00E1F5E5E6F0E08081282B208308954C34EE
:101F6E00A1F5813429F48BB3209528232BBB08953A
:101F7E00823429F488B32095282328BB089583340E
:101F8E0029F485B32095282325BB0895843429F49C
:101F9E0082B32095282322BB0895853429F483B17A
:101FAE002095282323B90895863439F4E2E6F0E02B
:101FBE0080812095282320830895873431F4E5E627
:0C1FCE00F0E080812095282320830895F6
:101FDA0021E030E002C0220F331F6A95E2F74F3446
:101FEA0071F5813421F48AB3282B2ABB08958234EF
:101FFA0021F487B3282B27BB0895833421F484B3B3
:10200A00282B24BB0895843421F481B3282B21BBC7
:10201A000895853421F482B1282B22B90895863493
:10202A0031F4E1E6F0E08081282B2083089587349B
:10203A00E1F5E4E6F0E08081282B20830895493415
:10204A00A1F5813429F48AB3209528232ABB08955F
:10205A00823429F487B32095282327BB0895833433
:10206A0029F484B32095282324BB0895843429F4C1
:10207A0081B32095282321BB0895853429F482B1A0
:10208A002095282322B90895863439F4E1E6F0E050
:10209A0080812095282320830895873431F4E4E64B
:0C20AA00F0E08081209528232083089519
:1020B6000E946E1C58F00E94671C40F029F45F3F96
:1020C60029F00C94881C51110C94761C0C94B11CAC
:1020D6000E94D01768F39923B1F3552391F3951B0A
:1020E600550BBB27AA2762177307840738F09F5F33
:1020F6005F4F220F331F441FAA1FA9F335D00E2EA0
:102106003AF0E0E832D091505040E695001CCAF70C
:102116002BD0FE2F29D0660F771F881FBB1F2617CF
:1021260037074807AB07B0E809F0BB0B802DBF01A6
:10213600FF2793585F4F3AF09E3F510578F00C9475
:10214600881C0C94761C5F3FE4F3983ED4F3869586
:1021560077956795B795F7959F5FC9F7880F911D96
:102166009695879597F90895E1E0660F771F881F82
:10217600BB1F621773078407BA0720F0621B730B35
:0C218600840BBA0BEE1F88F7E09508955B
:102192006F927F928F929F92AF92BF92CF92DF9275
:1021A200EF92FF920F931F93CF93DF93CDB7DEB7DA
:1021B2006E970FB6F894DEBF0FBECDBF5C014B0128
:1021C2005F934F933F932F938FEC99E0A0E0AF93EF
:1021D2009F938F938E010F5F1F4F1F930F930E9448
:1021E200AD17B80180E80E94C4190FB6F894DEBF9B
:1021F2000FBECDBF882321F168018150E82EF12C5A
:10220200FFEFEF1AFF0AE00EF11E0F2EF0E06F2E25
:10221200F7E07F2EF02DF301438198012C193D093F
:10222200429FC001439F900D1124F80141918F01FB
:10223200B4018A0D9B1D0E94AC080E151F0559F7AB
:102242006E960FB6F894DEBF0FBECDBFDF91CF9171
:102252001F910F91FF90EF90DF90CF90BF90AF90C2
:0A2262009F908F907F906F90089579
:10226C000E94671C38F00E946E1C20F039F49F3FCE
:10227C0019F426F40C94B11C0EF4E095E7FB0C94C5
:10228C00881CE92F0E94D01758F3BA1762077307FE
:10229C008407950720F079F4A6F50C94751C0EF4C0
:1022AC00E0950B2EBA2FA02D0B01B90190010C015A
:1022BC00CA01A0011124FF27591B99F0593F50F472
:1022CC00503E68F11A16F040A22F232F342F4427CA
:1022DC00585FF3CF469537952795A795F0405395C2
:1022EC00C9F77EF41F16BA0B620B730B840BBAF092
:1022FC009150A1F0FF0FBB1F661F771F881FC2F7FD
:10230C000EC0BA0F621F731F841F48F48795779510
:10231C006795B795F7959E3F08F0B0CF9395880FCA
:0C232C0008F09927EE0F9795879508950B
:10233800DF92EF92FF920F931F93CF93DF93D62EE6
:10234800E72EF82EEA01022F0E94C419582F801791
:1023580060F010E098014D2D5E2D6F2DCE010E948A
:102368008A17C00FD11F188239C0081B902F969565
:10237800091B992369F0FE012FEF290F30E02F5F29
:102388003F4F2C0F3D1F40E241932E173F07E1F7C7
:10239800552399F02D2D3E2D4F2D890FF90154917C
:1023A80047FD5081FE01E90FF11D50832F5F3F4F1C
:1023B8004F4F9F5F9813F2CF01C0892F002351F030
:1023C800080F90E2FE01E80FF11D90838F5F8013E4
:1023D800F9CF01C0082FC00FD11D1882DF91CF910E
:0C23E8001F910F91FF90EF90DF9008957F
:1023F400FF920F931F93CF93DF93C0E0D1E0F12CB2
:10240400E0917507F09176070995E0917307F091D3
:10241400740788E70995E0917307F091740780E0E9
:102424000995E0917307F091740780E10995E091B3
:102434007307F091740782E00995E0917307F091B6
:1024440074078F2D806B0995E0917107F0917207E5
:102454000995E0917507F09176070995E091730766
:10246400F091740788E70995E0917307F091740778
:1024740080E409958E0100581F4FE0917307F09195
:10248400740789910995C017D107B9F7E0917107CD
:10249400F09172070995F394E80188E0F812B0CF3F
:0C24A400DF91CF911F910F91FF900895E0
:1024B000FA01AA27283051F1203181F1E8946F9375
:1024C0006E7F6E5F7F4F8F4F9F4FAF4FB1E03ED01B
:1024D000B4E03CD0670F781F891F9A1FA11D680FB9
:1024E000791F8A1F911DA11D6A0F711D811D911DEC
:1024F000A11D20D009F468943F912AE0269F112461
:102500003019305D3193DEF6CF010895462F4770C4
:10251000405D4193B3E00FD0C9F7F6CF462F4F701F
:10252000405D4A3318F0495D31FD4052419302D07D
:10253000A9F7EACFB4E0A695979587957795679523
:10254000BA95C9F700976105710508959B01AC0123
:102550000A2E06945795479537952795BA95C9F74A
:0C256000620F731F841F951FA01D0895BB
:10256C008F929F92AF92BF92CF92DF92EF92FF9297
:10257C000F931F93CF93DF938C015B01922ED32F7C
:10258C00C42F622F732F842F0E94C419F82E882316
:10259C0011F1C92CDD2EEC2EC0E0D0E00F2EF0E0B6
:1025AC008F2EF7E09F2EF02DF6014491E7FC408131
:1025BC00F40123812C9FC0012D9F900D1124B50196
:1025CC00800F911F0E94AC082196FFEFCF1ADF0AF3
:1025DC00EF0ACF1548F3DF91CF911F910F91FF9028
:1025EC00EF90DF90CF90BF90AF909F908F90089519
:1025FC008038910508F041C060347105F0F5411147
:10260C001FC0FB01F695E795F695E795F695E795CE
:10261C00F695FE2FEE27F795E7958E0F9F1FFC0181
:10262C00E050FF4F6770772781E090E002C0880F81
:10263C00991F6A95E2F7809590818923808308958C
:10264C00FB01F695E795F695E795F695E795F695E2
:10265C00FE2FEE27F795E7958E0F9F1FFC01E0509C
:10266C00FF4F6770772781E090E002C0880F991FB9
:0C267C006A95E2F79081892B8083089515
:10268800E89409C097FB3EF4909580957095619504
:102698007F4F8F4F9F4F9923A9F0F92F96E9BB27BA
:1026A8009395F695879577956795B795F111F8CF36
:1026B800FAF4BB0F11F460FF1BC06F5F7F4F8F4FA1
:1026C8009F4F16C0882311F096E911C0772321F097
:1026D8009EE8872F762F05C0662371F096E8862F2F
:1026E80070E060E02AF09A95660F771F881FDAF786
:0A26F800880F9695879597F90895CD
:102702000F931F93CF93DF93FB01248121FD03C01D
:102712008FEF9FEF2CC022FF16C047815085258185
:1027220036814217530744F4A081B1819D012F5F86
:102732003F4F318320838C93278130852F5F3F4F1A
:102742003087278314C08B01EC01FB010184F285E1
:10275200E02D0995892BE1F6D80117968D919C9170
:102762001897019618969C938E931797CE01DF9136
:08277200CF911F910F91089512
:10277A000F931F93CF93DF93CDB7DEB76E970FB644
:10278A00F894DEBF0FBECDBFE0916907F0916A07EA
:10279A00099520E18E010F5F1F4FA8016FE277E0D4
:1027AA0080E00E949C11980140E8E0916307F09153
:1027BA00640768E170E080E090E00995E0916707BE
:1027CA00F091680709956E960FB6F894DEBF0FBEB2
:0C27DA00CDBFDF91CF911F910F910895AA
:1027E6001F920F920FB60F9211242F933F934F9380
:1027F6005F936F937F938F939F93AF93BF93EF9363
:10280600FF930E94441C0E94561580916B0790917D
:102816006C07892B49F080916B0790916C070197A3
:1028260090936C0780936B07FF91EF91BF91AF91E7
:102836009F918F917F916F915F914F913F912F91D2
:0A2846000F900FBE0F901F90189521
:1028500021E030E002C0220F331F6A95E2F7813495
:1028600021F48BB328272BBB0895823421F488B33D
:10287000282728BB0895833421F485B3282725BB56
:102880000895843421F482B3282722BB0895853427
:1028900021F483B1282723B90895863431F4E2E680
:1028A000F0E08081282720830895873429F4E5E625
:0A28B000F0E08081282720830895BE
:1028BA00EBE9F0E0208122602083EAE9F0E0208160
:1028CA0028692083EDE9F0E0208126602083DC017D
:1028DA00CB018E7F880F991FAA1FBB1F880F991FD4
:1028EA00AA1FBB1F9C01AD01220F331F441F551F96
:1028FA0060E072E18AE790E00E94F217DA01C9010A
:10290A000197A109B10980939900892F9A2FAB2FBA
:08291A00BB278093980008958B
:10292200CF92DF92EF92FF920F931F93CF93DF9399
:102932008C01C0E0D0E0C12CD12C7601E091770768
:10294200F0917807C801099590E0A0E0B0E00C2E64
:1029520004C0880F991FAA1FBB1F0A94D2F7C82A66
:10296200D92AEA2AFB2A0F5F1F4F2896C032D105C7
:1029720029F7C701B601DF91CF911F910F91FF9007
:08298200EF90DF90CF90089563
:10298A00CF93C82F8BE297E00E949C1C6FE570E002
:10299A008BE297E00E945F16882341F00E94AE1CEA
:1029AA00813021F464E082E40E94281465E070E03A
:1029BA008BE297E00E945F16882341F00E94AE1CCA
:1029CA00813021F464E082E40E9428148BE297E0CB
:1029DA000E947C1C882319F08C2F0E946819CF91C1
:0229EA0008954E
:1029EC00AC016623F9F090917F07292F30E0F901B3
:1029FC00EE0FFF1FEA50F94F60915F07709160076F
:102A0C0071836083F901EA5DF84F809180078083C0
:102A1C009F5F90937F075093600740935F071092DE
:102A2C0080070CC01092800710927F0780915D0781
:102A3C0090915E079093600780935F070E94FB0C58
:022A4C000895EB
:102A4E000E94D81788F09F5798F0B92F9927B75141
:102A5E00B0F0E1F0660F771F881F991F1AF0BA9534
:102A6E00C9F714C0B13091F00E94751CB1E0089501
:102A7E000C94751C672F782F8827B85F39F0B93FF3
:102A8E00CCF3869577956795B395D9F73EF49095E7
:0E2A9E008095709561957F4F8F4F9F4F0895E3
:102AAC0080918307882349F1E0E5F5E0815090E0BF
:102ABC0001969C01220F331F220F331F220F331F4D
:102ACC00281B390B205B3A4F808180FF12C082FD9E
:102ADC0010C0438154814230510528F041505109B6
:102AEC005483438306C08460808381819281948364
:0C2AFC0083833796E217F30739F708953B
:102B0800FC019381892F827091FF16C0A081B18149
:102B18001196B183A083662361F08281882321F016
:102B28008150828381E0089542839D7F938382E070
:102B38000895228381E0089561110BC03281332307
:102B480019F03150328306C022839260938381E06A
:0A2B5800089542831182108208954F
:102B6200CF93DF93A82FCB01C0E0D7E0888399836E
:102B7200AA83FC012491A7FD20812B839C014A2F6B
:102B82002F5F3F4F4F4FF901249147FD20812C8346
:102B92009C014A2F2E5F3F4F4F4FF901249147FD71
:102BA20020812D830396A11DFC018491A7FD8081C4
:0A2BB2008E831F82DF91CF910895FA
:102BBC00CF92DF92EF92FF920F931F93CF93DF93FD
:102BCC006A017B018C01C0E0D0E0C701B6010C2E7C
:102BDC0004C096958795779567950A94D2F7E091FE
:102BEC007907F0917A07C801099528960F5F1F4F56
:102BFC00C032D10551F7DF91CF911F910F91FF900A
:082C0C00EF90DF90CF900895D6
:102C140080917E07882331F180FF06C08E7F8093E8
:102C24007E078FE40E940D0780917E0781FF06C016
:102C34008D7F80937E0785E50E940D0780917E0736
:102C440082FF06C08B7F80937E0784E40E940D0779
:102C540080917E0783FF06C0877F80937E0782E48E
:062C64000E940D07089517
:102C6A00CF9380918307882319F1C0E02C2F30E09D
:102C7A0087E0C89FF0011124E05BFA4F808182FF50
:102C8A0012C0F901EE0FFF1FEE0FFF1FEE0FFF1F1D
:102C9A00E21BF30BE05BFA4F8B7F80830580F681A2
:102CAA00E02D8C2F0995CF5F80918307C817F0F22A
:042CBA00CF91089519
:102CBE00FC019081838121E0280F2383911109C0AB
:102CCE008083615071097283618381E080938207F2
:102CDE000895981311C0818192818230910538F048
:102CEE0001979283818382E08093820708951082F8
:102CFE0083E08093820708951092820780E0089502
:102D0E001F920F920FB60F9211242F933F934F9352
:102D1E005F936F937F938F939F93AF93BF93EF9335
:102D2E00FF9380919C000E945418FF91EF91BF91E8
:102D3E00AF919F918F917F916F915F914F913F9145
:0C2D4E002F910F900FBE0F901F90189552
:102D5A00CF93809184078823F9F0C0E08C2F90E00C
:102D6A00FC01EE0FFF1FE80FF91FEC55F94F208108
:102D7A0020FF0DC0FC01EE0FFF1F8E0F9F1FFC01ED
:102D8A00EC55F94F0180F281E02D8C2F0995CF5F28
:0C2D9A0080918407C81710F3CF910895B2
:102DA60021E030E002C0220F331F6A95E2F781343A
:102DB60011F489B316C0823411F486B312C0843478
:102DC60011F480B30EC0853411F481B10AC0863483
:102DD60011F480B106C0873419F48091630001C0F4
:0C2DE60080E0282381E009F480E00895DB
:102DF2001F920F920FB60F9211242F933F934F936E
:102E02005F936F937F938F939F93AF93BF93EF9350
:102E1200FF938CB10E947318FF91EF91BF91AF9114
:102E22009F918F917F916F915F914F913F912F91E0
:0A2E32000F900FBE0F901F9018952F
:102E3C001F920F920FB60F9211242F933F934F9323
:102E4C005F936F937F938F939F93AF93BF93EF9306
:102E5C00FF930E94321CFF91EF91BF91AF919F9114
:102E6C008F917F916F915F914F913F912F910F9027
:082E7C000FBE0F901F90189586
:102E840080937300E4E7F0E080818F77808384E8A7
:102E940080838081882324F40AC0815021F407C0F0
:102EA40083E2E4E7F0E0000090819923B4F7809195
:102EB4007100887F883221F0803321F082E0089508
:082EC40080E0089581E008950B
:102ECC00990F0008550FAA0BE0E8FEEF161617062F
:102EDC00E807F907C0F012161306E407F50798F097
:102EEC00621B730B840B950B39F40A2661F0232BB0
:102EFC00242B252B21F408950A2609F4A140A6952C
:082F0C008FEF811D811D089566
:102F1400CF92DF92EF926A01E62EDC012115310592
:102F2400B1F0F6014491E7FC40814C93442341F015
:102F3400215031094FEFC41AD40AE40A1196EECF96
:102F44002A0F3B1F2A173B0711F01D92FBCFEF906E
:062F5400DF90CF9008950C
:102F5A00AFE0B0E0E3EBF7E10C94BC180E891F89EF
:102F6A0086E08D831A8309838FEF9FE79F838E8381
:102F7A009E01255E3F4F488D598D6A8DCE0101967F
:102F8A000E94E904E885F985E00FF11F10822F9667
:062F9A00E4E00C94F318C2
:102FA00057FD9058440F551F59F05F3F71F04795FA
:102FB000880F97FB991F61F09F3F79F087950895DF
:102FC000121613061406551FF2CF4695F1DF08C0FE
:102FD000161617061806991FF1CF8695710561051B
:042FE00008940895B4
:102FE400A1E21A2EAA1BBB1BFD010DC0AA1FBB1F09
:102FF400EE1FFF1FA217B307E407F50720F0A21B7B
:10300400B30BE40BF50B661F771F881F991F1A94E7
:1030140069F760957095809590959B01AC01BD0111
:04302400CF0108953B
:10302800853531F490917E07926090937E0710C0A9
:103038008F3431F480917E07816080937E070895F4
:10304800843431F480917E07846080937E070895EC
:10305800823429F480917E07886080937E070895E2
:10306800CF92DF92EF92CF936B01E82EFB01849110
:10307800E7FC8081882379F0C0E00E943B1BCF5F8A
:10308800AE2DC6018C0F911DA11DFC018491A7FDD9
:1030980080818111F2CFCF91EF90DF90CF9008958A
:1030A800CF93C82F8C3381F08E3349F4E0917C079D
:1030B800F0E0EA52F94F108281E00E94F91BE0919A
:1030C8007C07E43150F401C0E0E081E08E0F80938A
:0E30D8007C07F0E0EA52F94FC083CF910895D3
:1030E600CF93C82F8C3381F08E3349F4E0917B0760
:1030F600F0E0EE53F94F108280E00E94F91BE09158
:103106007B07E43150F401C0E0E081E08E0F80934C
:0E3116007B07F0E0EE53F94FC083CF91089590
:1031240080917F078823B9F0815080937F0790E0D6
:10313400FC01EE0FFF1FEA50F94F208131813093DB
:10314400600720935F07FC01EA5DF84F808180935C
:0831540080070E94FB0C0895A6
:10315C002F923F924F925F926F927F928F929F929B
:10316C00AF92BF92CF92DF92EF92FF920F931F9389
:10317C00CF93DF93CDB7DEB7CA1BDB0B0FB6F8943A
:08318C00DEBF0FBECDBF0994A8
:10319400CF92DF92EF926B01E82EA82FCB0141155D
:1031A400510531F48C199D09EF90DF90CF9008956B
:1031B400FC012491A7FD20812223A1F30196A11DE6
:0631C40041505109ECCF5F
:1031CA002A88398848885F846E847D848C849B84AD
:1031DA00AA84B984C884DF80EE80FD800C811B81BB
:1031EA00AA81B981CE0FD11D0FB6F894DEBF0FBEEA
:0631FA00CDBFED010895B8
:10320000882339F070930D0660930C0680E090E0FF
:1032100008958091500790915107A0915207809393
:10322000560790935707A093580780910C069091EA
:043230000D060895EA
:10323400882339F070930F0660930E0680E090E0C7
:1032440008958091500790915107A091520780935F
:10325400560790935707A093580780910E069091B4
:043264000F060895B4
:10326800882339F0709311066093100680E090E08F
:10327800089580914D0790914E07A0914F07809334
:10328800560790935707A09358078091100690917E
:04329800110608957E
:10329C00882339F0709313066093120680E090E057
:1032AC00089580914D0790914E07A0914F07809300
:1032BC00560790935707A093580780911206909148
:0432CC001306089548
:1032D000282F30E097E0899FF0011124E05BFA4F3E
:1032E000808183FD0DC0F901EE0FFF1FEE0FFF1F60
:1032F000EE0FFF1FE21BF30BE05BFA4F8E7F808324
:0233000008952E
:103302009C019AE030936C0720936B079150D1F7A0
:1033120080916B0790916C07892B41F00E948E1C63
:0E33220080916B0790916C07892BC1F708957D
:10333000CF93C82F48E466E083E40E947F0F66EDD8
:1033400076E080E80E9434184CE466E083E40E9452
:0C3350007F0F8C2F0E94061CCF91089567
:10335C000F931F93CF93DF93162FC42FD22F402F91
:10336C00622F8C2F0E947F0F412F6D2F8C2F0E946C
:0C337C00ED0FDF91CF911F910F9108958C
:10338800CF92DF92EF926B01E82EA82FCB01FC01C0
:103398002491A7FD2081222319F00196A11DF7CFC2
:0C33A8008C199D09EF90DF90CF900895E4
:1033B400882339F07093FD056093FC0580E090E06C
:1033C400089580E297E0909362078093610780916B
:0833D400FC059091FD05089530
:1033DC00882339F07093FF056093FE0580E090E040
:1033EC00089580E297E09093620780936107809143
:0833FC00FE059091FF05089504
:10340400882339F0709301066093000680E090E011
:10341400089580E297E0909362078093610780911A
:083424000006909101060895D5
:10342C00882339F0709303066093020680E090E0E5
:10343C00089580E297E090936207809361078091F2
:08344C000206909103060895A9
:10345400882339F0709315066093140680E090E099
:1034640008958AE197E090936207809361078091C1
:0834740014069091150608955D
:10347C00882339F0709317066093160680E090E06D
:10348C0008958AE197E09093620780936107809199
:08349C00160690911706089531
:1034A400882339F070931D0660931C0680E090E039
:1034B400089584E197E09093620780936107809177
:0834C4001C0690911D060895FD
:1034CC00882339F0709323066093220680E090E005
:1034DC0008958EE097E09093620780936107809146
:0834EC002206909123060895C9
:1034F400882339F0709325066093240680E090E0D9
:1035040008958AEE96E09093620780936107809114
:0835140024069091250608959C
:10351C00882339F0709327066093260680E090E0AC
:10352C00089588E097E090936207809361078091FB
:08353C00260690912706089570
:103544000F931F93CF930AEF15E0C0E08C2F0E94D6
:10355400591CF801619371938F01CF5FC931B1F7A1
:08356400CF911F910F91089512
:10356C00CF93C0E040E050E0BA018C2F0E94521C77
:10357C00CF5FC931B9F74BEB5AEA60E070E080E0FD
:08358C000E94521CCF9108952A
:10359400AA1BBB1B51E107C0AA1FBB1FA617B70775
:1035A40010F0A61BB70B881F991F5A95A9F7809591
:0835B4009095BC01CD010895C2
:1035BC0057E0859FC0011124FC01E05BFA4F368374
:1035CC002583608350E052834183809183078F5F12
:0635DC00809383070895AF
:1035E200E4E7F0E084EA80838081882324F408956C
:1035F200815021F4089583E2E4E7F0E00000908135
:063602009923B4F70895BE
:10360800E4E7F0E084E980838081882324F4089546
:10361800815021F4089583E2E4E7F0E0000090810E
:063628009923B4F7089598
:10362E006BE47CE188E29CE10E943B1C81E00E94FD
:10363E00591C672B682B692B11F00E94B61A0E9439
:04364E00A21A08951F
:1036520090E0FC01EE0FFF1F8E0F9F1FFC01EC5547
:10366200F94F608352834183809184078F5F8093F7
:04367200840708952C
:10367600EBE9F0E0908195FFFDCF80939C00EBE9AC
:10368600F0E0808186FFFDCFEBE9F0E08081806489
:043696008083089590
:10369A00092E0394000C11F4882352F0BB0F40F456
:1036AA00BF2B11F460FF04C06F5F7F4F8F4F9F4F96
:0236BA00089571
:1036BC00A29FB001B39FC001A39F700D811D112467
:0E36CC00911DB29F700D811D1124911D089556
:1036DA00882339F0709305066093040680E090E031
:0C36EA0008958091040690910506089553
:1036F600882339F0709307066093060680E090E011
:0C37060008958091060690910706089532
:10371200882339F0709309066093080680E090E0F0
:0C37220008958091080690910906089512
:10372E00882339F070930B0660930A0680E090E0D0
:0C373E00089580910A0690910B060895F2
:10374A00882339F0709319066093180680E090E098
:0C375A00089580911806909119060895BA
:10376600882339F070931B0660931A0680E090E078
:0C377600089580911A0690911B0608959A
:10378200882339F070931F0660931E0680E090E054
:0C379200089580911E0690911F06089576
:10379E00882339F0709321066093200680E090E034
:0C37AE0008958091200690912106089556
:1037BA00882339F0709329066093280680E090E008
:0C37CA000895809128069091290608952A
:1037D600882339F070932B0660932A0680E090E0E8
:0C37E600089580912A0690912B0608950A
:1037F20090E0FC01EE0FFF1F8E0F9F1FFC01EC55A6
:0A380200F94F8081816080830895F2
:10380C0090E0FC01EE0FFF1F8E0F9F1FFC01EC558B
:0A381C00F94F80818E7F80830895AC
:1038260080E094E0E0E0F1E0DF019C011D92215090
:063836003040E1F70895A7
:10383C00882321F087B7846087BF089587B78B7F73
:04384C0087BF089595
:10385000E199FECF9FBB8EBB6DBBE29AE19AE199E5
:04386000FECF0895FA
:1038640080916D0790916E079093890080938800F2
:023874000895B5
:1038760090937A0780937907709378076093770718
:023886000895A3
:0E38880080916F07909170079DBD8CBD0895D3
:0E389600E199FECF9FBB8EBBE09A8DB30895E3
:0E38A40024E0829FC00111240E94DE150895C9
:0E38B20024E0829FC00111240E949114089509
:0E38C0005058BB27AA270E9447110C944D1B9D
:0E38CE0000240A941616170618060906089517
:0E38DC0000240A941216130614060506089519
:0E38EA00E894BB2766277727CB0197F908954E
:0C38F800FC0181E09081911180E00895B6
:0C390400882311F078940895F894089539
:0C39100097F99F6780E870E060E0089580
:0A391C000E9435160E94AD160895B2
:0A3926000E94661708F481E008957E
:08393000FC01808191810895E2
:0839380021E0FC012383089546
:0839400086E0809370000895F9
:083948000E946B100C944D1B52
:063950000E94061C089510
:063956000E94580C0895C8
:06395C008091820708952E
:063962009FEF80EC0895C8
:043968000C940000BB
:10396C0047090004DA190100000054090004EE199B
:10397C000100000061090004021A01000000710935
:10398C000004161A01000000820900026D1B64007D
:10399C0000008F0900027B1B640000009C090002E0
:1039AC00891B64000000AC090002971B6400000036
:1039BC00900700012C06000000009F070001C805BD
:1039CC0000000000AC070001000500000000BB0770
:1039DC0000017C0600000000CA070001540600002C
:0239EC000000D9
:1039EE00D80700047A1A03000000E60700048E1AB6
:1039FE0003000000F1070002DD1B64000000FD075C
:103A0E000002EB1B640000000F0800100000000015
:023A1E000000A6
:103A20005D080004521A0100000068080002C11B72
:103A30006400000077080002CF1B14000000840817
:083A40000004661A01000000F9
:103A4800A20800042A1A01000000B00800043E1A67
:103A580001000000BE080002A51BFA000000CD0806
:083A68000002B31BFA0000008C
:103A7000F5080008001900000000030900081A19E1
:103A8000000000001109000834190000000020099E
:083A900000084E1900000000BF
:0C3A98002B08003308003C08004C08001C
:063AA4001C0800240800CC
:063AAA008D0800910800E8
:063AB0009508009A0800D1
:063AB600DC0800E9080035
:063ABC00BD0900C609006F
:033AC2004E0700AC
:033AC5005907009E
:033AC8006507008F
:033ACB007207007F
:033ACE007B070073
:033AD10086070065
:033AD4002F0900B7
:033AD7003C0900A7
:00000001FF
