:100000000C9449000C9418180C9418180C94181897
:100010000C9418180C9418180C9418180C941818A0
:100020000C9418180C9418180C9418180C94181890
:100030000C9418180C9418180C94CF130C941818CE
:100040000C9418180C9418180C944A140C94181842
:100050000C9418180C9418180C9418180C94181860
:100060000C9418180C9418180C9418180C94181850
:100070000C9418180C94F8130C9421140C94181860
:100080000C9418180C9418180C941818010002FC01
:10009000800011241FBECFEFD0E1DEBFCDBFECE862
:1000A000F0E040E017C0B591A591359125910591FB
:1000B00007FD0CC095918591EF01F92FE82F059070
:1000C0000D92A217B307D9F7FE0104C01D92A21723
:1000D000B307E1F7E139F40731F70E94A0080C9467
:0600E0005317F894FFCF56
:1000E60051003A003F004D41494E31003C0052005C
:1000F6003E004F5A414B2047454349532054454BF8
:100106004E4F4C4F4A494C45524920202020202032
:100116000043414C4C2043454E544552202020205C
:1001260020202020202020202020202020202020C9
:1001360020202020202020202020202020202020B9
:0D01460020004364646464642020202000D5
:1001530068076C094C836A9074A07AC00080688831
:0601630000846C820081A3
:08016900256C7500256C58009F
:07017100286E756C6C29007B
:06017800286E696C2900ED
:10017E002F923F924F926F927F928F929F92AF9259
:10018E00BF92CF92DF92EF92FF920F931F93CF9376
:10019E00DF93CDB7DEB72E970FB6F894DEBF0FBE46
:1001AE00CDBF4C016B0138011A8219828FEF9FEF80
:1001BE009C838B831E821D8258874F833A872987A3
:1001CE00A12CB12CD6012D913D914C912A0D3B1DA8
:1001DE00411DB7FC4A95F901849147FD808181113B
:1001EE0016C0F601208331834283F901849147FDC5
:1001FE008081853209F00FC21901442EFFEF2F1AAC
:10020E003F0A4F0AD6012D923D924C921BC0853269
:10021E0041F3B401082E000C990B0E9406104FEF0B
:10022E00A41AB40ACFCF2C32DCF02D3229F5298155
:10023E003A8121603A8329830196A11DF6018083BC
:10024E009183A283F60180819181A281FC01249188
:10025E00A7FD20812B3239F729813A812460EACF1C
:10026E00203221F429813A812860E4CF233251F4DF
:10027E0029813A812061DECF203321F429813A8110
:10028E002260D8CFB701C6010E9471129E838D8362
:10029E0097FF0BC029813A81F1E02F273A832983FA
:1002AE009195819591099E838D8389819A8180FF95
:1002BE0003C08D7F9A838983F60180819181A2810B
:1002CE00FC012491A7FD20812E3261F40196A11D1F
:1002DE00F60180839183A283B701C6010E94711239
:1002EE009C838B83C6010E94690F182FD6012C9117
:1002FE0011968C91119712969C91E22FF82F849162
:10030E0097FD8081082E000C990B0E94A11789364B
:10031E0009F44AC084F4833609F419C134F48532E1
:10032E0009F445C18136E1F050C18436E9F18836D1
:10033E000CF4E9C04AC1803709F4B0C03CF48E36E3
:10034E0009F4D6C08F3609F46DC03FC1853709F464
:10035E004AC0883709F485C0833709F036C10DC10C
:10036E00612F70E0A701CE010B960E940000892B31
:10037E0009F448C1F60180819181A2819C014A2F26
:10038E002F5F3F4F4F4F208331834283FC012491D7
:10039E00A7FD2081AE01455F5F4FBE016F5F7F4FAE
:1003AE00C4010E9400002BC1612F70E0970141E053
:1003BE0050E0CE010B960E946C0C892B09F422C1E1
:1003CE00F60180819181A2810196A11D8083918386
:1003DE00A283AE01455F5F4FBE016F5F7F4FC401C9
:1003EE000E943C0A0CC1612F70E0970140E050E082
:1003FE00CE010B960E946C0C892B09F403C1F601F9
:10040E0080819181A2810196A11D80839183A28317
:10041E00AE01455F5F4FBE016F5F7F4FC4010E940B
:10042E002F11EDC0612F70E0970140E050E0CE013A
:10043E000B960E946C0C892B09F4E4C0F6018081A6
:10044E009181A2810196A11D80839183A283AE0129
:10045E00455F5F4FBE016F5F7F4FC4010E940E0E5E
:10046E00CEC0612F70E0970140E050E0CE010B96B8
:10047E000E946C0C892B09F4C5C0F6018081918114
:10048E00A2819C014A2F2F5F3F4F4F4F2083318314
:10049E004283FC012491A7FD208120C0970140E0FA
:1004AE0050E060EF70E0CE010B960E946C0C892B31
:1004BE0009F4A8C0F60180819181A2810196A11D47
:1004CE0080839183A2838B859C85892B31F400E0F8
:1004DE0010E028E731E040E08CC028E7AE01455F30
:1004EE005F4FBE016F5F7F4FC4010E94420687C0FF
:1004FE00A501460D571D612F70E09701CE010B9699
:10050E000E9400007FC0612F70E0A701CE010B9604
:10051E000E940000892B09F475C0F601808191813B
:10052E00A2819C014A2F2F5F3F4F4F4F2083318373
:10053E004283FC012491A7FD2081AE01455F5F4FF0
:10054E00BE016F5F7F4FC4010E94000058C010387B
:10055E0009F058C0F60180819181A2810196A11DFA
:10056E0080839183A283D701ED91FC911197CF01E6
:10057E0002968D939C93808126C0103809F042C05C
:10058E00F60180819181A2810196A11D80839183C4
:10059E00A283D701ED91FC911197CF0103968D9314
:1005AE009C9320813181428100E010E022C01038FE
:1005BE0049F5F6012081318142812F5F3F4F4F4F28
:1005CE002083318342838B870EC085E28B87F601B1
:1005DE002082318242821A8219821E821D828FEF00
:1005EE009FEF9C838B839E01255F3F4F40E801E088
:1005FE0010E0BE016F5F7F4FC4010E9434128A0D5E
:10060E009B1D0AC0F60180819181A2810196A11DD8
:10061E0080839183A283C5012E960FB6F894DEBF18
:10062E000FBECDBFDF91CF911F910F91FF90EF9035
:10063E00DF90CF90BF90AF909F908F907F906F90F4
:08064E004F903F902F9008959A
:100656002F923F924F925F926F927F928F929F92CC
:10066600AF92BF92CF92DF92EF92FF920F931F93BA
:10067600CF93DF93CDB7DEB7C954D1090FB6F8943F
:10068600DEBF0FBECDBF2C0180E00E94301725963D
:100696006CAF7DAF8EAF9FAF259784E00E94301779
:1006A6002A966FAF2A9720E8622E7E013FE1E30E7D
:1006B600F11C01E021E0A701862DB2010E94AD12D6
:1006C6004E0142E2840E911C05E022E0A401862D33
:1006D600B2010E94AD125E0188E2A80EB11C07E0CD
:1006E60026E0A501862DB2010E94AD126E019BE2A5
:1006F600C90ED11C09E028E0A601862DB2010E9490
:10070600AD120AE02AE0AE01425D5F4F862DB201CE
:100716000E94AD128E010B5E1F4FA801862DB201FD
:100726000E94680E1401A0E84A2E842DB1010E9491
:10073600C10E6AAF7BAF8CAF9DAF3501B0E88B2E93
:10074600882DB3010E94C10E962E560120E8C22EB6
:100756008C2DB5010E94C10ED62EA80160E88D2D04
:100766000E94E81529966CAF7DAF8EAF9FAF299793
:10077600C701A0E821968DAF9EAFAFAF219726EEB9
:1007860030E040E0BC018A2F0E94B80F81113AC1C7
:100796002AAD3BAD2115310569F491E0D91205C0AA
:1007A600FE013196CE0145961AC08091F80281115C
:1007B600F7CF28C18D2D8B7F21F48091F80281110E
:1007C600EFCF2396AEADBFAD23972A173B0709F0AF
:1007D60019C12A96BFAD2A97B91114C1E1CF11925A
:1007E600E817F907E1F7CE018E969C0140E82AAF9B
:1007F6003BAF4CAF28EE30E040E06AAD7BAD8CAD50
:100806000E94B80F81115EC08D2D0E9473178D2D29
:100816000E94731791FFF6C031E0D31241C02996AA
:100826008CAD9DADAEADBFAD2997892B8A2B8B2B99
:1008360059F41092F8020E94041840E050E0BA0100
:1008460081E00E94771135C081E00E943017299619
:100856000CAD1DAD2EAD3FAD2997A7E50A27A4E047
:100866001A27061717072807390779F48FEF809399
:10087600F80229964CAD5DAD6EAD7FAD299781E04E
:100886000E9477110E940F1814C01092F80240E0DF
:1008960050E0BA0181E00E9477110E940F1809C04A
:1008A60029964CAD5DAD6EAD7FAD29978D2D0E941D
:1008B60077118D2D0E94731794FF04C06AE38D2D66
:1008C6000E94FD162AEE30E040E06AAD7BAD8CADAD
:1008D6000E94B80F811122C08D2D0E94731792FFBE
:1008E60091C0B1E0DB1211C00E941218882309F4EE
:1008F60089C00E940A170E94FA17AC0160E070E0F6
:1009060081E00E9477110E940F188D2D0E947317A7
:1009160094FF04C06FE38D2D0E94FD168D2D0E945D
:10092600731793FF03C08D2D0E94F016BE01605D04
:100936007F4F8D2D0E942F0780E00E94301724E004
:10094600AE014E5D5F4F0E94300984E00E94301771
:1009560022E0AE01485D5F4F0E9430098D2D0E9456
:10096600731796FF07C04CEE50E060E0CE0101968B
:100976000E94991442EF50E060E0CE0101960E9479
:10098600991421964DAD5EAD6FAD2197CE010196BE
:100996000E94991444EF50E060E0CE0101960E9457
:1009A6009914642DA101CE0101960E949914682D17
:1009B600A301CE0101960E9499146C2DA501CE01CA
:1009C60001960E94991448EE50E060E0CE0101962F
:1009D6000E949914AE01405D5F4F60E8CE0101961A
:1009E6000E94991446EF50E060E0CE0101960E9405
:1009F60099148D2D0E94731795FF04C0CE010196A0
:100A06000E944817C75BDF4F0FB6F894DEBF0FBED4
:100A1600CDBFDF91CF911F910F91FF90EF90DF90A7
:100A2600CF90BF90AF909F908F907F906F905F9088
:080A36004F903F902F900895AE
:100A3E00AF92BF92CF92DF92EF92FF920F931F93DE
:100A4E00CF93DF93C091FB02CC2309F409C16091CF
:100A5E00CD027091CE028091CF020E9415168C01AC
:100A6E006091CA027091CB028091CC020E94151641
:100A7E007C01C13009F041C060E080E00E947D172A
:100A8E00C0E0D0E001151105E9F08091F6029091D9
:100A9E00F7028C0F9D1FB8010E9453162091CD02B4
:100AAE003091CE024091CF025901C42EA80EB91E2C
:100ABE00C11C97FDCA94AC2DC501F5018491A7FD0B
:100ACE00808101C080E20E949F162196C031D1051F
:100ADE00C9F62091CA023091CB024091CC0260E05F
:100AEE0081E00E9462158091F6029091F7020196C4
:100AFE009093F7028093F602B3C0C23009F041C062
:100B0E0060E081E00E947D17C0E0D0E0E114F104C6
:100B1E00E9F08091F4029091F5028C0F9D1FB701C0
:100B2E000E9453162091CA023091CB024091CC0202
:100B3E005901C42EA80EB91EC11C97FDCA94AC2D26
:100B4E00C501F5018491A7FD808101C080E20E945C
:100B5E009F162196C031D105C9F62091CD02309154
:100B6E00CE024091CF0260E080E00E94621580913B
:100B7E00F4029091F50201969093F5028093F4029F
:100B8E006FC0C33009F06CC060E080E00E947D173A
:100B9E00C0E0D0E001151105E9F08091F6029091C8
:100BAE00F7028C0F9D1FB8010E9453162091CD02A3
:100BBE003091CE024091CF025901C42EA80EB91E1B
:100BCE00C11C97FDCA94AC2DC501F5018491A7FDFA
:100BDE00808101C080E20E949F162196C031D1050E
:100BEE00C9F660E081E00E947D17C0E0D0E0E1141C
:100BFE00F104E9F08091F4029091F5028C0F9D1FA3
:100C0E00B7010E9453162091CA023091CB02409137
:100C1E00CC025901C42EA80EB91EC11C97FDCA9450
:100C2E00AC2DC501F5018491A7FD808101C080E244
:100C3E000E949F162196C031D105C9F68091F60209
:100C4E009091F70201969093F7028093F6028091AD
:100C5E00F4029091F50201969093F5028093F402BE
:100C6E00DF91CF911F910F91FF90EF90DF90CF907A
:060C7E00BF90AF90089545
:100C8400AFE0B0E0E8E4F6E00C947F151C016B01E2
:100C94005A8349832B83FB018281938184809580CD
:100CA400E080F180A680B78097FD03C0E894E1F866
:100CB40002C081E090E0E981FA8140805180628045
:100CC40073809701207133273D832C838401E4FED4
:100CD40007C0411451046104710411F00250110958
:100CE400F701E870FF27FF83EE83E3FE02C00150A3
:100CF4001109F6010084F185E02D3197FF87EE8715
:100D0400EA0DFB1D10829C01201B310B39872887BB
:100D1400C701827099279B878A87EB818E2FEE0FFC
:100D2400990B9C01215431093D872C872E853F85E1
:100D34002230310530F48C819D81892B09F041C02A
:100D44005BC0411451046104710459F18E859F857F
:100D540001979F878E87C2018F7099278A309105EA
:100D640014F4C09602C0895A9F4FEC85FD857A978A
:100D740048F49C012062215631092A31310510F4CE
:100D84000E949017EE85FF85EA0DFB1D80830150BC
:100D9400110984E076946794579447948A95D1F71F
:100DA400C5CF88859985800F911F1816190674F28E
:100DB400101611060CF0BFCFEA85FB85EF2B31F638
:100DC400BACFE981FA8180819181A281B381892B93
:100DD4008A2B8B2B89F0EE85FF85EA0DFB1D31975D
:100DE4002B8120838E859F8502979F878E87FC01A8
:100DF400EA0DFB1D80E38083EE81FF81EF2B59F028
:100E04002E853F85215031093F872E87F901EA0D50
:100E1400FB1D80E28083F601208531852150310954
:100E24008E859F85281B390B8A0D9B1DAC0160E8BC
:100E34008401C1010E9452109C01F10180819181C1
:100E440090FF06C0F60182819381821793070CF408
:0A0E5400C9012F96E2E10C949B15F2
:100E5E000F931F93CF93DF938B01C82FD0E0FE012A
:100E6E00E295F295F07FFE27E07FFE27EE5FFE4FC4
:100E7E00808182FF11C0FE01E295F295F07FFE2780
:100E8E00E07FFE27EE5FFE4F628173818481958144
:100E9E0022E0A8010E943009FE01E295F295F07F52
:100EAE00FE27E07FFE27EE5FFE4F808183FF11C09D
:100EBE00FE01E295F295F07FFE27E07FFE27EE5FC2
:100ECE00FE4F628173818481958124E0A8010E9486
:100EDE003009FE01E295F295F07FFE27E07FFE27B6
:100EEE00EE5FFE4F808184FF11C0FE01E295F29508
:100EFE00F07FFE27E07FFE27EE5FFE4F628173815B
:100F0E008481958121E0A8010E94B709FE01E29536
:100F1E00F295F07FFE27E07FFE27EE5FFE4F808189
:100F2E0085FF11C0FE01E295F295F07FFE27E07F6E
:100F3E00FE27EE5FFE4F628173818481958122E0F0
:100F4E00A8010E94B709FE01E295F295F07FFE27F7
:100F5E00E07FFE27EE5FFE4F808186FF11C0FE010F
:100F6E00E295F295F07FFE27E07FFE27EE5FFE4FC3
:100F7E00628173818481958123E0A8010E94B70963
:100F8E00FE01E295F295F07FFE27E07FFE27EE5FF1
:100F9E00FE4F808187FF11C0FE01E295F295F07F32
:100FAE00FE27E07FFE27EE5FFE4F62817381848114
:100FBE00958124E0A8010E94B709FE01E295F29501
:100FCE00F07FFE27E07FFE27EE5FFE4F808191814E
:100FDE0090FF08C0628173818481958125E0A8010C
:0E0FEE000E94B709DF91CF911F910F910895D6
:100FFC008F929F92AF92BF92CF92DF92EF92FF921D
:10100C000F931F93CF93C82F84FB442740F90F2EC7
:10101C00F6ED8F2EF2E09F2EF02DF401628180818F
:10102C0091810E94B615C5FB442740F90F2EF9EDAE
:10103C00AF2EF2E0BF2EF02DF501628180819181FF
:10104C000E94B615C6FB442740F90F2EFCEDCF2E9F
:10105C00F2E0DF2EF02DF6016281808191810E94F9
:10106C00B6154C2F441F4427441F0F2EFFEDEF2EB7
:10107C00F2E0FF2EF02DF7016281808191810E94B8
:10108C00B61500ED12E041E0F8016281808191819A
:10109C000E94B61582E30E94991740E0F801628124
:1010AC00808191810E94B61582E30E9499174C2F82
:1010BC004170F4016281808191810E94B615C1FB5F
:1010CC00442740F9F5016281808191810E94B61517
:1010DC00C2FB442740F9F6016281808191810E9414
:1010EC00B615C3FB442740F9F701628180819181D9
:1010FC000E94B61541E0F8016281808191810E94C5
:10110C00B61582E30E94991740E0F8016281808154
:10111C0091810E94B61582E30E949917CF911F917D
:10112C000F91FF90EF90DF90CF90BF90AF909F907A
:04113C008F900895F3
:101140006BE276E181E090E00E9424170CE424E059
:1011500042E46FE484E40E94FF1520E042E46FE47F
:1011600084E40E94FF1521E042E46FE484E40E94DD
:10117000FF1522E042E46FE484E40E94FF1523E0BF
:1011800042E46FE484E40E94FF1526E042E46FE449
:1011900084E40E94FF1527E042E46FE484E40E94A7
:1011A000FF1527E133E144E650E069E082E992E08F
:1011B0000E94B01728EE37E140E050E060E089E996
:1011C00092E00E94B0172AE138E140E050E060E090
:1011D00080EA92E00E94B01781E00E94EE1787E05B
:1011E0008F931F9288E38F9386E08F930F2EF8E3FF
:1011F0008F2E912CF02D0F2EF3E0AF2EF02D0F2E11
:10120000F8E3CF2ED12CF02D6894EE24E1F808E31A
:1012100010E021E048E350E060E088E390E00E94C5
:10122000D90C28EF30E040E060E080E00E947513C8
:1012300027E131E040E060E081E00E94751328E49E
:1012400031E040E060E081E00E94751383E00E949D
:10125000D2160F900F900F900F900E94A917FDCFFC
:10126000FF920F931F93CF93DF93CDB7DEB72997EC
:101270000FB6F894DEBF0FBECDBF8A01F22E9F934A
:101280008F937F936F938DE691E0A0E0AF939F9350
:101290008F93CE0101969F938F930E9467160FB68E
:1012A000F894DEBF0FBECDBF8981882309F44EC0FC
:1012B00020E001C0282F81E0820FE1E0F0E0EC0F98
:1012C000FD1FE80FF11D90819111F4CF8F15B0F043
:1012D000882379F0FE013196D80130E02F5F3F4F2F
:1012E0002E0F3F1F91919D93E217F307D9F701C08D
:1012F00080E0F801E80FF11D10822DC04F2D481B32
:1013000069F0F8012FEF240F30E02F5F3F4F200FDF
:10131000311F90E39193E217F307E1F7882389F0F7
:10132000FE013196D801A40FB11D8150282F30E065
:101330002F5F3F4F2E0F3F1F91919D93E217F307B1
:10134000D9F7F801EF0DF11D108205C0FF2081F2E1
:101350004F2D80E0D6CF29960FB6F894DEBF0FBE92
:0E136000CDBFDF91CF911F910F91FF900895A7
:10136E00FF920F931F93CF93DF93CDB7DEB72B97DB
:10137E000FB6F894DEBF0FBECDBF8A01F22E9F933B
:10138E008F937F936F9389E691E0A0E0AF939F9345
:10139E008F93CE0101969F938F930E9467160FB67F
:1013AE00F894DEBF0FBECDBF8981882309F44CC0EF
:1013BE0080E001C0832F31E0380FE1E0F0E0EC0F68
:1013CE00FD1FE30FF11D90819111F4CF3F15A8F091
:1013DE00332371F0FE013196D80190E001968E0F05
:1013EE009F1F21912D93E817F907D9F701C030E01F
:1013FE00F801E30FF11D10822CC04F2D431B61F03D
:10140E00F8018FEF840F90E00196800F911F20E37B
:10141E002193E817F907E1F7332389F0FE0131969E
:10142E00D801A40FB11D3150232F30E02F5F3F4F55
:10143E002E0F3F1F81918D93E217F307D9F7F80115
:10144E00EF0DF11D108205C0FF2089F24F2D30E007
:10145E00D7CF2B960FB6F894DEBF0FBECDBFDF9160
:0A146E00CF911F910F91FF90089598
:10147800A2E0B0E0E2E4FAE00C947F154C016B01C5
:10148800FB0122813381A480B580808191819A8378
:10149800898366807780FA0120803180428053807A
:1014A800B201A10157FE07C044275527BA014219C6
:1014B80053096409750937FD03C08D7F9A838983B1
:1014C800950157FC05C0898182FD02C083FF02C0D7
:1014D80021503109CE0101967C010AE010E0C601D5
:1014E8000E94A90D57FC03C0298122FF0AC0019759
:1014F800F301E80FF91F57FC02C02BE209C02DE2E7
:1015080007C023FF06C00197F301E80FF91F20E287
:101518002083E980FA80F601208531852150310940
:10152800281B390B860D971DAC0160E88501C401A5
:101538000E9452109C01F4018081918190FF06C0A5
:10154800F60182819381821793070CF4C9012296D0
:06155800E2E10C949B157A
:10155E004F925F926F927F928F929F92AF92BF92B5
:10156E00FF920F931F93CF93DF93F12CC1E0D0E046
:10157E0000E41FE1882E912CA12CB12C02C0C0E0FA
:10158E00D1E0F394C801BE010E94531680E090E0B2
:10159E000E94F7119B01AC0160E070E080E89FE3D0
:1015AE000E9408182B013C01C501B4010E94F911DB
:1015BE00A30192010E9408182B013C0120E03FEF8D
:1015CE004FE757E40E94FF1788238CF0CC0FDD1FE6
:1015DE00CC0FDD1FCC0FDD1FC11582E0D80779F2CD
:1015EE00C11588E0D80769F6C0E0D4E0CACF1FBCA9
:1015FE00A301920160E07FEF8FE797E40E94CC1782
:10160E000E9446137093EF026093EE020E94B7178A
:10161E00FEBC81E00E946917DF91CF911F910F915F
:10162E00FF90BF90AF909F908F907F906F905F9044
:04163E004F9008952C
:1016420010C00E94DA1758F00E94D31740F029F414
:101652005F3F29F00C94F41751110C94E2170C948B
:1016620015180E94E21468F39923B1F3552391F3FC
:10167200951B550BBB27AA2762177307840738F0FF
:101682009F5F5F4F220F331F441FAA1FA9F335D05C
:101692000E2E3AF0E0E832D091505040E695001C10
:1016A200CAF72BD0FE2F29D0660F771F881FBB1FCA
:1016B200261737074807AB07B0E809F0BB0B802DA8
:1016C200BF01FF2793585F4F3AF09E3F510578F0D4
:1016D2000C94F4170C94E2175F3FE4F3983ED4F3B2
:1016E200869577956795B795F7959F5FC9F7880FA8
:1016F200911D9695879597F90895E1E0660F771FFA
:10170200881FBB1F621773078407BA0720F0621B8A
:0E171200730B840BBA0BEE1F88F7E095089559
:1017200021E030E002C0220F331F6A95E2F748340F
:1017300071F5813421F48BB3282B2BBB08958234AF
:1017400021F488B3282B28BB0895833421F485B372
:10175000282B25BB0895843421F482B3282B22BB87
:101760000895853421F483B1282B23B90895863454
:1017700031F4E2E6F0E08081282B2083089587345D
:10178000E1F5E5E6F0E08081282B208308954C34D4
:10179000A1F5813429F48BB3209528232BBB089520
:1017A000823429F488B32095282328BB08958334F4
:1017B00029F485B32095282325BB0895843429F482
:1017C00082B32095282322BB0895853429F483B160
:1017D0002095282323B90895863439F4E2E6F0E011
:1017E00080812095282320830895873431F4E5E60D
:0C17F000F0E080812095282320830895DC
:1017FC0021E030E002C0220F331F6A95E2F74F342C
:10180C0071F5813421F48AB3282B2ABB08958234D4
:10181C0021F487B3282B27BB0895833421F484B398
:10182C00282B24BB0895843421F481B3282B21BBAD
:10183C000895853421F482B1282B22B90895863479
:10184C0031F4E1E6F0E08081282B20830895873481
:10185C00E1F5E4E6F0E08081282B208308954934FB
:10186C00A1F5813429F48AB3209528232ABB089545
:10187C00823429F487B32095282327BB0895833419
:10188C0029F484B32095282324BB0895843429F4A7
:10189C0081B32095282321BB0895853429F482B186
:1018AC002095282322B90895863439F4E1E6F0E036
:1018BC0080812095282320830895873431F4E4E631
:0C18CC00F0E080812095282320830895FF
:1018D800CF93DF93DC01F90168387105F1F05CF40E
:1018E8006138710561F164387105C9F160387105B5
:1018F80009F056C034C0603C710561F1603F710564
:1019080009F443C0603A710509F04AC0C081D18129
:10191800CE010296918380832AC0C081D181CE01F5
:10192800029691838083452B39F04881042E000C60
:10193800550B660B770B21C0488150E02EC0C08143
:10194800D181CE01049691838083488159816A812F
:101958007B8113C0C081D181CE0102961AC0C0819B
:10196800D181CE01029691838083452BA1F04881D5
:101978005981052E000C660B770B4D935D936D9383
:101988007C93139781E090E00DC0C081D181CE0196
:101998000396918380834881598160E070E0EDCFA0
:0A19A80080E090E0DF91CF910895F8
:1019B2004F925F926F927F928F929F92AF92CF924D
:1019C200DF92EF920F931F93CF93DF93CDB7DEB7E2
:1019D2000F2EFFED6F2EF2E07F2EF02DF30191839B
:1019E2008083ACEDB2E011965C934E9349ED52E0E8
:1019F200FA01118300830F2EF6ED4F2EF2E05F2ED7
:101A0200F02DF201D182C08203ED12E0F801918241
:101A1200808280ED92E0CA88DB88FC01D182C0829C
:101A2200F301628312962C93FA01E282F201A282FE
:101A32002989F80122832C89FC01228384E10E94F6
:101A4200171782E00E948D1688E20E948D168CE0A4
:101A52000E948D1686E00E948D160E94C51784E1B1
:101A62000E941717DF91CF911F910F91EF90DF9096
:101A7200CF90AF909F908F907F906F905F904F909C
:021A82000895C5
:101A840011C00E94D31738F00E94DA1720F039F4FD
:101A94009F3F19F426F40C9415180EF4E095E7FB17
:101AA4000C94F417E92F0E94E21458F3BA17620752
:101AB40073078407950720F079F4A6F50C94E117D1
:101AC4000EF4E0950B2EBA2FA02D0B01B901900155
:101AD4000C01CA01A0011124FF27591B99F0593F99
:101AE40050F4503E68F11A16F040A22F232F342FE1
:101AF4004427585FF3CF469537952795A795F0402F
:101B04005395C9F77EF41F16BA0B620B730B840B43
:101B1400BAF09150A1F0FF0FBB1F661F771F881FFB
:101B2400C2F70EC0BA0F621F731F841F48F4879553
:101B340077956795B795F7959E3F08F0B0CF939545
:0E1B4400880F08F09927EE0F97958795089562
:101B5200A0E0B0E0EFEAFDE00C948115DC01280181
:101B62001696AD90BC901797F701808191811296DD
:101B7200ED91FC9113971896CD91DC9119972197CD
:101B8200F7FF02C0E1E0F0E0CA0DDB1D1882690137
:101B9200A1E0B0E08F01021B130B4C01F2E08F2297
:101BA2009924052C000C66087708CE018A199B0936
:101BB200CA15DB0519F1411551056105710589F059
:101BC200CB01BA01A30192010E940415CA01A62FFA
:101BD200B72F605D6A9341E0C41AD108A901BC0124
:101BE200E4CF98012C0D3D1D121613064CF31C1464
:101BF2001D0434F48114910419F702C080E090E0CE
:101C0200AB2B31F4F701208131812F7E3183208388
:0A1C1200CDB7DEB7E0E10C949D159C
:101C1C00A2E0B0E0E4E1FEE00C9483155C016B0102
:101C2C00FB012281338184809580808191819A830C
:101C3C0089836680778037FD03C08D7F9A83898383
:101C4C00FA014081518162817381CE0101967C0140
:101C5C0008E010E09401C6010E94A90D298124FF1F
:101C6C0006C00197F301E80FF91F20E320832981B7
:101C7C0023FF06C00197F301E80FF91F20E2208330
:101C8C00E980FA80F6012085318521503109281B25
:101C9C00390B860D971DAC0160E88401C5010E94CB
:101CAC0052109C01F5018081918190FF06C0F601D4
:101CBC0082819381821793070CF4C9012296EEE07E
:041CCC000C949F15C0
:101CD0006F927F928F92CF92DF92EF920F931F932A
:101CE000CF93DF933B01882E8A014AE350E00E94A4
:101CF0007A166B01E82E4EE350E0882DB3010E9466
:101D00007A163B01882EC114D104E10469F16115F2
:101D10007105810549F1C616D706E80628F5AE2DEE
:101D2000C6010196A11D86159705A805D0F4E80106
:101D3000682DA301FC012491A7FD20812993019620
:101D4000A11D84179507A607A9F782E0C80ED11C2C
:101D5000E11C6C187D088E08EFEF6E1A7E0A060DE6
:101D6000171DF801108202C0F8011082DF91CF9197
:101D70001F910F91EF90DF90CF908F907F906F9099
:021D80000895C4
:101D8200CF92DF92EF926B01E82E40E050E0BA0171
:101D92003DC0440F551F661F771F440F551F661F16
:101DA200771F440F551F661F771F440F551F661F6D
:101DB200771F90ED980F9A3058F490E0C097092E53
:101DC200000CAA0BBB0B482B592B6A2B7B2B1EC07A
:101DD2009FEB980F963058F490E0C797092E000CAD
:101DE200AA0BBB0B482B592B6A2B7B2B0FC09FE9ED
:101DF200980F963058F490E087559109092E000CFF
:101E0200AA0BBB0B482B592B6A2B7B2BF601849117
:101E1200E7FC80819FEFC91AD90AE90A8111B9CF7B
:0C1E2200CB01BA01EF90DF90CF90089543
:101E2E006F927F928F92EF92FF920F931F93CF93A9
:101E3E00DF93CDB7DEB761970FB6F894DEBF0FBE56
:101E4E00CDBFFE01319651E1DF011D925A95E9F7A2
:101E5E00A2E0B1E0BA83A9839C838B8377FF09C08C
:101E6E008FE490E090930101809300018FEF9FEF3C
:101E7E0019C03901842E7C01615071097F836E83F4
:101E8E009801682DA301CF010E94D0154885598570
:101E9E002E813F814217530708F49A01F701E20F92
:101EAE00F31F108261960FB6F894DEBF0FBECDBF42
:101EBE00DF91CF911F910F91FF90EF908F907F90B8
:041ECE006F90089574
:101ED200CF92DF92EF92DC0190E0292F30E0220FC7
:101EE200331F6901032E000CEE086E2DA6014D5A18
:101EF2005E4F6F4F6A01E62EFA018491E7FC808102
:101F020081110DC02F5F3F4F032E000C440B2D5A41
:101F12003E4F4F4FF901849147FD808124C0CD90FF
:101F2200DD90EC901297F6014491E7FC4081841316
:101F320015C02F5F3F4F032E000C440B2D5A3E4F0E
:101F42004F4FF901949147FD90815FEFC51AD50A71
:101F5200E50ACD92DD92EC92129701C09F5F9B3011
:0E1F620008F4BBCF892FEF90DF90CF90089549
:101F70006F927F928F92CF92DF92EF926B01E82E59
:101F80003901842EFB018491E7FC8081882379F15B
:101F9000F901949187FC9081992319F1891323C049
:101FA0002FEFC21AD20AE20AA82DC3010196A11D81
:101FB00002C032131AC03C018A2EF6013491E7FCAC
:101FC00030812FEFC21AD20AE20A332381F0FC01DA
:101FD0002491A7FD20810196A11D2111EACF81E066
:101FE0000EC081E00CC081E00AC081E008C081E041
:101FF000F301949187FC9081911101C080E0EF90F2
:0C200000DF90CF908F907F906F9008953C
:10200C000F931F93CF93DF93DB01109719F48FEF8E
:10201C009FEF3DC02D913C91119730FF25C0179635
:10202C004D915C91189715962D913C9116974217EE
:10203C00530778F41296ED91FC91139780831296C6
:10204C002D913C9113972F5F3F4F13963C932E93FA
:10205C00129717962D913C9118972F5F3F4F18961A
:10206C003C932E93179713C01D96ED91FC911E97E0
:10207C00309769F2EB01092F182F0995892B39F646
:10208C008F819885019698878F83812F902FDF9170
:08209C00CF911F910F910895EF
:1020A4006F927F928F92AF92BF92CF92DF92EF9214
:1020B400FF920F931F93CF93DF935C013A01862E17
:1020C400E901670181E0C822DD24E0FC03C0201798
:1020D400310758F09E01682DA301C5010E94E31247
:1020E400C017D10710F0CE0118C07801EC1AFD0A10
:1020F400E114F10449F0B50180E290E00E94061079
:1021040081E0E81AF108F4CFCD2831F49E01682D5E
:10211400A301C5010E94E312C801DF91CF911F9171
:102124000F91FF90EF90DF90CF90BF90AF908F9082
:062134007F906F900895FA
:10213A00A3E8B0E0E3EAF0E10C9485155C014901FB
:10214A00CF57DF4F488359836A83C158D040C12C87
:10215A00D12CCF57DF4F2881C158D040CE57DF4FFF
:10216A009881C258D040CD57DF4F8881C358D0409C
:10217A00E22FF92F949187FD90819923E9F0740158
:10218A00860120E830E0AE014F5F5F4FBE016F5716
:10219A007F4FC5010E94BF008C0D9D1D8C159D05AA
:1021AA004CF48FE490E090930101809300018FEF4B
:1021BA009FEF03C06C01CDCFC601CD57DF4FECE0D6
:0421CA000C94A115BB
:1021CE00CF93DF93FC01433031F48381809592816C
:1021DE008923828333C0413071F5838181110CC014
:1021EE00928191112FC08091E2029091E30291832E
:1021FE00808381E0838305C08F5F838392819111F9
:10220E0005C0828383E08093F9021FC0891316C034
:10221E00EF01CF010E943F16882349F08B818095F4
:10222E009A8189238A8382E08093F9020EC081E02D
:10223E008093F9020AC0423009F413821092F90217
:10224E0080E003C081E08383E1CFDF91CF910895D9
:10225E00A2E0B0E0E5E3F1E10C9483155C016B01C3
:10226E00FB012281338184809580808191819A83C4
:10227E0089836680778037FD03C08D7F9A8389833B
:10228E00FA014081518162817381CE0101967C01F8
:10229E000AE010E09401C6010E94A90DE980FA80BF
:1022AE00F6012085318521503109281B390B860D09
:1022BE00971DAC0160E88401C5010E9452109C017B
:1022CE00F5018081918190FF06C0F6018281938194
:1022DE00821793070CF4C9012296EEE00C949F1519
:1022EE00CF92DF92EF92FF920F931F9390E0FC013B
:1022FE00E295F295F07FFE27E07FFE27EE5FFE4F20
:10230E000281138124813581C680D780E084F184D7
:10231E00C016D106E206F306F8F0FC01E295F2953E
:10232E00F07FFE27E07FFE27EE5FFE4FC284D38450
:10233E00E484F5840C151D052E053F0568F0829585
:10234E009295907F9827807F9827FC01EE5FFE4F35
:10235E0042835383648375831F910F91FF90EF9097
:06236E00DF90CF900895FE
:10237400CF92DF92EF92FF929B01482F60E070E0D2
:10238400CB0125C0E0EDE50FEA3008F5DC01CB0117
:10239400880F991FAA1FBB1F6C017D01CC0CDD1C8B
:1023A400EE1CFF1CCC0CDD1CEE1CFF1CC80ED91E41
:1023B400EA1EFB1E852F90E0C097092E000CAA0B85
:1023C400BB0BBC01CD016C0D7D1D8E1D9F1DF90144
:1023D400549147FD50812F5F3F4F4F4F5111D2CF42
:0A23E400FF90EF90DF90CF90089576
:1023EE00E89409C097FB3EF49095809570956195A1
:1023FE007F4F8F4F9F4F9923A9F0F92F96E9BB2757
:10240E009395F695879577956795B795F111F8CFD2
:10241E00FAF4BB0F11F460FF1BC06F5F7F4F8F4F3D
:10242E009F4F16C0882311F096E911C0772321F033
:10243E009EE8872F762F05C0662371F096E8862FCB
:10244E0070E060E02AF09A95660F771F881FDAF722
:0A245E00880F9695879597F9089569
:102468006F927F928F92CF92DF92EF92FF920F93AB
:102478001F93CF93DF936C01FB013901842EC801B0
:10248800C281D38104811581E080F180232B242B24
:1024980031F421E7622E21E0722E20E0822E00978F
:1024A80021F4882DB3010E941516D7FD04C0C81762
:1024B800D90708F4CE019C01682DA301C6010E942A
:1024C8005210DF91CF911F910F91FF90EF90DF9005
:0A24D800CF908F907F906F900895D1
:1024E200DC012D913D914C911297F901849147FDA8
:1024F20080818A3221F080E090E07AE011C02F5F83
:102502003F4F4F4F2D933D934C93DB01ED91FC9147
:102512001197CF0102968D939C93808191810895AA
:102522002D913D914C911297F901549147FD5081A3
:1025320050535A3080F4789FF001799FF00D1124A6
:10254200CF01850F911D2F5F3F4F4F4F2D933D932D
:082552004C931297E5CF0895A8
:10255A00CF92DF92EF920F936B01E82E021710F1E0
:10256A00A82FCB01820F911DA11DFC018491A7FD0B
:10257A0080818823C9F090E031E0390F2F5FFA019A
:10258A00E90FF11D8083021780F0AE2DC601820F7C
:10259A00911DA11DFC018491A7FD8081932F8111BA
:1025AA00EBCF03C030E001C030E0FA01E30FF11DC8
:0C25BA0010820F91EF90DF90CF900895F9
:1025C6006F927F928F92CF92DF92EF920F931F932B
:1025D600CF93DF938C016A01E62EE9013A01862E3C
:1025E600620E731E811C37FD8A94C614D704E80454
:1025F60079F0F6018491E7FC8081B801082E000C81
:10260600990B0E9406108FEFC81AD80AE80AEDCF78
:10261600CE01DF91CF911F910F91EF90DF90CF9078
:082626008F907F906F900895E2
:10262E0042E060E070E082EC92E00E94E71041E050
:10263E0064E873E082EC92E00E94E710882349F090
:10264E000E940C18833029F448E464E082E40E946E
:10265E00900B41E064E670E082EC92E00E94E7109D
:10266E00882349F00E940C18833029F44CE464E06E
:0E267E0082E40E94900B0E941F0580E00895E8
:10268C000E94EA1488F09F5798F0B92F9927B751F8
:10269C00B0F0E1F0660F771F881F991F1AF0BA95FA
:1026AC00C9F714C0B13091F00E94E117B1E0089560
:1026BC000C94E117672F782F8827B85F39F0B93F52
:1026CC00CCF3869577956795B395D9F73EF49095AD
:0E26DC008095709561957F4F8F4F9F4F0895A9
:1026EA00CF92DF92EF926901E42E811107C0209305
:1026FA00CD023093CE024093CF0208C0813031F42C
:10270A002093CA023093CB024093CC020E947D17D9
:10271A00F6018491E7FC8081882361F09FEFC91A52
:10272A00D90AE90A0E949F16F6018491E7FC808182
:0C273A008111F4CFEF90DF90CF90089554
:10274600CF92DF92EF92FF920F931F93CF93DF9377
:102756006A017B018C01C0E0D0E0C701B6010C2EF6
:1027660004C096958795779567950A94D2F7E09178
:10277600F002F091F102C801099528960F5F1F4FEC
:10278600C032D10551F7DF91CF911F910F91FF9084
:08279600EF90DF90CF90089551
:10279E001F920F920FB60F9211242F933F934F93C8
:1027AE005F936F937F938F939F93AF93BF93EF93AB
:1027BE00FF930E94B717E091E602F091E7020995A8
:1027CE00FF91EF91BF91AF919F918F917F916F91FB
:1027DE005F914F913F912F910F900FBE0F901F90D1
:0227EE0018953C
:1027F0001F920F920FB60F9211242F933F934F9376
:102800005F936F937F938F939F93AF93BF93EF9358
:10281000FF930E948717E091E402F091E502099589
:10282000FF91EF91BF91AF919F918F917F916F91A8
:102830005F914F913F912F910F900FBE0F901F907E
:022840001895E9
:102842001F920F920FB60F9211242F933F934F9323
:102852005F936F937F938F939F93AF93BF93EF9306
:10286200FF9380919C00E091E802F091E9020995C2
:10287200FF91EF91BF91AF919F918F917F916F9156
:102882005F914F913F912F910F900FBE0F901F902C
:02289200189597
:102894001F920F920FB60F9211242F933F934F93D1
:1028A4005F936F937F938F939F93AF93BF93EF93B4
:1028B400FF938CB1E091EA02F091EB020995FF914C
:1028C400EF91BF91AF919F918F917F916F915F91A4
:1028D4004F913F912F910F900FBE0F901F9018951D
:1028E400CF93DF93FC01208120FF1BC0EC016181A9
:1028F400728103960E943F16882319F088818460B0
:102904008883888182FF0FC08B7F8883ED81FE815D
:102914000995988193FD08C0882331F09E7F9883A0
:0E29240003C080E001C080E0DF91CF910895F4
:10293200DC019A01462F8C91882339F0CD01019652
:10294200DC0101965C915111FBCFF901849147FDA5
:102952008081882381F02F5F3F4F4F4F1196FD01F9
:1029620031978083F901849147FD80812F5F3F4F2A
:0A2972004F4F8111F3CF1C9208951E
:10297C00990F0008550FAA0BE0E8FEEF1616170684
:10298C00E807F907C0F012161306E407F50798F0EC
:10299C00621B730B840B950B39F40A2661F0232B05
:1029AC00242B252B21F408950A2609F4A140A69581
:0829BC008FEF811D811D0895BC
:1029C40057FD9058440F551F59F05F3F71F04795DC
:1029D400880F97FB991F61F09F3F79F087950895C1
:1029E400121613061406551FF2CF4695F1DF08C0E0
:1029F400161617061806991FF1CF869571056105FD
:042A04000894089595
:102A0800A1E21A2EAA1BBB1BFD010DC0AA1FBB1FEA
:102A1800EE1FFF1FA217B307E407F50720F0A21B5C
:102A2800B30BE40BF50B661F771F881F991F1A94C9
:102A380069F760957095809590959B01AC01BD01F3
:042A4800CF0108951D
:102A4C00E6ECF2E020813181428153816DE27FE737
:102A5C0085E99CE40E94C216DC01CB010196A11D04
:102A6C00B11DE6ECF2E080839183A283B383F1E1A4
:0E2A7C00B695A79597958795FA95D1F7089589
:102A8A000F931F93CF93DF936115710589F08C0122
:102A9A00EC0187E0869F9001879F300D1124020F79
:102AAA00131FCE010E9472142796C017D107C9F7C7
:0A2ABA00DF91CF911F910F91089555
:102AC400CF92DF92EF926901E42E0E947D17F60106
:102AD4008491E7FC8081882361F09FEFC91AD90AA9
:102AE400E90A0E949F16F6018491E7FC8081811116
:0A2AF400F4CFEF90DF90CF9008952B
:102AFE002F923F924F925F926F927F928F929F9200
:102B0E00AF92BF92CF92DF92EF92FF920F931F93ED
:102B1E00CF93DF93CDB7DEB7CA1BDB0B0FB6F8949E
:082B2E00DEBF0FBECDBF09940C
:102B36002A88398848885F846E847D848C849B8447
:102B4600AA84B984C884DF80EE80FD800C811B8155
:102B5600AA81B981CE0FD11D0FB6F894DEBF0FBE84
:062B6600CDBFED01089552
:102B6C00FC012081442351F081E090E002C0880FE9
:102B7C00991F6A95E2F7922F982B0AC041E050E01A
:102B8C0002C0440F551F6A95E2F7942F909592233B
:042B9C009083089585
:102BA000A2E0B0E0E6EDF5E10C948D158C013A83DE
:102BB00029839E012F5F3F4F0E949D10F8012081C5
:102BC00024FF02C08FEF9FEF2296E4E00C94A9153A
:102BD00020E1829FC0011124FC01EE5FFE4F808145
:102BE00080FF05C0862FBA010E94C10E089581FFA3
:0E2BF00005C0862FBA010E94BA1108950895FB
:102BFE000F931F93CF93DF93162FC42FD22F402FF7
:102C0E00622F8C2F0E94900B412F6D2F8C2F0E94C4
:0C2C1E00FE0BDF91CF911F910F910895E4
:102C2A00CF92DF92EF926B01E82EA82FCB01FC0125
:102C3A002491A7FD2081222319F00196A11DF7CF27
:0C2C4A008C199D09EF90DF90CF90089549
:102C56008091E2029091E302019621F41092E30240
:102C66001092E2028091E2029091E3020196909323
:082C7600E3028093E2020895DD
:102C7E002091E2023091E302FC0140815181F90181
:102C8E00E41BF50BE617F70728F0FC0131832083D0
:082C9E0081E0089580E0089533
:102CA600AA1BBB1B51E107C0AA1FBB1FA617B7076C
:102CB60010F0A61BB70B881F991F5A95A9F7809588
:082CC6009095BC01CD010895B9
:102CCE00A0E0B0E0EDE6F6E10C948F159E01265FD4
:102CDE003F4F4F81588569858D819E810E943C179B
:062CEE00E2E00C94AB15BE
:102CF400A82FCB01FC012491A7FD2081241741F0CA
:102D04000196A11D2111F6CF60E070E080E00895E6
:062D1400BC018A2F0895A6
:102D1A00CF93C82FE3EDF2E040E062818081918198
:102D2A000E94B6158C2F0E94FE0782E00E94171798
:042D3A00CF91089598
:102D3E00CF93C82FE3EDF2E041E062818081918173
:102D4E000E94B6158C2F0E94FE0782E00E94171774
:042D5E00CF91089574
:102D6200092E0394000C11F4882352F0BB0F40F497
:102D7200BF2B11F460FF04C06F5F7F4F8F4F9F4FD7
:022D82000895B2
:102D8400DB018F939F930E945E17BF91AF91A29F27
:102D9400800D911DA39F900DB29F900D1124089555
:102DA4009091FB02981741F01092F7021092F602EC
:0E2DB4001092F5021092F4028093FB02089533
:102DC200A29FB001B39FC001A39F700D811D11246A
:0E2DD200911DB29F700D811D1124911D089559
:102DE00090E1899FF0011124EE5FFE4F42815381F3
:0A2DF000648175810E94BE170895EA
:102DFA0090E1899FF0011124EE5FFE4F0684F7856A
:0A2E0A00E02D309709F009950895B6
:102E14008091FA02882341F00E9426159093F302D0
:0A2E24008093F202892BC1F3089598
:102E2E00882351F090E0E9EFF0E03197F1F700C020
:0A2E3E0000009F5F8913F7CF08958D
:102E4800CF93DF93EB010E94AF0AD093E702C093C0
:082E5800E602DF91CF9108951D
:102E600020E1829FC0011124FC01EE5FFE4F6281D0
:082E70007381848195810895AE
:102E78000F931F9389019A01462F6FEF7FE70E94F6
:082E8800170F1F910F9108952F
:102E900048E465E085E40E94900B4CE465E085E43D
:062EA0000E94900B089552
:102EA600EC010E941F180E941E18CE010E942018D5
:062EB600CE010E941C1871
:102EBC000E94E116A59F900DB49F900DA49F800DCC
:062ECC00911D1124089580
:102ED200882321F087B7846087BF089587B78B7FE7
:042EE20087BF089509
:102EE60020E1829FC0011124FC01EE5FFE4F80812C
:042EF6009181089529
:102EFA00811103C080E8860F02C080EC860F0E9411
:042F0A008D16089583
:102F0E008091EC029091ED0290938900809388005D
:022F1E00089514
:102F20009C01215631092A31310510F48F759927FA
:022F3000089502
:102F3200882329F090E000009F5F8913FCCF089559
:102F42009C01215431092A31310508F48062089527
:0E2F520064E070E082E992E00E944515089567
:0E2F6000FC01368325836083528341830895EC
:0E2F6E008091EE029091EF029DBD8CBD089502
:0E2F7C0024E0829FC00111240E94A313089537
:0E2F8A0081E00E948D168AE00E9417170895BC
:0E2F98005058BB27AA270E94420D0C94B11678
:0E2FA60000240A941616170618060906089548
:0E2FB40000240A94121613061406050608954A
:0E2FC200E894BB2766277727CB0197F908957F
:0C2FD0008EEA92E00E942B0381E008953D
:0C2FDC00882311F078940895F89408956B
:0C2FE80097F99F6780E870E060E00895B2
:0A2FF4008091F2029091F30208951B
:0A2FFE000E94BE1408F481E008955B
:0830080081E08093FA020895B3
:083010000E94210B0C94B11683
:063018008091F902089509
:06301E001092FA02089571
:063024008091FA020895FC
:06302A009FEF80EC089509
:043030000C940000FC
:0430340081E008959A
:043038000E94710081
:02303C000895F5
:02303E000895F3
:023040000895F1
:00000001FF
