:100000000C9449000C9422180C9422180C94221879
:100010000C9422180C9422180C9422180C94221878
:100020000C9422180C9422180C9422180C94221868
:100030000C9422180C9422180C94A1130C942218DE
:100040000C9422180C9422180C941C140C94221852
:100050000C9422180C9422180C9422180C94221838
:100060000C9422180C9422180C9422180C94221828
:100070000C9422180C94CA130C94F3130C942218A9
:100080000C9422180C9422180C9422180100030AD4
:10009000800011241FBECFEFD0E1DEBFCDBFECE862
:1000A000F0E040E017C0B591A591359125910591FB
:1000B00007FD0CC095918591EF01F92FE82F059070
:1000C0000D92A217B307D9F7FE0104C01D92A21723
:1000D000B307E1F7E139F40731F70E9473080C9494
:0600E0005D17F894FFCF4C
:1000E60068076C094C836A9074A07AC0008068889F
:0600F60000846C82008111
:1000FC0051003A003F004D41494E31003C00520046
:02010C003E00B3
:08010E00256C7500256C5800FA
:07011600286E756C6C2900D6
:06011D00286E696C290048
:100124002F923F924F926F927F928F929F92AF92B3
:10013400BF92CF92DF92EF92FF920F931F93CF93D0
:10014400DF93CDB7DEB72E970FB6F894DEBF0FBEA0
:10015400CDBF4C016B0138011A8219828FEF9FEFDA
:100164009C838B831E821D8258874F833A872987FD
:10017400A12CB12CD6012D913D914C912A0D3B1D02
:10018400411DB7FC4A95F901849147FD8081811195
:1001940016C0F601208331834283F901849147FD1F
:1001A4008081853209F00FC21901442EFFEF2F1A06
:1001B4003F0A4F0AD6012D923D924C921BC08532C4
:1001C40041F3B401082E000C990B0E94D70F4FEF96
:1001D400A41AB40ACFCF2C32DCF02D3229F52981B0
:1001E4003A8121603A8329830196A11DF601808317
:1001F4009183A283F60180819181A281FC012491E3
:10020400A7FD20812B3239F729813A812460EACF76
:10021400203221F429813A812860E4CF233251F439
:1002240029813A812061DECF203321F429813A816A
:100234002260D8CFB701C6010E9442129E838D83EB
:1002440097FF0BC029813A81F1E02F273A83298354
:100254009195819591099E838D8389819A8180FFEF
:1002640003C08D7F9A838983F60180819181A28165
:10027400FC012491A7FD20812E3261F40196A11D79
:10028400F60180839183A283B701C6010E944212C2
:100294009C838B83C6010E943A0F182FD6012C91A0
:1002A40011968C91119712969C91E22FF82F8491BC
:1002B40097FD8081082E000C990B0E94AB1789369C
:1002C40009F44AC084F4833609F419C134F485323C
:1002D40009F445C18136E1F050C18436E9F188362C
:1002E4000CF4E9C04AC1803709F4B0C03CF48E363E
:1002F40009F4D6C08F3609F46DC03FC1853709F4BF
:100304004AC0883709F485C0833709F036C10DC166
:10031400612F70E0A701CE010B960E940000892B8B
:1003240009F448C1F60180819181A2819C014A2F80
:100334002F5F3F4F4F4F208331834283FC01249131
:10034400A7FD2081AE01455F5F4FBE016F5F7F4F08
:10035400C4010E9400002BC1612F70E0970141E0AD
:1003640050E0CE010B960E943D0C892B09F422C16A
:10037400F60180819181A2810196A11D80839183E0
:10038400A283AE01455F5F4FBE016F5F7F4FC40123
:100394000E940D0A0CC1612F70E0970140E050E00B
:1003A400CE010B960E943D0C892B09F403C1F60182
:1003B40080819181A2810196A11D80839183A28372
:1003C400AE01455F5F4FBE016F5F7F4FC4010E9466
:1003D4000011EDC0612F70E0970140E050E0CE01C4
:1003E4000B960E943D0C892B09F4E4C0F601808130
:1003F4009181A2810196A11D80839183A283AE0184
:10040400455F5F4FBE016F5F7F4FC4010E94DF0DE8
:10041400CEC0612F70E0970140E050E0CE010B9612
:100424000E943D0C892B09F4C5C0F601808191819D
:10043400A2819C014A2F2F5F3F4F4F4F208331836E
:100444004283FC012491A7FD208120C0970140E054
:1004540050E060EF70E0CE010B960E943D0C892BBA
:1004640009F4A8C0F60180819181A2810196A11DA1
:1004740080839183A2838B859C85892B31F400E052
:1004840010E02DE131E040E08CC028E7AE01455F8B
:100494005F4FBE016F5F7F4FC4010E94150687C086
:1004A400A501460D571D612F70E09701CE010B96F3
:1004B4000E9400007FC0612F70E0A701CE010B965F
:1004C4000E940000892B09F475C0F6018081918196
:1004D400A2819C014A2F2F5F3F4F4F4F20833183CE
:1004E4004283FC012491A7FD2081AE01455F5F4F4B
:1004F400BE016F5F7F4FC4010E94000058C01038D6
:1005040009F058C0F60180819181A2810196A11D54
:1005140080839183A283D701ED91FC911197CF0140
:1005240002968D939C93808126C0103809F042C0B6
:10053400F60180819181A2810196A11D808391831E
:10054400A283D701ED91FC911197CF0103968D936E
:100554009C9320813181428100E010E022C0103858
:1005640049F5F6012081318142812F5F3F4F4F4F82
:100574002083318342838B870EC085E28B87F6010B
:100584002082318242821A8219821E821D828FEF5A
:100594009FEF9C838B839E01255F3F4F40E801E0E2
:1005A40010E0BE016F5F7F4FC4010E9405128A0DE7
:1005B4009B1D0AC0F60180819181A2810196A11D33
:1005C40080839183A283C5012E960FB6F894DEBF73
:1005D4000FBECDBFDF91CF911F910F91FF90EF9090
:1005E400DF90CF90BF90AF909F908F907F906F904F
:0805F4004F903F902F900895F5
:1005FC002F923F924F925F926F927F928F929F9227
:10060C00AF92BF92CF92DF92EF92FF920F931F9314
:10061C00CF93DF93CDB7DEB7C954D1090FB6F89499
:10062C00DEBF0FBECDBF2C0180E00E943A1725968D
:10063C006CAF7DAF8EAF9FAF259784E00E943A17C9
:10064C002A966FAF2A9720E8622E7E013FE1E30ED7
:10065C00F11C01E021E0A701862DB2010E947E125F
:10066C004E0142E2840E911C05E022E0A401862D8D
:10067C00B2010E947E125E0188E2A80EB11C07E056
:10068C0026E0A501862DB2010E947E126E019BE22E
:10069C00C90ED11C09E028E0A601862DB2010E94EA
:1006AC007E120AE02AE0AE01425D5F4F862DB20158
:1006BC000E947E128E010B5E1F4FA801862DB20187
:1006CC000E94390E1401A0E84A2E842DB1010E941B
:1006DC00920E6AAF7BAF8CAF9DAF3501B0E88B2E1D
:1006EC00882DB3010E94920E962E560120E8C22E40
:1006FC008C2DB5010E94920ED62EA80160E88D2D8E
:10070C000E94EB1529966CAF7DAF8EAF9FAF2997EA
:10071C00C701A0E821968DAF9EAFAFAF21972CEF0C
:10072C0030E040E0BC018A2F0E94890F81113AC150
:10073C002AAD3BAD2115310569F491E0D91205C004
:10074C00FE013196CE0145961AC0809106038111A7
:10075C00F7CF28C18D2D8B7F21F480910603811159
:10076C00EFCF2396AEADBFAD23972A173B0709F009
:10077C0019C12A96BFAD2A97B91114C1E1CF1192B4
:10078C00E817F907E1F7CE018E969C0140E82AAFF5
:10079C003BAF4CAF2EEF30E040E06AAD7BAD8CADA3
:1007AC000E94890F81115EC08D2D0E947D178D2DA9
:1007BC000E947D1791FFF6C031E0D31241C02996FB
:1007CC008CAD9DADAEADBFAD2997892B8A2B8B2BF4
:1007DC0059F4109206030E940E1840E050E0BA0142
:1007EC0081E00E94481135C081E00E943A17299699
:1007FC000CAD1DAD2EAD3FAD2997A7E50A27A4E0A2
:10080C001A27061717072807390779F48FEF8093F3
:10081C00060329964CAD5DAD6EAD7FAD299781E099
:10082C000E9448110E94191814C01092060340E04F
:10083C0050E0BA0181E00E9448110E94191809C0C9
:10084C0029964CAD5DAD6EAD7FAD29978D2D0E9477
:10085C0048118D2D0E947D1794FF04C06AE38D2DE5
:10086C000E94071720E031E040E06AAD7BAD8CAD13
:10087C000E94890F811122C08D2D0E947D1792FF3D
:10088C0091C0B1E0DB1211C00E941C18882309F43E
:10089C0089C00E9414170E940418AC0160E070E03B
:1008AC0081E00E9448110E9419188D2D0E947D171D
:1008BC0094FF04C06FE38D2D0E9407178D2D0E94AD
:1008CC007D1793FF03C08D2D0E94FA16BE01605D4B
:1008DC007F4F8D2D0E94020780E00E943A1724E082
:1008EC00AE014E5D5F4F0E94010984E00E943A17F1
:1008FC0022E0AE01485D5F4F0E9401098D2D0E94E0
:10090C007D1796FF07C042E051E060E0CE010196F2
:10091C000E946B1448E051E060E0CE0101960E9409
:10092C006B1421964DAD5EAD6FAD2197CE01019646
:10093C000E946B144AE051E060E0CE0101960E94E7
:10094C006B14642DA101CE0101960E946B14682DCD
:10095C00A301CE0101960E946B146C2DA501CE0152
:10096C0001960E946B144EEF50E060E0CE010196B0
:10097C000E946B14AE01405D5F4F60E8CE010196A2
:10098C000E946B144CE051E060E0CE0101960E9495
:10099C006B148D2D0E947D1795FF04C0CE0101961E
:1009AC000E945217C75BDF4F0FB6F894DEBF0FBE25
:1009BC00CDBFDF91CF911F910F91FF90EF90DF9002
:1009CC00CF90BF90AF909F908F907F906F905F90E3
:0809DC004F903F902F90089509
:1009E400AF92BF92CF92DF92EF92FF920F931F9339
:1009F400CF93DF93C0910903CC2309F409C160911B
:100A0400DB027091DC028091DD020E942E168C01C3
:100A14006091D8027091D9028091DA020E942E1658
:100A24007C01C13009F041C060E080E00E9487177A
:100A3400C0E0D0E001151105E9F080910403909124
:100A440005038C0F9D1FB8010E946C162091DB02D8
:100A54003091DC024091DD025901C42EA80EB91E6A
:100A6400C11C97FDCA94AC2DC501F5018491A7FD65
:100A7400808101C080E20E94B8162196C031D10560
:100A8400C9F62091D8023091D9024091DA0260E08F
:100A940081E00E943415809104039091050301962E
:100AA4009093050380930403B3C0C23009F041C09E
:100AB40060E081E00E948717C0E0D0E0E114F10417
:100AC400E9F080910203909103038C0F9D1FB701FD
:100AD4000E946C162091D8023091D9024091DA021A
:100AE4005901C42EA80EB91EC11C97FDCA94AC2D81
:100AF400C501F5018491A7FD808101C080E20E94B7
:100B0400B8162196C031D105C9F62091DB02309187
:100B1400DC024091DD0260E080E00E9434158091A7
:100B240002039091030301969093030380930203BD
:100B34006FC0C33009F06CC060E080E00E9487178A
:100B4400C0E0D0E001151105E9F080910403909113
:100B540005038C0F9D1FB8010E946C162091DB02C7
:100B64003091DC024091DD025901C42EA80EB91E59
:100B7400C11C97FDCA94AC2DC501F5018491A7FD54
:100B8400808101C080E20E94B8162196C031D1054F
:100B9400C9F660E081E00E948717C0E0D0E0E1146C
:100BA400F104E9F080910203909103038C0F9D1FDF
:100BB400B7010E946C162091D8023091D90240915D
:100BC400DA025901C42EA80EB91EC11C97FDCA949D
:100BD400AC2DC501F5018491A7FD808101C080E29F
:100BE4000E94B8162196C031D105C9F6809104033C
:100BF40090910503019690930503809304038091DB
:100C040002039091030301969093030380930203DC
:100C1400DF91CF911F910F91FF90EF90DF90CF90D4
:060C2400BF90AF9008959F
:100C2A00AFE0B0E0EBE1F6E00C9451151C016B016A
:100C3A005A8349832B83FB01828193818480958027
:100C4A00E080F180A680B78097FD03C0E894E1F8C0
:100C5A0002C081E090E0E981FA814080518062809F
:100C6A0073809701207133273D832C838401E4FE2E
:100C7A0007C0411451046104710411F002501109B2
:100C8A00F701E870FF27FF83EE83E3FE02C00150FD
:100C9A001109F6010084F185E02D3197FF87EE876F
:100CAA00EA0DFB1D10829C01201B310B3987288716
:100CBA00C701827099279B878A87EB818E2FEE0F57
:100CCA00990B9C01215431093D872C872E853F853C
:100CDA002230310530F48C819D81892B09F041C085
:100CEA005BC0411451046104710459F18E859F85DA
:100CFA0001979F878E87C2018F7099278A30910545
:100D0A0014F4C09602C0895A9F4FEC85FD857A97E4
:100D1A0048F49C012062215631092A31310510F428
:100D2A000E949A17EE85FF85EA0DFB1D808301500C
:100D3A00110984E076946794579447948A95D1F779
:100D4A00C5CF88859985800F911F1816190674F2E8
:100D5A00101611060CF0BFCFEA85FB85EF2B31F692
:100D6A00BACFE981FA8180819181A281B381892BED
:100D7A008A2B8B2B89F0EE85FF85EA0DFB1D3197B7
:100D8A002B8120838E859F8502979F878E87FC0102
:100D9A00EA0DFB1D80E38083EE81FF81EF2B59F082
:100DAA002E853F85215031093F872E87F901EA0DAB
:100DBA00FB1D80E28083F6012085318521503109AF
:100DCA008E859F85281B390B8A0D9B1DAC0160E817
:100DDA008401C1010E9423109C01F101808191814B
:100DEA0090FF06C0F60182819381821793070CF463
:0A0DFA00C9012F96E2E10C946D157B
:100E04000F931F93CF93DF938B01C82FD0E0FE0184
:100E1400E295F295F07FFE27E07FFE27EE5FFE4F1E
:100E2400808182FF11C0FE01E295F295F07FFE27DA
:100E3400E07FFE27EE5FFE4F62817381848195819E
:100E440022E0A8010E940109FE01E295F295F07FDB
:100E5400FE27E07FFE27EE5FFE4F808183FF11C0F7
:100E6400FE01E295F295F07FFE27E07FFE27EE5F1C
:100E7400FE4F628173818481958124E0A8010E94E0
:100E84000109FE01E295F295F07FFE27E07FFE273F
:100E9400EE5FFE4F808184FF11C0FE01E295F29562
:100EA400F07FFE27E07FFE27EE5FFE4F62817381B5
:100EB4008481958121E0A8010E948809FE01E295C0
:100EC400F295F07FFE27E07FFE27EE5FFE4F8081E4
:100ED40085FF11C0FE01E295F295F07FFE27E07FC9
:100EE400FE27EE5FFE4F628173818481958122E04B
:100EF400A8010E948809FE01E295F295F07FFE2781
:100F0400E07FFE27EE5FFE4F808186FF11C0FE0169
:100F1400E295F295F07FFE27E07FFE27EE5FFE4F1D
:100F2400628173818481958123E0A8010E948809EC
:100F3400FE01E295F295F07FFE27E07FFE27EE5F4B
:100F4400FE4F808187FF11C0FE01E295F295F07F8C
:100F5400FE27E07FFE27EE5FFE4F6281738184816E
:100F6400958124E0A8010E948809FE01E295F2958A
:100F7400F07FFE27E07FFE27EE5FFE4F80819181A8
:100F840090FF08C0628173818481958125E0A80166
:0E0F94000E948809DF91CF911F910F9108955F
:100FA2008F929F92AF92BF92CF92DF92EF92FF9277
:100FB2000F931F93CF93C82F84FB442740F90F2E22
:100FC200F4EE8F2EF2E09F2EF02DF40162818081EB
:100FD20091810E94A215C5FB442740F90F2EF7EE1E
:100FE200AF2EF2E0BF2EF02DF5016281808191815A
:100FF2000E94A215C6FB442740F90F2EFAEECF2E0F
:10100200F2E0DF2EF02DF6016281808191810E9453
:10101200A2154C2F441F4427441F0F2EFDEEEF2E26
:10102200F2E0FF2EF02DF7016281808191810E9412
:10103200A2150EED12E041E0F801628180819181FA
:101042000E94A21582E30E94A31740E0F801628188
:10105200808191810E94A21582E30E94A3174C2FE6
:101062004170F4016281808191810E94A215C1FBCD
:10107200442740F9F5016281808191810E94A21585
:10108200C2FB442740F9F6016281808191810E946E
:10109200A215C3FB442740F9F70162818081918147
:1010A2000E94A21541E0F8016281808191810E9433
:1010B200A21582E30E94A31740E0F80162818081B9
:1010C20091810E94A21582E30E94A317CF911F91E2
:1010D2000F91FF90EF90DF90CF90BF90AF909F90D5
:0410E2008F9008954E
:1010E60064E476E181E090E00E942E170CE424E0AF
:1010F60042E46FE484E40E94181620E042E46FE4C0
:1011060084E40E94181621E042E46FE484E40E941D
:10111600181622E042E46FE484E40E94181623E0E5
:1011260042E46FE484E40E94181626E042E46FE489
:1011360084E40E94181627E042E46FE484E40E94E7
:101146001816A12C0F2EF0E3CF2ED12CF02D0F2E3A
:10115600F2E3EF2EF12CF02D01E310E021E040E365
:1011660050E062E370E081E390E00E94171328EEFE
:1011760032E144E650E069E082E992E00E94BA1763
:1011860022EF37E140E050E060E089E992E00E941A
:10119600BA1724E238E140E050E060E080EA92E0ED
:1011A6000E94BA1787E08F931F9288E38F9386E099
:1011B6008F930F2EF8E38F2E912CF02D0F2EF3E048
:1011C600AF2EF02D0F2EF8E3CF2ED12CF02D6894F4
:1011D600EE24E1F808E310E021E048E350E060E0A7
:1011E60088E390E00E94AA0C81E00E94F8170F9015
:0C11F6000F900F900F900E94B317FDCFD8
:10120200FF920F931F93CF93DF93CDB7DEB729974A
:101212000FB6F894DEBF0FBECDBF8A01F22E9F93A8
:101222008F937F936F9382E191E0A0E0AF939F93BE
:101232008F93CE0101969F938F930E9480160FB6D3
:10124200F894DEBF0FBECDBF8981882309F44EC05A
:1012520020E001C0282F81E0820FE1E0F0E0EC0FF6
:10126200FD1FE80FF11D90819111F4CF8F15B0F0A1
:10127200882379F0FE013196D80130E02F5F3F4F8D
:101282002E0F3F1F91919D93E217F307D9F701C0EB
:1012920080E0F801E80FF11D10822DC04F2D481B90
:1012A20069F0F8012FEF240F30E02F5F3F4F200F3E
:1012B200311F90E39193E217F307E1F7882389F056
:1012C200FE013196D801A40FB11D8150282F30E0C4
:1012D2002F5F3F4F2E0F3F1F91919D93E217F30710
:1012E200D9F7F801EF0DF11D108205C0FF2081F240
:1012F2004F2D80E0D6CF29960FB6F894DEBF0FBEF1
:0E130200CDBFDF91CF911F910F91FF90089505
:10131000FF920F931F93CF93DF93CDB7DEB72B9739
:101320000FB6F894DEBF0FBECDBF8A01F22E9F9399
:101330008F937F936F938EE091E0A0E0AF939F93A4
:101340008F93CE0101969F938F930E9480160FB6C4
:10135000F894DEBF0FBECDBF8981882309F44CC04D
:1013600080E001C0832F31E0380FE1E0F0E0EC0FC6
:10137000FD1FE30FF11D90819111F4CF3F15A8F0EF
:10138000332371F0FE013196D80190E001968E0F63
:101390009F1F21912D93E817F907D9F701C030E07D
:1013A000F801E30FF11D10822CC04F2D431B61F09B
:1013B000F8018FEF840F90E00196800F911F20E3DA
:1013C0002193E817F907E1F7332389F0FE013196FD
:1013D000D801A40FB11D3150232F30E02F5F3F4FB4
:1013E0002E0F3F1F81918D93E217F307D9F7F80174
:1013F000EF0DF11D108205C0FF2089F24F2D30E066
:10140000D7CF2B960FB6F894DEBF0FBECDBFDF91BE
:0A141000CF911F910F91FF900895F6
:10141A00A2E0B0E0E3E1FAE00C9451154C016B0153
:10142A00FB0122813381A480B580808191819A83D6
:10143A00898366807780FA012080318042805380D8
:10144A00B201A10157FE07C044275527BA01421924
:10145A0053096409750937FD03C08D7F9A8389830F
:10146A00950157FC05C0898182FD02C083FF02C035
:10147A0021503109CE0101967C010AE010E0C60133
:10148A000E947A0D57FC03C0298122FF0AC00197E6
:10149A00F301E80FF91F57FC02C02BE209C02DE245
:1014AA0007C023FF06C00197F301E80FF91F20E2E6
:1014BA002083E980FA80F60120853185215031099F
:1014CA00281B390B860D971DAC0160E88501C40104
:1014DA000E9423109C01F4018081918190FF06C033
:1014EA00F60182819381821793070CF4C90122962F
:0614FA00E2E10C946D1507
:101500004F925F926F927F928F929F92AF92BF9213
:10151000FF920F931F93CF93DF93F12CC1E0D0E0A4
:1015200000E41FE1882E912CA12CB12C02C0C0E058
:10153000D1E0F394C801BE010E946C1680E090E0F7
:101540000E94C8119B01AC0160E070E080E89FE35D
:101550000E9412182B013C01C501B4010E94CA115E
:10156000A30192010E9412182B013C0120E03FEFE1
:101570004FE757E40E94091888238CF0CC0FDD1F39
:10158000CC0FDD1FCC0FDD1FC11582E0D80779F22B
:10159000C11588E0D80769F6C0E0D4E0CACF1FBC07
:1015A000A301920160E07FEF8FE797E40E94D617D6
:1015B0000E9446137093FD026093FC020E94C117C3
:1015C000FEBC81E00E947317DF91CF911F910F91B4
:1015D000FF90BF90AF909F908F907F906F905F90A3
:0415E0004F9008958B
:1015E40010C00E94E41758F00E94DD1740F029F45F
:1015F4005F3F29F00C94FE1751110C94EC170C94D6
:101604001F180E94B41468F39923B1F3552391F37E
:10161400951B550BBB27AA2762177307840738F05D
:101624009F5F5F4F220F331F441FAA1FA9F335D0BA
:101634000E2E3AF0E0E832D091505040E695001C6E
:10164400CAF72BD0FE2F29D0660F771F881FBB1F28
:10165400261737074807AB07B0E809F0BB0B802D06
:10166400BF01FF2793585F4F3AF09E3F510578F032
:101674000C94FE170C94EC175F3FE4F3983ED4F3FC
:10168400869577956795B795F7959F5FC9F7880F06
:10169400911D9695879597F90895E1E0660F771F58
:1016A400881FBB1F621773078407BA0720F0621BE9
:0E16B400730B840BBA0BEE1F88F7E0950895B8
:1016C20021E030E002C0220F331F6A95E2F748346E
:1016D20071F5813421F48BB3282B2BBB089582340E
:1016E20021F488B3282B28BB0895833421F485B3D1
:1016F200282B25BB0895843421F482B3282B22BBE6
:101702000895853421F483B1282B23B908958634B2
:1017120031F4E2E6F0E08081282B208308958734BB
:10172200E1F5E5E6F0E08081282B208308954C3432
:10173200A1F5813429F48BB3209528232BBB08957E
:10174200823429F488B32095282328BB0895833452
:1017520029F485B32095282325BB0895843429F4E0
:1017620082B32095282322BB0895853429F483B1BE
:101772002095282323B90895863439F4E2E6F0E06F
:1017820080812095282320830895873431F4E5E66B
:0C179200F0E0808120952823208308953A
:10179E0021E030E002C0220F331F6A95E2F74F348A
:1017AE0071F5813421F48AB3282B2ABB0895823433
:1017BE0021F487B3282B27BB0895833421F484B3F7
:1017CE00282B24BB0895843421F481B3282B21BB0C
:1017DE000895853421F482B1282B22B908958634D8
:1017EE0031F4E1E6F0E08081282B208308958734E0
:1017FE00E1F5E4E6F0E08081282B2083089549345A
:10180E00A1F5813429F48AB3209528232ABB0895A3
:10181E00823429F487B32095282327BB0895833477
:10182E0029F484B32095282324BB0895843429F405
:10183E0081B32095282321BB0895853429F482B1E4
:10184E002095282322B90895863439F4E1E6F0E094
:10185E0080812095282320830895873431F4E4E68F
:0C186E00F0E0808120952823208308955D
:10187A00CF93DF93DC01F90168387105F1F05CF46C
:10188A006138710561F164387105C9F16038710513
:10189A0009F056C034C0603C710561F1603F7105C2
:1018AA0009F443C0603A710509F04AC0C081D18188
:1018BA00CE010296918380832AC0C081D181CE0154
:1018CA00029691838083452B39F04881042E000CBF
:1018DA00550B660B770B21C0488150E02EC0C081A2
:1018EA00D181CE01049691838083488159816A818E
:1018FA007B8113C0C081D181CE0102961AC0C081FA
:10190A00D181CE01029691838083452BA1F0488133
:10191A005981052E000C660B770B4D935D936D93E1
:10192A007C93139781E090E00DC0C081D181CE01F4
:10193A000396918380834881598160E070E0EDCFFE
:0A194A0080E090E0DF91CF91089556
:101954004F925F926F927F928F929F92AF92CF92AB
:10196400DF92EF920F931F93CF93DF93CDB7DEB740
:101974000F2EFDEE6F2EF2E07F2EF02DF3019183FA
:101984008083AAEEB2E011965C934E9347EE52E048
:10199400FA01118300830F2EF4EE4F2EF2E05F2E36
:1019A400F02DF201D182C08201EE12E0F8019182A1
:1019B40080828EED92E0CA88DB88FC01D182C082ED
:1019C400F301628312962C93FA01E282F201A2825D
:1019D4002989F80122832C89FC01228384E10E9455
:1019E400211782E00E94A61688E20E94A6168CE0C7
:1019F4000E94A61686E00E94A6160E94CF1784E1D4
:101A04000E942117DF91CF911F910F91EF90DF90EA
:101A1400CF90AF909F908F907F906F905F904F90FA
:021A2400089523
:101A260011C00E94DD1738F00E94E41720F039F447
:101A36009F3F19F426F40C941F180EF4E095E7FB6B
:101A46000C94FE17E92F0E94B41458F3BA176207D4
:101A560073078407950720F079F4A6F50C94EB1725
:101A66000EF4E0950B2EBA2FA02D0B01B9019001B3
:101A76000C01CA01A0011124FF27591B99F0593FF7
:101A860050F4503E68F11A16F040A22F232F342F3F
:101A96004427585FF3CF469537952795A795F0408D
:101AA6005395C9F77EF41F16BA0B620B730B840BA2
:101AB600BAF09150A1F0FF0FBB1F661F771F881F5A
:101AC600C2F70EC0BA0F621F731F841F48F48795B2
:101AD60077956795B795F7959E3F08F0B0CF9395A4
:0E1AE600880F08F09927EE0F979587950895C1
:101AF400A0E0B0E0E0E8FDE00C945315DC0128011F
:101B04001696AD90BC901797F7018081918112963B
:101B1400ED91FC9113971896CD91DC91199721972B
:101B2400F7FF02C0E1E0F0E0CA0DDB1D1882690195
:101B3400A1E0B0E08F01021B130B4C01F2E08F22F5
:101B44009924052C000C66087708CE018A199B0994
:101B5400CA15DB0519F1411551056105710589F0B7
:101B6400CB01BA01A30192010E94D614CA01A62F87
:101B7400B72F605D6A9341E0C41AD108A901BC0182
:101B8400E4CF98012C0D3D1D121613064CF31C14C2
:101B94001D0434F48114910419F702C080E090E02C
:101BA400AB2B31F4F701208131812F7E31832083E7
:0A1BB400CDB7DEB7E0E10C946F1529
:101BBE00A2E0B0E0E5EEFDE00C9455155C016B0182
:101BCE00FB012281338184809580808191819A836B
:101BDE0089836680778037FD03C08D7F9A838983E2
:101BEE00FA014081518162817381CE0101967C019F
:101BFE0008E010E09401C6010E947A0D298124FFAD
:101C0E0006C00197F301E80FF91F20E32083298115
:101C1E0023FF06C00197F301E80FF91F20E220838E
:101C2E00E980FA80F6012085318521503109281B83
:101C3E00390B860D971DAC0160E88401C5010E9429
:101C4E0023109C01F5018081918190FF06C0F60161
:101C5E0082819381821793070CF4C9012296EEE0DC
:041C6E000C9471154C
:101C72006F927F928F92CF92DF92EF920F931F9388
:101C8200CF93DF933B01882E8A014AE350E00E9402
:101C920093166B01E82E4EE350E0882DB3010E94AB
:101CA20093163B01882EC114D104E10469F1611538
:101CB2007105810549F1C616D706E80628F5AE2D4D
:101CC200C6010196A11D86159705A805D0F4E80165
:101CD200682DA301FC012491A7FD2081299301967F
:101CE200A11D84179507A607A9F782E0C80ED11C8B
:101CF200E11C6C187D088E08EFEF6E1A7E0A060D45
:101D0200171DF801108202C0F8011082DF91CF91F5
:101D12001F910F91EF90DF90CF908F907F906F90F7
:021D2200089522
:101D2400CF92DF92EF926B01E82E40E050E0BA01CF
:101D34003DC0440F551F661F771F440F551F661F74
:101D4400771F440F551F661F771F440F551F661FCB
:101D5400771F90ED980F9A3058F490E0C097092EB1
:101D6400000CAA0BBB0B482B592B6A2B7B2B1EC0D8
:101D74009FEB980F963058F490E0C797092E000C0B
:101D8400AA0BBB0B482B592B6A2B7B2B0FC09FE94B
:101D9400980F963058F490E087559109092E000C5D
:101DA400AA0BBB0B482B592B6A2B7B2BF601849176
:101DB400E7FC80819FEFC91AD90AE90A8111B9CFDA
:0C1DC400CB01BA01EF90DF90CF900895A2
:101DD0006F927F928F92EF92FF920F931F93CF9308
:101DE000DF93CDB7DEB761970FB6F894DEBF0FBEB5
:101DF000CDBFFE01319651E1DF011D925A95E9F701
:101E0000A2E0B1E0BA83A9839C838B8377FF09C0EA
:101E10008FE490E090930101809300018FEF9FEF9A
:101E200019C03901842E7C01615071097F836E8352
:101E30009801682DA301CF010E94BC1548855985E2
:101E40002E813F814217530708F49A01F701E20FF0
:101E5000F31F108261960FB6F894DEBF0FBECDBFA0
:101E6000DF91CF911F910F91FF90EF908F907F9016
:041E70006F900895D2
:101E7400CF92DF92EF92DC0190E0292F30E0220F25
:101E8400331F6901032E000CEE086E2DA6014A5182
:101E94005F4F6F4F6A01E62EFA018491E7FC80815F
:101EA40081110DC02F5F3F4F032E000C440B2A51AC
:101EB4003F4F4F4FF901849147FD808124C0CD905D
:101EC400DD90EC901297F6014491E7FC4081841375
:101ED40015C02F5F3F4F032E000C440B2A513F4F78
:101EE4004F4FF901949147FD90815FEFC51AD50AD0
:101EF400E50ACD92DD92EC92129701C09F5F9B3070
:0E1F040008F4BBCF892FEF90DF90CF900895A7
:101F12006F927F928F92CF92DF92EF926B01E82EB7
:101F22003901842EFB018491E7FC8081882379F1B9
:101F3200F901949187FC9081992319F1891323C0A7
:101F42002FEFC21AD20AE20AA82DC3010196A11DDF
:101F520002C032131AC03C018A2EF6013491E7FC0A
:101F620030812FEFC21AD20AE20A332381F0FC0138
:101F72002491A7FD20810196A11D2111EACF81E0C4
:101F82000EC081E00CC081E00AC081E008C081E09F
:101F9200F301949187FC9081911101C080E0EF9050
:0C1FA200DF90CF908F907F906F9008959B
:101FAE000F931F93CF93DF93DB01109719F48FEFED
:101FBE009FEF3DC02D913C91119730FF25C0179694
:101FCE004D915C91189715962D913C91169742174D
:101FDE00530778F41296ED91FC9113978083129625
:101FEE002D913C9113972F5F3F4F13963C932E9359
:101FFE00129717962D913C9118972F5F3F4F189679
:10200E003C932E93179713C01D96ED91FC911E973E
:10201E00309769F2EB01092F182F0995892B39F6A4
:10202E008F819885019698878F83812F902FDF91CE
:08203E00CF911F910F9108954D
:102046006F927F928F92AF92BF92CF92DF92EF9272
:10205600FF920F931F93CF93DF935C013A01862E75
:10206600E901670181E0C822DD24E0FC03C02017F6
:10207600310758F09E01682DA301C5010E94B412D4
:10208600C017D10710F0CE0118C07801EC1AFD0A6E
:10209600E114F10449F0B50180E290E00E94D70F07
:1020A60081E0E81AF108F4CFCD2831F49E01682DBD
:1020B600A301C5010E94B412C801DF91CF911F91FF
:1020C6000F91FF90EF90DF90CF90BF90AF908F90E1
:0620D6007F906F90089559
:1020DC00A3E8B0E0E4E7F0E10C9457155C0149018A
:1020EC00CF57DF4F488359836A83C158D040C12CE6
:1020FC00D12CCF57DF4F2881C158D040CE57DF4F5E
:10210C009881C258D040CD57DF4F8881C358D040FA
:10211C00E22FF92F949187FD90819923E9F07401B6
:10212C00860120E830E0AE014F5F5F4FBE016F5774
:10213C007F4FC5010E9492008C0D9D1D8C159D0535
:10214C004CF48FE490E090930101809300018FEFA9
:10215C009FEF03C06C01CDCFC601CD57DF4FECE034
:04216C000C94731547
:10217000CF93DF93FC01433031F4838180959281CA
:102180008923828333C0413071F5838181110CC072
:10219000928191112FC08091F0029091F102918370
:1021A000808381E0838305C08F5F83839281911157
:1021B00005C0828383E0809307031FC0891316C084
:1021C000EF01CF010E945816882349F08B8180953A
:1021D0009A8189238A8382E0809307030EC081E07D
:1021E000809307030AC0423009F413821092070358
:1021F00080E003C081E08383E1CFDF91CF91089538
:10220000A2E0B0E0E6E0F1E10C9455155C016B0151
:10221000FB012281338184809580808191819A8322
:1022200089836680778037FD03C08D7F9A83898399
:10223000FA014081518162817381CE0101967C0156
:102240000AE010E09401C6010E947A0DE980FA804C
:10225000F6012085318521503109281B390B860D67
:10226000971DAC0160E88401C5010E9423109C0108
:10227000F5018081918190FF06C0F60182819381F2
:10228000821793070CF4C9012296EEE00C947115A5
:10229000CF92DF92EF92FF920F931F9390E0FC0199
:1022A000E295F295F07FFE27E07FFE27EE5FFE4F7E
:1022B0000281138124813581C680D780E084F18436
:1022C000C016D106E206F306F8F0FC01E295F2959D
:1022D000F07FFE27E07FFE27EE5FFE4FC284D384AF
:1022E000E484F5840C151D052E053F0568F08295E4
:1022F0009295907F9827807F9827FC01EE5FFE4F94
:1023000042835383648375831F910F91FF90EF90F5
:06231000DF90CF9008955C
:10231600CF92DF92EF92FF929B01482F60E070E030
:10232600CB0125C0E0EDE50FEA3008F5DC01CB0175
:10233600880F991FAA1FBB1F6C017D01CC0CDD1CE9
:10234600EE1CFF1CCC0CDD1CEE1CFF1CC80ED91E9F
:10235600EA1EFB1E852F90E0C097092E000CAA0BE3
:10236600BB0BBC01CD016C0D7D1D8E1D9F1DF901A2
:10237600549147FD50812F5F3F4F4F4F5111D2CFA0
:0A238600FF90EF90DF90CF900895D4
:10239000E89409C097FB3EF49095809570956195FF
:1023A0007F4F8F4F9F4F9923A9F0F92F96E9BB27B5
:1023B0009395F695879577956795B795F111F8CF31
:1023C000FAF4BB0F11F460FF1BC06F5F7F4F8F4F9C
:1023D0009F4F16C0882311F096E911C0772321F092
:1023E0009EE8872F762F05C0662371F096E8862F2A
:1023F00070E060E02AF09A95660F771F881FDAF781
:0A240000880F9695879597F90895C7
:10240A006F927F928F92CF92DF92EF92FF920F9309
:10241A001F93CF93DF936C01FB013901842EC8010E
:10242A00C281D38104811581E080F180232B242B82
:10243A0031F426E1622E21E0722E20E0822E0097EE
:10244A0021F4882DB3010E942E16D7FD04C0C817A7
:10245A00D90708F4CE019C01682DA301C6010E9488
:10246A002310DF91CF911F910F91FF90EF90DF9092
:0A247A00CF908F907F906F9008952F
:10248400DC012D913D914C911297F901849147FD06
:1024940080818A3221F080E090E07AE011C02F5FE1
:1024A4003F4F4F4F2D933D934C93DB01ED91FC91A6
:1024B4001197CF0102968D939C9380819181089509
:1024C4002D913D914C911297F901549147FD508102
:1024D40050535A3080F4789FF001799FF00D112405
:1024E400CF01850F911D2F5F3F4F4F4F2D933D938C
:0824F4004C931297E5CF089507
:1024FC00CF92DF92EF920F936B01E82E021710F13F
:10250C00A82FCB01820F911DA11DFC018491A7FD69
:10251C0080818823C9F090E031E0390F2F5FFA01F8
:10252C00E90FF11D8083021780F0AE2DC601820FDA
:10253C00911DA11DFC018491A7FD8081932F811118
:10254C00EBCF03C030E001C030E0FA01E30FF11D26
:0C255C0010820F91EF90DF90CF90089557
:102568006F927F928F92CF92DF92EF920F931F9389
:10257800CF93DF938C016A01E62EE9013A01862E9A
:10258800620E731E811C37FD8A94C614D704E804B2
:1025980079F0F6018491E7FC8081B801082E000CDF
:1025A800990B0E94D70F8FEFC81AD80AE80AEDCF07
:1025B800CE01DF91CF911F910F91EF90DF90CF90D7
:0825C8008F907F906F90089541
:1025D00042E060E070E080ED92E00E94B81041E0DF
:1025E00064E873E080ED92E00E94B810882349F01F
:1025F0000E941618833029F448E464E082E40E94C3
:10260000610B41E064E670E080ED92E00E94B8105A
:10261000882349F00E941618833029F44CE464E0C2
:0E26200082E40E94610B0E94F20480E00895A3
:10262E00AF92CF92DF92EF92FF920F931F93E2EC55
:10263E00F2E0938382837183608355834483268380
:10264E0012870187F086E782D486C386A58661E06D
:10265E0081E00E94D41561E080E00E94D41560E014
:10266E0081E00E94021660E080E00E9402161F9137
:0E267E000F91FF90EF90DF90CF90AF900895F6
:10268C000E94BC1488F09F5798F0B92F9927B75126
:10269C00B0F0E1F0660F771F881F991F1AF0BA95FA
:1026AC00C9F714C0B13091F00E94EB17B1E0089556
:1026BC000C94EB17672F782F8827B85F39F0B93F48
:1026CC00CCF3869577956795B395D9F73EF49095AD
:0E26DC008095709561957F4F8F4F9F4F0895A9
:1026EA00CF92DF92EF92FF920F931F93CF93DF93D4
:1026FA006A017B018C01C0E0D0E0C701B6010C2E53
:10270A0004C096958795779567950A94D2F7E091D4
:10271A00FE02F091FF02C801099528960F5F1F4F2C
:10272A00C032D10551F7DF91CF911F910F91FF90E0
:08273A00EF90DF90CF900895AD
:102742001F920F920FB60F9211242F933F934F9324
:102752005F936F937F938F939F93AF93BF93EF9307
:10276200FF930E94C117E091F402F091F5020995DE
:10277200FF91EF91BF91AF919F918F917F916F9157
:102782005F914F913F912F910F900FBE0F901F902D
:02279200189598
:102794001F920F920FB60F9211242F933F934F93D2
:1027A4005F936F937F938F939F93AF93BF93EF93B5
:1027B400FF930E949117E091F202F091F3020995C0
:1027C400FF91EF91BF91AF919F918F917F916F9105
:1027D4005F914F913F912F910F900FBE0F901F90DB
:0227E400189546
:1027E6001F920F920FB60F9211242F933F934F9380
:1027F6005F936F937F938F939F93AF93BF93EF9363
:10280600FF9380919C00E091F602F091F702099502
:10281600FF91EF91BF91AF919F918F917F916F91B2
:102826005F914F913F912F910F900FBE0F901F9088
:022836001895F3
:102838001F920F920FB60F9211242F933F934F932D
:102848005F936F937F938F939F93AF93BF93EF9310
:10285800FF938CB1E091F802F091F9020995FF918C
:10286800EF91BF91AF919F918F917F916F915F9100
:102878004F913F912F910F900FBE0F901F90189579
:10288800CF93DF93FC01208120FF1BC0EC01618105
:10289800728103960E945816882319F088818460F3
:1028A8008883888182FF0FC08B7F8883ED81FE81BA
:1028B8000995988193FD08C0882331F09E7F9883FD
:0E28C80003C080E001C080E0DF91CF91089551
:1028D600DC019A01462F8C91882339F0CD010196AF
:1028E600DC0101965C915111FBCFF901849147FD02
:1028F6008081882381F02F5F3F4F4F4F1196FD0156
:1029060031978083F901849147FD80812F5F3F4F86
:0A2916004F4F8111F3CF1C9208957A
:10292000990F0008550FAA0BE0E8FEEF16161706E0
:10293000E807F907C0F012161306E407F50798F048
:10294000621B730B840B950B39F40A2661F0232B61
:10295000242B252B21F408950A2609F4A140A695DD
:082960008FEF811D811D089518
:1029680057FD9058440F551F59F05F3F71F0479538
:10297800880F97FB991F61F09F3F79F0879508951D
:10298800121613061406551FF2CF4695F1DF08C03C
:10299800161617061806991FF1CF86957105610559
:0429A80008940895F2
:1029AC00A1E21A2EAA1BBB1BFD010DC0AA1FBB1F47
:1029BC00EE1FFF1FA217B307E407F50720F0A21BB9
:1029CC00B30BE40BF50B661F771F881F991F1A9426
:1029DC0069F760957095809590959B01AC01BD0150
:0429EC00CF0108957A
:1029F000E4EDF2E020813181428153816DE27FE795
:102A000085E99CE40E94DB16DC01CB010196A11D47
:102A1000B11DE4EDF2E080839183A283B383F1E101
:0E2A2000B695A79597958795FA95D1F70895E5
:102A2E000F931F93CF93DF936115710589F08C017E
:102A3E00EC0187E0869F9001879F300D1124020FD5
:102A4E00131FCE010E9444142796C017D107C9F751
:0A2A5E00DF91CF911F910F910895B1
:102A6800CF92DF92EF926901E42E0E948717F60158
:102A78008491E7FC8081882361F09FEFC91AD90A05
:102A8800E90A0E94B816F6018491E7FC8081811159
:0A2A9800F4CFEF90DF90CF90089587
:102AA2002F923F924F925F926F927F928F929F925C
:102AB200AF92BF92CF92DF92EF92FF920F931F934A
:102AC200CF93DF93CDB7DEB7CA1BDB0B0FB6F894FB
:082AD200DEBF0FBECDBF099469
:102ADA002A88398848885F846E847D848C849B84A4
:102AEA00AA84B984C884DF80EE80FD800C811B81B2
:102AFA00AA81B981CE0FD11D0FB6F894DEBF0FBEE1
:062B0A00CDBFED010895AE
:102B1000FC012081442351F081E090E002C0880F45
:102B2000991F6A95E2F7922F982B0AC041E050E076
:102B300002C0440F551F6A95E2F7942F9095922397
:042B400090830895E1
:102B4400FC012081442351F081E090E002C0880F11
:102B5400991F6A95E2F7922F982B0AC041E050E042
:102B640002C0440F551F6A95E2F7942F9095922363
:042B740090830895AD
:102B7800A2E0B0E0E2ECF5E10C945F158C013A8339
:102B880029839E012F5F3F4F0E946E10F80120811C
:102B980024FF02C08FEF9FEF2296E4E00C947B1590
:102BA80041E0611140E0813041F4E2ECF2E06681FD
:102BB800828193810E9488150895811107C0E2ECF3
:0E2BC800F2E06585818592850E94881508954A
:102BD60020E1829FC0011124FC01EE5FFE4F80813F
:102BE60080FF05C0862FBA010E94920E089581FFCC
:0E2BF60005C0862FBA010E948B110895089524
:102C0400813049F4E2ECF2E0462F668180819181C3
:102C14000E9488150895811108C0E2ECF2E0462F65
:0C2C24006585878190850E9488150895C1
:102C30000F931F93CF93DF93162FC42FD22F402FC4
:102C4000622F8C2F0E94610B412F6D2F8C2F0E94C1
:0C2C5000CF0BDF91CF911F910F910895E1
:102C5C00CF92DF92EF926B01E82EA82FCB01FC01F3
:102C6C002491A7FD2081222319F00196A11DF7CFF5
:0C2C7C008C199D09EF90DF90CF90089517
:102C88008091F0029091F102019621F41092F102E4
:102C98001092F0028091F0029091F10201969093C7
:082CA800F1028093F00208958F
:102CB0002091F0023091F102FC0140815181F90133
:102CC000E41BF50BE617F70728F0FC01318320839E
:082CD00081E0089580E0089501
:102CD800AA1BBB1B51E107C0AA1FBB1FA617B7073A
:102CE80010F0A61BB70B881F991F5A95A9F7809556
:082CF8009095BC01CD01089587
:102D0000A0E0B0E0E6E8F6E10C9461159E01265FD4
:102D10003F4F4F81588569858D819E810E9446175E
:062D2000E2E00C947D15B9
:102D2600A82FCB01FC012491A7FD2081241741F097
:102D36000196A11D2111F6CF60E070E080E00895B4
:062D4600BC018A2F089574
:102D4C00CF93C82FE1EEF2E040E062818081918167
:102D5C000E94A2158C2F0E94D10782E00E9421179D
:042D6C00CF91089566
:102D7000CF93C82FE1EEF2E041E062818081918142
:102D80000E94A2158C2F0E94D10782E00E94211779
:042D9000CF91089542
:102D9400092E0394000C11F4882352F0BB0F40F465
:102DA400BF2B11F460FF04C06F5F7F4F8F4F9F4FA5
:022DB400089580
:102DB600DB018F939F930E946817BF91AF91A29FEB
:102DC600800D911DA39F900DB29F900D1124089523
:102DD600A29FB001B39FC001A39F700D811D112456
:0E2DE600911DB29F700D811D1124911D089545
:102DF40090E1899FF0011124EE5FFE4F42815381DF
:0A2E0400648175810E94C8170895CB
:102E0E0090E1899FF0011124EE5FFE4F0684F78555
:0A2E1E00E02D309709F009950895A2
:102E280080910803882341F00E94F81490930103CD
:0A2E380080930003892BC1F3089575
:102E4200882351F090E0E9EFF0E03197F1F700C00C
:0A2E520000009F5F8913F7CF089579
:102E5C00CF93DF93EB010E94800AD093F502C093CD
:082E6C00F402DF91CF910895FB
:102E740020E1829FC0011124FC01EE5FFE4F6281BC
:082E840073818481958108959A
:102E8C000F931F9389019A01462F6FEF7FE70E94E2
:082E9C00E80E1F910F9108954B
:102EA40048E465E085E40E94610B4CE465E085E458
:062EB4000E94610B08956D
:102EBA00EC010E9429180E942818CE010E942A18A3
:062ECA00CE010E94261853
:102ED0000E94EB16A59F900DB49F900DA49F800DAE
:062EE000911D112408956C
:102EE600882321F087B7846087BF089587B78B7FD3
:042EF60087BF0895F5
:102EFA0020E1829FC0011124FC01EE5FFE4F808118
:042F0A009181089514
:102F0E00811103C080E8860F02C080EC860F0E94FC
:042F1E00A616089556
:102F22008091FA029091FB0290938900809388002D
:022F3200089500
:102F34009C01215631092A31310510F48F759927E6
:022F44000895EE
:102F4600882329F090E000009F5F8913FCCF089545
:102F56009C01215431092A31310508F48062089513
:0E2F660064E070E082E992E00E941715089581
:0E2F7400FC01368325836083528341830895D8
:0E2F82008091FC029091FD029DBD8CBD0895D2
:0E2F900024E0829FC00111240E947513089551
:0E2F9E0081E00E94A6168AE00E942117089585
:0E2FAC005058BB27AA270E94130D0C94CA167A
:0E2FBA0000240A941616170618060906089534
:0E2FC80000240A941216130614060506089536
:0E2FD600E894BB2766277727CB0197F908956B
:0C2FE4008EEA92E00E94FE0281E0089557
:0C2FF000882311F078940895F894089557
:0C2FFC0097F99F6780E870E060E008959E
:0A30080080910003909101030895E8
:0A3012000E94901408F481E0089574
:08301C0081E080930803089590
:083024000E94F20A0C94CA1686
:06302C00809107030895E6
:063032001092080308954E
:06303800809108030895D9
:06303E009FEF80EC0895F5
:043044000C940000E8
:0430480081E0089586
:04304C000E9471006D
:023050000895E1
:023052000895DF
:023054000895DD
:00000001FF
