:100000000C9449000C9431060C9431060C94310682
:100010000C9431060C9431060C9431060C94310684
:100020000C9431060C9431060C9431060C94310674
:100030000C9431060C9431060C9431060C94310664
:100040000C9431060C9431060C9431060C94310654
:100050000C9431060C9431060C9431060C94310644
:100060000C9431060C9431060C9431060C94310634
:100070000C9431060C948D040C9431060C943106CA
:100080000C9431060C9431060C9431060100014E9B
:10009000800011241FBECFEFD0E1DEBFCDBFECE862
:1000A000F0E040E017C0B591A591359125910591FB
:1000B00007FD0CC095918591EF01F92FE82F059070
:1000C0000D92A217B307D9F7FE0104C01D92A21723
:1000D000B307E1F7E139F40731F70E940E040C94FD
:0600E0007100F894FFCF4F
:0C00E60048454C4C4F00574F524C440012
:1000F2004F925F926F927F928F929F92AF92BF9236
:10010200CF92DF92EF92FF921F93CF93DF9310E093
:10011200C1E0D0E00F2EF0E84F2EFEE35F2E612CFF
:10012200712CF02D882E912CA12CB12C02C0C0E094
:10013200D1E01F5F6E01E12CF12CC301B201A701D6
:1001420096010E947405CA01B9010E94AF029B0187
:10015200AC0160E070E080E89FE30E9427066B013B
:100162007C01C501B4010E94AF02A70196010E9461
:1001720027066B017C0120E03FEF4FE757E40E9426
:100182001A0688238CF0CC0FDD1FCC0FDD1FCC0F9D
:10019200DD1FC11582E0D80751F2C11588E0D807EA
:1001A20041F6C0E0D4E0C5CF10928B00A7019601C2
:1001B20060E07FEF8FE797E40E94EC050E94B103B5
:1001C20070934B0160934A01CB010E94D3051093B7
:1001D2008A0081E00E94C505DF91CF911F91FF90B7
:1001E200EF90DF90CF90BF90AF909F908F907F90D5
:0801F2006F905F904F9008959B
:1001FA0021E030E002C0220F331F6A95E2F748344B
:10020A0071F5813421F48BB3282B2BBB08958234EA
:10021A0021F488B3282B28BB0895833421F485B3AD
:10022A00282B25BB0895843421F482B3282B22BBC2
:10023A000895853421F483B1282B23B9089586348F
:10024A0031F4E2E6F0E08081282B20830895873498
:10025A00E1F5E5E6F0E08081282B208308954C340F
:10026A00A1F5813429F48BB3209528232BBB08955B
:10027A00823429F488B32095282328BB089583342F
:10028A0029F485B32095282325BB0895843429F4BD
:10029A0082B32095282322BB0895853429F483B19B
:1002AA002095282323B90895863439F4E2E6F0E04C
:1002BA0080812095282320830895873431F4E5E648
:0C02CA00F0E08081209528232083089517
:1002D60021E030E002C0220F331F6A95E2F74F3467
:1002E60071F5813421F48AB3282B2ABB0895823410
:1002F60021F487B3282B27BB0895833421F484B3D4
:10030600282B24BB0895843421F481B3282B21BBE8
:100316000895853421F482B1282B22B908958634B4
:1003260031F4E1E6F0E08081282B208308958734BC
:10033600E1F5E4E6F0E08081282B20830895493436
:10034600A1F5813429F48AB3209528232ABB089580
:10035600823429F487B32095282327BB0895833454
:1003660029F484B32095282324BB0895843429F4E2
:1003760081B32095282321BB0895853429F482B1C1
:100386002095282322B90895863439F4E1E6F0E071
:1003960080812095282320830895873431F4E4E66C
:0C03A600F0E0808120952823208308953A
:1003B2000E94FA0558F00E94F30540F029F45F3FCD
:1003C20029F00C94140651110C9402060C942E067A
:1003D2000E94D70468F39923B1F3552391F3951B37
:1003E200550BBB27AA2762177307840738F09F5F54
:1003F2005F4F220F331F441FAA1FA9F335D00E2EC1
:100402003AF0E0E832D091505040E695001CCAF72D
:100412002BD0FE2F29D0660F771F881FBB1F2617F0
:1004220037074807AB07B0E809F0BB0B802DBF01C7
:10043200FF2793585F4F3AF09E3F510578F00C9496
:1004420014060C9402065F3FE4F3983ED4F38695BB
:1004520077956795B795F7959F5FC9F7880F911DB7
:100462009695879597F90895E1E0660F771F881FA3
:10047200BB1F621773078407BA0720F0621B730B56
:0C048200840BBA0BEE1F88F7E09508957C
:10048E000E94F30538F00E94FA0520F039F49F3FE0
:10049E0019F426F40C942E060EF4E095E7FB0C945A
:1004AE001406E92F0E94D70458F3BA176207730790
:1004BE008407950720F079F4A6F50C9401060EF446
:1004CE00E0950B2EBA2FA02D0B01B90190010C0156
:1004DE00CA01A0011124FF27591B99F0593F50F46E
:1004EE00503E68F11A16F040A22F232F342F4427C6
:1004FE00585FF3CF469537952795A795F0405395BE
:10050E00C9F77EF41F16BA0B620B730B840BBAF08D
:10051E009150A1F0FF0FBB1F661F771F881FC2F7F8
:10052E000EC0BA0F621F731F841F48F4879577950C
:10053E006795B795F7959E3F08F0B0CF9395880FC6
:0C054E0008F09927EE0F97958795089507
:10055A00E89409C097FB3EF4909580957095619553
:10056A007F4F8F4F9F4F9923A9F0F92F96E9BB2709
:10057A009395F695879577956795B795F111F8CF85
:10058A00FAF4BB0F11F460FF1BC06F5F7F4F8F4FF0
:10059A009F4F16C0882311F096E911C0772321F0E6
:1005AA009EE8872F762F05C0662371F096E8862F7E
:1005BA0070E060E02AF09A95660F771F881FDAF7D5
:0A05CA00880F9695879597F908951C
:1005D40021E030E002C0220F331F6A95E2F7813434
:1005E40021F48BB328272BBB0895823421F488B3DC
:1005F400282728BB0895833421F485B3282725BBF5
:100604000895843421F482B3282722BB08958534C5
:1006140021F483B1282723B90895863431F4E2E61E
:10062400F0E08081282720830895873429F4E5E6C3
:0A063400F0E080812827208308955C
:10063E00EAE9F0E0208128692083EDE9F0E02081ED
:10064E0026602083DC01CB01880F991FAA1FBB1FD8
:10065E00880F991FAA1FBB1F9C01AD01220F331FCC
:10066E00441F551F220F331F441F551F60E074E2B5
:10067E0084EF90E00E94F904DA01C9010197A10903
:10068E00B10980939900892F9A2FAB2FBB278093A6
:04069E009800089523
:1006A200CF93C82F86E491E00E941F0666EB73E0A9
:1006B20086E491E00E946504882341F00E942B06A3
:1006C200813021F462E085E40E94EA0262E370E094
:1006D20086E491E00E946504882341F00E942B0683
:1006E200813021F462E085E40E94EA0286E491E02E
:1006F2000E940806882319F08C2F0E945B05CF9177
:02070200089558
:100704002AB128692AB9E5E9F0E02081266020832E
:10071400DC01CB01880F991FAA1FBB1F880F991FEB
:10072400AA1FBB1F9C01AD01220F331F441F551F7D
:10073400220F331F441F551F60E074E284EF90E0E2
:100744000E94F904DA01C9010197A109B10989B923
:0E075400892F9A2FAB2FBB278093900008951A
:100762000E94DF0488F09F5798F0B92F9927B7515C
:10077200B0F0E1F0660F771F881F991F1AF0BA9543
:10078200C9F714C0B13091F00E940106B1E008959A
:100792000C940106672F782F8827B85F39F0B93F8C
:1007A200CCF3869577956795B395D9F73EF49095F6
:0E07B2008095709561957F4F8F4F9F4F0895F2
:1007C00080914D01882349F1E0E0F1E0815090E013
:1007D00001969C01220F331F220F331F220F331F5C
:1007E000281B390B20503F4F808180FF12C082FDB3
:1007F00010C0438154814230510528F041505109C5
:100800005483438306C08460808381819281948372
:0C08100083833796E217F30739F7089549
:10081C0081E00E94790008E422E045E46FE484E47E
:10082C000E948B0521E533E041E069E080E00E9405
:10083C00A10581E00E940E0660E875E280E090E080
:10084C000E94820366EE70E080E00E941B0560E867
:10085C0075E280E090E00E941F036CEE70E080E097
:0A086C000E943B050E943B04FDCFF3
:10087600CF9380914D01882319F1C0E02C2F30E0F1
:1008860087E0C89FF0011124E050FF4F808182FF6E
:1008960012C0F901EE0FFF1FEE0FFF1FEE0FFF1F35
:1008A600E21BF30BE050FF4F8B7F80830580F681C0
:1008B600E02D8C2F0995CF5F80914D01C817F0F27E
:0408C600CF91089531
:1008CA00FC019081838121E0280F2383911109C0C3
:1008DA008083615071097283618381E080934C0146
:1008EA000895981311C0818192818230910538F060
:1008FA0001979283818382E080934C01089510824C
:10090A0083E080934C01089510924C0180E0089591
:10091A001F920F920FB60F9211242F933F934F936A
:10092A005F936F937F938F939F93AF93BF93EF934D
:10093A00FF930E94D3050E94E003FF91EF91BF91BC
:10094A00AF919F918F917F916F915F914F913F915D
:0C095A002F910F900FBE0F901F9018956A
:10096600990F0008550FAA0BE0E8FEEF16161706BA
:10097600E807F907C0F012161306E407F50798F022
:10098600621B730B840B950B39F40A2661F0232B3B
:10099600242B252B21F408950A2609F4A140A695B7
:0809A6008FEF811D811D0895F2
:1009AE0057FD9058440F551F59F05F3F71F0479512
:1009BE00880F97FB991F61F09F3F79F087950895F7
:1009CE00121613061406551FF2CF4695F1DF08C016
:1009DE00161617061806991FF1CF86957105610533
:0409EE0008940895CC
:1009F200A1E21A2EAA1BBB1BFD010DC0AA1FBB1F21
:100A0200EE1FFF1FA217B307E407F50720F0A21B92
:100A1200B30BE40BF50B661F771F881F991F1A94FF
:100A220069F760957095809590959B01AC01BD0129
:040A3200CF01089553
:100A3600CF92DF92EF92CF936B01E82EFB01849168
:100A4600E7FC8081882379F0C0E00E942306CF5F0F
:100A5600AE2DC6018C0F911DA11DFC018491A7FD31
:100A660080818111F2CFCF91EF90DF90CF900895E2
:100A7600CF92DF92EF92CF936B01E82EFB01849128
:100A8600E7FC8081882379F0C0E00E94DC05CF5F17
:100A9600AE2DC6018C0F911DA11DFC018491A7FDF1
:100AA60080818111F2CFCF91EF90DF90CF900895A2
:100AB600282F30E097E0899FF0011124E050FF4F86
:100AC600808183FD0DC0F901EE0FFF1FEE0FFF1FA2
:100AD600EE0FFF1FE21BF30BE050FF4F8E7F80836C
:020AE600089571
:100AE800052E97FB1EF400940E94E40557FD07D0DD
:100AF8000E94F90407FC03D04EF40C94E4055095C9
:0E0B08004095309521953F4F4F4F5F4F089518
:100B16000F931F93CF93DF93162FC42FD22F402FFF
:100B2600622F8C2F0E94FD00412F6D2F8C2F0E946B
:0C0B36006B01DF91CF911F910F9108958A
:100B420057E0859FC0011124FC01E050FF4F36831E
:100B52002583608350E05283418380914D018F5FF2
:060B620080934D0108958F
:100B6800092E0394000C11F4882352F0BB0F40F4B3
:100B7800BF2B11F460FF04C06F5F7F4F8F4F9F4FF3
:020B88000895CE
:100B8A00882331F0EDE7F0E0808184608083089566
:0C0B9A00EDE7F0E080818B7F8083089500
:100BA60080914A0190914B0190938900809388002F
:020BB6000895A0
:100BB800EBE9F0E0908195FFFDCF80939C000895CC
:100BC80090958095709561957F4F8F4F9F4F0895B1
:0E0BD8005058BB27AA270E9458020C94B4055F
:0E0BE60000240A94161617061806090608952C
:0E0BF40000240A94121613061406050608952E
:0E0C0200E894BB2766277727CB0197F9089562
:0C0C1000FC0181E09081911180E00895CA
:0C0C1C00882311F078940895F89408954E
:0C0C280097F99F6780E870E060E0089595
:0A0C34000E94B30408F481E0089563
:080C3E0021E0FC01238308956D
:080C46005D9BFECF8CB90895FF
:080C4E000E94E9010C94B405B9
:060C560080914C0108959D
:060C5C009FEF80EC0895FB
:040C62000C940000EE
:00000001FF
