:0400000064EF00F0B9
:100008005182E1CF08F0E2CF09F0D9CF0AF0DACF78
:100018000BF0F3CF0CF0F4CF0DF0F2A008D0815024
:10002800F290030E016E410EDFEC9BF03BD09EA0D8
:1000380005D08DECA0F0E5EC94F034D0A1A203D06B
:1000480087ECA0F02FD0BAA203D081ECA0F02AD080
:100058009EAA21D09E9AAE507BECA0F02B0EAE1833
:10006800D8A403D0550EEAEC9CF02D0EAE18D8A4F7
:1000780003D0440EEAEC9CF02A0EAE18D8A403D0A4
:100088004F0EEAEC9CF02F0EAE18D8A40BD0420EFF
:10009800EAEC9CF007D0A4AA05D0A49A0F011D5140
:1000A8006EECA0F00DC0F4FF0CC0F3FF0BC0DAFF3C
:1000B8000AC0D9FF09C0E2FF08C0E1FF5192110050
:0400C800A0EF95F020
:10F9E600000608205F0000000000000000002F0055
:10F9F6000000000700070000147F147F1400242A6B
:10FA06007F2A1200231308646200364955225000EB
:10FA1600000503000000001C224100000041221CDA
:10FA2600000014083E08140008083E0808000000FC
:10FA3600A0600000080808080800006060000000D8
:10FA46002010080402003E5149453E0000427F4016
:10FA560000004261514946002141454B31001814CE
:10FA6600127F10002745454539003C4A4949300078
:10FA760001710905030036494949360006494929F5
:10FA86001E0000363600000000563600000008143E
:10FA9600224100001414141414000041221408001A
:10FAA600020151090600324959513E007C121112D9
:10FAB6007C007F49494936003E41414122007F4151
:10FAC60041221C007F49494941007F09090901007B
:10FAD6003E4149497A007F0808087F0000417F417E
:10FAE60000002040413F01007F08142241007F4072
:10FAF600404040007F020C027F007F0408107F0018
:10FB06003E4141413E007F09090906003E4151211F
:10FB16005E007F091929460046494949310001011D
:10FB26007F0101003F4040403F001F2040201F0052
:10FB36003F4038403F00631408146300070870080C
:10FB46000700615149454300007F414100AA55AA7B
:10FB560055AA55000041417F00000402010204003D
:10FB6600404040404000000305000000205454542B
:10FB760078007F48444438003844444420003844E0
:10FB860044487F00385454541800087E0901020086
:10FB960018A4A4A47C007F080404780000447D40D7
:10FBA60000004080847D00007F1028440000004152
:10FBB6007F4000007C04180478007C080404780068
:10FBC600384444443800FC242424180018242418FB
:10FBD600FC007C0804040800485454542000043FE8
:10FBE600444020003C4040207C001C2040201C005B
:10FBF6003C4030403C004428102844001CA0A0A0F3
:10FC06007C004464544C440000107C8200000000D8
:10FC1600FF00000000827C1000000006090906496A
:10FC26004E50555420454D47204D5554452052457C
:10FC36004C454153454400494E50555420454D4787
:10FC4600204D5554452050524553534544004D418F
:10FC5600582020202020204E4F57202020202020D2
:10FC66004D494E0020203E3E2052414E444F4D20ED
:10FC76004D454E55203C3C00203E3E20434F554EC0
:10FC8600544552204D454E55203C3C002020202016
:10FC96003E3E2041524D204D454E55203C3C0020D5
:10FCA60020203E3E204D41494E204D454E55203C9C
:10FCB6003C0020203E3E20494E505554204D454E96
:10FCC60055203C3C0020203E3E2052454C415920C8
:10FCD6004D454E55203C3C00494E4849424954202A
:10FCE600412052454C454153454400494E484942FE
:10FCF600495420422052454C454153454400494E03
:10FD060050555420454D472052454C454153454496
:10FD160000494E505554205245532052454C4541BA
:10FD2600534544004D4F544F5220425245414B20BB
:10FD3600535045454400494E4849424954204120C4
:10FD46005052455353454400494E48494249542070
:10FD560042205052455353454400494E5055542075
:10FD6600454D47205052455353454400494E505542
:10FD76005420524553205052455353454400494E52
:10FD860050555420412052454C4541534544004965
:10FD96004E50555420422052454C4541534544004F
:10FDA60052454C415920414C41524D204D4F4445FE
:10FDB6000052454C415920414C41524D2054494D29
:10FDC6004500504F574552204641494C2026204574
:10FDD6004D4700494E5055542041205052455353EB
:10FDE600454400494E5055542042205052455353E5
:10FDF60045440052454C41592042555359204D4FD8
:10FE060044450052454C41592042555359205449C6
:10FE16004D45004A55535420504F574552204641B0
:10FE2600494C0054454D50204120434F554E5445B2
:10FE3600520054454D50204220434F554E54455292
:10FE46000053595354454D20434F554E5445520087
:10FE5600494E5055542053455454494E4753005229
:10FE6600454C41592053455454494E475300524539
:10FE76004C4159204120414D4F554E540052454C5E
:10FE86004159204220414D4F554E5400494E505540
:10FE9600542054494D45204F55540052414E444F2D
:10FEA6004D2041204D4F44450052414E444F4D2078
:10FEB60042204D4F44450044524F502041524D2060
:10FEC6004D4F444500464958204120434F554E5416
:10FED600455200464958204220434F554E544552FC
:10FEE6000052414E444F4D20534F52544552004507
:10FEF600524153452044415441203F0052454C4114
:10FF0600592041204D4F44450052454C415920420D
:10FF1600204D4F4445004D4F4445204449534142EE
:10FF26004C450052454C415920412054494D45000D
:10FF360052454C415920422054494D4500494E50A6
:10FF46005554204255464645520041524D20534590
:10FF56005454494E4753004D415331322053544176
:10FF6600545553004D4F544F52205350454544006D
:10FF76004D4F444520454E41424C45004D4F544F50
:10FF860052204D4F444500494E505554204D4F4444
:10FF9600450043414E54204552415345004D4F4480
:10FFA60045204E2F4300454D47204D4F4445004ABE
:10FFB60055535420454D47004D4F4445204E2F4F35
:10FFC6000025632029202573005041535349564587
:10FFD60000434F4E54524F4C002563292025730091
:10FFE6004143544956450025632F25630046524533
:09FFF60045002564000D0A00001D
:020000040001F9
:100000000001C66F000E0001C56FFA51D8A40FD0D1
:100010004F0EC619D8A41200010EC56FEDC00FF027
:10002000EEC010F0000E116E89EC9BF0DED1550E83
:10003000C619D8A429D0E951EA11D8B41FD0465026
:100040000A0D43C0F0F244C0F1F2F3500201F02770
:10005000F450F123060EF025D96E000EF121DA6E70
:10006000DE500001EB5DDE50EC59D8B00DD0010E32
:10007000EB25EB6F000EEC21EC6F06D0FD51465CDA
:10008000D8B002D04628466E440EC619D8A428D04F
:10009000E951EA11D8B41FD046500A0D43C0F0F21E
:1000A00044C0F1F2F3500201F027F450F123080E9E
:1000B000F025D96E000EF121DA6E0001EB51DE5C05
:1000C000EC51DE58D8B00CD0FF0EEB25EB6FFF0ED5
:1000D000EC21EC6F05D04650D8B402D04604466EF1
:1000E000420EC619D8A417D0420EC619D8A413D0F0
:1000F000E905EA11D8A405D0000EEA6F000EE96FF9
:100100000AD04550D8A405D0000EFA6F020EC56F74
:1001100002D068EC9DF04F0E0001C619D8A465D13D
:1001200046500A0D43C0F0F244C0F1F2F350020110
:10013000F027F450F123020EF025D96E000EF121C4
:10014000DA6EDFA01FD046500A0D43C0F0F244C063
:10015000F1F2F350F027F450F123030EF025D96E9D
:10016000000EF121DA6EDECFF2F2DECFF3F2DECF57
:10017000F4F2F2C20FF0F3C210F0010E116E89EC2E
:100180009BF033D146500A0D43C0F0F244C0F1F267
:10019000F350F027F450F123020EF025D96E000E33
:1001A000F121DA6EDFA686D00001E951EA11D8A468
:1001B00044D0000EEC6F000EEB6F46500A0D43C0AA
:1001C000F0F244C0F1F2F3500201F027F450F123B1
:1001D000030EF025D96E000EF121DA6EDE50DE102E
:1001E000DE10D8B425D046500A0D43C0F0F244C00A
:1001F000F1F2F350F027F450F123030EF025D96EFD
:10020000000EF121DA6E01D80FD00500FA6EDE5033
:10021000FD6EDE50FE6EDE50FF6EFA50270E106E41
:100220000F0E0F6E000E12000FC0EBF010C0ECF0BE
:10023000000E0001EA6F010E3BD046500A0D43C08C
:10024000F0F244C0F1F2F3500201F027F450F12330
:10025000030EF025D96E000EF121DA6EDE50DE10AD
:10026000DE10D8B421D046500A0D43C0F0F244C08D
:10027000F1F2F350F027F450F123030EF025D96E7C
:10028000000EF121DA6E01D80FD00500FA6EDE50B3
:10029000FD6EDE50FE6EDE50FF6EFA50EBC00FF0CA
:1002A000ECC010F0010E1200000E0001EA6F000E0B
:1002B000E96F9BD046500A0D43C0F0F244C0F1F202
:1002C000F350F027F450F123020EF025D96E000E02
:1002D000F121DA6EDFB212D046500A0D43C0F0F2BF
:1002E00044C0F1F2F350F027F450F123020EF02550
:1002F000D96E000EF121DA6EDFA477D00001E9514A
:10030000EA11D8A43BD0000EEC6F000EEB6F465004
:100310000A0D43C0F0F244C0F1F2F3500201F0279D
:10032000F450F123030EF025D96E000EF121DA6EA0
:10033000DE50DE10DE10D8B47BD746500A0D43C025
:10034000F0F244C0F1F2F350F027F450F123030E21
:10035000F025D96E000EF121DA6E01D865D70500BF
:10036000FA6EDE50FD6EDE50FE6EDE50FF6EFA500D
:10037000270E106E0F0E0F6E000E120046500A0D63
:1003800043C0F0F244C0F1F2F3500201F027F45000
:10039000F123030EF025D96E000EF121DA6EDE5046
:1003A000DE10DE10D8B480D746500A0D43C0F0F2FC
:1003B00044C0F1F2F350F027F450F123030EF0257E
:1003C000D96E000EF121DA6E01D86ED70500FA6EF3
:1003D000DE50FD6EDE50FE6EDE50FF6EFA50EBC05A
:1003E0000FF0ECC010F0010E12000001C505D8A4FA
:1003F00002D0010EFA6F020EC519D8A419D001D887
:100400000AD00500FA6ED751FD6ED851FE6ED95153
:10041000FF6EFA50120001D80BD00500FA6E0001F1
:10042000D451FD6ED551FE6ED651FF6EFA501200BA
:100430000001FA51D8B41200E951EA11D8B49AD0A7
:1004400046500A0D43C0F0F244C0F1F2F3500201ED
:10045000F027F450F123020EF025D96E000EF121A1
:10046000DA6EDFA23FD046500A0DF3CFF0F2F4CFA0
:10047000F1F2F0514324D96EF1514420DA6EDECF0F
:10048000E8F2DDCFE9F246500A0D43C0F2F244C073
:10049000F3F2F350F227F450F323060EF225D96E4F
:1004A000000EF321DA6EDECFEAF2DDCFEBF246503A
:1004B0000A0D43C0F4F244C0F5F2F350F427F450AF
:1004C000F523080EF425D96E000EF521DA6EDECF85
:1004D000ECF2DDCFEDF2EBC0EEF2ECC0EFF23DEC72
:1004E00089F0120046500A0D43C0F0F244C0F1F208
:1004F000F350F027F450F123020EF025D96E000ED0
:10050000F121DA6EDFA419D046500A0DF3CFF0F2D4
:10051000F4CFF1F2F0514324D96EF1514420DA6E58
:10052000DECF9DF0DDCF9EF0F7C09FF0F8C0A0F0C9
:10053000EBC0A1F04BEC93F0120046500A0D43C003
:10054000F0F244C0F1F2F350F027F450F123020E20
:10055000F025D96E000EF121DA6EDFA61200F5C08B
:10056000FCF1F6C0FDF1EBC0FEF1ECC0FFF150EC88
:1005700091F0120046500A0DF3CFF0F2F4CFF1F2F1
:100580000201F0514324D96EF1514420DA6EDECFDE
:100590009DF0DDCF9EF046C09FF07DEC8EF0120006
:1005A000000E346E000E336E000E366E000E356E89
:1005B000000E286E000E276ECAC022F0070E22160B
:1005C000D8A4DCD0C9C017F0186A000E126E080E4D
:1005D000116ECAC00FF0106AA9EC98F00FC019F0A4
:1005E00010C01AF011EC9FF017C025F018C026F0CB
:1005F0000001CB51215C176E186AD8A0180625C0DF
:1006000019F026C01AF011EC9FF0040E17242D6E7D
:10061000000E18202E6E000E346E000E336E9ED02B
:10062000000E366E000E356E8DD0C9C017F0186AF8
:1006300033C019F034C01AF011EC9FF0C7C022F09B
:10064000C8C023F017502226185023222D502226EE
:100650002E502322355022263650232222C0F6FF68
:1006600023C0F7FF000EF86E0800F550276E286AC9
:10067000000E376E37C022F0010E236E000E246E7E
:10068000222A03D0D89023362436222EFBD7275097
:1006900023162850241623502410D8B448D0000123
:1006A000CD51D8A422D035501D240F6E36501E20B7
:1006B000106E375033C022F034C023F0D890223669
:1006C0002336D89022362336D89022362336222657
:1006D000000E23221F502224116E20502320126E60
:1006E000010E136EEBEC8BF027D035501D240F6EEE
:1006F00036501E20106E375033C022F034C023F025
:10070000D89022362336D89022362336D8902236F7
:1007100023362226000E23221F502224116E205041
:100720002320126E000E136EEBEC8BF005D000014F
:10073000CD51D8B4DAD7B7D7372A070E37649AD74E
:10074000354A362A0001C951226E236A2250355C8F
:1007500023503658D8A069D7334A342ACAC00FF07C
:10076000106A000E126E080E116EA9EC98F00F5070
:10077000335C10503458D8B0120052D70001CB511E
:10078000215C176E186AD8A01806000E126E080EAB
:10079000116EC951CA03F3CF0FF0F4CF10F0A9ECDA
:1007A00098F00FC019F010C01AF011EC9FF0040E71
:1007B00017242D6E000E18202E6E2D500001C72517
:1007C000226E2E50C821236E22C0F6FF23C0F7FFF1
:1007D000000EF86E0800F550296E2A6A000E2C6E85
:1007E000070E2B6E000E306E000E2F6E56D0000ED0
:1007F000326E000E316E45D02BC022F0010E236EFA
:10080000000E246E222A03D0D89023362436222EBE
:10081000FBD7295023162A50241623502410D8B46D
:1008200026D00001CD51D8A411D02F501D240F6E19
:1008300030501E20106E31501F24116E3250202077
:10084000126E010E136EEBEC8BF016D02F501D24A0
:100850000F6E30501E20106E31501F24116E32501A
:100860002020126E000E136EEBEC8BF005D0000111
:10087000CD51D8B4EBD7D9D72B06D8A02C06314A06
:10088000322A0001CA51226E236A2250315C235061
:100890003258D8A0B1D72F4A302AC951226E236AC4
:1008A00022502F5C23503058D8B01200A0D7400EF1
:1008B000DAEC97F0FF0E0F6EFF0E52EC8AF04F0E3F
:1008C000176E410E186E030E196E4C0E1A6E440E02
:1008D000E7EC9FF0490E176E420E186E040E196E6B
:1008E0004C0E1A6E440EE7EC9FF0490E176E420E46
:1008F000186E050E196E4C0E1A6E440EE7EC9FF042
:10090000490E176E420E186E060E196E4C0E1A6EB8
:10091000440EE7EC9FF04F0E176E440E186E010E5A
:10092000196E4C0E1A6E440EE7EC9FF04F0E176EC8
:10093000440E186E020E196E4C0E1A6E440EE7EC41
:100940009FF04F0E176E440E186E030E196E4C0E6C
:100950001A6E440EE7EC9FF04F0E176E440E186EA1
:10096000040E196E4C0E1A6E440EE7EC9FF0490E01
:10097000176E460E186E010E196E4C0E1A6E440E4E
:10098000E7EC9FF0490E176E460E186E020E196EB8
:100990004C0E1A6E440EE7EC9FF0490E176E460E91
:1009A000186E030E196E4C0E1A6E440EE7EC9FF093
:1009B000490E176E460E186E040E196E4C0E1A6E06
:1009C000440EE7EC9FF0490E176E460E186E050EAA
:1009D000196E4C0E1A6E440EE7EC9FF0490E176E1E
:1009E000460E186E060E196E4C0E1A6E440EE7EC8B
:1009F0009FF0490E176E460E186E070E196E4C0EBC
:100A00001A6E440EE7EC9FF0A00E1C6E860E1D6E53
:100A1000010E1E6E000E1F6E2EEC9BF0000E1C6E63
:100A2000960E1D6E000E1E6E000E1F6E8FEC97F060
:100A3000010E12EC8FF0010E0F6E010E60ECA0F0B3
:100A4000260E1B6E410E1C6E010E1D6ECE0E1E6E0E
:100A5000400E1F6E010E206EB00E216E400E226EF3
:100A6000010E236EB8EC93F0000E00019E6F000E95
:100A70009D6F000EA06F000E9F6FE50EA16F040E1C
:100A8000A26F000EA36F000EA46F2CEC99F0D7ECB0
:100A900092F097EC9AF0000E82EC9CF0010E82EC42
:100AA0009CF0030E82EC9CF0020E82EC9CF0090E8E
:100AB0000F6E010E106ECE0E116E300E126E010E04
:100AC000136E000EB4EC9BF0090E0F6E0A0E106E42
:100AD000480E116E400E126E010E136E010EB4EC34
:100AE0009BF0090E0F6E640E106E3A0E116E410EE1
:100AF000126E010E136E020EB4EC9BF0010E3FEC71
:100B0000A0F0B00E0F6E3F0E106E010E116EAE0E05
:100B1000126E250E136E010E146EBE0E156E340E7F
:100B2000166E010E176E580E186E320E196E010EEB
:100B30001A6EB6EC9DF0500E0F6E030E106E98EC10
:100B4000A0F06CEC99F0FDD7BB0E176E010E186E7D
:100B500085CF1CF0020E1C161C500F6E106A000E82
:100B6000126E020E116EA9EC98F00F50196E040E61
:100B70001A6E24EC9AF01D6E1D50D8B411D01D04CD
:100B8000D8A405D0010E4F104F6E5050506E020E7B
:100B90001D18D8A405D0020E4F104F6E5050506E45
:100BA000B90E176E010E186E85CF1CF0040E1C16C0
:100BB0001C500F6E106A000E126E040E116EA9EC1E
:100BC00098F00F50196E040E1A6E24EC9AF01D6EF8
:100BD0001D50D8B411D01D04D8A405D0040E4F1058
:100BE0004F6E5050506E020E1D18D8A405D0080E3E
:100BF0004F104F6E5050506EB70E176E010E186E9C
:100C000085CF1CF0080E1C161C500F6E106A000ECB
:100C1000126E080E116EA9EC98F00F50196E040EAA
:100C20001A6E24EC9AF01D6E1D50D8B411D01D041C
:100C3000D8A405D0100E4F104F6E5050506E020EBB
:100C40001D18D8A405D0200E4F104F6E5050506E76
:100C5000B50E176E010E186E85CF1CF0100E1C1607
:100C60001C500F6E106A000E126E100E116EA9EC61
:100C700098F00F50196E040E1A6E24EC9AF01D6E47
:100C80001D50D8B411D01D04D8A405D0400E4F106B
:100C90004F6E5050506E020E1D18D8A405D0800E15
:100CA0004F104F6E5050506EB30E176E010E186EEF
:100CB00085CF1CF0200E1C161C500F6E106A000E03
:100CC000126E200E116EA9EC98F00F50196E040EE2
:100CD0001A6E24EC9AF01D6E1D50D8B413D01D046A
:100CE000D8A406D0000E4F104F6E010E5010506E5B
:100CF000020E1D18D8A406D0000E4F104F6E020E23
:100D00005010506EB10E176E010E186E85CF1CF08C
:100D1000400E1C161C500F6E106A000E126E400E14
:100D2000116EA9EC98F00F50196E040E1A6E24EC97
:100D30009AF01D6E1D50D8B413D01D04D8A406D04F
:100D4000000E4F104F6E040E5010506E020E1D1804
:100D5000D8A406D0000E4F104F6E080E5010506EE3
:100D6000AF0E176E010E186E85CF1CF0800E1C168C
:100D70001C500F6E106A000E126E800E116EA9ECE0
:100D800098F00F50196E040E1A6E24EC9AF01D6E36
:100D90001D50D8B412001D04D8A406D0000E4F1068
:100DA0004F6E100E5010506E020E1D18D8A4120077
:100DB000000E4F104F6E200E5010506E120074C077
:100DC000D9FF75C0DAFFDECFF6FFDDCFF7FF000EEB
:100DD000F86E0800F550250AD8A40FD174C0D9FFC9
:100DE00075C0DAFFDE2A000EDD22000E0001E46F7E
:100DF000000EE36FE3C0E7F0E4C0E8F0E569E66900
:100E000074C0D9FF75C0DAFFDECFF6FFDDCFF7FF84
:100E1000000EF86E0800F550630AD8A426D074C0FE
:100E2000D9FF75C0DAFFDE2A000EDD2276C0D9FFB9
:100E300077C0DAFFDFCF3CF0020EDE26DFCF3DF0D9
:100E4000000EDD223CC0D9FF3DC0DAFFDF50826FCB
:100E500072C02AF073C02BF082C02CF05AEC9CF0C8
:100E60002AC072F02BC073F0120074C0D9FF75C095
:100E7000DAFFDECFF6FFDDCFF7FF000EF86E0800D9
:100E8000F550640AD8B40FD074C0D9FF75C0DAFF2A
:100E9000DECFF6FFDDCFF7FF000EF86E0800F5504D
:100EA000690AD8A43FD074C0D9FF75C0DAFFDE2A22
:100EB000000EDD2276C0D9FF77C0DAFFDFCF3CF02D
:100EC000020EDE26DFCF3DF0000EDD223CC0D9FF52
:100ED0003DC0DAFFDECF78F0DDCF79F0000E79BFCC
:100EE000FF0E7A6F7B6F7C6F7D6F7E6F7F6F72C03E
:100EF0002AF073C02BF078C02CF079C02DF07AC0A6
:100F00002EF07BC02FF07CC030F07DC031F07EC071
:100F100032F07FC033F019EC88F02AC072F02BC099
:100F200073F0120074C0D9FF75C0DAFFDECFF6FF90
:100F3000DDCFF7FF000EF86E0800F550730AD8A455
:100F40002AD074C0D9FF75C0DAFFDE2A000EDD2278
:100F500076C0D9FF77C0DAFFDFCF3CF0020EDE2685
:100F6000DFCF3DF0000EDD223CC0D9FF3DC0DAFFEF
:100F7000DECF80F0DDCF81F072C018F073C019F0C1
:100F800080C01AF081C01BF042EC8DF018C072F0E6
:100F900019C073F0120074C0D9FF75C0DAFFDECF3C
:100FA000F6FFDDCFF7FF000EF86E0800F550250ABA
:100FB000D8A417D074C0D9FF75C0DAFFDE2A000E9E
:100FC000DD22000E106E250E0F6E72C011F073C080
:100FD00012F0F2EC96F0000E0001736F010E726FCA
:100FE000120074C0D9FF75C0DAFFDE2A000EDD22C0
:100FF000000E736F000E726F120074C0D9FF75C0BF
:10100000DAFFDECFF6FFDDCFF7FF000EF86E080047
:10101000F5500F6E106A72C011F073C012F0F2EC4E
:1010200096F074C0D9FF75C0DAFFDE2A000EDD220B
:10103000D2D72CC068F02DC069F02EC06AF02FC046
:101040006BF030C06CF031C06DF032C06EF033C068
:101050006FF000016FAF02D0010E01D0000E666F7D
:10106000676B66516711D8B410D06F1F6E1F6D1F6C
:101070006C1F6B1F6A1F691F686D000E69236A234E
:101080006B236C236D236E236F23E6AFE793E6BFDC
:1010900005D0E65108E1E505D8B005D0000E636F34
:1010A000010E626F04D0E5C062F0E6C063F0E3C0F9
:1010B00064F0E4C065F066516711D8A402D0E7A5DA
:1010C00003D06407D8A06507000E716F1F0E706F04
:1010D000000E0201E76F7DD07007D8A07107C80E1F
:1010E0007025D96E020E7121DA6E68C00FF069C0EA
:1010F00010F06AC011F06BC012F06CC013F06DC03C
:1011000014F06EC015F06FC016F00A0E176E000EC8
:10111000186E000E196E000E1A6E000E1B6E000E79
:101120001C6E000E1D6E000E1E6EA6EC8FF00FC022
:1011300034F010C035F011C036F012C037F013C0D3
:1011400038F014C039F015C03AF016C03BF034C086
:1011500021F036C022F084EC9DF02150300FDF6E7C
:1011600000016207D8A063076407D8A0650768C0BC
:101170000FF069C010F06AC011F06BC012F06CC0C3
:1011800013F06DC014F06EC015F06FC016F00A0EAB
:10119000176E000E186E000E196E000E1A6E000EFD
:1011A0001B6E000E1C6E000E1D6E000E1E6E9EEC61
:1011B0008CF00FC068F010C069F011C06AF012C066
:1011C0006BF013C06CF014C06DF015C06EF016C05B
:1011D0006FF0000171BF1FD0715103E17005D8A0FD
:1011E0001AD0685169116A116B116C116D116E1171
:1011F0006F11D8A471D763BF05D0635102E16205B6
:10120000D8B06AD765BF07D0655103E16405D8A09F
:1012100002D0E7B361D766516711D8A402D0E7A521
:1012200017D07007D8A0710766516711D8A404D0F1
:10123000000E616F2B0E03D0000E616F2D0E606FDC
:10124000C80E7025D96E020E7121DA6E60C0DFFF04
:101250002AC01FF02BC020F0C80E7025216E020E90
:101260007121226E64C023F065C024F042EC97F037
:101270001FC02AF020C02BF0120001D80BD00500AF
:10128000FA6E0001D751FD6ED851FE6ED951FF6E36
:10129000FA501200000E396E000E386E000E3B6ED2
:1012A000000E3A6EE8C23CF0E9C23DF001D80BD026
:1012B0000500FA6E0001CE51FD6ECF51FE6ED05189
:1012C000FF6EFA501200000E396E000E386E000EDE
:1012D0003B6E100E3A6E540E3C6EFC0E3D6E01D805
:1012E0000BD00500FA6E0001CE51FD6ECF51FE6E9F
:1012F000D051FF6EFA501200000E00019E6F000EDA
:101300009D6F000EA06F180E9F6FEAC2A1F0EBC296
:10131000A2F0A36BA46B01D80AD00500FA6ED151DC
:10132000FD6ED251FE6ED351FF6EFA501200E80EE0
:101330000201EC5D030EED59D8A014D0000E00019F
:101340009E6F670E9D6F000EA06F180E9F6FECC210
:10135000A1F0EDC2A2F0A36BA46B01D83FD00500B1
:10136000FA6E19D0ED5104E1640EEC5DD8A01BD0EB
:10137000000E00019E6F6D0E9D6F000EA06F180E87
:101380009F6FECC2A1F0EDC2A2F0A36BA46B01D8D9
:1013900025D00500FA6ED151FD6ED251FE6ED351AB
:1013A000FF6EFA501200000E00019E6F740E9D6FCA
:1013B000000EA06F180E9F6FECC2A1F0EDC2A2F05C
:1013C000A36BA46B01D80AD00500FA6ED151FD6E53
:1013D000D251FE6ED351FF6EFA501200E80E020198
:1013E000EE5D030EEF59D8A014D0000E00019E6FE1
:1013F000330E9D6F000EA06F180E9F6FEEC2A1F00E
:10140000EFC2A2F0A36BA46B01D83FD00500FA6E27
:1014100019D0EF5104E1640EEE5DD8A01BD0000E90
:1014200000019E6F350E9D6F000EA06F180E9F6F0E
:10143000EEC2A1F0EFC2A2F0A36BA46B01D825D03D
:101440000500FA6ED151FD6ED251FE6ED351FF6E82
:10145000FA501200000E00019E6F380E9D6F000EB4
:10146000A06F180E9F6FEEC2A1F0EFC2A2F0A36BA7
:10147000A46B01D80AD00500FA6ED151FD6ED2518D
:10148000FE6ED351FF6EFA50120001D81200050013
:10149000FA6E0001D451FD6ED551FE6ED651FF6E2D
:1014A000FA501200106E1028D8A408D0000E0F01B8
:1014B000256F000E246F000E236F12001050D8A469
:1014C00008D00FA003D00F01258112000F01259134
:1014D00012001050D8B4F5D71004D8A408D00FA02B
:1014E00003D00F01258312000F0125931200020E75
:1014F0001018D8A408D00FA003D00F012585120022
:101500000F0125951200030E1018D8A408D00FA0C3
:1015100003D00F01258712000F0125971200100438
:10152000D8B4DDD7040E1018D8A408D00FA003D06B
:101530000F01258912000F0125991200050E1018C0
:10154000D8A408D00FA003D00F01258B12000F01E3
:10155000259B1200060E1018D8A408D00FA003D0A7
:101560000F01258D12000F01259D1200070E101886
:10157000D8A408D00FA003D00F01258F12000F01AF
:10158000259F1200080E1018D8A408D00FA003D071
:101590000F01248112000F0124911200090E10186E
:1015A000D8A408D00FA003D00F01248312000F018C
:1015B000249312000A0E1018D8A408D00FA003D04C
:1015C0000F01248512000F01249512000B0E101834
:1015D000D8A408D00FA003D00F01248712000F0158
:1015E00024971200100E1018D8A408D00FA003D012
:1015F0000F01238112000F0123911200110E101808
:10160000D8A408D00FA003D00F01238312000F012C
:1016100023931200120E1018D8A408D00FA003D0E4
:101620000F01238512000F0123951200130E1018CD
:10163000D8A412000FA003D00F01238712000F01BE
:10164000239712004F505010D8B412004FA00CD066
:10165000FE0E4F144F6EFF0E5014506ED90E126EC8
:10166000FD0E136EF6EC9FF04FA20CD0FD0E4F1442
:101670004F6EFF0E5014506E840E126EFD0E136EE0
:10168000F6EC9FF04FA40CD0FB0E4F144F6EFF0EE4
:101690005014506EE90E126EFD0E136EF6EC9FF0B4
:1016A0004FA60CD0F70E4F144F6EFF0E5014506E15
:1016B000950E126EFD0E136EF6EC9FF04FA80CD037
:1016C000EF0E4F144F6EFF0E5014506E3C0E126E04
:1016D000FD0E136EF6EC9FF04FAA0CD0DF0E4F14E8
:1016E0004F6EFF0E5014506EDE0E126EFC0E136E17
:1016F000F6EC9FF04FAC0CD0BF0E4F144F6EFF0EA8
:101700005014506E4E0E126EFD0E136EF6EC9FF0DE
:101710004FAE0CD07F0E4F144F6EFF0E5014506E14
:10172000F10E126EFC0E136EF6EC9FF050A00CD072
:10173000FF0E4F144F6EFE0E5014506E600E126E60
:10174000FD0E136EF6EC9FF050A20CD0FF0E4F145E
:101750004F6EFD0E5014506E040E126EFD0E136E81
:10176000F6EC9FF050A40CD0FF0E4F144F6EFB0E02
:101770005014506E3D0E126EFC0E136EF6EC9FF080
:1017800050A60CD0FF0E4F144F6EF70E5014506E33
:10179000250E126EFC0E136EF6EC9FF050A80CD0C6
:1017A000FF0E4F144F6EEF0E5014506E720E126EED
:1017B000FD0E136EF6EC9FF050AA1200FF0E4F14B0
:1017C0004F6EDF0E5014506E170E126EFD0E136E1C
:1017D000F6EC9FF01200105003E1800E0F5CD8B0C1
:1017E0001200125005E1200E115CD8B0120094D006
:1017F000120011C014F0070E1416010E156E142AF3
:1018000002D0D8901536142EFCD711C016F012C095
:1018100017F0D89017321632D89017321632D89067
:1018200017321632070ED89016361736E82EFBD729
:10183000B40E186E030E196E165018261750192282
:101840000F501824D96E10501920DA6E1550DF127F
:10185000120011C014F0070E1416010E156E142A92
:1018600002D0D8901536142EFCD71550FF0A166EEC
:1018700011C017F012C018F0D89018321732D89053
:1018800018321732D89018321732070ED890173600
:101890001836E82EFBD7B40E196E030E1A6E1750C9
:1018A000192618501A220F501924D96E10501A20D8
:1018B000DA6E1650DF16120011C014F0070E14165F
:1018C000010E156E142A02D0D8901536142EFCD7AE
:1018D00011C016F012C017F0D89017321632D890F7
:1018E00017321632D89017321632070ED8901636A5
:1018F0001736E82EFBD7B40E186E030E196E16506D
:101900001826175019220F501824D96E105019207C
:10191000DA6E1550DF1A12001350146E156A155046
:10192000000AD8A412001450000AD8B492D7010AB1
:10193000D8B45FD7030AD8A41200BED7000E206E19
:101940001EAE12D01E1E1D1E1C1E1B1E1A1E191E90
:10195000181E176C000E182219221A221B221C2294
:101960001D221E22010E206E16AE12D0161E151E4E
:10197000141E131E121E111E101E0F6C000E1022BC
:10198000112212221322142215221622010E201ACD
:1019900020EE21F0070EDE6AE806FDE2175018106F
:1019A00019101A101B101C101D101E10D8B446D090
:1019B000010E1F6E0AD0D8901736183619361A360F
:1019C0001B361C361D361E361F2A1EAEF4D7D89085
:1019D0002136223623362436253626362736283633
:1019E00017500F5C18501058195011581A501258AF
:1019F0001B5013581C5014581D5015581E50165883
:101A0000D8A011D017500F5E1850105A1950115A03
:101A10001A50125A1B50135A1C50145A1D50155A62
:101A20001E50165A2180D8901E321D321C321B3295
:101A30001A321932183217321F2EC9D72050D8B493
:101A400010D0281E271E261E251E241E231E221EE1
:101A5000216C000E22222322242225222622272244
:101A6000282221C00FF022C010F023C011F024C0A2
:101A700012F025C013F026C014F027C015F028C0BE
:101A800016F0120021EEBDF010EE1DF0060EDBCFB9
:101A9000E3FFE806FCE21AC028F01BC029F028503A
:101AA0002910D8A404D01D0E286E000E296E28C05F
:101AB0000FF029C010F0A6EC9CF00FC02CF010C065
:101AC0002DF0E5C02AF0E6C02BF02BBE0ED02C5036
:101AD0002A5C2B50800A1C6E2D50800A1C58D8B0EE
:101AE00004D02AC02CF02BC02DF02CC02AF02DC021
:101AF0002BF0E3C026F0E4C027F00001E7A10DD0F1
:101B000016D0000E106E200E0F6E18C011F019C006
:101B100012F0F2EC96F02C4A2D2A26502C5C2D5017
:101B2000800A1C6E2750800A1C58D8A0EAD7000EE5
:101B3000256E000E246E1FD028C0F6FF29C0F7FFC7
:101B4000000EF86E0F0EF76403D00800F55005D0B4
:101B5000F6CFE9FFF7CFEAFFEF501C6E1C500F6E77
:101B6000106A18C011F019C012F0F2EC96F0284A71
:101B7000292A244A252A2A50245C2550800A1C6ED2
:101B80002B50800A1C58D8A0D7D70001E7B10DD040
:101B900016D0000E106E200E0F6E18C011F019C076
:101BA00012F0F2EC96F02C4A2D2A26502C5C2D5087
:101BB000800A1C6E2750800A1C58D8A0EAD72CC077
:101BC00018F02DC019F012000FC019F010C01AF053
:101BD00013501410D8B4120019C0D9FF1AC0DAFF7C
:101BE00011C0DFFF13501924156E14501A20166E01
:101BF000FF0E1524D96EFF0E1620DA6E11C0DFFF1E
:101C0000145004E1030E135CD8A0120020EE01F082
:101C10001950D9261A50DA2211C0DFFF20EE02F047
:101C20001950D9261A50DA2211C0DFFF1350192497
:101C3000156E14501A20166EFE0E1524D96EFF0E66
:101C40001620DA6E11C0DFFF13501924156E1450E0
:101C50001A20166EFD0E1524D96EFF0E1620DA6EB0
:101C600011C0DFFF145004E1070E135CD8A012006E
:101C700020EE03F01950D9261A50DA2211C0DFFFE6
:101C800013501924156E14501A20166EFC0E1524CC
:101C9000D96EFF0E1620DA6E11C0DFFF145004E17A
:101CA000090E135CD8A0120019C015F01AC016F066
:101CB000151E161E154A162A030E1514176E186ADD
:101CC0001750192618501A221750135E1850145A1C
:101CD000FC0E1316FF0E14160BD019C0D9FF1AC034
:101CE000DAFF11C0DFFF1306D8A01406194A1A2A1A
:101CF00013501410D8B41200F0D701D80BD005003F
:101D0000FA6E0001D751FD6ED851FE6ED951FF6EAB
:101D1000FA501200000E396E000E386E000E3B6E47
:101D2000000E3A6E9BC13CF09CC13DF001D80BD037
:101D30000500FA6E0001CE51FD6ECF51FE6ED051FE
:101D4000FF6EFA501200A00E0001896F000E8A6F1C
:101D5000DF0E8B6FFF0E8C6F310E9F258D6F8E6B9C
:101D6000000E8E239DC08FF09EC090F009EC9CF079
:101D7000000E396E000E386E000E3B6E0E0E3A6E7F
:101D8000A00E3C6E000E3D6E01D80BD00500FA6E21
:101D90000001CE51FD6ECF51FE6ED051FF6EFA5054
:101DA0001200A00E0001896F000E8A6FED0E8B6F7E
:101DB000FF0E8C6F310E9F258D6F8E6B000E8E2364
:101DC000310EFD258F6F906B000E90239DC091F01A
:101DD0009EC092F009EC9CF0000E396E690E386ED0
:101DE000000E3B6E180E3A6EA00E3C6E000E3D6E5D
:101DF00001D80BD00500FA6E0001CE51FD6ECF5117
:101E0000FE6ED051FF6EFA50120001D8120005008C
:101E1000FA6E0001D451FD6ED551FE6ED651FF6EA3
:101E2000FA501200396E000E316E240E326EF40E2E
:101E3000336E000E346ECCC129F0CDC12AF0CEC174
:101E40002BF0CFC12CF0000E3B6E000E3A6E000E50
:101E5000416E000E406E31C00FF032C010F033C042
:101E600011F034C012F0290E4024D96E000E41202A
:101E7000DA6EDF50286E2850136E146A156A166ADF
:101E8000EBEC98F00FC035F010C036F011C037F011
:101E900012C038F0E80E136E030E146E000E156EAD
:101EA000000E166E35C00FF036C010F037C011F0BE
:101EB00038C012F0EBEC98F00FC01CF010C01DF011
:101EC00011C01EF012C01FF03950206E216A226A24
:101ED000236A5EEC9BF01CC03CF01DC03DF01EC0B0
:101EE0003EF01FC03FF03F5018E13C04000E3D584B
:101EF000010E3E58D8B011D040C028F0283ACD503D
:101F00002818CF0B2818CD6E3C5000083A6E3D5073
:101F1000D8A0E82A00083B6E0AD0404A412A41BEB8
:101F20009AD7415004E1040E405CD8A094D7010E2A
:101F300050ECA0F0010E1BECA0F03AC0F3F03BC057
:101F4000F4F0F3C0CEFFF4C0CFFF1200000E206EFD
:101F500016AE12D0161E151E141E131E121E111EB2
:101F6000101E0F6C000E10221122122213221422B6
:101F700015221622010E206E1EAE10D01E1E1D1E32
:101F80001C1E1B1E1A1E191E181E176C000E18226E
:101F900019221A221B221C221D221E221750181041
:101FA00019101A101B101C101D101E10D8B43CD094
:101FB000010E1F6E0AD0D8901736183619361A3609
:101FC0001B361C361D361E361F2A1EAEF4D7175080
:101FD0000F5C18501058195011581A5012581B50B5
:101FE00013581C5014581D5015581E501658D8A080
:101FF00010D017500F5E1850105A1950115A1A501D
:10200000125A1B50135A1C50145A1D50155A1E5068
:10201000165AD8901E321D321C321B321A32193217
:10202000183217321F2ED3D72050D8B410D0161E16
:10203000151E141E131E121E111E101E0F6C000EF4
:1020400010221122122213221422152216220FC04E
:102050000FF010C010F011C011F012C012F013C038
:1020600013F014C014F015C015F016C016F01200CD
:1020700020EE03F01650D9261750DA22DFA246D000
:1020800016C0D9FF17C0DAFFDE2A000EDD22185075
:10209000D8B432D020EE02F01650D9261750DA22EA
:1020A000DF50D8B410D020EE02F01650D9261750C9
:1020B000DA2210EE02F01650E1261750E222E75025
:1020C0001B6E1B0456D020EE02F01650D926175076
:1020D000DA2219C0DFFF20EE03F01650D926175080
:1020E000DA2210EE03F01650E1261750E222E750F4
:1020F000FD0BDF6E020E120020EE02F01650D92604
:102100001750DA221AC0DFFF010E12001850D8A4AF
:1021100032D020EE02F01650D9261750DA22DF50C6
:10212000D8B411D020EE02F01650D9261750DA227A
:1021300010EE02F01650E1261750E222E7501B6E17
:102140001B04DF6E20D020EE02F01650D926175067
:10215000DA221AC0DFFF20EE03F01650D9261750FE
:10216000DA2210EE03F01650E1261750E222E75073
:102170000209DF6EC9D720EE02F01650D92617509B
:10218000DA2219C0DFFF000E1200000E136E910E4E
:102190001324D96EDA6A010EDA22DF50D8B47BD06C
:1021A0001350020D840EF324D96E010EF420DA6E62
:1021B000DE50DE10D8B421D0FF0E0F6EFF0E106E71
:1021C0001350020D840EF324D96E010EF420DA6E42
:1021D000DECF11F0DDCF12F00F5011261050122279
:1021E0001350020D840EF324D96E010EF420DA6E22
:1021F00011C0DEFF12C0DDFF4ED0950E1324D96E44
:10220000DA6A010EDA22DF50D8A41AD01350D8A40B
:1022100003D08C50FD0B13D01304D8A403D08C50E2
:10222000FB0B0DD0020E1318D8A403D08C50F70B63
:1022300006D0030E1318D8A403D08C50EF0B8C6E6D
:10224000950E1324D96EDA6A010EDA22DE04D8A4C0
:102250001AD01350D8A403D08C50020913D0130401
:10226000D8A403D08C5004090DD0020E1318D8A4A2
:1022700003D08C50080906D0030E1318D8A403D03D
:102280008C5010098C6E910E1324D96EDA6A010EEF
:10229000DA22000EDF6E132A030E136478D71200C1
:1022A00001D80BD00500FA6E0001D751FD6ED85150
:1022B000FE6ED951FF6EFA501200000E396E000EFC
:1022C000386E000E3B6E000E3A6EFCC13CF0FDC154
:1022D0003DF001D80BD00500FA6E0001CE51FD6E25
:1022E000CF51FE6ED051FF6EFA501200E80E010180
:1022F000FE5D030EFF59D8A014D0000E00019E6FA2
:10230000330E9D6F000EA06F180E9F6FFEC1A1F0DF
:10231000FFC1A2F0A36BA46B01D83FD00500FA6EF9
:1023200019D0FF5104E1640EFE5DD8A01BD0000E51
:1023300000019E6F350E9D6F000EA06F180E9F6FEF
:10234000FEC1A1F0FFC1A2F0A36BA46B01D825D000
:102350000500FA6ED151FD6ED251FE6ED351FF6E63
:10236000FA501200000E00019E6F380E9D6F000E95
:10237000A06F180E9F6FFEC1A1F0FFC1A2F0A36B6A
:10238000A46B01D80AD00500FA6ED151FD6ED2516E
:10239000FE6ED351FF6EFA50120001D812000500F4
:1023A000FA6E0001D451FD6ED551FE6ED651FF6E0E
:1023B000FA501200500E431807E1030E4418D8A437
:1023C00003D0040E0001FD6F000E431807E1030E59
:1023D0004418D8A403D0070E0001FD6F500E431817
:1023E00007E1020E4418D8A403D0030E0001FD6FCC
:1023F000280E431807E1020E4418D8A403D0030E98
:102400000001FD6F000E431807E1020E4418D8A426
:1024100003D0030E0001FD6F500E431809E1030EB7
:102420004418D8A405D0A50E01019B6FFC0E9C6F2B
:10243000000E43180DE1030E4418D8A409D0CB0EAA
:1024400001019B6FFC0E9C6F9BC19BF19CC19CF199
:10245000820E431809E1030E4418D8A405D0920E49
:1024600001019B6FFC0E9C6F500E431809E1020E98
:102470004418D8A405D07E0E01019B6FFC0E9C6F02
:10248000280E431809E1020E4418D8A405D06A0E9C
:1024900001019B6FFC0E9C6F000E431809E1020EB8
:1024A0004418D8A41200B80E01019B6FFC0E9C6F5B
:1024B00012000FC0D9FF10C0DAFFDF50176E20EEF8
:1024C00003F00F50D9261050DA22DF50186E20EE9C
:1024D00003F00F50D9261050DA2210EE03F00F50FF
:1024E000E1261050E222E750136E1328DF6E1750DA
:1024F000D8A426D00FC0D9FF10C0DAFFDF501824AF
:102500000FC0D9FF10C0DAFFDF6EFF0E136EFF0E93
:10251000146E11C015F012C016F013501526145089
:10252000162220EE01F00F50D9261050DA2215C0E5
:10253000DEFF16C0DDFF010E0001FE6F010E12006E
:1025400018501718D8A42ED020EE01F00F50D9261D
:102550001050DA22010EDB5004E1020EDE5CD8A03E
:102560000ED020EE01F00F50D9261050DA22DE06F0
:10257000000EDD5A020E0001FE6F020E12000FC0A7
:10258000D9FF10C0DAFFDF50136E1850FF0A131482
:102590000FC0D9FF10C0DAFFDF6E030E0001FE6F1F
:1025A000030E1200000E0001FE6F000E1200000E5E
:1025B000136E210E22EC98F0000E22EC98F07F0EA4
:1025C00022EC98F0220E22EC98F0000E22EC98F00B
:1025D000030E22EC98F0000E156E000E146E01D85A
:1025E0000BD00500FA6E0001E051FD6EE151FE6E68
:1025F000E251FF6EFA50120001D80CD00500FA6EBD
:102600000001DD51FD6EDE51FE6EDF51FF6EFA50AE
:10261000780E120001D80CD00500FA6E0001DD51D1
:10262000FD6EDE51FE6EDF51FF6EFA50400E12005D
:10263000000E136E01D812D00500FA6E0001DD51B4
:10264000FD6EDE51FE6EDF51FF6EFA50B40E1424A3
:10265000D96E030E1520DA6EDF501200144A152AC7
:10266000132A0F0E1364E6D71406D8A0150601D856
:102670000BD00500FA6E0001DA51FD6EDB51FE6EE3
:10268000DC51FF6EFA501200144A152A020E155C36
:10269000D8B01200A4D701D80BD00500FA6E000103
:1026A000D751FD6ED851FE6ED951FF6EFA5012000F
:1026B000000E396E000E386E000E3B6E000E3A6E44
:1026C0009DC03CF09EC03DF001D80BD00500FA6ED5
:1026D0000001CE51FD6ECF51FE6ED051FF6EFA500B
:1026E0001200A40E0001896F000E8A6FC70E8B6F57
:1026F000FF0E8C6F610EA1258D6F8E6B000E8E23E9
:10270000A151020DF3CFA2F0F4CFA3F0A2519F2567
:10271000D96EA351A021DA6EDECF8FF0DDCF90F01D
:1027200009EC9CF0000E396E000E386E000E3B6E08
:10273000100E3A6EA40E3C6E000E3D6E01D80BD00A
:102740000500FA6E0001CE51FD6ECF51FE6ED051E4
:10275000FF6EFA50120001D812000500FA6E000157
:10276000D451FD6ED551FE6ED651FF6EFA50120057
:102770001BC0E0F01CC0E1F01DC0E2F01EC0DDF0A7
:102780001FC0DEF020C0DFF021C0DAF022C0DBF095
:1027900023C0DCF0AE0E22EC98F0D50E22EC98F0BF
:1027A000800E22EC98F0A80E22EC98F01F0E22EC7E
:1027B00098F0D30E22EC98F0000E22EC98F0400E28
:1027C00022EC98F08D0E22EC98F0140E22EC98F08A
:1027D000200E22EC98F0000E22EC98F0A10E22ECD4
:1027E00098F0C80E22EC98F0DA0E22EC98F0020E67
:1027F00022EC98F0810E22EC98F08F0E22EC98F0EB
:10280000D90E22EC98F0F10E22EC98F0DB0E22ECBF
:1028100098F0400E22EC98F0A40E22EC98F0A60E50
:1028200022EC98F02E0E22EC98F0AF0E22EC98F0ED
:10283000E70E0F6EF90E106EAAEC99F0D8EC9FF02F
:102840001200A30E166E010E176E000E0F6E420ED2
:10285000FEEC9AF0186E0A0E196E0A0E1A6E38EC1B
:1028600090F01C6E1C50D8B407D0020E1C18D8A4CF
:1028700003D0550EC8EC9CF0AB0E166E010E176E11
:10288000010E0F6E420EFEEC9AF0186E0A0E196ED3
:102890000A0E1A6E38EC90F01C6E1C50D8B417D08B
:1028A000020E1C18D8A413D0AB0E0F6E010E106EC2
:1028B00036ECA0F0E90E0F5C030E1058D8A004D03F
:1028C000420EC8EC9CF003D04F0EC8EC9CF0A70E53
:1028D000166E010E176E020E0F6E420EFEEC9AF08F
:1028E000186E0A0E196E0A0E1A6E38EC90F01C6EF5
:1028F0001C50D8B41200020E1C18D8A41200440EAA
:10290000C8EC9CF01200126E910E1224D96EDA6A95
:10291000010EDA22010EDF6E0F50106E116A125096
:10292000020D840EF324D96E010EF420DA6E10C06D
:10293000DEFF11C0DDFF950E1224D96EDA6A010E9A
:10294000DA22DF50D8A41AD01250D8A403D08C5069
:10295000020913D01204D8A403D08C5004090DD05E
:10296000020E1218D8A403D08C50080906D0030E0A
:102970001218D8A403D08C5010098C6E950E122416
:10298000D96EDA6A010EDA22DE04D8A412001250DF
:10299000D8A404D08C50FD0B8C6E12001204D8A465
:1029A00004D08C50FB0B8C6E1200020E1218D8A4AF
:1029B00004D08C50F70B8C6E1200030E1218D8A4A2
:1029C00012008C50EF0B8C6E1200000E036E58D06C
:1029D0000350080D780EF324D96E020EF420DA6E3F
:1029E0000201DFA04CD00350080D780EF324D96EFD
:1029F000020EF420DA6EDFB442D00350080D7B0ED5
:102A0000F324D96E020EF420DA6E010EDB5004E1DD
:102A1000020EDE5CD8A00CD00350080D7B0EF32410
:102A2000D96E020EF420DA6EDE06000EDD5A27D0D3
:102A30000350080D780EF324D96E020EF420DA6EDE
:102A40000350080D780EF324E16E020EF420E26EBE
:102A5000E7500409DF6E0350080D790EF324D96E98
:102A6000020EF420DA6E0350080D7B0EF324E16EA3
:102A7000020EF420E26EDECFE6FFDDCFE5FF032A93
:102A80000001FC51035CD8B01200A2D702FF04F48D
:102A90003D01010000000FFF04C63D0101000000E0
:102AA000F9FD04983D0101000000A6FD046A3D0106
:102AB0000100000029FF02683F016400000036FFAA
:102AC000028C3F016400000009FE02443F016400E3
:102AD0000000B7FD02203F016400000056FE010027
:102AE00002200000000050FF0182032000000000CF
:102AF00065FE010003200000000047FE0150022097
:102B000000000000E7FE0128022000000000BDFEDA
:102B100004CC3B010300000082FF049E3B01030044
:102B200000006AFF026C3E01640000002AFD0248BA
:102B30003E01640000005DFF100000000000000086
:102B40008C0EF66E2A0EF76E010EF86E03EE00F094
:102B500010EEB4F00900F5CFEEFFE550E150FAE1D8
:102B6000D00EF66E330EF76E010EF86E02EE00F028
:102B700010EE78F00900F5CFEEFFE550E150FAE1F4
:102B8000580EF66E3A0EF76E010EF86E01EEBDF0BD
:102B900010EE3FF00900F5CFEEFFE550E150FAE10D
:102BA00003EEB4F012EE00F0EE6AE550E150FCE105
:102BB000E250FAE102EE78F0700EEE6AE806FDE10E
:102BC00001EE00F0BD0EEE6AE806FDE100EEC7F092
:102BD000380EEE6AE806FDE100EE43F00E0EEE6AF6
:102BE000E806FDE151905192000157EF84F0146E18
:102BF0000FC011F0010E126E112A02D0D8901236B9
:102C0000112EFCD71250136E510E1424156E166A35
:102C10000F0E16224A0E1418D8A404D09A0E156E60
:102C20000F0E166E460E1418D8A404D0970E156E0B
:102C30000F0E166E4F0E1018D8B407D06F0E101866
:102C4000D8B403D01050D8A40FD015C0D9FF16C0E7
:102C5000DAFFDF50116E1350FF0A111415C0D9FFAF
:102C600016C0DAFFDF6E1200490E1018D8B407D074
:102C7000690E1018D8B403D01004D8A4120015C0DF
:102C8000D9FF16C0DAFFDF50131015C0D9FF16C0E8
:102C9000DAFFDF6E1200146E0FC011F0010E126E1B
:102CA000112A02D0D8901236112EFCD71250136E72
:102CB000480E1424156E166A0F0E16224A0E1418AA
:102CC000D8A404D0910E156E0F0E166E460E141871
:102CD000D8A404D08E0E156E0F0E166E4C0E101862
:102CE000D8B407D06C0E1018D8B403D01050D8A4A4
:102CF0000FD015C0D9FF16C0DAFFDF50116E135088
:102D0000FF0A111415C0D9FF16C0DAFFDF6E1200DA
:102D1000480E1018D8B407D0680E1018D8B403D0D5
:102D20001004D8A4120015C0D9FF16C0DAFFDF5076
:102D3000131015C0D9FF16C0DAFFDF6E1200116E36
:102D4000950E1124D96EDA6A010EDA220FC0DFFF68
:102D5000950E1124D96EDA6A010EDA22DF50D8A45A
:102D60001AD01150D8A403D08C50FD0B13D01104ED
:102D7000D8A403D08C50FB0B0DD0020E1118D8A490
:102D800003D08C50F70B06D0030E1118D8A403D033
:102D90008C50EF0B8C6E950E1124D96EDA6A010EF1
:102DA000DA22DE04D8A412001150D8A404D08C502A
:102DB00002098C6E12001104D8A404D08C500409AE
:102DC0008C6E1200020E1118D8A404D08C50080981
:102DD0008C6E1200030E1118D8A412008C5010092A
:102DE0008C6E120011501210D8B404D01150121071
:102DF000D8A404D00F50A3ECA0F0120020EE04F0F1
:102E00001150D9261250DA22DE50DE10D8B416D076
:102E100020EE04F01150D9261250DA2210EE02F002
:102E20001150E1261250E222DE50E65CE650800AA4
:102E3000176EDE50800A1758D8B0120020EE02F04C
:102E40001150D9261250DA22DECF13F0DDCF14F064
:102E500011C0D9FF12C0DAFFDECF15F0DDCF16F0BA
:102E600013501524D96E14501620DA6E0FC0DFFFF0
:102E700020EE02F01150D9261250DA22DE2A000E7E
:102E8000DD2212000001E7A10AD021C018F022C003
:102E900019F01FC01AF020C01BF04CEC9DF024BEAE
:102EA00005D023C028F024C029F004D0000E296EDC
:102EB000000E286E000E276E000E266E0CD0000E3F
:102EC000106E200E0F6E1FC011F020C012F0F2EC39
:102ED00096F0264A272A2850265C2750800A256E1D
:102EE0002950800A2558D8A0EAD70001E7B10AD0B6
:102EF00021C018F022C019F01FC01AF020C01BF02A
:102F00004CEC9DF021C00FF022C010F0A6EC9CF01C
:102F100028500F241F6E29501020206E12004F0ED3
:102F2000176E430E186E060E196E480E1A6E440E7A
:102F3000E7EC9FF0490E176E430E186E070E196EE0
:102F4000480E1A6E440EE7EC9FF0000E0F6E900EC6
:102F5000106ED00E116E030E126E1CC020F01DC03C
:102F600021F01EC022F01FC023F0040ED89020369E
:102F7000213622362336E82EF9D720C013F021C09F
:102F800014F022C015F023C016F0EBEC98F0FF0E01
:102F90000F24246EFF0E1020256EAC98AC9CAB9CC9
:102FA000AB8EAC8AAB88AC8424C0AFFF010E48EC7A
:102FB000A0F012001F6E100E1F640CD01FC00FF087
:102FC000106A000E126E040E116EA9EC98F00F50EC
:102FD0001F6E9B8C100E1F18D8B42BD0080E1F1814
:102FE000D8B41ED0040E1F18D8B411D0020E1F186A
:102FF000D8B404D0000E1E6E700E03D0000E1E6EEC
:10300000580E1D6E1DC01BF01EC01CF004D0000E1B
:103010001C6E600E1B6E1BC019F01CC01AF004D091
:10302000000E1A6E680E196E19C017F01AC018F04B
:1030300004D0000E186E700E176E17C0D3FFD3B4F5
:103040001200FDD7116E01D80BD00500FA6E0001F9
:10305000E051FD6EE151FE6EE251FF6EFA5012003A
:1030600001D80CD00500FA6E0001DD51FD6EDE5175
:10307000FE6EDF51FF6EFA50780E120001D80CD0B0
:103080000500FA6E0001DD51FD6EDE51FE6EDF516E
:10309000FF6EFA50000E120001D80CD00500FA6E37
:1030A0000001DD51FD6EDE51FE6EDF51FF6EFA5004
:1030B0001150120001D812000500FA6E0001DA5119
:1030C000FD6EDB51FE6EDC51FF6EFA501200196E80
:1030D0009F0E0F6E010E106E2DECA0F09F0E0F6E66
:1030E000010E106E030E126EB60E116E59EC92F0B8
:1030F0000009D8B40AD0A0ECA0F0E806D8A405D006
:103100008CB802D08C8801D08C989F0E0F6E010E67
:10311000106E000E126E320E116E59EC92F0000914
:10312000D8B40AD0A0ECA0F0E806D8A405D08CB89A
:1031300002D08C8801D08C989F0E0F6E010E106EFD
:1031400010ECA0F00009D8B4120019500CEC9DF05E
:103150001200000E146E12AE06D0116C121ED8B002
:10316000122A010E146E10AE06D00F6C101ED8B0CD
:10317000102A010E141A000E166E000E156E115054
:103180001210D8B41CD0010E136E04D0D890113692
:103190001236132A12AEFAD7D890153616361150B9
:1031A0000F5C12501058D8A005D011500F5E12506D
:1031B000105A1580D89012321132132EEDD71450B8
:1031C000D8B404D0156C161ED8B0162A15C00FF04E
:1031D00016C010F01200000E176E000E186E000ED2
:1031E000196E000E1A6E1350141015101610D8B464
:1031F0002AD0010E1B6E06D0D89013361436153621
:1032000016361B2A16AEF8D7D89017361836193648
:103210001A3613500F5C1450105815501158165090
:103220001258D8A009D013500F5E1450105A1550E0
:10323000115A1650125A1780D8901632153214327D
:1032400013321B2EE1D717C00FF018C010F019C0B1
:1032500011F01AC012F01200A50E0001896F000EC5
:103260008A6FF80E8B6FFF0E8C6FA1C08DF0A2C01D
:103270008EF0A3C08FF0A4C090F009EC9CF0A50ED6
:103280000F6E000E106EA6EC9CF00F500001C36F85
:10329000000EC46F1CD0C451C903F3CF40F0F4CF6B
:1032A00041F09D5140241D6E9E5141201E6E9FC0D5
:1032B0001FF0A0C020F0A50EC425D96EDA6A000E5A
:1032C000DA22DF50216ED0EC82F00001C42BC35112
:1032D000C45DD8B01200DFD7000E426E35D0425028
:1032E000080D780EF324D96E020EF420DA6E020176
:1032F000DFA429D04250080D780EF324D96E020EB7
:10330000F420DA6EFB0EDF164250080D780EF3241F
:10331000E16E020EF420E26EDFCFE7FF4250080DAF
:103320007D0EF324D96E020EF420DA6E01D80BD094
:103330000500FA6EDE50FD6EDE50FE6EDE50FF6E52
:10334000FA5042501200422A0001FC51425CD8B0AF
:103350001200C5D70FC0C7F010C0C8F00FC0F6FFED
:1033600010C0F7FF000EF86E0800F5CFC9F0010E8F
:103370000F24116E000E1020126E11C0F6FF12C045
:10338000F7FF000EF86E0800F5CFCAF0020E0F240A
:10339000116E000E1020126E11C0F6FF12C0F7FF62
:1033A000000EF86E0800F5CFCBF0030E0F24116E5F
:1033B000000E1020126E11C0F6FF12C0F7FF000EB3
:1033C000F86E0800F5CFCCF0000E0001CD6F1200B2
:1033D0008DFF04283C010100000092FE02B43E0172
:1033E0006400000043FF02903E0114000000ACFFA7
:1033F00004FA3B0101000000A1FE04843C0101002D
:103400000000AFFE04563C010100000074FE02FC07
:103410003E01FA00000083FE02D83E01FA000000DF
:10342000CBFE083C3D0100000000D9FE080E3D0126
:103430000000000029FE08E03C010000000038FE0A
:1034400008B23C010000000020EE01F01750D92620
:103450001850DA221950DE18D8A406D017C0D9FFA8
:1034600018C0DAFF000E28D017C0D9FF18C0DAFF45
:103470001A50DE5CD8A015D017C0D9FF18C0DAFFEB
:10348000000EDF6E20EE01F01750D9261850DA2218
:1034900019C0DFFF1950D8A402D0010E1200020E8D
:1034A000120017C0D9FF18C0DAFFDF501B6E1B28AF
:1034B00017C0D9FF18C0DAFFDF6E000E12003CC043
:1034C0000FF03DC010F0A6EC9CF00F50406E000EC7
:1034D000416E28D041500001C903F3CF3EF0F4CF34
:1034E0003FF038503E241D6E39503F201E6E3AC0CA
:1034F0001FF03BC020F03CC0F6FF3DC0F7FF000EC0
:10350000F86E0F0EF76403D00800F55005D0F6CF23
:10351000E9FFF7CFEAFFEF50216ED0EC82F03C4A92
:103520003D2A412A4050415CD8B01200D3D7000E4A
:103530000101096F050E086F000E0B6F0A0E0A6F6E
:10354000000E0D6F0F0E0C6F000E0F6F140E0E6F2E
:10355000000E016F000E006F000E036F000E026F71
:10356000000E076F000E066F000E056F000E046F51
:1035700000C10FF0000E9FEC96F002C10FF0010E9B
:103580009FEC96F006C10FF0020E9FEC96F004C17E
:103590000FF0030E9FEC96F0120085C03EF086C03F
:1035A0003FF0000E01019A6F000E996F17D083C093
:1035B00072F084C073F03E0E0001746F000E756FE0
:1035C00087C076F088C077F0DFEC86F0000172519A
:1035D000010199270001735101019A233EC0F6FFB2
:1035E0003FC0F7FF000EF86E0800F5500009D8A4A0
:1035F000DED799C183F09AC184F01200156E0FC016
:1036000010F0010E116E102A02D0D8901136102E33
:10361000FCD71150126E3F0E1524136E146A0F0E54
:1036200014224A0E1518D8A404D0880E136E0F0E5B
:10363000146E460E1518D8A404D0850E136E0F0E06
:10364000146E13C0D9FF14C0DAFFDF501214000942
:10365000D8B402D0010E1200000E1200490E176EEF
:10366000430E186E030E196E4C0E1A6E440EE7ECE4
:103670009FF0490E176E430E186E040E196E4C0E15
:103680001A6E440EE7EC9FF0000E0F6E240E106EC3
:10369000F40E116E000E126E1CC013F01DC014F05B
:1036A0001EC015F01FC016F0EBEC98F00F04C86EAA
:1036B000C650F00B0809C66EC68A1200000E246EB2
:1036C000000E256E000E266E000E276E1CA008D080
:1036D0002050242621502522225026222350272202
:1036E000D8902036213622362336D8901F321E320B
:1036F0001D321C321C501D101E101F10D8A4E6D7FE
:1037000024C01CF025C01DF026C01EF027C01FF0ED
:1037100012001150D8B41DD04550020D660EF3248E
:10372000D96E010EF420DA6E43C0DEFF44C0DDFF27
:103730008C0E4524D96EDA6A010EDA2246C0DFFF0C
:103740004528456E0FC043F010C044F0000E466E91
:1037500008D0000E466E000E456EEDC043F0EEC080
:1037600044F0DAEC91F01200166E1650080D7D0E42
:10377000F324D96E020EF420DA6E11C0DEFF12C0FF
:10378000DEFF13C0DEFF1650080D780EF324D96E4D
:10379000020EF420DA6E0FC0DFFF1050146E156AAF
:1037A0001650080D790EF324D96E020EF420DA6E4D
:1037B00014C0DEFF15C0DDFF0001FC2B1200076EF8
:1037C00001C002F0010E036E022A02D0D890033627
:1037D000022EFCD70350046E480E0724056E066ABD
:1037E0000F0E06224A0E0718D8A404D0910E056EBB
:1037F0000F0E066E460E0718D8A404D08E0E056E66
:103800000F0E066E05C0D9FF06C0DAFF0450DF1A9E
:1038100012008D0E0001956F000E966F89C097F013
:103820008AC098F0000E9A6F000E996F000E9C6F80
:10383000000E9B6F970E836F000E846F8BC085F018
:103840008CC086F0950E876F000E886FCDEC9AF0D5
:10385000000199518925D96E9A518A21DA6E000E9C
:10386000DF6E12000001F951D8B41200F9A306D09E
:10387000F951FD0BF96F550E00EC80F00001F9A134
:1038800006D0F951FE0BF96F4F0E00EC80F00001ED
:10389000F9A506D0F951FB0BF96F440E00EC80F04E
:1038A0000001F9A71200F951F70BF96F420E00EC75
:1038B00080F012000001E351E411D8A405D0E3C068
:1038C0002DF0E4C02EF006D0FF0EE3252D6EFF0E86
:1038D000E4212E6E2CC0C8F2000E0201C96F2AC06E
:1038E0001FF02BC020F0C80E216E020E226E2DC0DC
:1038F00023F02EC024F042EC97F01FC02AF020C025
:103900002BF01200136E1350D8A405D008C10FF08D
:10391000000E83EC94F01304D8A405D00AC10FF074
:10392000010E83EC94F0030E1318D8A405D00CC13B
:103930000FF0030E83EC94F0020E1318D8A41200BB
:103940000EC10FF0020E83EC94F012000FC011F0C4
:1039500010C012F002D00F4A102A0FC0F6FF10C09C
:10396000F7FF000EF86E0F0EF76403D00800F55055
:1039700005D0F6CFE9FFF7CFEAFFEF500009D8A452
:10398000EAD711500F5C0F6E12501058106E1200D3
:103990000F6E550E0F18D8A404D00001F95102097A
:1039A000F96F4F0E0F18D8A404D00001F951010986
:1039B000F96F440E0F18D8A404D00001F95104097E
:1039C000F96F420E0F18D8A412000001F95108092E
:1039D000F96F1200016E550E0118D8A404D0000131
:1039E000F9510209F96F4F0E0118D8A404D0000153
:1039F000F9510109F96F440E0118D8A404D000014F
:103A0000F9510409F96F420E0118D8A412000001FF
:103A1000F9510809F96F12000F6E0F50080D780E5A
:103A2000F324D96E020EF420DA6E0201DFB6120022
:103A30000F50080D780EF324D96E020EF420DA6EC2
:103A40000F50080D780EF324E16E020EF420E26EA2
:103A5000E750FE0BDF6E1200286E756C6C290001BA
:103A60000204080102040801020408B8FC6AFC7E92
:103A7000FC92FCCBFCA5FCF5FE98FF21FFB5FF19DD
:103A8000FEC8FDCFFFE6FFC3FFA8FFF3FFD7FF1C73
:073A9000FF76FFBEFFA3FF5C
:103A9800000E1E6E000E1D6E0BD01CC00FF0106ABB
:103AA8001AC011F01BC012F0F2EC96F01D4A1E2A43
:103AB8001D501824D96E1E501920DA6EDF501C6E66
:103AC8001C50D8B41200E9D74550D8B412004504A8
:103AD800456E4550020D660EF324D96E010EF42092
:103AE800DA6EDECF43F0DDCF44F08C0E4524D96E7C
:103AF800DA6A010EDA22DF50466EDAEC91F0120033
:103B080022BE05D0225010E12104D8B00DD021C02A
:103B180023F022C024F0231E241E234A242A23C073
:103B280021F024C022F0120021C021F022C022F08E
:103B380012000CD010C0F6FF11C0F7FF000EF86E8F
:103B48000800F55075ECA0F0104A112A10C0F6FFD5
:103B580011C0F7FF000EF86E0800F5500009D8B440
:103B68001200E8D70FC0D7F010C0D8F011C0D9F0B4
:103B780012C0D4F013C0D5F014C0D6F018C0D1F0DC
:103B880019C0D2F01AC0D3F015C0CEF016C0CFF0CD
:103B980017C0D0F01200116E1150D8B409D00FC060
:103BA8002AF110C02BF1000E106E000E0F6E1200DD
:103BB800E80E0001F76F010EF86F2AC10FF02BC154
:103BC80010F01200116E1150D8B409D00FC028F1AE
:103BD80010C029F1000E106E000E0F6E1200E00EDC
:103BE8000001F76F010EF86F28C10FF029C110F01E
:103BF8001200116E1150D8B409D00FC026F110C0B0
:103C080027F1000E106E000E0F6E1200EC0E000170
:103C1800F76F010EF86F26C10FF027C110F01200E0
:103C2800116E1150D8B409D00FC020F110C021F185
:103C3800000E106E000E0F6E1200F00E0001F76FEE
:103C4800010EF86F20C10FF021C110F01200116EA3
:103C58001150D8B409D00FC01AF110C01BF1000ED2
:103C6800106E000E0F6E1200F40E0001F76F010EB9
:103C7800F86F1AC10FF01BC110F01200116E11502D
:103C8800D8B409D00FC018F110C019F1000E106E89
:103C9800000E0F6E1200F40E0001F76F010EF86FA0
:103CA80018C10FF019C110F01200116E1150D8B4DC
:103CB80009D00FC016F110C017F1000E106E000EDB
:103CC8000F6E1200F50E0001F56FFE0EF66F16C1AD
:103CD8000FF017C110F01200116E1150D8B409D0AE
:103CE8000FC014F110C015F1000E106E000E0F6E0B
:103CF8001200F50E0001F56FFE0EF66F14C10FF0FD
:103D080015C110F01200116E1150D8B409D00FC0AF
:103D180012F110C013F1000E106E000E0F6E12009B
:103D2800980E0001F56FFF0EF66F12C10FF013C168
:103D380010F01200116E1150D8B409D00FC010F154
:103D480010C011F1000E106E000E0F6E1200980ECA
:103D58000001F56FFF0EF66F10C10FF011C110F0E2
:103D68001200116E1150D8B409D00FC006F110C05E
:103D780007F1000E106E000E0F6E1200F80E000113
:103D8800F76F010EF86F06C10FF007C110F01200AF
:103D9800116E1150D8B409D00FC004F110C005F14C
:103DA800000E106E000E0F6E1200F80E0001F76F75
:103DB800010EF86F04C10FF005C110F01200116E6A
:103DC8001150D8B409D00FC002F110C003F1000E91
:103DD800106E000E0F6E1200F80E0001F76F010E44
:103DE800F86F02C10FF003C110F01200116E1150EC
:103DF800D8B409D00FC000F110C001F1000E106E48
:103E0800000E0F6E1200F80E0001F76F010EF86F2A
:103E180000C10FF001C110F0120017501902F3CFC2
:103E28001BF0F4CF1CF017501A02F3501C26185040
:103E38001902F3501C261BC017F01CC018F0120002
:103E4800116E1150D8B409D00FC02EF110C02FF147
:103E5800000E106E000E0F6E12002EC10FF02FC153
:103E680010F01200116E1150D8B409D00FC02CF107
:103E780010C02DF1000E106E000E0F6E12002CC136
:103E88000FF02DC110F01200116E1150D8B409D0E6
:103E98000FC024F110C025F1000E106E000E0F6E39
:103EA800120024C10FF025C110F01200116E11503C
:103EB800D8B409D00FC022F110C023F1000E106E43
:103EC800000E0F6E120022C10FF023C110F0120075
:103ED800116E1150D8B409D00FC01EF110C01FF1D7
:103EE800000E106E000E0F6E12001EC10FF01FC1E3
:103EF80010F01200116E1150D8B409D00FC01CF187
:103F080010C01DF1000E106E000E0F6E12001CC1C5
:103F18000FF01DC110F01200116E1150D8B409D065
:103F28000FC00EF110C00FF1000E106E000E0F6ED4
:103F380012000EC10FF00FC110F01200116E1150D7
:103F4800D8B409D00FC00CF110C00DF1000E106EDE
:103F5800000E0F6E12000CC10FF00DC110F0120010
:103F6800116E1150D8B409D00FC008F110C009F172
:103F7800000E106E000E0F6E120008C10FF009C17E
:103F880010F01200116E1150D8B409D00FC00AF108
:103F980010C00BF1000E106E000E0F6E12000AC159
:103FA8000FF00BC110F01200B40E0F6E030E106E5E
:103FB800000E126E000E116E020E146E000E136EBD
:103FC800E4EC8DF0120019C00FF01AC010F0185070
:103FD8004BEC96F019C00FF017C010F01850F7EC22
:103FE80095F0120012C010F013C011F09DEC9DF076
:103FF800FB0E106EFF0E116E9DEC9DF01200000E70
:104008000F6E05D00F2A00F00F28D8B403D0C7A030
:10401800C7B4F8D79E9612000FC0D9FF10C0DAFFB8
:10402800DF50D8A402D0010E1200000E12000F6E4D
:104038009E900F50D8B402D09D8012009D9012001F
:1040480021EC94F032EC9CF0A4EC85F022EC8BF09F
:10405800120020EE03F00F50D9261050DA22010E7C
:10406800DF6E12000FC0D9FF10C0DAFFDECF0FF0ED
:10407800DDCF10F012000F6EF28C0F50D8B402D0C2
:10408800F28E1200F29E12000F6E0F50D8B402D0BA
:104098009D8A12009D9A12000F6E0F50D8B402D05C
:1040A800CD801200CD90120003ECA0F0C584C5B4F9
:1040B800FED79E96C75012000F50D8B402D0F28691
:1040C8001200F2961200106E10C0C9FF03ECA0F0A7
:1040D800C5501200016E0F0121A3FDD701C01CFFBE
:1040E80012000F6EACA2FED70FC0ADFF1200016E1A
:1040F800ACA2FED701C0ADFF1200BA92EFC07CFFA0
:10410800F0C07DFF1200A192F1C0B2FFF2C0B3FF70
:1041180012009E90F3C0CEFFF4C0CFFF1200C580FE
:10412800C5B0FED79E9612000FC0EDF010C0EEF09D
:104138001200C5EC90F012000001FE5112001200AE
:020000040020DA
:08000000FFFFFFFFFFFFFFFF00
:020000040030CA
:0E0000001C187F7CF90A90FFFFC0FFE0FF4054
:00000001FF
