:100000000C944F000C941A120C941A120C941A129D
:100010000C941A120C941A120C941A120C941A12B0
:100020000C941A120C941A120C941A120C941A12A0
:100030000C941A120C941A120C945F0D0C941A1250
:100040000C941A120C941A120C942A0E0C941A1274
:100050000C941A120C941A120C941A120C941A1270
:100060000C941A120C941A120C941A120C941A1260
:100070000C941A120C94880D0C94B10D0C941A1255
:100080000C941A120C941A120C941A12010001BA50
:100090008001BA01BB00018F01BB01CD800011249A
:1000A0001FBECFEFD0E1DEBFCDBFECE8F0E040E017
:1000B00017C0B591A59135912591059107FD0CC00B
:1000C00095918591EF01F92FE82F05900D92A217D8
:1000D000B307D9F7FE0104C01D92A217B307E1F7D9
:1000E000ED39F40731F70E94EC020C947700F89494
:0200F000FFCF40
:1000F200412043414D4500422043414D45003C4D86
:100102004D5330325725643E003C53494D303152F5
:100112003E003C4D4D533030523E003C4D4D53302D
:10012200315730303E003C53494D3034523E003C52
:1001320053494D3035523E003C53494D3032523EC8
:10014200003C53494D3033523E003C53495330300A
:100152005725643E003C53495331305725643E00D5
:100162003C53494330365725643E003C4D54256389
:100172003230523E003C4D54256330305725633EA9
:0D018200003C4D54256331305725643E008C
:01018F004F20
:100190002F923F924F926F927F928F929F92AF9247
:1001A000BF92CF92DF92EF92FF920F931F93CF9364
:1001B000DF93CDB7DEB762970FB6F894DEBF0FBE00
:1001C000CDBF6C013A01862E7901FC0110861782A1
:1001D000848181FFE7C19E012F5F3F4F3D872C87C0
:1001E000C901A0E8888B998BAA8B9FE3992EF30114
:1001F000849187FC8081882309F4D0C1482D930124
:100200002F5F3F4F4F4F853219F03901842E0AC0BE
:10021000F901849147FD808192E0690E711C811C77
:10022000853229F4B60190E00E94950AE0CFB12C06
:1002300000E010E01032A0F48B3269F030F480322C
:1002400059F0833269F410612CC08D3239F080335B
:1002500039F4116026C01260146023C0186021C0F8
:1002600017FD29C090ED980F9A3078F416FF06C05C
:10027000AAE0BA9E900D1124B92E13C0EAE00E9F99
:10028000900D1124092F10620CC08E3221F416FD3E
:1002900085C1106406C08C3611F4106802C088361F
:1002A00051F4F301849187FC8081FFEF6F1A7F0A7C
:1002B0008F0A8111BFCF982F9F7D9554933028F4DA
:1002C00024E0E20EF11C99820FC0833631F08337AF
:1002D00091F0833509F063C027C0F70180818983DD
:1002E00097012E5F3F4F7901288839884A88AA24D0
:1002F000A394B12C17C0A7014D5F5F4F5F874E8756
:10030000F70120803180428016FF03C04B2D50E062
:1003100002C04FEF5FEF842DB1010E9409105C0114
:10032000EE84FF841F7718C097012D5F3F4F3F87F2
:100330002E87F70120803180428016FF03C04B2DAD
:1003400050E002C04FEF5FEF842DB1010E94091011
:100350005C011068EE84FF8413FD1DC0802F90E0C7
:10036000A816B906C0F4B60180E290E00E94950A92
:100370000150F4CFF101849147FC8081FFEF2F1AE7
:100380003F0A4F0AB60190E00E94950A0111015000
:1003900021E0A21AB108A114B10461F7F5C08436B6
:1003A00011F0893671F5F70117FF08C0608171817E
:1003B0008281938197012C5F3F4F09C060817181D9
:1003C000072E000C880B990B97012E5F3F4F790188
:1003D0001F76312E97FF0AC0909580957095619594
:1003E0007F4F8F4F9F4F312F3068332E2AE030E000
:1003F000AE014F5F5F4F0E940509482E4C85441A9D
:100400004AC0853729F41F7EA12E2AE030E025C09E
:10041000512F597FA52E8F36C1F018F4883579F009
:10042000BDC0803719F0883721F0B8C0852F8061B2
:10043000A82EA4FE0DC09A2D9460A92E09C014FF09
:100440000AC0A52FA660AA2E06C028E030E005C08D
:1004500020E130E002C020E132E0F701A7FE08C051
:100460006081718182819381A7014C5F5F4F07C0DA
:100470006081718180E090E0A7014E5F5F4F7A015B
:10048000AE014F5F5F4F0E940509482E5C85451AFB
:100490008A2D8F77382E36FE0DC0932D9E7FA92E84
:1004A0004B1458F434FE0BC032FC09C0A32DAE7EB1
:1004B000AA2E05C0142DA32C03C0142D01C01B2D82
:1004C000A4FE0EC0FE01E40DF11D8081803321F4F5
:1004D000EA2DE97EAE2E08C0A2FE05C01E5F04C054
:1004E0008A2D867809F01F5FA3FC11C0A0FE06C00C
:1004F000101788F4040DB02EB11A0EC0101760F456
:10050000B60180E290E00E94950A1F5FF7CF1017B6
:1005100018F4011B02C0B42C00E0A4FE10C0B60108
:1005200080E390E00E94950AA2FE17C0A1FC03C0E0
:1005300088E790E002C088E590E0B6010CC08A2D03
:10054000867859F0A1FE02C08BE201C080E2A7FCD0
:100550008DE2B60190E00E94950A4B1438F4B60182
:1005600080E390E00E94950ABA94F7CF4A94E1E0C4
:10057000F0E0EC0FFD1FE40DF11D8081B60190E06D
:100580000E94950A4110F2CF002309F430CEB60143
:1005900080E290E00E94950A0150F6CFF601878133
:1005A000908502C08FEF9FEF62960FB6F894DEBF82
:1005B0000FBECDBFDF91CF911F910F91FF90EF90B4
:1005C000DF90CF90BF90AF909F908F907F906F9073
:0805D0004F903F902F90089519
:1005D80008E424E042E46FE484E40E9482100CE41E
:1005E80026E043E46FE484E40E94821027E046E4B6
:1005F8006FE484E40E94821008E424E044E469E49F
:1006080084E40E94821025E044E469E484E40E94C2
:10061800821020E043E469E484E40E94821021E02F
:1006280043E469E484E40E94821026E044E469E437
:1006380084E40E94821020E047E469E484E40E9494
:10064800821021E047E469E484E40E94821023E0F8
:1006580047E469E484E40E94821024E047E469E402
:1006680084E40E94821027E045E469E484E40E945F
:10067800821026E045E469E484E40E94821025E0C3
:1006880045E469E484E40E9482100CE425E043E434
:100698006FE484E40E94821024E043E46FE484E47D
:1006A8000E94821023E043E46FE484E40E948210F5
:1006B80022E043E46FE484E40E9482100E94790EF1
:1006C80068E970E181E090E00E9471114FEA5FE013
:1006D80060E875E280E090E00E94591140E95FE02F
:1006E80060E07BE480E090E00E9465110E940212C5
:1006F8002AED3DE04AE050E069E080E091E00E94A8
:10070800C71127E034E04AE050E069E085E191E074
:100718000E94C7112AEF30E144E650E069E08CE11D
:1007280091E00E94C7112CE132E140E050E060E026
:1007380087E091E00E94C71127E831E140E050E0EE
:1007480060E08EE091E00E94C71181E00E94F11103
:100758002DE33BE040E050E060E08FE691E00E944E
:10076800C71129E931E140E050E069E088E691E00D
:100778000E94C71128E03FE040E050E069E083E5CF
:1007880091E00E94C7112DE431E140E050E069E0BA
:100798008AE591E00E94C71121EA31E140E050E08A
:1007A80069E081E691E00E94C71181E08093CA0167
:1007B8008093C90180ED97E00E94D4100E94C01177
:1007C80020E041E060E581E40E94F1040E94C0114C
:1007D80020E041E060E58FE40E94F1040E94B91135
:1007E8008FE691E00E94520E88E691E00E94520E38
:1007F80083E591E00E94520E8AE591E00E94520E34
:060808000E948F0CEBCFF3
:10080E0064E084E40E94B90C41E0682F8CE991E029
:10081E000E946C10823049F48091C501811105C08F
:10082E0062EF70E080E00E943F1065E084E40E9479
:10083E00B90C41E0682F8AE991E00E946C10823079
:10084E0049F48091C401811105C069EF70E080E028
:10085E000E943F1060E083E40E94B90C41E0682FD3
:10086E0088E991E00E946C10823031F48091C501CC
:10087E0081608093C50107C0813029F48091C50144
:10088E008E7F8093C50161E083E40E94B90C41E044
:10089E00682F86E991E00E946C10823031F48091CD
:1008AE00C40181608093C40107C0813029F4809116
:1008BE00C4018E7F8093C40166E084E40E94B90C6B
:1008CE0041E0682F84E991E00E946C10823031F48F
:1008DE008091C30181608093C30107C0813029F4E8
:1008EE008091C3018E7F8093C30160E087E40E94F4
:1008FE00B90C41E0682F82E991E00E946C108230C1
:10090E0031F48091C20181608093C20107C08130B1
:10091E0029F48091C2018E7F8093C20161E087E449
:10092E000E94B90C41E0682F80E991E00E946C10A2
:10093E0063E087E40E94B90C41E0682F8EE891E0F5
:10094E000E946C10823031F48091C10181608093DD
:10095E00C10107C0813029F48091C1018E7F80933F
:10096E00C10164E087E40E94B90C41E0682F8CE875
:10097E0091E00E946C10823031F48091C001816050
:10098E008093C00107C0813029F48091C0018E7F11
:10099E008093C00167E085E40E94B90C41E0682FA6
:1009AE008AE891E00E946C1066E085E40E94B90C22
:1009BE0041E0682F88E891E00E946C1065E085E4C4
:1009CE000E94B90C41E0682F86E891E00E946C10FD
:0409DE0080E0089518
:1009E200BF92CF92DF92EF92FF920F931F93CF931A
:1009F200DF936F3F71F44F3F61F41092BB018FE4BC
:100A02008093BA011092B9011092B8011092B70105
:100A1200C2C09091B701911103C091E09093C701B8
:100A2200022FD42FC62EE82E11E00F2EF3E0FF2E58
:100A3200F02D6894DD24D2F86894BB24B4F8A5C0E4
:100A420083E591E00E94520E8AE591E00E94520EE7
:100A520088E691E00E94520E81E691E00E94520ED9
:100A62009091B70191110BC01093B7019091C901F8
:100A72009093B6010E942A0F81118093BA010E94BD
:100A82002F118823B1F1F092CA01D092C90164E119
:100A920083E50E94340C88EC90E00E94D4101093FD
:100AA200B9019091BB019F5F933018F49093BB0101
:100AB20068C01092BB019091B8019F5F9093B801FA
:100AC200F092CA01B092C901933018F00C94000060
:100AD20058C0C8EC83E591E00E94520E8AE591E08D
:100AE2000E94520E8EE190E00E94D410C15091F704
:100AF20048C0002389F00E940C11882369F00E94EB
:100B02003F118823F1F164E187E50E94340CF092F1
:100B1200CA01D092C90135C09091B901911117C093
:100B22008091CA01833031F41092CA018091B601DA
:100B32008093C9010E94C20E8E1569F10E943F1175
:100B420081111FC06C2D8E2D0E94340C1AC00E9480
:100B5200C20EC091BA018C130CC01092B9018091DF
:100B6200CA01833031F41092CA018091B601809398
:100B7200C9010E943F11811104C064E18C2F0E94BF
:100B8200340CD11102C01092C7010E94B911909188
:100B9200C701911155CFDF91CF911F910F91FF9016
:0A0BA200EF90DF90CF90BF90089510
:100BAC005F926F927F928F929F92AF92BF92CF92F1
:100BBC00DF92EF92FF920F931F93CF93DF930AE78D
:100BCC0011E00F2EFBE4EF2EF1E0FF2EF02D0F2E97
:100BDC00FEE7CF2EF1E0DF2EF02DC0E0D0E0882430
:100BEC008394912C712C6C2E5801F80180818823F0
:100BFC0009F459C0F70180819181009721F0019788
:100C0C009183808350C0F6018081882339F0813034
:100C1C0051F40F2EF8E45F2EF02D06C00F2EFCE4DD
:100C2C005F2EF02D01C0572CC11106C0452D65E07B
:100C3C0083E40E94E80617C0C13031F4452D64E00E
:100C4C0083E40E94E8060FC0C23031F4452D62E007
:100C5C0083E40E94E80607C0C33029F4452D63E005
:100C6C0083E40E94E806FCE45F120DC0C40102C0DC
:100C7C00880F991F6A94E2F780959091C601892399
:100C8C008093C6010EC088E458120BC0C40102C088
:100C9C00880F991F6A94E2F79091C601892B809373
:100CAC00C601F501108221960F5F1F4FF2E0EF0E87
:100CBC00F11C8FEFC81AD80AC430D10509F093CFB4
:100CCC00DF91CF911F910F91FF90EF90DF90CF901C
:100CDC00BF90AF909F908F907F906F905F90089592
:100CEC004F925F926F927F928F929F92AF92BF9230
:100CFC00FF920F931F93CF93DF93F12CC1E0D0E0C1
:100D0C0000E41FE1882E912CA12CB12C02C0C0E074
:100D1C00D1E0F394C801BE010E94C01080E090E0C5
:100D2C000E94580A9B01AC0160E070E080E89FE3F0
:100D3C000E9410122B013C01C501B4010E945A0AF9
:100D4C00A30192010E9410122B013C0120E03FEF05
:100D5C004FE757E40E94071288238CF0CC0FDD1F5D
:100D6C00CC0FDD1FCC0FDD1FC11582E0D80779F247
:100D7C00C11588E0D80769F6C0E0D4E0CACF1FBC23
:100D8C00A301920160E07FEF8FE797E40E94D511F9
:100D9C000E94050C7093B5016093B4010E94CE11B2
:100DAC00FEBC81E00E947D11DF91CF911F910F91CC
:100DBC00FF90BF90AF909F908F907F906F905F90BF
:040DCC004F900895A7
:100DD00021E030E002C0220F331F6A95E2F7483469
:100DE00071F5813421F48BB3282B2BBB0895823409
:100DF00021F488B3282B28BB0895833421F485B3CC
:100E0000282B25BB0895843421F482B3282B22BBE0
:100E10000895853421F483B1282B23B908958634AD
:100E200031F4E2E6F0E08081282B208308958734B6
:100E3000E1F5E5E6F0E08081282B208308954C342D
:100E4000A1F5813429F48BB3209528232BBB089579
:100E5000823429F488B32095282328BB089583344D
:100E600029F485B32095282325BB0895843429F4DB
:100E700082B32095282322BB0895853429F483B1B9
:100E80002095282323B90895863439F4E2E6F0E06A
:100E900080812095282320830895873431F4E5E666
:0C0EA000F0E08081209528232083089535
:100EAC0021E030E002C0220F331F6A95E2F74F3485
:100EBC0071F5813421F48AB3282B2ABB089582342E
:100ECC0021F487B3282B27BB0895833421F484B3F2
:100EDC00282B24BB0895843421F481B3282B21BB07
:100EEC000895853421F482B1282B22B908958634D3
:100EFC0031F4E1E6F0E08081282B208308958734DB
:100F0C00E1F5E4E6F0E08081282B20830895493454
:100F1C00A1F5813429F48AB3209528232ABB08959E
:100F2C00823429F487B32095282327BB0895833472
:100F3C0029F484B32095282324BB0895843429F400
:100F4C0081B32095282321BB0895853429F482B1DF
:100F5C002095282322B90895863439F4E1E6F0E08F
:100F6C0080812095282320830895873431F4E4E68A
:0C0F7C00F0E08081209528232083089558
:100F88000E94E31158F00E94DC1140F029F45F3F01
:100F980029F00C94F71151110C94EB110C941712C1
:100FA8000E944C0F68F39923B1F3552391F3951BD5
:100FB800550BBB27AA2762177307840738F09F5F72
:100FC8005F4F220F331F441FAA1FA9F335D00E2EDF
:100FD8003AF0E0E832D091505040E695001CCAF74C
:100FE8002BD0FE2F29D0660F771F881FBB1F26170F
:100FF80037074807AB07B0E809F0BB0B802DBF01E6
:10100800FF2793585F4F3AF09E3F510578F00C94B4
:10101800F7110C94EB115F3FE4F3983ED4F38695F7
:1010280077956795B795F7959F5FC9F7880F911DD5
:101038009695879597F90895E1E0660F771F881FC1
:10104800BB1F621773078407BA0720F0621B730B74
:0C105800840BBA0BEE1F88F7E09508959A
:101064000F931F93CF93DF93CDB7DEB764970FB67B
:10107400F894DEBF0FBECDBFAC018C01DE0111962A
:10108400BE016B5E7F4F9C01F90191919F019D937D
:10109400A617B707C9F7CA014496F80111928F0140
:1010A400E817F907D1F71E81BE01685F7F4F80E81A
:1010B4000E940D0DAC011735A9F1113499F59C81ED
:1010C400990F9056292F220F220F920F2D81205312
:1010D400290F8981833569F48A81893419F58B81D3
:1010E4008D3401F52130F1F45093A3014093A20112
:1010F40019C08D34B9F48A818435A1F48B818D347F
:1011040071F4243161F45093A7014093A60107C000
:10111400243141F45093A5014093A40103C08B8171
:101124008335B1F364960FB6F894DEBF0FBECDBF1E
:0A113400DF91CF911F910F910895F4
:10113E000E94DC1138F00E94E31120F039F49F3F39
:10114E0019F426F40C9417120EF4E095E7FB0C94A8
:10115E00F711E92F0E944C0F58F3BA176207730765
:10116E008407950720F079F4A6F50C94EA110EF495
:10117E00E0950B2EBA2FA02D0B01B90190010C0199
:10118E00CA01A0011124FF27591B99F0593F50F4B1
:10119E00503E68F11A16F040A22F232F342F442709
:1011AE00585FF3CF469537952795A795F040539501
:1011BE00C9F77EF41F16BA0B620B730B840BBAF0D1
:1011CE009150A1F0FF0FBB1F661F771F881FC2F73C
:1011DE000EC0BA0F621F731F841F48F48795779550
:1011EE006795B795F7959E3F08F0B0CF9395880F0A
:0C11FE0008F09927EE0F9795879508954B
:10120A00FA01AA27283051F1203181F1E8946F932D
:10121A006E7F6E5F7F4F8F4F9F4FAF4FB1E03ED0D3
:10122A00B4E03CD0670F781F891F9A1FA11D680F71
:10123A00791F8A1F911DA11D6A0F711D811D911DA4
:10124A00A11D20D009F468943F912AE0269F112419
:10125A003019305D3193DEF6CF010895462F47707D
:10126A00405D4193B3E00FD0C9F7F6CF462F4F70D8
:10127A00405D4A3318F0495D31FD4052419302D036
:10128A00A9F7EACFB4E0A6959795879577956795DC
:10129A00BA95C9F700976105710508959B01AC01DC
:1012AA000A2E06945795479537952795BA95C9F703
:0C12BA00620F731F841F951FA01D089574
:1012C600CF93DF93C82F90E0FC01E658FE4F21E054
:1012D6002083FC01EE0FFF1FE55BFE4F71836083E9
:1012E600FC01E258FE4F8081813021F0811104C05B
:1012F600D8E403C0DCE401C0D0E0C11106C04D2F24
:1013060065E083E40E94E80617C0C13031F44D2F32
:1013160064E083E40E94E8060FC0C23031F44D2F2A
:1013260062E083E40E94E80607C0C33029F44D2F2B
:1013360063E083E40E94E806DC3471F481E090E027
:1013460002C0880F991FCA95E2F780959091C60151
:1013560089238093C6010EC0D83461F481E090E001
:1013660002C0880F991FCA95E2F79091C601892B92
:0A1376008093C601DF91CF91089526
:10138000CF93DF93C82FE82FF0E0E258FE4F608341
:10139000662321F0613021F4D8E403C0DCE401C00D
:1013A000D0E0C11106C04D2F65E083E40E94E8063D
:1013B00017C0C13031F44D2F64E083E40E94E80689
:1013C0000FC0C23031F44D2F62E083E40E94E80682
:1013D00007C0C33029F44D2F63E083E40E94E80680
:1013E000DC3471F481E090E002C0880F991FCA9547
:1013F000E2F780959091C60189238093C6010EC0C3
:10140000D83461F481E090E002C0880F991FCA953A
:10141000E2F79091C601892B8093C601DF91CF91AD
:0214200008952D
:101422000F931F93CF93DF93CDB7DEB764970FB6B9
:10143200F894DEBF0FBECDBF633551F0613451F079
:10144200623451F06F3451F0673531F594E307C0DF
:1014520090E305C091E303C092E301C093E31F92BE
:101462009F931F928F9387E791E0A0E0AF939F93A2
:101472008F938E010F5F1F4F1F930F930E94E50EF4
:10148200B80180E80E943F100E9456100FB6F894EF
:10149200DEBF0FBECDBF00C064960FB6F894DEBFAC
:0E14A2000FBECDBFDF91CF911F910F91089526
:1014B000E89409C097FB3EF49095809570956195EE
:1014C0007F4F8F4F9F4F9923A9F0F92F96E9BB27A4
:1014D0009395F695879577956795B795F111F8CF20
:1014E000FAF4BB0F11F460FF1BC06F5F7F4F8F4F8B
:1014F0009F4F16C0882311F096E911C0772321F081
:101500009EE8872F762F05C0662371F096E8862F18
:1015100070E060E02AF09A95660F771F881FDAF76F
:0A152000880F9695879597F90895B6
:10152A000F931F93CF93DF93FB01248121FD03C007
:10153A008FEF9FEF2CC022FF16C04781508525816F
:10154A0036814217530744F4A081B1819D012F5F70
:10155A003F4F318320838C93278130852F5F3F4F04
:10156A003087278314C08B01EC01FB010184F285CB
:10157A00E02D0995892BE1F6D80117968D919C915A
:10158A001897019618969C938E931797CE01DF9120
:08159A00CF911F910F910895FC
:1015A2001F93CF93DF93182F60E875E280E090E0FD
:1015B2000E94090BAE9AC2E6D0E088818F778883B9
:1015C2008EE70E94B11184E00E94B11183E00E9473
:1015D200B11180E00E94B111812F0E94B1118FEEF2
:1015E2000E94B11188E090E00E94D4108881806846
:1015F2008883AE9860E07BE480E090E00E94090B73
:1016020082E390E00E94D410DF91CF911F91089560
:10161200EBE9F0E0208122602083EAE9F0E020811A
:1016220028692083EDE9F0E0208126602083DC0137
:10163200CB018E7F880F991FAA1FBB1F880F991F8E
:10164200AA1FBB1F9C01AD01220F331F441F551F50
:1016520060E072E18AE790E00E946E0FDA01C90150
:101662000197A109B10980939900892F9A2FAB2F75
:08167200BB2780939800089546
:10167A000F931F93CF93DF93CDB7DEB764970FB65F
:10168A00F894DEBF0FBECDBF8091C6011F928F9323
:10169A0080E091E0A0E0AF939F938F938E010F5F5C
:1016AA001F4F1F930F930E94E50EB80180E80E9416
:1016BA003F100E9456100FB6F894DEBF0FBECDBF82
:1016CA0064960FB6F894DEBF0FBECDBFDF91CF91FF
:0616DA001F910F9108951D
:1016E0000F931F93CF93DF93CDB7DEB764970FB6F9
:1016F000F894DEBF0FBECDBF1F926F931F928F93E2
:1017000083E891E0A0E0AF939F938F938E010F5FEA
:101710001F4F1F930F930E94E50EB80180E80E94AF
:101720003F100E9456100FB6F894DEBF0FBECDBF1B
:1017300064960FB6F894DEBF0FBECDBFDF91CF9198
:061740001F910F910895B6
:101746000F931F93CF93DF93CDB7DEB764970FB692
:10175600F894DEBF0FBECDBF1F928F938CE491E04D
:10176600A0E0AF939F938F938E010F5F1F4F1F9340
:101776000F930E94E50EB80180E80E943F100E9478
:1017860056100FB6F894DEBF0FBECDBF64960FB6E7
:10179600F894DEBF0FBECDBFDF91CF911F910F91A1
:0217A6000895A4
:1017A8000F931F93CF93DF93CDB7DEB764970FB630
:1017B800F894DEBF0FBECDBF1F928F938DE691E0E8
:1017C800A0E0AF939F938F938E010F5F1F4F1F93DE
:1017D8000F930E94E50EB80180E80E943F100E9416
:1017E80056100FB6F894DEBF0FBECDBF64960FB685
:1017F800F894DEBF0FBECDBFDF91CF911F910F913F
:02180800089541
:10180A000E94540F88F09F5798F0B92F9927B75123
:10181A00B0F0E1F0660F771F881F991F1AF0BA958A
:10182A00C9F714C0B13091F00E94EA11B1E00895ED
:10183A000C94EA11672F782F8827B85F39F0B93FDF
:10184A00CCF3869577956795B395D9F73EF490953D
:0E185A008095709561957F4F8F4F9F4F089539
:10186800CF93DF93C82FD62F83E50E94700B882370
:1018780021F080E090E00E94D4106D2F8DE40E944A
:10188800700B882321F080E090E00E94D4106C2F28
:1018980083E50E94110A882321F080E090E00E94ED
:1018A800D4106C2F8DE40E94110A882321F080E067
:0C18B80090E00E94D410DF91CF910895C1
:1018C400599A2AB128692AB9E5E9F0E0208126600D
:1018D4002083DC01CB018E7F880F991FAA1FBB1FB9
:1018E400880F991FAA1FBB1F9C01AD01220F331F34
:1018F400441F551F60E072E18AE790E00E946E0F7A
:10190400DA01C9010197A109B10989B9892F9A2F6F
:0A191400AB2FBB27809390000895CD
:10191E00CF938091CB01811116C00E94360DC82F36
:10192E00882389F068EB7BE082E891E00E94AC109E
:10193E00811102C0C230A1F483E08093CA0184E019
:10194E008093C9010DC082E891E00E94A911809197
:10195E00CA01833029F41092CA0181E08093C90133
:04196E00CF91089578
:1019720021E030E002C0220F331F6A95E2F7813482
:1019820011F489B31AC0823411F486B316C08334B9
:1019920011F483B312C0843411F480B30EC08534C1
:1019A20011F481B10AC0863411F480B106C08734C3
:1019B20019F48091630001C080E0282381E009F4DA
:0419C20080E0089524
:1019C600CF92DF92EF92CF936B01E82EFB018491C9
:1019D600E7FC8081882379F0C0E00E94B111CF5FD7
:1019E600AE2DC6018C0F911DA11DFC018491A7FD92
:1019F60080818111F2CFEBE9F0E0808186FFFDCF97
:101A0600EBE9F0E0808180648083CF91EF90DF90F6
:041A1600CF900895D0
:101A1A009B01482FFB01549147FD508180ED850FB2
:101A2A008A30E0F480E090E0BC01660F771F880FEF
:101A3A00991F880F991F880F991F860F971F850F67
:101A4A00911DC0972F5F3F4F4F4FF901549147FDAA
:101A5A00508160ED650F6A3038F3089580E090E0B8
:021A6A000895DD
:101A6C008091A2019091A30180FD1BC09C0122706A
:101A7C00332722303105B8F49C01247033272430ED
:101A8C00310598F49C01287033272830310578F4FF
:101A9C009C012071332781E02031310548F480E02E
:101AAC00089581E0089582E0089582E0089582E02F
:021ABC0008958B
:101ABE001F920F920FB60F9211242F933F934F93B5
:101ACE005F936F937F938F939F93AF93BF93EF9398
:101ADE00FF930E94CE11E091AC01F091AD010995FA
:101AEE00FF91EF91BF91AF919F918F917F916F91E8
:101AFE005F914F913F912F910F900FBE0F901F90BE
:021B0E00189528
:101B10001F920F920FB60F9211242F933F934F9362
:101B20005F936F937F938F939F93AF93BF93EF9345
:101B3000FF930E949011E091AA01F091AB010995E9
:101B4000FF91EF91BF91AF919F918F917F916F9195
:101B50005F914F913F912F910F900FBE0F901F906B
:021B60001895D6
:101B62001F920F920FB60F9211242F933F934F9310
:101B72005F936F937F938F939F93AF93BF93EF93F3
:101B8200FF9380919C00E091AE01F091AF01099525
:101B9200FF91EF91BF91AF919F918F917F916F9143
:101BA2005F914F913F912F910F900FBE0F901F9019
:021BB200189584
:101BB40086E791E00E940C126AE070E086E791E00B
:101BC4000E94020E882349F00E941412813029F4E5
:101BD4004CE464E082E40E94E8066AE570E086E78B
:101BE40091E00E94020E882349F00E941412813071
:101BF40029F448E464E082E40E94E80680E0089561
:101C0400FC019081838121E0280F2383911109C075
:101C14008083615071097283618381E08093CC0178
:101C24000895981311C0818192818230910538F012
:101C340001979283818382E08093CC01089510827E
:101C440083E08093CC0108951092CC0180E0089544
:101C54001F920F920FB60F9211242F933F934F931D
:101C64005F936F937F938F939F93AF93BF93EF9300
:101C7400FF938CB1E091B001F091B1010995FF910E
:101C8400EF91BF91AF919F918F917F916F915F91F0
:101C94004F913F912F910F900FBE0F901F90189569
:101CA400CF93DF93FC01208120FF1BC0EC016181F5
:101CB400728103960E94AC10882319F08881846095
:101CC4008883888182FF0FC08B7F8883ED81FE81AA
:101CD4000995988193FD08C0882331F09E7F9883ED
:0E1CE40003C080E001C080E0DF91CF91089541
:101CF20060E080E00E94C00960E081E00E94C009CB
:101D020060E082E00E94C00960E083E00E94C009B6
:101D120065E070E080E00E9463096AE070E081E0C3
:101D22000E9463096FE070E082E00E94630964E14F
:0A1D320070E083E00E946309089549
:101D3C00990F0008550FAA0BE0E8FEEF16161706D0
:101D4C00E807F907C0F012161306E407F50798F038
:101D5C00621B730B840B950B39F40A2661F0232B51
:101D6C00242B252B21F408950A2609F4A140A695CD
:081D7C008FEF811D811D089508
:101D84002091A6013091A70133FF19C04091A4010D
:101D94005091A50153FF15C030FF04C050FF04C08B
:101DA40081E403C080E001C080E032FF02C052FD44
:101DB4008FE431FF07C051FF05C082E4089580E03D
:061DC400089580E008957F
:101DCA00AFE0B0E0EBEEFEE00C94FB0F0E891F894A
:101DDA0086E08D831A8309838FEF9FE79F838E8323
:101DEA009E01255E3F4F488D598D6A8DCE01019621
:101DFA000E94C800E885F985E00FF11F10822F962E
:061E0A00E4E00C9432102C
:101E10008091CA018823E1F068EC70E084E891E0E9
:101E20000E94AC108823A1F083E00E94E7108C325E
:101E3000914070F484E891E00E94A9118091CA0158
:101E40000E94D10A8091CA01833011F01092CA0118
:041E500080E0089591
:101E54002091A6013091A70130FF08C08091A40110
:101E64009091A50190FF04C081E403C080E001C00B
:101E740080E032FF06C04091A4015091A50152FDBB
:101E84008FE431FF06C02091A4013091A50131FDFA
:041E940082E4089547
:101E980057FD9058440F551F59F05F3F71F0479513
:101EA800880F97FB991F61F09F3F79F087950895F8
:101EB800121613061406551FF2CF4695F1DF08C017
:101EC800161617061806991FF1CF86957105610534
:041ED80008940895CD
:101EDC00A1E21A2EAA1BBB1BFD010DC0AA1FBB1F22
:101EEC00EE1FFF1FA217B307E407F50720F0A21B94
:101EFC00B30BE40BF50B661F771F881F991F1A9401
:101F0C0069F760957095809590959B01AC01BD012A
:041F1C00CF01089554
:101F20008C3319F41092BD0108958E3359F4E09169
:101F3000BD01F0E0E95CFE4F10828EE091E00E946E
:101F4000FD110895E091BD01E43140F491E09E0F50
:0E1F50009093BD01F0E0E95CFE4F80830895A0
:101F5E00883219F41092BC010895893259F4E09137
:101F6E00BC01F0E0ED5DFE4F108287E091E00E9433
:101F7E00FD110895E091BC01E43140F491E09E0F13
:0E1F8E009093BC01F0E0ED5DFE4F808308955E
:101F9C000F931F93CF93DF936115710599F0EC01AB
:101FAC008B01000F111F000F111F000F111F061BBB
:101FBC00170B080F191FCE010E94520E2796C0173F
:0E1FCC00D107C9F7DF91CF911F910F910895B2
:101FDA002F923F924F925F926F927F928F929F922F
:101FEA00AF92BF92CF92DF92EF92FF920F931F931D
:101FFA00CF93DF93CDB7DEB7CA1BDB0B0FB6F894CE
:08200A00DEBF0FBECDBF09943B
:10201200CF92DF92EF926B01E82EA82FCB014115F0
:10202200510531F48C199D09EF90DF90CF900895FE
:10203200FC012491A7FD20812223A1F30196A11D79
:0620420041505109ECCFF2
:102048002A88398848885F846E847D848C849B8440
:10205800AA84B984C884DF80EE80FD800C811B814E
:10206800AA81B981CE0FD11D0FB6F894DEBF0FBE7D
:06207800CDBFED0108954B
:10207E00CF93DF939B01482F1092C801CAE9D0E09D
:10208E0088818F7E8883AE9A842FB9010E94E30CDB
:0E209E00888180618883AE98DF91CF9108958C
:1020AC008EE991E00E94A9110E94B91166E970E0D5
:1020BC008EE991E00E94AC10811106C08091C8019C
:0C20CC00882391F381E0089580E00895DE
:1020D800FC018181861303C0108280E0089580810D
:1020E800841730F010826183662331F081E008950F
:0C20F8008F5F808380E0089582E00895EF
:102104000F931F93CF93DF93162FC42FD22F402FFB
:10211400622F8C2F0E94E806412F6D2F8C2F0E9476
:0C2124005607DF91CF911F910F91089595
:102130008091A8019091A901019621F41092A90122
:102140001092A8018091A8019091A9010196909305
:08215000A9018093A801089584
:102158002091A8013091A901FC0140815181F90128
:10216800E41BF50BE617F70728F0FC013183208301
:0821780081E0089580E0089564
:10218000AA1BBB1B51E107C0AA1FBB1FA617B7079D
:1021900010F0A61BB70B881F991F5A95A9F78095B9
:0821A0009095BC01CD010895EA
:1021A800CF93DF93EC0180EA91E00E94A9110E948D
:1021B800B911BE0180EA91E00E94AC108823B9F3FE
:0621C800DF91CF910895A4
:1021CE0097B18F70982B97B9369A349BFECF83E0D8
:1021DE008A95F1F7000024B185B190E0982F8827F9
:0621EE00820F911D08950F
:1021F4000E94D6059091BF018091C601981741F0C5
:102204008FE691E00E94FD118091C6018093BF0189
:0422140080E00895C9
:102218008091CB0181110CC02091A2013091A301C2
:102228002470332781E02430310518F480E00895C4
:0422380080E00895A5
:10223C00092E0394000C11F4882352F0BB0F40F4C8
:10224C00BF2B11F460FF04C06F5F7F4F8F4F9F4F08
:02225C000895E3
:10225E008091A60182FD0AC08091A4019091A501F2
:10226E0096958795969587958170089581E0089546
:10227E008091A60181FD08C08091A4019091A501D5
:0C228E00969587958170089581E0089571
:10229A008091C9019091BE01981721F08093BE01E7
:0822AA000E94A30B80E00895DF
:1022B200CF93DF93EA010E94620CD093B101C093E5
:0822C200B001DF91CF910895F6
:1022CA00CF93DF93EA010E94090BD093AF01C09329
:0822DA00AE01DF91CF910895E0
:1022E200CF93DF93EB010E947606D093AD01C093AA
:0822F200AC01DF91CF910895CA
:1022FA00882321F087B7846087BF089587B78B7FCB
:04230A0087BF0895EC
:10230E0081E08093C80187E391E00E94320881E06A
:02231E00089520
:102320008091B2019091B3019093890080938800CD
:0223300008950E
:102332006BE071E080E00E943F100E945610089509
:102342008DE40E94D40B83E50E94D40B80E00895B3
:102352002091A8013091A901FC01318320830895C5
:10236200EBE9F0E0908195FFFDCF80939C0008950A
:0E23720065E070E080E091E00E94CE0F0895DB
:0E2380002FEF4FEF6FEF80E00E94F104089501
:0E238E00FC01368325836083528341830895CA
:0E239C008091B4019091B5019DBD8CBD089556
:0E23AA005058BB27AA270E94B0080C941E11A1
:0E23B80000240A941616170618060906089542
:0E23C60000240A941216130614060506089544
:0E23D400E894BB2766277727CB0197F9089579
:0C23E200882311F078940895F894089571
:0C23EE0097F99F6780E870E060E00895B8
:0A23FA00FC0190819160908308952A
:0A24040087E886B980E487B90895DF
:0A240E000E949E0E08F481E008957C
:0824180021E0FC01238308957B
:082420000E94D4070C941E1168
:062428008091CC01089533
:06242E009FEF80EC089511
:042434000C94000004
:0424380081E00895A2
:00000001FF
