:100000000C948E000C94042F0C94042F0C94042F49
:100010000C94042F0C94042F0C94042F0C94042F94
:100020000C94042F0C94042F0C94D2240C94042FC1
:100030000C94042F0C94042F0C94FB240C94042F88
:100040000C94A9240C94042F0C949E250C94042F3A
:100050000C94042F0C9477230C94042F0C94042FED
:100060000C94042F0C94042F0C94042F0C94042F44
:100070000C94042F0C9424250C944D250C94042FDF
:100080000C94042F0C94042F0C94042F01000300F3
:1000900080030003A0005E1003A003FB8003FB04A9
:1000A0007D005EB0047D04C78004C70533005F3265
:1000B0000533054D80054D056B005F9E056B05B54D
:1000C0008005B505B9005FBC05B905BB8005BB055A
:1000D000CB005FC005CB06178006170619005FD05E
:1000E000061906428006420643005FD20643064ACE
:1000F00080064A064E005FD3064E0654800654061C
:1001000055005FD7065506578006570659005FD839
:100110000659065F80065F0660005FDA11241FBE85
:10012000CFEFD0E1DEBFCDBFECE8F0E041E017C09B
:10013000B591A59135912591059107FD0CC095913B
:100140008591EF01F92FE82F05900D92A217B307C3
:10015000D9F7FE0104C01D92A217B307E1F7EC31F5
:10016000F40731F70E94ED290C94B600F894FFCF04
:1001700053797374656D20446961676E6F73746938
:100180006300494E50555420412050524553530D61
:100190000A00494E50555420412052454C45415388
:1001A000450D0A00494E50555420422050524553A7
:1001B000530D0A00494E50555420422052454C459B
:1001C0004153450D0A00494E50555420454D472096
:1001D00050524553530D0A00494E50555420454D39
:1001E000472052454C454153450D0A00494E505554
:1001F00054205245532050524553530D0A00494E46
:10020000505554205245532052454C454153450DBD
:100210000A00494E48494249542041205052455312
:10022000530D0A00494E4849424954204120524545
:100230004C454153450D0A00494E48494249542016
:10024000422050524553530D0A00494E48494249F5
:100250005420422052454C454153450D0A00455813
:10026000545F312050524553530D0A004558545F96
:10027000312052454C454153450D0A004558545FC5
:10028000322050524553530D0A004558545F3220D6
:1002900052454C454153450D0A004E6F742072651E
:1002A0007365747461626C6500506F73203A202529
:1002B00064004D6167204669656C64203A202564BE
:1002C00000566F6C74616765203A20256400546F96
:1002D00072717565203A2025640025005065722EE4
:1002E0000000312F3130730050555348204F4B20C0
:1002F000464F5220434C45415200434F554E5445C2
:1003000052204120434C454152454400434F554EF5
:10031000544552204220434C4541524544005661C9
:100320006C005365632E003E3E204D41494E204DEA
:10033000454E55203C3C003E3E20555345522053EF
:10034000455454494E4753203C3C003E3E205359AF
:100350005354454D2053455454494E4753203C3C3B
:1003600000252E326400594F4E5F4100594F4E5FB9
:100370004200322073656320666F72206175746F6E
:1003800020636F6E6669675D005B5075736820451A
:100390006E7465722042742E20666F725D003C3C64
:1003A000202053455256494345204D4F4445202077
:1003B000203E3E005B322073656320666F722073BF
:1003C00065745D00413A4E6F726D20423A4E6F7215
:1003D0006D0053454C454354204D414720545950DE
:1003E0004500413A526576727320423A4E6F726D03
:1003F00000413A4E6F726D20423A52657672730038
:10040000413A526576727320423A526576727300B1
:1004100053454C4543544544004163746976650037
:1004200053454C454354204D4F544F52205459503E
:100430004500506173736976650053797374656D17
:1004400020506173736976650053454C45435420D1
:1004500044524F50204D4F4445004F6E6C7920451B
:100460006D672E005077722E204661696C20262021
:10047000456D672E00502831292050283229205000
:10048000283329205028342900504F534954494FCC
:100490004E2053455454494E47530051003A003FB3
:1004A000004D41494E31003C0052003E004D415349
:1004B0003132204552524F5200574F524B494E470E
:1004C0000054494D45204F555400544F5251554505
:1004D00000544F5251554520524553455400415206
:1004E0004D204241434B0053554345535300463141
:1004F000202620463200416C6C20416C61726D7385
:10050000004F6E6C792042757379204F75740041ED
:100510003A204F666620423A204F666600413A20F4
:100520004F666620423A204F6E00413A204F6E20BF
:10053000423A204F666600413A204F6E20423A20F0
:100540004F6E0044697361626C65004A7573742074
:10055000456D67004A75737420506F776572204649
:1005600061696C00506F776572204661696C202666
:1005700020456D67004E6F742055736564004631E9
:10058000206F72204632004E2D4F004E2D43004109
:100590003A204E2D4F20423A204E2D4F00413A2016
:1005A0004E2D4F20423A204E2D4300413A204E2DF1
:1005B0004320423A204E2D4F00413A204E2D4320F9
:1005C000423A204E2D43004F6E004F666600537432
:1005D000616E6461727400446F75626C6520547959
:1005E000706500413A4E6F726D2E20423A4E6F7226
:1005F0006D2E00413A526576727320423A4E6F7208
:100600006D2E00413A4E6F726D2E20423A52657641
:1006100072730041202D2042204C6F636B65640093
:1006200042202D2D20412053696E676C65004220C9
:100630003C3C204120467265650041203C3C204204
:100640002046726565003620536E00313220536EAD
:1006500000313820536E00496E66696E697465001A
:10066000557365722053657474696E6773005379AE
:100670007374656D2053657474696E6773004D6F94
:10068000746F72205370656564004D6F746F7220D3
:10069000546F7271756500496E707574204275668D
:1006A000666572004944204E756D2053656C656324
:1006B000740052616E646F6D20536F7274657220A6
:1006C000410052656C61792054696D6500436F7516
:1006D0006E746572204100436F756E7465722042BE
:1006E0000046697820436F756E746572204100463C
:1006F000697820436F756E7465722042004D4153D6
:10070000313220537461747573004D6F746F7220B1
:10071000427265616B20537065656400496E707547
:100720007420566F6C74616765004D61676E657407
:100730002053656C65637400496E64696B617379FD
:100740006F6E2053656C65637400496E64696B61FC
:1007500073796F6E2054797065004D6F746F7220DD
:10076000436F6E74726F6C204D6F64650052616EE2
:10077000646F6D20436F6E74726F6C204D6F646593
:10078000004578742052656C6179204D6F64650076
:1007900054696D652053656C6563740050726F67B2
:1007A00072616D2053656C65637400496E70757479
:1007B00020467265650052656C61792053656C65F1
:1007C000637400456D672053656C65637400466F04
:1007D000746F73656C20416C61726D0044726F7050
:0A07E0002041726D204D6F6465002A
:1007EA000608205F0000000000000000002F000043
:1007FA0000000700070000147F147F1400242A7FDA
:10080A002A12002313086462003649552250000058
:10081A000503000000001C224100000041221C00C8
:10082A000014083E08140008083E0808000000A04A
:10083A006000000808080808000060600000002046
:10084A0010080402003E5149453E0000427F400024
:10085A00004261514946002141454B3100181412AA
:10086A007F10002745454539003C4A494930000177
:10087A007109050300364949493600064949291EC6
:10088A000000363600000000563600000008142228
:10089A004100001414141414000041221408000228
:1008AA000151090600324959513E007C1211127C4D
:1008BA00007F49494936003E41414122007F41417A
:1008CA00221C007F49494941007F09090901003E6C
:1008DA004149497A007F0808087F0000417F4100AA
:1008EA00002040413F01007F08142241007F404020
:1008FA004040007F020C027F007F0408107F003E08
:10090A004141413E007F09090906003E4151215EED
:10091A00007F091929460046494949310001017FEA
:10092A000101003F4040403F001F2040201F003F80
:10093A004038403F00631408146300070870080732
:10094A0000615149454300007F41410000552A5545
:10095A002A55000041417F000004020102040040C0
:10096A0040404040000001020400002054545478E2
:10097A00007F484444380038444444200038444402
:10098A00487F00385454541800087E0901020018A0
:10099A00A4A4A47C007F080404780000447D4000DD
:1009AA00004080847D00007F102844000000417FC1
:1009BA004000007C04180478007C0804047800389D
:1009CA004444443800FC242424180018242418FC25
:1009DA00007C0804040800485454542000043F448E
:1009EA004020003C4040207C001C2040201C003C51
:1009FA004030403C004428102844001CA0A0A07CA1
:100A0A00004464544C440000087700000000007F52
:100A1A0000000000770800000010081008001414F5
:0B0A2A001414141400E7A7FFA0E00064
:100A35002564292025730025642F2564002564007D
:100A4500256320292025730025632F2563004D414B
:100A5500583A202564004D494E3A202564004E4FF2
:0C0A6500573A20256400534156454400D8
:030A7100256400F9
:100A74002F923F924F926F927F928F929F92AF925A
:100A8400BF92CF92DF92EF92FF920F931F93CF9377
:100A9400DF93CDB7DEB762970FB6F894DEBF0FBE13
:100AA400CDBF6C013A01862E7901FC0110861782B4
:100AB400848181FFE7C19E012F5F3F4F3D872C87D3
:100AC400C901A0E8888B998BAA8B9FE3992EF30127
:100AD400849187FC8081882309F4D0C1482D930137
:100AE4002F5F3F4F4F4F853219F03901842E0AC0D2
:100AF400F901849147FD808192E0690E711C811C8B
:100B0400853229F4B60190E00E946021E0CFB12C37
:100B140000E010E01032A0F48B3269F030F480323F
:100B240059F0833269F410612CC08D3239F080336E
:100B340039F4116026C01260146023C0186021C00B
:100B440017FD29C090ED980F9A3078F416FF06C06F
:100B5400AAE0BA9E900D1124B92E13C0EAE00E9FAC
:100B6400900D1124092F10620CC08E3221F416FD51
:100B740085C1106406C08C3611F4106802C0883632
:100B840051F4F301849187FC8081FFEF6F1A7F0A8F
:100B94008F0A8111BFCF982F9F7D9554933028F4ED
:100BA40024E0E20EF11C99820FC0833631F08337C2
:100BB40091F0833509F063C027C0F70180818983F0
:100BC40097012E5F3F4F7901288839884A88AA24E3
:100BD400A394B12C17C0A7014D5F5F4F5F874E8769
:100BE400F70120803180428016FF03C04B2D50E076
:100BF40002C04FEF5FEF842DB1010E949D295C017B
:100C0400EE84FF841F7718C097012D5F3F4F3F8705
:100C14002E87F70120803180428016FF03C04B2DC0
:100C240050E002C04FEF5FEF842DB1010E949D2977
:100C34005C011068EE84FF8413FD1DC0802F90E0DA
:100C4400A816B906C0F4B60180E290E00E946021C3
:100C54000150F4CFF101849147FC8081FFEF2F1AFA
:100C64003F0A4F0AB60190E00E9460210111015031
:100C740021E0A21AB108A114B10461F7F5C08436C9
:100C840011F0893671F5F70117FF08C06081718191
:100C94008281938197012C5F3F4F09C060817181EC
:100CA400072E000C880B990B97012E5F3F4F79019B
:100CB4001F76312E97FF0AC09095809570956195A7
:100CC4007F4F8F4F9F4F312F3068332E2AE030E013
:100CD400AE014F5F5F4F0E94041D482E4C85441A9D
:100CE4004AC0853729F41F7EA12E2AE030E025C0B2
:100CF400512F597FA52E8F36C1F018F4883579F01D
:100D0400BDC0803719F0883721F0B8C0852F8061C5
:100D1400A82EA4FE0DC09A2D9460A92E09C014FF1C
:100D24000AC0A52FA660AA2E06C028E030E005C0A0
:100D340020E130E002C020E132E0F701A7FE08C064
:100D44006081718182819381A7014C5F5F4F07C0ED
:100D54006081718180E090E0A7014E5F5F4F7A016E
:100D6400AE014F5F5F4F0E94041D482E5C85451AFB
:100D74008A2D8F77382E36FE0DC0932D9E7FA92E97
:100D84004B1458F434FE0BC032FC09C0A32DAE7EC4
:100D9400AA2E05C0142DA32C03C0142D01C01B2D95
:100DA400A4FE0EC0FE01E40DF11D8081803321F408
:100DB400EA2DE97EAE2E08C0A2FE05C01E5F04C067
:100DC4008A2D867809F01F5FA3FC11C0A0FE06C01F
:100DD400101788F4040DB02EB11A0EC0101760F469
:100DE400B60180E290E00E9460211F5FF7CF1017E8
:100DF40018F4011B02C0B42C00E0A4FE10C0B6011C
:100E040080E390E00E946021A2FE17C0A1FC03C011
:100E140088E790E002C088E590E0B6010CC08A2D16
:100E2400867859F0A1FE02C08BE201C080E2A7FCE3
:100E34008DE2B60190E00E9460214B1438F4B601B3
:100E440080E390E00E946021BA94F7CF4A94E1E0F5
:100E5400F0E0EC0FFD1FE40DF11D8081B60190E080
:100E64000E9460214110F2CF002309F430CEB60174
:100E740080E290E00E9460210150F6CFF601878164
:100E8400908502C08FEF9FEF62960FB6F894DEBF95
:100E94000FBECDBFDF91CF911F910F91FF90EF90C7
:100EA400DF90CF90BF90AF909F908F907F906F9086
:080EB4004F903F902F9008952C
:100EBC00CF92DF92EF920F931F9390914F06911167
:100ECC000EC08F3409F0DFC160E08091ED05909188
:100EDC00EE050E94172381E080934F0661C1853592
:100EEC00B1F52091EB053091EC05232B29F14091C4
:100EFC00E9055091EA052091520630E0F901EE0F18
:100F0C00FF1F220F331F220F331F220F331F2E0FF1
:100F1C003F1FE091EF05F091F005E20FF31F2681E2
:100F2C0037814217530708F062C04F5F5F4F5093F1
:100F3C00EA054093E9055BC0909152062091530657
:100F4C00921708F054C09F5F9093520650C084349F
:100F5C00A1F52091EB053091EC05232B29F1409163
:100F6C00E9055091EA052091520630E0F901EE0FA7
:100F7C00FF1F220F331F220F331F220F331F2E0F81
:100F8C003F1FE091EF05F091F005E20FF31F208574
:100F9C0031852417350708F06DC141505109509324
:100FAC00EA054093E90566C190915206992309F42C
:100FBC0061C19150909352065DC18234C1F480910D
:100FCC00EB059091EC05019731F41092EC05109221
:100FDC00EB0580E0D4C080915106811104C01092C1
:100FEC004F0682E0CCC00E94A82880E0C8C08F3495
:100FFC0009F045C18091520690E0FC01EE0FFF1FF5
:10100C00880F991F880F991F880F991F8E0F9F1F8C
:10101C00E091EF05F091F005E80FF91F838180FF57
:10102C0006C061E0848195810E941723B4C083FFC0
:10103C002EC08091EB059091EC05892BC1F4109298
:10104C00EA051092E9050480F581E02D309741F016
:10105C006FE077E280E009959093EA058093E905CB
:10106C0081E090E09093EC058093EB0594C00480B4
:10107C00F581E02D309731F06091E9057091EA052A
:10108C0081E009951092EC051092EB0584C08671F5
:10109C0009F481C08091EB059091EC05892BC1F48A
:1010AC001092EA051092E9050480F581E02D309745
:1010BC0041F06FE077E280E009959093EA05809328
:1010CC00E90581E090E09093EC058093EB0563C01B
:1010DC000480F581E02D309731F16091E905709134
:1010EC00EA0581E009958091520690E0FC01EE0F33
:1010FC00FF1F880F991F880F991F880F991F8E0F3C
:10110C009F1FE091EF05F091F005E80FF91F838127
:10111C0084FD05C06BE67AE080E00E94AA2084EF93
:10112C0091E00E94692B1092EC051092EB0533C0F4
:10113C008091EB059091EC05892B01F18091520681
:10114C0090E0FC01EE0FFF1F880F991F880F991F6D
:10115C00880F991F8E0F9F1FE091EF05F091F005FE
:10116C00E80FF91F0480F581E02D6FE077E280E055
:10117C0009959093EA058093E90585C080E082305B
:10118C0051F4E091F905F091FA050995E091F70514
:10119C00F091F805099580914F06882309F473C0E6
:1011AC008091EB059091EC05892B09F448C0809156
:1011BC00520690E0FC01EE0FFF1F880F991F880F5D
:1011CC00991F880F991F8E0F9F1FE091EF05F091CB
:1011DC00F005E80FF91F838181FF14C0C090AC05A6
:1011EC00D090AD05E090AE050091E9051091EA05AF
:1011FC0020853185468157816081718182810E9471
:10120C001E1241C082FF0CC04091F1055091F205B5
:10121C006081718182812091E9050E94CB1233C0DB
:10122C0083FF31C04091E9055091EA056091B20508
:10123C007091B3058091B4050E943D1A24C0409171
:10124C005206842F90E0FC01EE0FFF1F880F991FB0
:10125C00880F991F880F991F8E0F9F1FE091EF0524
:10126C00F091F005E80FF91F6081718182810E9475
:10127C00751309C0823509F45BCF80E080CF8235CD
:10128C0009F456CF88CF1F910F91EF90DF90CF903C
:02129C000895B3
:10129E00EF92FF920F93CF9380914606811114C067
:1012AE0081E08093460602E7E02E03E0F02E00E098
:1012BE0029E833E040E06EE973E080E00E943A17DF
:1012CE001092BA051092B90562E370E088EE93E0D1
:1012DE000E94BE1DC82F882309F487C187E295E0BE
:1012EE009093D4058093D30581E080934906C5354C
:1012FE0089F42091B9053091BA058091450690E0A8
:10130E0028173907A4F42F5F3F4F3093BA05209367
:10131E00B9050DC0C43459F48091B9059091BA0540
:10132E00009729F001979093BA058093B9058091A3
:10133E004606813079F4CF3409F0CFC082E0809335
:10134E0046061092BA051092B90583E080934506C1
:10135E00C0E009C0823009F070C08091B90590914B
:10136E00BA05892B69F404EBE02E03E0F02E00E0C1
:10137E0024EC33E040E062ED73E080E00E943A1727
:10138E008091B9059091BA05019769F404EBE02EAE
:10139E0003E0F02E00E022EE33E040E062ED73E079
:1013AE0080E00E943A178091B9059091BA05029794
:1013BE0069F404EBE02E03E0F02E00E021EF33E0C1
:1013CE0040E062ED73E080E00E943A178091B9052B
:1013DE009091BA05039769F404EBE02E03E0F02E2A
:1013EE0000E020E034E040E062ED73E080E00E9437
:1013FE003A17CF3409F583E08093460660E174E036
:10140E0080E00E94AA2088ED93E00E94882E84EF4F
:10141E0091E00E94692B88ED93E00E94832E10923A
:10142E00BA051092B90581E0809345068091460673
:10143E00833009F0D1C00DC0C0E0809146068330E4
:10144E0009F04EC08091B9059091BA05892B79F4B7
:10145E0001C0C0E004EBE02E03E0F02E00E029E135
:10146E0034E040E060E274E080E00E943A17809140
:10147E00B9059091BA05019769F404EBE02E03E0EB
:10148E00F02E00E022E334E040E060E274E080E021
:10149E000E943A17CF3419F584E08093460660E136
:1014AE0074E080E00E94AA2088ED93E00E94882ECE
:1014BE0084EF91E00E94692B88ED93E00E94832EC9
:1014CE001092BA051092B90582E08093450680917C
:1014DE004606843009F085C00FC0C0E001C0C0E0F0
:1014EE0080914606843009F05FC08091B9059091D5
:1014FE00BA05892B89F403C0C0E001C0C0E004EB3B
:10150E00E02E03E0F02E00E02AE334E040E069E450
:10151E0074E080E00E943A178091B9059091BA0567
:10152E00019769F404EBE02E03E0F02E00E02AE5CB
:10153E0034E040E069E474E080E00E943A17809164
:10154E00B9059091BA05029769F404EBE02E03E019
:10155E00F02E00E024E634E040E069E474E080E040
:10156E000E943A17CF3401F585E08093460660E17C
:10157E0074E080E00E94AA2088ED93E00E94882EFD
:10158E0084EF91E00E94692B88ED93E00E94832EF8
:10159E001092BA051092B90581E0809345068091AC
:1015AE004606853011F50AC0809146068530E9F46D
:1015BE008091B9059091BA05892BB9F401EEE02E10
:1015CE0002E0F02E00E025E734E040E069E874E048
:1015DE0080E00E943A1709C080914606843021F7B8
:1015EE008DCF80914606853049F380E0CF910F91E3
:0615FE00FF90EF9008953C
:101604002F923F924F925F926F927F928F929F920E
:10161400AF92BF92CF92DF92EF92FF920F931F93FC
:10162400CF93DF93CDB7DEB728970FB6F894DEBF1C
:101634000FBECDBF9E838D837A83698380914905D4
:10164400982F977009F0ABC0E5E4F5E053818695D7
:1016540086958695242F30E09581291B310990E0E9
:10166400589FB001599F700D1124269F3001279F68
:10167400700C369F700C112498878F83892B09F482
:1016840024C1252F30E03C832B83C301ED81FE81EF
:101694008E1B9F0B9C012C5F3F4F3901A980BA80A0
:1016A400212C312C4B805C804E0E5F1E0F2EF5E4F6
:1016B400CF2EF5E0DF2EF02D88248394912C68C082
:1016C400F60180819181A2819301200F311F820F45
:1016D400931FA11D37FDAA95FC01E490A7FDE080AE
:1016E400F12C1A821982C401098002C0880F991F43
:1016F4000A94E2F78E219F21892BB1F0F6018781AC
:10170400811109C041E069817A816A0D7B1DC8019C
:101714000E94A71A1EC040E069817A816A0D7B1D70
:10172400C8010E94A71A15C0F6018781811109C05A
:1017340040E069817A816A0D7B1DC8010E94A71A65
:1017440008C041E069817A816A0D7B1DC8010E944D
:10175400A71A29813A812F5F3F4F3A832983283082
:10176400310509F60F5F1F4F4016510609F0A8CF47
:101774003FEF231A330A88E0A80EB11CEB81FC81E9
:101784006E0E7F1E2F8138852215330509F49DC006
:101794008B819C81892B61F30D811E8191CF2090D7
:1017A4004805E5E4F5E0242F30E09581291B310953
:1017B400289EA0011124552314F4495F5F4F5595C9
:1017C40047955595479555954795249FB001259F75
:1017D400700D349F700D11246C5F7F4F2081318117
:1017E4004281260F371F411D77FD4A95F901049167
:1017F40047FD008110E0312C2114310409F465C047
:10180400ED81FE81E20DF31DFC83EB838D809E80D0
:101814000F2EF7E06F2E712CF02D482E512CC9801D
:10182400DA80C40CD51CEE24E394F12C0F2EF5E4DD
:10183400AF2EF5E0BF2EF02D40C0C7010D8002C0D1
:10184400880F991F0A94E2F780239123892B81F052
:10185400F5018781811106C041E0B101C4010E94F4
:10186400A71A15C040E0B101C4010E94A71A0FC015
:10187400F5018781811106C040E0B101C4010E94D5
:10188400A71A05C041E0B101C4010E94A71A2D8125
:101894003E81215031093E832D833FEF231A330AC1
:1018A400C214D30451F6641875088FEF881A980A85
:1018B400EB81FC81E815F90541F041145104A9F3C9
:1018C40029803A807E826D82B8CF28960FB6F8942C
:1018D400DEBF0FBECDBFDF91CF911F910F91FF905F
:1018E400EF90DF90CF90BF90AF909F908F907F90BC
:0C18F4006F905F904F903F902F900895F0
:10190000CF92DF92EF92CF93DF93CDB7DEB7699797
:101910000FB6F894DEBF0FBECDBF9B01482FFB0171
:10192000849147FD8081880F8056982F990F990FD9
:10193000890F6901E42E5FEFC51AD50AE50AF601A1
:101940009491E7FC90819053890F823010F080E0F1
:1019500007C16901E42E88E289831F9281E08F9399
:1019600081E693E0A0E0AF939F938F93CE01029620
:101970009F938F930E947826AE2DC6010296A11DDB
:10198000FC018491A7FD80818C834E2D96012D5FF3
:101990003F4F4F4FF901949147FD90819D834E2D0C
:1019A00096012C5F3F4F4F4FF901249147FD208155
:1019B0002E830FB6F894DEBF0FBECDBF893439F445
:1019C000943409F0AAC02E3409F0A7C0AAC0873405
:1019D000C1F49F3409F0A1C02E3409F09EC04E2DF1
:1019E00096012B5F3F4F4F4FF901949147FD908136
:1019F000903309F496C081E0913309F0AEC080E0E5
:101A0000ACC08035B1F49D3409F087C0233509F0AE
:101A100084C04E2D96012B5F3F4F4F4FF9018491AB
:101A200047FD8081813409F47CC08F3409F075C092
:101A30007CC08534C1F49D3409F06FC0273409F0AF
:101A40006CC04E2D96012B5F3F4F4F4FF901949183
:101A500047FD9081903309F464C081E0913309F02F
:101A60007CC080E07AC0843571F59F3499F42134CC
:101A700009F053C04E2D96012B5F3F4F4F4FF90198
:101A8000849147FD8081813409F44BC08F3409F083
:101A900044C04DC0953409F040C02E3409F03DC01B
:101AA0004E2D96012B5F3F4F4F4FF901949147FD0B
:101AB00090818FEB890F8230A0F181E09F3409F093
:101AC0004CC080E04AC0833441F59E3431F5243562
:101AD00021F5AE2DC6010696A11DFC015491A7FD6E
:101AE00050814E2D96012B5F3F4F4F4FF90184914E
:101AF00047FD8081833449F48FEB850F823088F075
:101B000081E051112AC080E028C08F3431F48FEB7E
:101B1000850F823070F0552371F081E38F8387E069
:101B20000BC080E38F8387E007C086E005C086E0B6
:101B300003C086E001C086E0BE016F5F7F4FFB01FE
:101B4000E80FF11D99E290838F5FFB01E80FF11D13
:101B5000108280E80E947F2403C0882311F3DDCF28
:101B600069960FB6F894DEBF0FBECDBFDF91CF915F
:081B7000EF90DF90CF90089583
:101B78008F929F92AF92BF92CF92DF92EF92FF9295
:101B88000F931F93CF9320912706309128068091B9
:101B9800250690912606821B930B7C0122F4EE24E5
:101BA800FF24E81AF90A8091210690912206821BE7
:101BB800930B9C0122F422273327281B390BA8EE0C
:101BC800B3E00E94502D870120E030E0A901980180
:101BD8000E94012726393105E8F12B34310508F434
:101BE80040C0C0915906285C3109A9E8B8E80E94AC
:101BF800502D929582958F7089279F708927A8E22A
:101C0800B0E0A81BB1092C2F30E00E943A2E28E240
:101C180030E040E050E00E940127CA01B9010E946B
:101C2800E7204B015C016C2F70E080E090E00E949F
:101C3800E9209B01AC01C501B4010E94C92E181608
:101C4800C4F46C2F70E080E090E00E94E7204B0124
:101C58005C010FC0812C912C6894AA24A6F8BA2C98
:101C680008C00F2E812C912CF0E8AF2EFFE3BF2E79
:101C7800F02D8EE5E81681E0F80628F4812C912CE9
:101C880054016894B6F860915A0670E080E090E0DC
:101C98000E94E7209B01AC01C501B4010E941E2EE1
:101CA8004B015C012091A0053091A1054091A2054E
:101CB8005091A3050E94EE2E2091A8053091A90508
:101CC8004091AA055091AB050E941F2E6B017C0123
:101CD8006093A8057093A9058093AA059093AB0516
:101CE8002091A4053091A5054091A6055091A7051E
:101CF800C501B4010E94EE2EA70196010E941F2E75
:101D08006B017C01C09157066C2F70E080E090E079
:101D18000E94E9209B01AC01C701B6010E94C92EAF
:101D2800181684F46C2F70E080E090E00E94E720A1
:101D38006B017C016093A8057093A9058093AA059F
:101D48009093AB05C09158066C2F70E080E090E04E
:101D58000E94E9209B01AC01C701B6010E94C42E74
:101D6800882384F46C2F70E080E090E00E94E720E4
:101D78006B017C016093A8057093A9058093AA055F
:101D88009093AB05C701B6010E944823862FCF91D7
:101D98001F910F91FF90EF90DF90CF90BF90AF9081
:061DA8009F908F9008954A
:101DAE0065E084E40E94552444E6682F89EC95E0B2
:101DBE000E94812A882391F0823009F0D0C062E817
:101DCE0071E080E00E947F2487E194E00E94621D12
:101DDE0005C062E971E080E00E947F2466E084E441
:101DEE000E94552444E6682F87EC95E00E94812AD4
:101DFE00882391F0823009F0B6C064EA71E080E089
:101E0E000E947F2487EE9BE00E94621D05C064EB5A
:101E1E0071E080E00E947F2460E087E40E945524F8
:101E2E0044E6682F85EC95E00E94812A882379F09C
:101E3E00823031F466EC71E080E00E947F2407C0AE
:101E4E00813029F468ED71E080E00E947F2461E02A
:101E5E0087E40E94552444E6682F83EC95E00E94A7
:101E6E00812A882379F0823031F46CEE71E080E0C3
:101E7E000E947F2407C0813029F46EEF71E080E06C
:101E8E000E947F2460E083E40E94552444E6682F7C
:101E9E0081EC95E00E94812A882379F0823031F41A
:101EAE0062E172E080E00E947F2407C0813029F455
:101EBE0064E272E080E00E947F2461E083E40E948D
:101ECE00552444E6682F8FEB95E00E94812A8823E3
:101EDE0079F0823031F468E372E080E00E947F2472
:101EEE0007C0813029F46AE472E080E00E947F240A
:101EFE0066E085E40E94552444E6682F8DEB95E05C
:101F0E000E94812A882379F0823031F46EE572E0E6
:101F1E0080E00E947F2407C0813029F46CE672E0D5
:101F2E0080E00E947F2467E085E40E94552444E609
:101F3E00682F8BEB95E00E94812A8823C1F08230B6
:101F4E0031F46CE772E080E00E947F2410C0813093
:101F5E0071F46AE872E080E00E947F2408C081304C
:101F6E0009F03CCF36CF813009F056CF50CF80E00C
:021F7E000895C4
:101F8000CF93DF938091D5059091D6050E94D21909
:101F9000C82F882309F4C2C0813039F46DEA74E097
:101FA00080E00E946720D0E031C08230F9F4809157
:101FB0004406882321F0109244060E94D329809180
:101FC0004306882309F49EC00E94AB2E2091B705DA
:101FD0003091B8058217930709F094C08091B50538
:101FE0009091B6050E94621DD1E010C0833069F463
:101FF00080914206882329F069EB74E080E00E941A
:10200000672010924206D0E053C0D0E081E0809378
:102010004206C43031F461EC74E080E00E94672035
:102020006AC0C53009F044C06AEC74E080E00E94E8
:1020300067208091430681110CC00E94AB2E9093C3
:10204000B6058093B5050E94B02E9093B805809395
:10205000B705809143068F5F80934306833041F438
:1020600061ED74E080E00E9467201092430643C057
:102070000E94AB2E2091B5053091B60582179307CB
:1020800039F48091B7059091B8050E94621D35C062
:102090000E94AB2E2091B7053091B80582179307A7
:1020A00061F58091B5059091B6050E94621D25C02D
:1020B000C63009F50E94AB2E8F3F9740E1F46EEDDC
:1020C00074E080E00E94672081E08093440688EEFF
:1020D00093E00E94A12E80E69AEE0E94A62E8FEF3A
:1020E00097E00E94621D20E030E040E45FE3CA0117
:1020F000B9010E941F2DDD2389F088EE93E00E9434
:10210000692B0CC067EE74E080E00E94672010929B
:10211000430681E080934206D0E083CF80E0DF91E8
:04212000CF910895BE
:1021240042E061E070E088E795E00E94DA1F41E058
:1021340064E670E088E795E00E94DA1F882349F09E
:102144000E94F22E833029F448E463E087E40E947D
:102154001B1841E064E670E088E795E00E94DA1F0E
:10216400882349F00E94F22E833029F44CE463E082
:1021740087E40E941B1841E064E670E088E795E07C
:102184000E94DA1F882349F00E94F22E833029F43A
:1021940048E463E087E40E941B1841E064E670E0D1
:1021A40088E795E00E94DA1F882349F00E94F22E06
:1021B400833029F44CE463E087E40E941B1841E077
:1021C40064E670E088E795E00E94DA1F882349F00E
:1021D4000E94F22E833029F448E463E087E40E94ED
:1021E4001B1841E064E670E088E795E00E94DA1F7E
:1021F400882349F00E94F22E833029F44CE463E0F2
:1022040087E40E941B1841E064E670E088E795E0EB
:102214000E94DA1F882349F00E94F22E833029F4A9
:1022240048E463E087E40E941B1841E064E670E040
:1022340088E795E00E94DA1F882349F00E94F22E75
:10224400833029F44CE463E087E40E941B1841E0E6
:1022540064E670E088E795E00E94DA1F882349F07D
:102264000E94F22E833029F448E463E087E40E945C
:102274001B1841E064E670E088E795E00E94DA1FED
:10228400882349F00E94F22E833029F44CE463E061
:1022940087E40E941B1841E061E070E088E795E064
:1022A4000E94DA1F91E0811101C090E0892F089506
:1022B4000F930CE427E042E46FE484E40E94AD2A27
:1022C40022E041E46FE484E40E94AD2A08E425E0BE
:1022D40044E469E484E40E94AD2A26E044E469E429
:1022E40084E40E94AD2A20E047E469E484E40E9487
:1022F400AD2A21E047E469E484E40E94AD2A20E0A9
:1023040043E469E484E40E94AD2A21E043E469E4FF
:1023140084E40E94AD2A26E045E469E484E40E9452
:10232400AD2A27E045E469E484E40E94AD2A20E074
:1023340046E469E484E40E94AD2A22E045E469E4C9
:1023440084E40E94AD2A25E045E469E484E40E9423
:10235400AD2A0CE425E046E469E481E40E94AD2A58
:1023640026E046E469E481E40E94AD2A27E046E4DD
:1023740069E481E40E94AD2A22E043E46FE484E44A
:102384000E94AD2A23E043E46FE484E40E94AD2A72
:1023940024E043E46FE484E40E94AD2A23E041E4B2
:1023A4006FE484E40E94AD2A21E046E46FE484E40F
:1023B4000E94AD2A26E043E46FE484E40E94AD2A3F
:1023C40023E045E46FE484E40E94AD2A24E045E47C
:1023D4006FE484E40E94AD2A08E426E041E46FE45B
:1023E40084E40E94AD2A0CE425E042E46FE484E432
:1023F4000E94AD2A26E042E46FE484E40E94AD2A00
:1024040021E044E469E484E40E94AD2A08E420E085
:1024140044E469E484E40E94AD2A0CE423E047E444
:102424006FE484E40E94AD2A24E047E46FE484E48A
:082434000E94AD2A0F910895EA
:10243C005F926F927F928F929F92AF92BF92CF9248
:10244C00DF92EF92FF920F931F93CF93DF93CDB751
:10245C00DEB7A1970FB6F894DEBF0FBECDBF3B0120
:10246C00882E942E552EB22EA32ECF8ED8A2E9A252
:10247C00E091F905F091FA05099525E1CE01019657
:10248C007C01AC01882DB3010E94A61C370190E899
:10249C00892EE091F305F091F405482D930160E04D
:1024AC0070E080E090E009955F929F9283E59AE05E
:1024BC00A0E0AF939F938F93FF92EF920E947826A8
:1024CC00E091F305F091F405482D93016CE070E078
:1024DC0080E090E00995AF92BF928BE59AE0A0E086
:1024EC00AF939F938F93FF92EF920E947826E09187
:1024FC00F305F091F405482D930168E170E080E05C
:10250C0090E009951F930F9383E69AE0A0E0AF93B8
:10251C009F938F93FF92EF920E947826E091F305A0
:10252C00F091F405482D930168E170E080E590E0AE
:10253C000995E091F305F091F4052F8D38A149A18F
:10254C006CE070E080E590E00995E091F705F09182
:10255C00F80509950FB6F894DEBF0FBECDBFA19656
:10256C000FB6F894DEBF0FBECDBFDF91CF911F9198
:10257C000F91FF90EF90DF90CF90BF90AF909F9016
:0A258C008F907F906F905F9008958C
:102596006F927F928F92CF92DF92EF92FF920F937C
:1025A6001F93CF93DF93CDB7DEB76E970FB6F89430
:1025B600DEBF0FBECDBF3B01882E6A01F22EE09131
:1025C600F905F091FA05099525E18E010F5F1F4F78
:1025D600A801882DB3010E94A61C380180E8882E28
:1025E600E091F305F091F405482D930160E070E069
:1025F60080E090E009952F2D30E0790191E6E90E13
:10260600F11CF901EE0FFF1FE20FF31FEC0DFD1D8C
:1026160082818F9381818F9380818F93FF92EF9236
:1026260085E49AE0A0E0AF939F938F931F930F9357
:102636000E947826E091F305F091F405482D930168
:102646006CE070E080E090E009958091520690E0A1
:10265600FC01EE0FFF1F880F991F880F991F880F27
:10266600991F8E0F9F1FE091EF05F091F005E80F7F
:10267600F91F868197818F599F4F9F938F93FF9262
:10268600EF928DE49AE0A0E0AF939F938F931F9310
:102696000F930E947826E091F305F091F405482DFA
:1026A600930168E170E089E690E00995E091F7050D
:1026B600F091F80509950FB6F894DEBF0FBECDBFB1
:1026C6006E960FB6F894DEBF0FBECDBFDF91CF91E9
:1026D6001F910F91FF90EF90DF90CF908F907F909A
:0426E6006F90089554
:1026EA006F927F928F92AF92BF92CF92DF92EF92C8
:1026FA00FF920F931F93CF93DF93CDB7DEB76E97F9
:10270A000FB6F894DEBF0FBECDBFC62EB72EA82EC9
:10271A00D42EE091F905F091FA0509956091AF057B
:10272A007091B0058091B10525E1AE014F5F5F4F11
:10273A007A010E94A61C370150E8852EE091F30524
:10274A00F091F405482D930160E070E080E090E09C
:10275A0009950D2D10E00F5F1F4FAF92BF92CF92D8
:10276A001F930F9385E39AE0A0E0AF939F938F9313
:10277A00FF92EF920E947826E091F305F091F4051A
:10278A00482D93016EE070E080E090E00995809119
:10279A00530690E001969F938F931F930F938CE3B8
:1027AA009AE0A0E0AF939F938F93FF92EF920E94DB
:1027BA0078260FB6F894DEBF0FBECDBF98E09D1500
:1027CA0060F4E091F305F091F405482D930168E176
:1027DA0070E08FE590E009950BC0E091F305F09168
:1027EA00F405482D930168E170E085E690E00995CB
:1027FA00E091F705F091F80509956E960FB6F894F1
:10280A00DEBF0FBECDBFDF91CF911F910F91FF9019
:10281A00EF90DF90CF90BF90AF908F907F906F90A6
:02282A0008950F
:10282C008F929F92AF92BF92CF92DF92EF92FF92D4
:10283C001F93CF93DF93C8E9D5E00F2EFDE3EF2E66
:10284C00F5E0FF2EF02D0F2EFCE9CF2EF5E0DF2E5C
:10285C00F02D10E05E018881882309F460C0F70137
:10286C0080819181009721F001979183808357C0DB
:10287C00F6018081811130C011110AC04CE464E072
:10288C0083E40E941B18F6018081813049F145C018
:10289C00113051F44CE463E083E40E941B18F60100
:1028AC008081813029F139C0123051F44CE462E05E
:1028BC0083E40E941B18F6018081813009F12DC040
:1028CC00133059F54CE463E081E40E941B18F601C7
:1028DC0080818130E9F021C08130F9F4111106C0FA
:1028EC0048E464E083E40E941B1817C0113031F4F3
:1028FC0048E463E083E40E941B180FC0123031F4EB
:10290C0048E462E083E40E941B1807C0133029F4EA
:10291C0048E463E081E40E941B18F50110821F5FFC
:10292C002196F2E0EF0EF11C8FEFC81AD80A143082
:10293C0009F090CFDF91CF911F91FF90EF90DF9036
:0C294C00CF90BF90AF909F908F900895A7
:10295800CF9361E070E08FEC95E00E94192B8823FB
:1029680009F480C060E086E40E94552420E04AE033
:10297800682F84E995E00E94D2238823E9F081300A
:1029880069F484E995E00E94D62E8E35914009F0CD
:102998006BC08FE40E947625C1E013C0823071F4C9
:1029A80084E995E00E94D62E8E35914048F482E461
:1029B8000E947625C1E005C0C0E003C0C0E001C0A8
:1029C800C0E065E085E40E94552420E04AE0682FD5
:1029D80080E995E00E94D2238823D9F0813061F400
:1029E80080E995E00E94D62E8F35914090F085E5DC
:1029F8000E947625C1E00DC0823059F480E995E047
:102A08000E94D62E8E35914020F485E50E947625C9
:102A1800C1E062E085E40E94552420E04AE0682F86
:102A28008CE895E00E94D223882301F1813061F47B
:102A38008CE895E00E94D62E8F359140B8F084E45A
:102A48000E947625C1E012C0823081F48CE895E0BE
:102A58000E94D62E8E35914048F484E40E94762553
:102A6800C1E004C0C0E002C0C0E0ABCF8C2FCF9162
:022A78000895BF
:102A7A0020E03FE141E050E069E080EA93E00E9413
:102A8A00ED2D26E03FE240E050E060E087EA93E087
:102A9A000E94ED2D2FEF33E240E050E060E08EEA35
:102AAA0093E00E94ED2D22ED3EE240E050E069E025
:102ABA0085EB93E00E94ED2D2EEC3EE241E050E0E2
:102ACA0069E08CEB93E00E94ED2D27ED3EE041E0BA
:102ADA0050E069E083EC93E00E94ED2D24E437E2B4
:102AEA0042E350E069E08AEC93E00E94ED2D2CEE7F
:102AFA003CE241E050E069E081ED93E00E94ED2D77
:102B0A0020EC3FE04AE050E069E08FED93E00E945C
:102B1A00ED2D2FE439E041E050E069E088ED93E0E3
:102B2A000E94ED2D22E930E141E050E061E084EFBE
:102B3A0093E00E94ED2D2CE931E241E050E060E0A3
:102B4A0086EE93E00E94ED2D27ED31E241E050E060
:102B5A0060E08DEE93E00E94ED2D60E086E40E9435
:102B6A005524882329F088ED93E00E94882E04C01A
:102B7A0081ED93E00E94882E81E00E949B260895B1
:102B8A006F927F928F92AF92BF92CF92EF92FF9203
:102B9A000F931F93CF93DF93CDB7DEB7EC970FB6A2
:102BAA00F894DEBF0FBECDBF811158C084E690E015
:102BBA000E94692B0E94412E8091DC058F9380919F
:102BCA00DB058F9381EC92E0A0E0AF939F938F9304
:102BDA008E01015E1F4F1F930F930E9478265801A2
:102BEA0080E8C82E25E1CE0101967C01AC018C2D2E
:102BFA00B5010E94A61C370190E8892E482D930141
:102C0A0068E070E080E090E00E944D2E8091D60549
:102C1A008F938091D5058F938EEC92E0A0E0AF93CD
:102C2A009F938F931F930F930E94782625E1A70104
:102C3A008C2DB5010E94A61C482D930164E170E019
:102C4A0080E090E00E944D2E0E94472E82E50E946D
:102C5A0076250FB6F894DEBF0FBECDBF80E090E0B8
:102C6A00EC960FB6F894DEBF0FBECDBFDF91CF91C1
:102C7A001F910F91FF90EF90CF90BF90AF908F90E0
:062C8A007F906F90089599
:102C90006F927F928F92AF92BF92CF92EF92FF92FC
:102CA0000F931F93CF93DF93CDB7DEB7EC970FB69B
:102CB000F894DEBF0FBECDBF811154C084E690E012
:102CC0000E94692B0E94412E0E94171E9F938F9392
:102CD00089EA92E0A0E0AF939F938F938E01015E0B
:102CE0001F4F1F930F930E947826580180E8C82E2B
:102CF00025E1CE0101967C01AC018C2DB5010E942D
:102D0000A61C370190E8892E482D930168E070E0F9
:102D100080E090E00E944D2E0E94651E9F938F934D
:102D200082EB92E0A0E0AF939F938F931F930F935A
:102D30000E94782625E1A7018C2DB5010E94A61CD2
:102D4000482D930164E170E080E090E00E944D2EF8
:102D50000E94472E82E50E9476250FB6F894DEBFCA
:102D60000FBECDBF80E090E0EC960FB6F894DEBFCA
:102D70000FBECDBFDF91CF911F910F91FF90EF90CC
:0E2D8000CF90BF90AF908F907F906F9008958E
:102D8E00CF93DF93C82FD0E0FE01E856FA4F91E0C3
:102D9E009083FE01EE0FFF1FE35CFA4F94E6699FEE
:102DAE00B001112471836083FE01E456FA4F9081C5
:102DBE00911135C081110CC048E464E083E40E9497
:102DCE001B18C456DA4F8881813009F049C02BC0D8
:102DDE00813059F448E463E083E40E941B18C45622
:102DEE00DA4F88818130E1F526C0823059F448E40B
:102DFE0062E083E40E941B18C456DA4F888181304A
:102E0E0079F521C0833061F548E463E081E40E94E6
:102E1E001B18C456DA4F8881813011F51CC09130D1
:102E2E00F9F4811106C04CE464E083E40E941B189F
:102E3E0017C0813031F44CE463E083E40E941B1828
:102E4E000FC0823031F44CE462E083E40E941B1820
:102E5E0007C0833029F44CE463E081E40E941B1820
:062E6E00DF91CF910895F1
:102E74006F927F928F92CF92DF92EF92FF920F9395
:102E84001F93CF93DF93CDB7DEB7EF970FB6F894C8
:102E9400DEBF0FBECDBF162FD72EC82E2DAF3EAF2F
:102EA4004FAF3701802E0E94412ECF92DF921F93A5
:102EB400CE0101966C019F938F930E9478268E0118
:102EC400015E1F4FB60180E825E1A8010E94A61CFF
:102ED400680190E8E92E4E2D960160E070E080E0F4
:102EE40090E00E944D2E25E1A8016DAD7EAD8FAD21
:102EF4000E94A61C4E2D96016CE070E080E090E0EC
:102F04000E944D2E25E1A801882DB3010E94A61C24
:102F14004E2D960168E170E080E090E00E944D2E15
:102F24000E94472E0F900F900F900F900F90EF96E6
:102F34000FB6F894DEBF0FBECDBFDF91CF911F91C6
:102F44000F91FF90EF90DF90CF908F907F906F90D4
:022F54000895DE
:102F56004F925F926F927F928F929F92AF92BF92A3
:102F6600FF920F931F93CF93DF93F12CC1E0D0E034
:102F760000E41FE1882E912CA12CB12C02C0C0E0E8
:102F8600D1E0F394C801BE010E94552B80E090E089
:102F96000E94E7209B01AC0160E070E080E89FE3BF
:102FA6000E94EA2E2B013C01C501B4010E94E920D2
:102FB600A30192010E94EA2E2B013C0120E030E0A1
:102FC6004FE753E40E94C42E88238CF0CC0FDD1FFC
:102FD600CC0FDD1FCC0FDD1FC11582E0D80779F2BB
:102FE600C11588E0D80769F6C0E0D4E0CACF15BCA1
:102FF600A301920160E070E08FE793E40E941E2E29
:103006000E944823609355060E94DE2EF5BC81E09F
:103016000E948D2DDF91CF911F910F91FF90BF9050
:10302600AF909F908F907F906F905F904F90089594
:1030360021E030E002C0220F331F6A95E2F74834E0
:1030460071F5813421F48BB3282B2BBB0895823480
:1030560021F488B3282B28BB0895833421F485B343
:10306600282B25BB0895843421F482B3282B22BB58
:103076000895853421F483B1282B23B90895863425
:1030860031F4E2E6F0E08081282B2083089587342E
:10309600E1F5E5E6F0E08081282B208308954C34A5
:1030A600A1F5813429F48BB3209528232BBB0895F1
:1030B600823429F488B32095282328BB08958334C5
:1030C60029F485B32095282325BB0895843429F453
:1030D60082B32095282322BB0895853429F483B131
:1030E6002095282323B90895863439F4E2E6F0E0E2
:1030F60080812095282320830895873431F4E5E6DE
:0C310600F0E080812095282320830895AC
:1031120021E030E002C0220F331F6A95E2F74F34FC
:1031220071F5813421F48AB3282B2ABB08958234A5
:1031320021F487B3282B27BB0895833421F484B369
:10314200282B24BB0895843421F481B3282B21BB7E
:103152000895853421F482B1282B22B9089586344A
:1031620031F4E1E6F0E08081282B20830895873452
:10317200E1F5E4E6F0E08081282B208308954934CC
:10318200A1F5813429F48AB3209528232ABB089516
:10319200823429F487B32095282327BB08958334EA
:1031A20029F484B32095282324BB0895843429F478
:1031B20081B32095282321BB0895853429F482B157
:1031C2002095282322B90895863439F4E1E6F0E007
:1031D20080812095282320830895873431F4E4E602
:0C31E200F0E080812095282320830895D0
:1031EE000E942C2E58F00E94252E40F029F45F3FAD
:1031FE0029F00C947D2E51110C94342E0C94012F29
:10320E000E94DF2668F39923B1F3552391F3951BA2
:10321E00550BBB27AA2762177307840738F09F5FE9
:10322E005F4F220F331F441FAA1FA9F335D00E2E56
:10323E003AF0E0E832D091505040E695001CCAF7C3
:10324E002BD0FE2F29D0660F771F881FBB1F261786
:10325E0037074807AB07B0E809F0BB0B802DBF015D
:10326E00FF2793585F4F3AF09E3F510578F00C942C
:10327E007D2E0C94342E5F3FE4F3983ED4F3869566
:10328E0077956795B795F7959F5FC9F7880F911D4D
:10329E009695879597F90895E1E0660F771F881F39
:1032AE00BB1F621773078407BA0720F0621B730BEC
:0C32BE00840BBA0BEE1F88F7E095089512
:1032CA006F927F928F929F92AF92BF92CF92DF922C
:1032DA00EF92FF920F931F93CF93DF93CDB7DEB791
:1032EA006E970FB6F894DEBF0FBECDBF5C014B01DF
:1032FA005F934F933F932F9381E79AE0A0E0AF93B8
:10330A009F938F938E010F5F1F4F1F930F930E94FE
:10331A007826B80180E80E94D92A0FB6F894DEBF51
:10332A000FBECDBF882321F168018150E82EF12C10
:10333A00FFEFEF1AFF0AE00EF11E0F2EF5E46F2ED3
:10334A00F5E07F2EF02DF301438198012C193D09F8
:10335A00429FC001439F900D1124F80141918F01B2
:10336A00B4018A0D9B1D0E94020B0E151F0559F709
:10337A006E960FB6F894DEBF0FBECDBFDF91CF9128
:10338A001F910F91FF90EF90DF90CF90BF90AF9079
:0A339A009F908F907F906F90089530
:1033A4000F931F93CF938C010E942A24C1E08111B3
:1033B40001C0C0E090915E06992381F1882319F041
:1033C40010925D0648C00E943226882369F081E08D
:1033D40080935D06809127069091280690931806A5
:1033E40080931706C2E037C02091190630911A065F
:1033F40080911B0690911C068217930720F410926B
:103404005D06C4E028C080911506909116068017C9
:10341400910720F510925D06C5E01DC080915D0600
:10342400882321F18091210690912206209117068C
:1034340030911806821B930B9C0122F42227332718
:10344400281B390B80911D0690911E068217930745
:1034540068F4C6E00BC00E946B2E08C00E94BC0D2D
:10346400682F80915C060E94EA25C3E08C2FCF91DF
:063474001F910F91089565
:10347A00BF92CF92DF92EF92FF920F931F93CF9357
:10348A00DF93CDB7DEB7EC970FB6F894DEBF0FBE69
:10349A00CDBF6B01E82EF42EB52EE091F905F0911F
:1034AA00FA05099525E18E010F5F1F4FA8018E2DA0
:1034BA00B6010E94A61C680180E8E82EE091F30597
:1034CA00F091F4054E2D960160E070E080E090E006
:1034DA000995BF92FF9282E49AE0A0E0AF939F938E
:1034EA008F931F930F930E947826025E1F4F25E148
:1034FA00A8018E2DB6010E94A61C980140E8E09111
:10350A00F305F091F40560E170E080E090E0099540
:10351A00E091F705F091F80509950FB6F894DEBF2A
:10352A000FBECDBFEC960FB6F894DEBF0FBECDBF6F
:10353A00DF91CF911F910F91FF90EF90DF90CF9085
:04354A00BF90089591
:10354E008038910508F064C06032710508F060C0E3
:10355E00413021F008F14230F1F10895FB01F6956A
:10356E00E795F695E795F695E795F695FE2FEE27F6
:10357E00F795E7958E0F9F1FFC01E050FF4F677088
:10358E00772781E090E002C0880F991F6A95E2F7D5
:10359E009081892B80830895FB01F695E795F6952A
:1035AE00E795F695E795F695FE2FEE27F795E795B5
:1035BE008E0F9F1FFC01E050FF4F6770772781E051
:1035CE0090E002C0880F991F6A95E2F7809590816E
:1035DE00892380830895FB01F695E795F695E79587
:1035EE00F695E795F695FE2FEE27F795E7958E0F54
:1035FE009F1FFC01E050FF4F6770772781E090E03E
:10360E0002C0880F991F6A95E2F7908189278083FF
:02361E0008950D
:103620000E94252E38F00E942C2E20F0952311F0B8
:103630000C947D2E0C94012F11240C94342E0E9496
:10364000DF2670F3959FC1F3950F50E0551F629FE1
:10365000F001729FBB27F00DB11D639FAA27F00DEB
:10366000B11DAA1F649F6627B00DA11D661F829F12
:103670002227B00DA11D621F739FB00DA11D621FF7
:10368000839FA00D611D221F749F3327A00D611D14
:10369000231F849F600D211D822F762F6A2F1124F6
:1036A0009F5750409AF0F1F088234AF0EE0FFF1F29
:1036B000BB1F661F771F881F91505040A9F79E3F80
:1036C000510580F00C947D2E0C94342E5F3FE4F372
:1036D000983ED4F3869577956795B795F795E795D6
:1036E0009F5FC1F7FE2B880F911D9695879597F9DF
:0236F00008953B
:1036F2000E94252E38F00E942C2E20F039F49F3F94
:1037020019F426F40C94012F0EF4E095E7FB0C94C7
:103712007D2EE92F0E94DF2658F3BA17620773073E
:103722008407950720F079F4A6F50C94332E0EF455
:10373200E0950B2EBA2FA02D0B01B90190010C01BF
:10374200CA01A0011124FF27591B99F0593F50F4D7
:10375200503E68F11A16F040A22F232F342F44272F
:10376200585FF3CF469537952795A795F040539527
:10377200C9F77EF41F16BA0B620B730B840BBAF0F7
:103782009150A1F0FF0FBB1F661F771F881FC2F762
:103792000EC0BA0F621F731F841F48F48795779576
:1037A2006795B795F7959E3F08F0B0CF9395880F30
:0C37B20008F09927EE0F97958795089571
:1037BE009093E6058093E5057093E4056093E30529
:1037CE005093E2054093E1058EEA0E944A2885ED6A
:1037DE000E944A2880E80E944A2888EA0E944A28C5
:1037EE008FE10E944A2883ED0E944A2880E00E94C1
:1037FE004A2880E40E944A288DE80E944A2884E1E3
:10380E000E944A2880E20E944A2880E00E944A28AC
:10381E0081EA0E944A2888EC0E944A288AED0E947A
:10382E004A2882E00E944A2881E80E944A288FE8AE
:10383E000E944A2889ED0E944A2881EF0E944A2858
:10384E008BED0E944A2880E40E944A2884EA0E9456
:10385E004A2886EA0E944A288EE20E944A288FEA67
:10386E000E944A286AEE77E080E00E94A5230E941B
:08387E00822D0E94B31E089583
:10388600CF93DF93C82FD0E0FE01E456FA4F608352
:10389600611135C081110CC04CE464E083E40E94E0
:1038A6001B18C456DA4F8881813009F049C02BC0F5
:1038B600813059F44CE463E083E40E941B18C4563B
:1038C600DA4F88818130E1F526C0823059F44CE424
:1038D60062E083E40E941B18C456DA4F8881813067
:1038E60079F521C0833061F54CE463E081E40E9400
:1038F6001B18C456DA4F8881813011F51CC061301F
:10390600F9F4811106C048E464E083E40E941B18C0
:1039160017C0813031F448E463E083E40E941B1849
:103926000FC0823031F448E462E083E40E941B1841
:1039360007C0833029F448E463E081E40E941B1841
:06394600DF91CF9108950E
:10394C00DF92EF92FF920F931F93CF93DF93D62EBC
:10395C00E72EF82EEA01022F0E94D92A582F801741
:10396C0060F010E098014D2D5E2D6F2DCE010E9460
:10397C005526C00FD11F188239C0081B902F969561
:10398C00091B992369F0FE012FEF290F30E02F5FFF
:10399C003F4F2C0F3D1F40E241932E173F07E1F79D
:1039AC00552399F02D2D3E2D4F2D890FF901549152
:1039BC0047FD5081FE01E90FF11D50832F5F3F4FF2
:1039CC004F4F9F5F9813F2CF01C0892F002351F006
:1039DC00080F90E2FE01E80FF11D90838F5F8013BA
:1039EC00F9CF01C0082FC00FD11D1882DF91CF91E4
:0C39FC001F910F91FF90EF90DF90089555
:103A0800FA01AA27283051F1203181F1E8946F9307
:103A18006E7F6E5F7F4F8F4F9F4FAF4FB1E03ED0AD
:103A2800B4E03CD0670F781F891F9A1FA11D680F4B
:103A3800791F8A1F911DA11D6A0F711D811D911D7E
:103A4800A11D20D009F468943F912AE0269F1124F3
:103A58003019305D3193DEF6CF010895462F477057
:103A6800405D4193B3E00FD0C9F7F6CF462F4F70B2
:103A7800405D4A3318F0495D31FD4052419302D010
:103A8800A9F7EACFB4E0A6959795879577956795B6
:103A9800BA95C9F700976105710508959B01AC01B6
:103AA8000A2E06945795479537952795BA95C9F7DD
:0C3AB800620F731F841F951FA01D08954E
:103AC400CF93DF93EC010E942A24982F81114EC0DA
:103AD40080915E06811114C0209121063091220646
:103AE4002C1B3D0BA90122F444275527421B530BE1
:103AF40020911D0630911E064217530740F439C029
:103B04002091270630912806C217D30789F10E9415
:103B1400BC2D8091210690912206909326068093D5
:103B24002506D0932806C093270620915B06211111
:103B34000AC0C817D90718F410925C060FC081E0B8
:103B440080935C060BC0213049F4C817D90718F4D8
:103B540010925C0603C081E080935C0610921A0602
:103B64001092190681E080935E0603C080E001C0D4
:083B7400892FDF91CF91089524
:103B7C000F931F93CF93DF938C01EB0161E070E007
:103B8C008DEC95E00E94192B882309F445C060E068
:103B9C0086E40E94552420E04AE0682F88E895E0EE
:103BAC000E94D223813039F488E895E00E94D62E09
:103BBC008017910751F165E085E40E94552420E0BF
:103BCC004AE0682F84E895E00E94D223813039F4D2
:103BDC0084E895E00E94D62E8C179D07C1F062E018
:103BEC0085E40E94552420E04AE0682F80E895E0A7
:103BFC000E94D223813069F480E895E00E94D62E91
:103C0C00C817D90741F080E007C08FE405C085E5EF
:103C1C0003C080E001C084E4DF91CF911F910F912C
:023C2C000895F9
:103C2E001F93CF93DF93E0913106F0913206099501
:103C3E00E0912F06F09130068CE60995D1E08130A7
:103C4E0009F0D0E0E0912F06F09130068CE0099556
:103C5E00813009F4DF5FE0912906F0912A0609957B
:103C6E00E0913106F09132060995E0912F06F09120
:103C7E0030068DE60995813009F4DF5FE0912D065F
:103C8E00F0912E060995C82FE0912B06F0912C0687
:103C9E000995182FE0912906F0912A060995D11160
:103CAE0007C08C2F90E0982F8827810F911D02C09E
:0C3CBE008FEF9FEFDF91CF911F910895D1
:103CCA001F93CF93DF93E0913106F0913206099565
:103CDA00E0912F06F09130068CE60995D1E081300B
:103CEA0009F0D0E0E0912F06F09130068BE10995BA
:103CFA00813009F4DF5FE0912906F0912A060995DF
:103D0A00E0913106F09132060995E0912F06F09183
:103D1A0030068DE60995813009F4DF5FE0912D06C2
:103D2A00F0912E060995C82FE0912B06F0912C06EA
:103D3A000995182FE0912906F0912A060995D111C3
:103D4A0007C08C2F90E0982F8827810F911D02C001
:0C3D5A008FEF9FEFDF91CF911F91089534
:103D6600EF92FF920F931F93CF93DF9381E20E940E
:103D76004A2880E00E944A288FE70E944A2882E269
:103D86000E944A2880E00E944A2883E00E944A282E
:103D9600C0E0D1E00F2EF0E0EF2EF3E0FF2EF02D85
:103DA600E091E505F091E6050995E091E305F091CE
:103DB600E40588E70995E091E305F091E40580E4E0
:103DC60009958E01005F1F4FE091E305F091E40530
:103DD60089910995C017D107B9F7E091E105F091EE
:103DE600E2050995E8010E151F05D1F6DF91CF9181
:0A3DF6001F910F91FF90EF900895C8
:103E000042E061E070E08CE795E00E94DA1F41E05B
:103E100064E873E08CE795E00E94DA1F882349F09C
:103E20000E94F22E833029F448E467E082E40E9485
:103E30001B1841E064E670E08CE795E00E94DA1F11
:103E4000882329F10E94F22E833009F54CE467E0C3
:103E500082E40E941B188091DF059091E005909309
:103E6000DE058093DD051092E0051092DF050E94CB
:103E7000822D2091DD053091DE0540E050E060E0CC
:103E800070E080E090E00E9465190E94B31E80E01F
:023E9000089593
:103E920080914906882309F443C080914806811124
:103EA20019C081E0809348068BEC95E00E94D62DE4
:103EB200E091D305F091D4058081813031F448E45A
:103EC20062E081E40E941B1805C04CE462E081E4D8
:103ED2000E941B18E091D305F091D4056181728193
:103EE2008BEC95E00E94192B8823D1F010924806A2
:103EF200E091D305F091D405CF0103969093D405B8
:103F02008093D305838181110BC084819581892B94
:103F120039F44CE462E081E40E941B1810924906D5
:023F2200089500
:103F24008F929F92AF92BF92CF92DF92EF92FF92C5
:103F34000F931F93CF93DF938C015B01922ED32FAA
:103F4400C42F622F732F842F0E94D92AF82E88231E
:103F540011F1C92CDD2EEC2EC0E0D0E00F2EF5E4DB
:103F64008F2EF5E09F2EF02DF6014491E7FC408161
:103F7400F40123812C9FC0012D9F900D1124B501C4
:103F8400800F911F0E94020B2196FFEFCF1ADF0AC8
:103F9400EF0ACF1548F3DF91CF911F910F91FF9056
:103FA400EF90DF90CF90BF90AF909F908F90089547
:103FB400CF93DF93FC01433031F483818095928168
:103FC4008923828333C0413071F5838181110CC010
:103FD400928191112FC08091E7059091E80591831A
:103FE400808381E0838305C08F5F838392819111F5
:103FF40005C0828383E080934E061FC0891316C0D8
:10400400EF01CF010E94192B882349F08B81809501
:104014009A8189238A8382E080934E060EC081E0D0
:1040240080934E060AC0423009F4138210924E0661
:1040340080E003C081E08383E1CFDF91CF910895D5
:10404400EDE7F4E01382128215821482178216823D
:104054001186108613861286158614861786168690
:10406400118A108A138A128A158A148A178A168A60
:10407400118E108E81E090E0938F828F22E330E0E6
:10408400358F248F2EE531E0378F268F11A210A2B1
:1040940093A382A395A384A385E090E097A386A32A
:1040A40091A780A78FE090E095A784A78CE090E08B
:1040B40097A786A78AE090E091AB80AB93AB82ABE5
:0A40C4008AE590E095AB84AB089507
:1040CE00CF92DF92EF920F931F93CF93DF93CDB7E3
:1040DE00DEB76E970FB6F894DEBF0FBECDBF9B0155
:1040EE00482F80914F06811120C06901E42EE09186
:1040FE00F905F091FA05099525E18E010F5F1F4F25
:10410E00A8018E2DB6010E94A61C980140E8E091F0
:10411E00F305F091F4056EE070E080E090E0099513
:10412E00E091F705F091F80509956E960FB6F894A3
:10413E00DEBF0FBECDBFDF91CF911F910F91EF90DC
:06414E00DF90CF90089500
:10415400CF92DF92EF920F931F93CF93DF93CDB75C
:10416400DEB76E970FB6F894DEBF0FBECDBF6B01FE
:10417400E82EE091F905F091FA05099525E18E0103
:104184000F5F1F4FA8018E2DB6010E94A61C980137
:1041940040E8E091F305F091F4056EE070E080E012
:1041A40090E00995E091F705F091F80509956E9670
:1041B4000FB6F894DEBF0FBECDBFDF91CF911F9134
:0A41C4000F91EF90DF90CF90089567
:1041CE00E89409C097FB3EF49095809570956195A3
:1041DE007F4F8F4F9F4F9923A9F0F92F96E9BB2759
:1041EE009395F695879577956795B795F111F8CFD5
:1041FE00FAF4BB0F11F460FF1BC06F5F7F4F8F4F40
:10420E009F4F16C0882311F096E911C0772321F035
:10421E009EE8872F762F05C0662371F096E8862FCD
:10422E0070E060E02AF09A95660F771F881FDAF724
:0A423E00880F9695879597F908956B
:104248000E94862767E97AE281E090E00E946B2D60
:104258004AE658E260E875E280E090E00E945F2D4F
:1042680083E297E20E94412D60E971E080E090E0EE
:104278000E94B32D0E949C2E81E00E94592E60E07E
:1042880081E00E94532A80E00E94412B80E00E9436
:104298002D2B0E94652E0E945F2E60E081E00E9417
:1042A8000E2D80E00E94EB2B80E00E94D92B0E940B
:0842B800E62E0E94E22E08959B
:1042C0000F931F93CF93DF93FB01248121FD03C044
:1042D0008FEF9FEF2CC022FF16C0478150852581AC
:1042E00036814217530744F4A081B1819D012F5FAD
:1042F0003F4F318320838C93278130852F5F3F4F41
:104300003087278314C08B01EC01FB010184F28507
:10431000E02D0995892BE1F6D80117968D919C9196
:104320001897019618969C938E931797CE01DF915C
:08433000CF911F910F91089538
:1043380042E061E070E084E795E00E94DA1F41E026
:1043480068EE73E084E795E00E94DA1F882341F065
:104358000E94F22E833021F480914D060E94D92BC1
:1043680041E061E070E084E795E00E94DA1F88236D
:1043780041F00E94F22E833021F480914C060E9475
:10438800D92B41E061E070E084E795E00E94DA1FF4
:10439800882341F042E061E070E084E795E00E9404
:0643A800DA1F81E0089518
:1043AE0042E061E070E080E795E00E94DA1F41E0B4
:1043BE0068EE73E080E795E00E94DA1F882341F0F3
:1043CE000E94F22E833021F480914B060E94EB2B3B
:1043DE0041E061E070E080E795E00E94DA1F8823FB
:1043EE0041F00E94F22E833021F480914A060E9401
:1043FE00EB2B41E061E070E080E795E00E94DA1F70
:10440E00882341F042E061E070E080E795E00E9491
:06441E00DA1F81E00895A1
:104424000E948D2E8050934019F48FE00E94F52E47
:104434000E948D2E8B5F934019F486E00E94F52E26
:104444000E948D2E8154944019F485E00E94F52E2B
:104454000E948D2E8050934029F467E273E080E03F
:104464000E94FB2D0E948D2E8B5F934029F467E3FD
:1044740073E080E00E94FB2D0E948D2E81549440B5
:0E44840029F46BE473E080E00E94FB2D0895A4
:1044920080915006882381F180FF06C08E7F809331
:1044A20050068FE40E945E078091500681FF06C08D
:1044B2008D7F8093500685E50E945E0780915006AD
:1044C20082FF06C08B7F8093500684E40E945E07C1
:1044D2008091500683FF06C0877F8093500682E456
:1044E2000E945E078091500684FF06C08F7E8093F3
:0A44F200500682E50E945E0708955F
:1044FC000F931F934FE85BE266EC75E28CE79BE24F
:10450C000E94DF1B0FE81BE224E03BE24FEE5AE275
:10451C0066EC75E28CE79BE20E94212A24E03BE2E8
:10452C004FEE5AE266EC75E28CE79BE20E943A2A67
:10453C0080E50E94FE2E25E639E142E95FE163EB5E
:10454C007EE182E89DE20E94FD2C80E093E00E94D7
:08455C00972E1F910F910895A5
:10456400EBE9F0E0208122602083EAE9F0E0208199
:1045740028692083EDE9F0E0208126602083DC01B6
:10458400CB018E7F880F991FAA1FBB1F880F991F0D
:10459400AA1FBB1F9C01AD01220F331F441F551FCF
:1045A40060E072E18AE790E00E940127DA01C90124
:1045B4000197A109B10980939900892F9A2FAB2FF4
:0845C400BB27809398000895C5
:1045CC00CF93DF93FC019081892F817090FF26C0DF
:1045DC0095FD23C0EF0161817281CF0103960E948A
:1045EC00192B882319F08881846088839881892FFE
:1045FC00847092FF13C0892F8B7F80628883ED813A
:10460C00FE8109959881292F2F7D288393FD06C063
:10461C00882321F09E7D988301C080E0DF91CF91AB
:02462C000895EF
:10462E00AC016623F9F090915106292F30E0F90183
:10463E00EE0FFF1FED5CFA4F6091EF057091F005E4
:10464E0071836083F901E559FA4F80915206808398
:10465E009F5F909351065093F0054093EF05109293
:10466E0052060CC010925206109251068091ED0522
:10467E009091EE059093F0058093EF050E94122223
:02468E0008958D
:104690000E94E72688F09F5798F0B92F9927B751C5
:1046A000B0F0E1F0660F771F881F991F1AF0BA95D6
:1046B000C9F714C0B13091F00E94332EB1E00895D3
:1046C0000C94332E672F782F8827B85F39F0B93FC5
:1046D000CCF3869577956795B395D9F73EF4909589
:0E46E0008095709561957F4F8F4F9F4F089585
:1046EE001F920F920FB60F9211242F933F934F9359
:1046FE005F936F937F938F939F93AF93BF93EF933C
:10470E00FF9364B175B1E0910306F09104068091B8
:10471E00540609958FEF80935406FF91EF91BF9148
:10472E00AF919F918F917F916F915F914F913F913B
:0C473E002F910F900FBE0F901F90189548
:10474A00CF93DF93A82FCB01C5E4D5E08883998363
:10475A00AA83FC012491A7FD20812B839C014A2F67
:10476A002F5F3F4F4F4FF901249147FD20812C8342
:10477A009C014A2F2E5F3F4F4F4FF901249147FD6D
:10478A0020812D830396A11DFC018491A7FD8081C0
:0A479A008E831F82DF91CF910895F6
:1047A400FC019381892F827091FF16C0A081B18191
:1047B4001196B183A083662361F08281882321F05E
:1047C4008150828381E0089542839D7F938382E0B8
:1047D4000895228381E0089561110BC0328133234F
:1047E40019F03150328306C022839260938381E0B2
:0A47F4000895428311821082089597
:1047FE00CF92DF92EF9283EB94E06C0120E8E22EF1
:10480E008E2DB6010E94800C26E633E040E08E2D00
:10481E00B6010E94E927892B21F487E194E00E94DA
:10482E00621D2CE633E040E08E2DB6010E94E92792
:10483E00892B21F487EE9BE00E94621D81E0EF90B0
:06484E00DF90CF900895F9
:104854000E94171E8F3F2FEF920719F190932406A1
:1048640080932306BC0180911F06909120060E942C
:10487400C827909322068093210620910D0630913B
:104884000E06281B390BA90122F444275527421B85
:10489400530B40935A0690930E0680930D0680E0C6
:0648A400089581E0089573
:1048AA0021E030E002C0220F331F6A95E2F781341B
:1048BA0011F489B31AC0823411F486B316C0833452
:1048CA0011F483B312C0843411F480B30EC085345A
:1048DA0011F481B10AC0863411F480B106C087345C
:1048EA0019F48091630001C080E0282381E009F473
:0448FA0080E00895BD
:1048FE00CF92DF92EF92CF936B01E82EFB01849162
:10490E00E7FC8081882379F0C0E00E94DE2DCF5F26
:10491E00AE2DC6018C0F911DA11DFC018491A7FD2A
:10492E0080818111F2CFEBE9F0E0808186FFFDCF2F
:10493E00EBE9F0E0808180648083CF91EF90DF908F
:04494E00CF90089569
:104952001F920F920FB60F9211242F933F934F93F2
:104962005F936F937F938F939F93AF93BF93EF93D5
:10497200FF930E94DA2EE0910106F091020609955A
:10498200FF91EF91BF91AF919F918F917F916F9125
:104992005F914F913F912F910F900FBE0F901F90FB
:0249A200189566
:1049A4001F920F920FB60F9211242F933F934F93A0
:1049B4005F936F937F938F939F93AF93BF93EF9383
:1049C400FF930E94DE2EE091FF05F0910006099509
:1049D400FF91EF91BF91AF919F918F917F916F91D3
:1049E4005F914F913F912F910F900FBE0F901F90A9
:0249F400189514
:1049F6001F920F920FB60F9211242F933F934F934E
:104A06005F936F937F938F939F93AF93BF93EF9330
:104A1600FF930E94092EE091FD05F091FE05099590
:104A2600FF91EF91BF91AF919F918F917F916F9180
:104A36005F914F913F912F910F900FBE0F901F9056
:024A46001895C1
:104A48001F920F920FB60F9211242F933F934F93FB
:104A58005F936F937F938F939F93AF93BF93EF93DE
:104A6800FF930E94A12DE091FB05F091FC050995AB
:104A7800FF91EF91BF91AF919F918F917F916F912E
:104A88005F914F913F912F910F900FBE0F901F9004
:024A980018956F
:104A9A001F920F920FB60F9211242F933F934F93A9
:104AAA005F936F937F938F939F93AF93BF93EF938C
:104ABA00FF9380919C00E0910506F0910606099506
:104ACA00FF91EF91BF91AF919F918F917F916F91DC
:104ADA005F914F913F912F910F900FBE0F901F90B2
:024AEA0018951D
:104AEC00853531F49091500692609093500610C029
:104AFC008F3431F49091500691609093500610C011
:104B0C00843431F48091500684608093500608956B
:104B1C00823431F480915006886080935006089559
:104B2C00823529F480915006806180935006089557
:104B3C001F920F920FB60F9211242F933F934F9306
:104B4C005F936F937F938F939F93AF93BF93EF93E9
:104B5C00FF938CB1E0910706F09108060995FF913F
:104B6C00EF91BF91AF919F918F917F916F915F91D9
:104B7C004F913F912F910F900FBE0F901F90189552
:104B8C0080937300E4E7F0E080818F77808384E882
:104B9C0080838081882324F40AC0815021F407C0CB
:104BAC0083E2E4E7F0E0000090819923B4F7809170
:104BBC007100887F883221F0803321F082E00895E3
:084BCC0080E0089581E00895E6
:104BD400CF93C62F90915B06911112C08130C1F41E
:104BE40082E00E94822960E083E00E94822908C05A
:104BF4006C2F83E00E94822960E082E00E94822977
:104C040080915B06813031F48C2F0E94A22B02C06C
:084C1400882371F3CF9108958C
:104C1C00990F0008550FAA0BE0E8FEEF16161706C1
:104C2C00E807F907C0F012161306E407F50798F029
:104C3C00621B730B840B950B39F40A2661F0232B42
:104C4C00242B252B21F408950A2609F4A140A695BE
:084C5C008FEF811D811D0895F9
:104C640080915C06813069F44091210650912206BE
:104C740020912706309128062417350798F080E004
:104C8400089581110EC081E04091210650912206C1
:104C940020912706309128064217530718F080E028
:064CA400089580E0089570
:104CAA00CF92DF92EF926A01E62EDC0121153105DF
:104CBA00B1F0F6014491E7FC40814C93442341F062
:104CCA00215031094FEFC41AD40AE40A1196EECFE3
:104CDA002A0F3B1F2A173B0711F01D92FBCFEF90BB
:064CEA00DF90CF90089559
:104CF000AFE0B0E0EEE7F6E20C94D2280E891F890F
:104D000086E08D831A8309838FEF9FE79F838E83CD
:104D10009E01255E3F4F488D598D6A8DCE010196CB
:104D20000E943A05E885F985E00FF11F10822F9661
:064D3000E4E00C94C6292A
:104D3600CF93C82F80FF04C086EE93E00E94832E97
:104D4600C2FF04C08DEE93E00E94832EC1FF07C010
:104D560086EE93E00E94882E80E00E94D92BC3FF46
:104D660007C08DEE93E00E94882E80E00E94EB2B18
:044D7600CF9108953C
:104D7A00FC019093140680931306709312066093B5
:104D8A0011065093100640930F06892B11F080E00C
:104D9A000995E0911106F0911206309711F080E022
:104DAA000995E0910F06F0911006309711F080E016
:044DBA0009950895BA
:104DBE0057FD9058440F551F59F05F3F71F04795BE
:104DCE00880F97FB991F61F09F3F79F087950895A3
:104DDE00121613061406551FF2CF4695F1DF08C0C2
:104DEE00161617061806991FF1CF869571056105DF
:044DFE000894089578
:104E0200A1E21A2EAA1BBB1BFD010DC0AA1FBB1FCC
:104E1200EE1FFF1FA217B307E407F50720F0A21B3E
:104E2200B30BE40BF50B661F771F881F991F1A94AB
:104E320069F760957095809590959B01AC01BD01D5
:044E4200CF010895FF
:104E4600853029F47093DC056093DB050895863080
:104E560029F47093DA056093D9050895873081F4B3
:104E66007093D8056093D7058091D9059091DA059E
:104E7600680F791F769567957093D6056093D5056B
:024E860008958D
:104E88000E94102E8823D9F080914706811107C00F
:104E980086E00E94AA2D81E08093470610C08130E9
:104EA80039F487E00E94AA2D82E08093470607C064
:104EB800823029F485E00E94AA2D1092470680E0EE
:024EC80008954B
:104ECA000F931F93CF93C82F8B016AED72E080E096
:104EDA000E94F42DCC2369F0B8018FE00E94772D4F
:104EEA0080919B0490919C040E94A12E80E090E006
:104EFA0004C080919B0490919C04CF911F910F91C3
:024F0A00089508
:104F0C000F931F93CF9367E17EE287E99DE20E94A6
:104F1C00C52D0E9422200DE714E0C0E08C2F0E94CA
:104F2C00772E8F3F2FEF920719F0F8019183808332
:104F3C00CF5F0E5F1F4FCB3189F7CF911F910F9130
:024F4C000895C6
:104F4E0060E080E00E94431C60E081E00E94431C10
:104F5E0060E082E00E94431C60E083E00E94431CFC
:104F6E0061E080E00E94C71662E081E00E94C716F1
:104F7E0063E082E00E94C71664E083E00E94C716D9
:024F8E00089584
:104F90006817790758F09B01281B390BC9018F3F0F
:104FA00037E093079CF08F5F9F4010C0861B970BE4
:104FB0008F3F27E092073CF06FEF7FE09B01281BBB
:104FC000390BC90103C09195819591098150984F82
:024FD000089542
:104FD200CF92DF92EF926B01E82EF6018491E7FC0B
:104FE2008081F901549147FD508185130BC08823BC
:104FF20041F08FEFC81AD80AE80A2F5F3F4F4F4F90
:10500200ECCF582F90E0851B9109EF90DF90CF9065
:025012000895FF
:10501400CF93C82F68EE72E080E00E94022ECC236A
:1050240089F060E070E086E10E94772D6AEF72E01B
:1050340080E00E94AA2088EE93E00E94692B80E021
:1050440090E004C08091A9049091AA04CF9108959E
:10505400CF93C82F68EE72E080E00E94022ECC232A
:1050640089F060E070E087E10E94772D6CE073E0E6
:1050740080E00E94AA2088EE93E00E94692B80E0E1
:1050840090E004C08091AB049091AC04CF9108955A
:10509400CF93C82FE091E505F091E6050995E091DD
:1050A400E305F091E40588E70995E091E305F091C3
:1050B400E40580E00995E091E305F091E4058C2F87
:1050C4000995E091E105F091E2050995CF910895E4
:1050D400883219F4109241060895893259F4E09106
:1050E4004106F0E0ED54FB4F10828EEA93E00E94FB
:1050F400832E0895E0914106E43140F491E09E0F3F
:0E51040090934106F0E0ED54FB4F8083089538
:105112000F931F93CF93DF936115710599F0EC0103
:105122008B01000F111F000F111F000F111F061B13
:10513200170B080F191FCE010E94E6222796C017EF
:0E514200D107C9F7DF91CF911F910F9108950A
:10515000809151068823B9F081508093510690E0E8
:10516000FC01EE0FFF1FED5CFA4F2081318130937F
:10517000F0052093EF05FC01E559FA4F80818093FB
:0851800052060E94122208955C
:105188002F923F924F925F926F927F928F929F924F
:10519800AF92BF92CF92DF92EF92FF920F931F933D
:1051A800CF93DF93CDB7DEB7CA1BDB0B0FB6F894EE
:0851B800DEBF0FBECDBF09945C
:1051C0000F931F93CF93C82F8B016AED72E080E09D
:1051D0000E94F42DCC2339F0B8018EE00E94772D87
:1051E00080E090E004C08091990490919A04CF915E
:0651F0001F910F910895CC
:1051F6000F931F93CF93C82F8B016CED72E080E065
:105206000E94F42DCC2339F0B80181E10E94772D5C
:1052160080E090E004C080919F049091A004CF911B
:065226001F910F91089595
:10522C000F931F93CF93C82F8B0161EE72E080E038
:10523C000E94F42DCC2339F0B80182E10E94772D25
:10524C0080E090E004C08091A1049091A204CF91E1
:06525C001F910F9108955F
:105262000F931F93CF93C82F8B016CED72E080E0F8
:105272000E94F42DCC2339F0B80183E10E94772DEE
:1052820080E090E004C08091A3049091A404CF91A7
:065292001F910F91089529
:105298000F931F93CF93C82F8B0162EE72E080E0CB
:1052A8000E94F42DCC2339F0B80185E10E94772DB6
:1052B80080E090E004C08091A7049091A804CF9169
:0652C8001F910F910895F3
:1052CE000F931F93CF93C82F8B016EE173E080E095
:1052DE000E94F42DCC2339F0B8018AE10E94772D7B
:1052EE0080E090E004C08091B1049091B204CF911F
:0652FE001F910F910895BD
:10530400813039F4E0911306F0911406862F099543
:105314000895823039F4E0911106F0911206862F37
:1053240009950895833031F4E0910F06F091100649
:06533400862F0995089583
:10533A00CF92DF92EF926B01E82EA82FCB01411595
:10534A00510531F48C199D09EF90DF90CF900895A3
:10535A00FC012491A7FD20812223A1F30196A11D1E
:06536A0041505109ECCF97
:105370002A88398848885F846E847D848C849B84E5
:10538000AA84B984C884DF80EE80FD800C811B81F3
:10539000AA81B981CE0FD11D0FB6F894DEBF0FBE22
:0653A000CDBFED010895F0
:1053A60020E030E040E85EE3CA01B9010E941F2D0B
:1053B60060E082E30E94BF2E84E10E94F82E88E816
:1053C60093E10E94A62E80919B0490919C040E94DA
:0453D600A12E089567
:1053DA000E945A110E94A7270E9424210E947E221D
:1053EA000E943D1581E00E94532E84EF91E00E94B5
:1053FA00692B0E946B2A8FEF97E00E94621D0E9420
:04540A00E62DFDCFBF
:10540E000F931F93CF938C01E0913306F0913406E6
:10541E000995C82FE0913306F0913406C801019624
:10542E0009952C2F30E0A901582BCA01CF911F915D
:04543E000F9108952D
:105442000F931F9390933206809331067093300628
:1054520060932F0650932E0640932D0630932C0610
:1054620020932B0610932A06009329061F910F9171
:0254720008959B
:105474000F931F939093400680933F0670933E06CC
:1054840060933D0650933C0640933B0630933A06A6
:105494002093390610933806009337061F910F9115
:0254A400089569
:1054A600EBE8F0E0108210928A0090819160908380
:1054B600613021F498E090938A0004C0611102C023
:1054C60010928A00EAE8F0E09081892B80830895A3
:1054D60080E00E94FB2E41E45BE26DE27BE280E02D
:1054E60090E00E94BD2681E996E00E94BA2E82E3F2
:0C54F60090E00E94B52E0E94D32908957A
:10550200FC018181861303C0108280E008958081AE
:10551200841730F010826183662331F081E00895B0
:0C5522008F5F808380E0089582E0089590
:10552E008091E7059091E805019621F41092E80527
:10553E001092E7058091E7059091E805019690930A
:0C554E00E8058093E7050E94FD2B0895FE
:10555A000F931F93CF93DF93162FC42FD22F402F71
:10556A00622F8C2F0E941B18412F6D2F8C2F0E94A7
:0C557A008918DF91CF911F910F910895C7
:105586001F93CF93DF93EC01172FE0913506F0912F
:1055960036060995E0913506F0913606612FCE0163
:0C55A60001960995DF91CF911F910895A7
:1055B200CF92DF92EF926B01E82EA82FCB01FC0174
:1055C2002491A7FD2081222319F00196A11DF7CF76
:0C55D2008C199D09EF90DF90CF90089598
:1055DE00E4E7F0E084EC80838081882324F40AC021
:1055EE00815021F407C083E2E4E7F0E000009081EF
:0A55FE009923B4F78091730008951B
:10560800E4E7F0E084E880838081882324F40AC0FA
:10561800815021F407C083E2E4E7F0E000009081C4
:0A5628009923B4F7809173000895F0
:105632002091E7053091E805FC0140815181F90193
:10564200E41BF50BE617F70728F0FC0131832083F2
:0856520081E0089580E0089555
:10565A00682F70E080E090E00E94E92023E333E3C2
:10566A0043E250E40E94EE2E0E94482370E07093B9
:08567A0087006093860008958B
:10568200682F70E080E090E00E94E92023E333E39A
:1056920043E250E40E94EE2E0E94482370E0709391
:0856A200850060938400089567
:1056AA00AA1BBB1B51E107C0AA1FBB1FA617B7073E
:1056BA0010F0A61BB70B881F991F5A95A9F780955A
:0856CA009095BC01CD0108958B
:1056D200CF93DF93EC0181ED95E00E94D62D0E94DD
:1056E200E62DBE0181ED95E00E94192B8823B9F3C6
:0656F200DF91CF91089545
:1056F800E4E7F0E084EA80838081882324F4089535
:10570800815021F4089583E2E4E7F0E000009081FD
:065718009923B4F7089587
:10571E00E4E7F0E084E980838081882324F408950F
:10572E00815021F4089583E2E4E7F0E000009081D7
:06573E009923B4F7089561
:10574400CF9390915B0691110CC0C82FE091110684
:10575400F09112060995E0910F06F09110068C2F36
:065764000995CF910895A4
:10576A00CF93C82F6AE972E080E00E94022EC1112D
:10577A0005C08091AF049091B00402C080E090E02F
:04578A00CF9108951E
:10578E00CF93C82F6AE972E080E00E94022EC11109
:10579E0005C08091AD049091AE0402C080E090E00F
:0457AE00CF910895FA
:1057B200682F70E080E090E00E94E92023E333E369
:1057C20043E250E40E94EE2E0E94482370E07BBD2B
:0457D2006ABD08950F
:1057D600682F70E080E090E00E94E92023E333E345
:1057E60043E250E40E94EE2E0E94482370E079BD09
:0457F60068BD0895ED
:1057FA0080915E06882369F08091190690911A06B5
:10580A008F3F2FEF920729F0019690931A06809303
:04581A0019060895CE
:10581E00882331F081E00E94772D80E090E008959A
:10582E008BE195E00E94922E80917F0490918004EE
:02583E000895CB
:10584000882331F082E00E94772D80E090E0089577
:105850008FE095E00E94922E8091810490918204C5
:025860000895A9
:10586200882331F083E00E94772D80E090E0089554
:1058720083E095E00E94922E8091830490918404AB
:02588200089587
:10588400882331F084E00E94772D80E090E0089531
:1058940085E695E00E94922E80918504909186047D
:0258A400089565
:1058A600882331F085E00E94772D80E090E008950E
:1058B6008FE595E00E94922E80918704909188044E
:0258C600089543
:1058C800882331F086E00E94772D80E090E00895EB
:1058D80089E595E00E94922E8091890490918A042E
:0258E800089521
:1058EA00882331F087E00E94772D80E090E00895C8
:1058FA0087EF94E00E94922E80918B0490918C0401
:02590A000895FE
:10590C00882331F088E00E94772D80E090E00895A4
:10591C0083E595E00E94922E80918D0490918E04E7
:02592C000895DC
:10592E00882331F089E00E94772D80E090E0089581
:10593E008BEE94E00E94922E80918F0490919004B1
:02594E000895BA
:10595000882331F08AE00E94772D80E090E008955E
:105960008FED94E00E94922E809191049091920488
:02597000089598
:10597200882331F08BE00E94772D80E090E008953B
