:100000000C9498000C9448320C9448320C9448326A
:100010000C9448320C9448320C9448320C94483278
:100020000C9448320C9448320C9489270C94483232
:100030000C9448320C9448320C94B2270C944832F9
:100040000C9460270C9448320C9455280C94483238
:100050000C9448320C9401260C9448320C9448328B
:100060000C9448320C9448320C9448320C94483228
:100070000C9448320C94DB270C9404280C944832DE
:100080000C9448320C9448320C944832010003001E
:100090000064980300050080050005A0006698052F
:1000A000A005FB8005FB0687006738068706DB8016
:1000B00006DB07530067C407530780800780079E4D
:1000C00000683C079E07DB8007DB07DE00685A07F5
:1000D000DE07E78007E707EB00685D07EB07EF80C7
:1000E00007EF07FF00686107FF08458008450847DC
:1000F000006871084708708008700871006873080C
:100100007108778008770878006874087808888014
:10011000088808890068750889088B80088B088D15
:10012000006876088D08938008930894006878002A
:1001300011241FBECFEFD0E1DEBFCDBFECE8F0E071
:1001400041E017C0B591A59135912591059107FD25
:100150000CC095918591EF01F92FE82F05900D9234
:10016000A217B307D9F7FE0104C01D92A217B30767
:10017000E1F7EF32F40731F70E94BF2C0C94C00076
:04018000F894FFCF21
:1001840053797374656D20446961676E6F73746924
:100194006300566F6C74616765203A2025640054CF
:1001A4006F72717565203A202564004558545F319B
:1001B4002050524553530D0A004558545F31205284
:1001C400454C454153450D0A004558545F32205073
:1001D400524553530D0A004558545F322052454C42
:1001E400454153450D0A004E6F7420726573657462
:1001F4007461626C6500506F73203A202564004D71
:100204006167204669656C64203A202564002500F6
:100214005065722E0000312F313073005055534811
:10022400204F4B20464F5220434C45415200434FF0
:10023400554E544552204120434C454152454400BB
:10024400434F554E544552204220434C454152455C
:10025400440056616C005365632E003E3E204D41C0
:10026400494E204D454E55203C3C003E3E205553C2
:1002740045522053455454494E4753203C3C003E7C
:100284003E2053595354454D2053455454494E47E9
:1002940053203C3C00252E326400594F4E5F4100F0
:1002A400594F4E5F42002020202020202020200093
:1002B400202020202020202020202020200020205A
:1002C400202020202020202020202020202020202A
:1002D40020202020005354415445204F4620454DB2
:1002E4004700555053204D4F4445203A2025642063
:1002F4006D5600434C4F534520494E2025642053EE
:1003040045434F4E4400322073656320666F72206C
:100314006175746F20636F6E6669675D005B50750D
:10032400736820456E7465722042742E20666F7265
:100334005D003C3C202053455256494345204D4FD7
:1003440044452020203E3E005B32207365632066D6
:100354006F72207365745D00413A4E6F726D204276
:100364003A4E6F726D0053454C454354204D4147FE
:10037400205459504500413A526576727320423AEE
:100384004E6F726D00413A4E6F726D20423A526563
:1003940076727300413A526576727320423A52651E
:1003A4007672730053454C4543544544004163748D
:1003B4006976650053454C454354204D4F544F5284
:1003C4002054595045005061737369766500537920
:1003D4007374656D20506173736976650053454C81
:1003E4004543542044524F50204D4F4445004F6ED6
:1003F4006C7920456D672E005077722E2046616916
:100404006C202620456D672E005028312920502865
:1004140032292050283329205028342900504F53A2
:100424004954494F4E2053455454494E4753005163
:10043400003A003F004D41494E31003C0052003E1D
:10044400004D4153313220554E504C554747454499
:10045400004D4153313220504C55474745440057D5
:100464004F524B494E470054494D45204F55540077
:10047400544F5251554500544F5251554520524501
:100484005345540041524D204241434B0053554380
:100494004553530043616D65204F7A616B0043619E
:1004A4006D65004F7A616B004E6F6E6500463120BA
:1004B4002620463200416C6C20416C61726D7300E1
:1004C4004F6E6C792042757379204F757400413AF0
:1004D400204F666620423A204F666600413A204F1C
:1004E400666620423A204F6E00413A204F6E204209
:1004F4003A204F666600413A204F6E20423A204F20
:100504006E0044697361626C65004A7573742045BA
:100514006D67004A75737420506F77657220466169
:10052400696C00506F776572204661696C202620E3
:10053400456D67004E6F7420557365640046312025
:100544006F72204632004E2D4F004E2D4300413A2B
:10055400204E2D4F20423A204E2D4F00413A204E3E
:100564002D4F20423A204E2D4300413A204E2D4338
:1005740020423A204E2D4F00413A204E2D43204236
:100584003A204E2D43004F6E004F6666005374614F
:100594006E6461727400446F75626C652054797086
:1005A4006500413A4E6F726D2E20423A4E6F726D65
:1005B4002E00413A526576727320423A4E6F726D44
:1005C4002E00413A4E6F726D2E20423A5265767279
:1005D400730041202D2042204C6F636B6564004200
:1005E400202D2D20412053696E676C650042203C0C
:1005F4003C204120467265650041203C3C2042205D
:1006040046726565003620536E00313220536E0009
:10061400313820536E00496E66696E697465005501
:100624007365722053657474696E677300537973CC
:1006340074656D2053657474696E6773004D6F74CF
:100644006F72205370656564004D6F746F7220542F
:100654006F7271756500496E7075742042756666B7
:100664006572004944204E756D2053656C65637452
:100674000052616E646F6D20536F72746572204115
:100684000052656C61792054696D6500436F756E25
:10069400746572204100436F756E74657220420068
:1006A40046697820436F756E74657220410046690F
:1006B4007820436F756E7465722042004D4153314A
:1006C4003220537461747573004D6F746F722042DD
:1006D4007265616B20537065656400496E70757452
:1006E40020566F6C74616765004D61676E65742098
:1006F40053656C65637400496E64696B6173796FEB
:100704006E2053656C65637400496E64696B617334
:10071400796F6E2054797065004D6F746F72204349
:100724006F6E74726F6C204D6F64650052616E64FD
:100734006F6D20436F6E74726F6C204D6F64650033
:100744004578742052656C6179204D6F6465004C66
:100754006F676F2053657474696E67730054696DB5
:10076400652053656C6563740050726F6772616DC8
:100774002053656C65637400496E7075742046720D
:1007840065650052656C61792053656C656374001E
:10079400456D672053656C65637400466F746F73B1
:1007A400656C20416C61726D0044726F70204172FF
:1007B4006D204D6F64650047562D54502D303130F7
:0207C400310002
:1007C6000608205F0000000000000000002F000067
:1007D60000000700070000147F147F1400242A7FFE
:1007E6002A1200231308646200364955225000007D
:1007F6000503000000001C224100000041221C00ED
:100806000014083E08140008083E0808000000A06E
:10081600600000080808080800006060000000206A
:1008260010080402003E5149453E0000427F400048
:10083600004261514946002141454B3100181412CE
:100846007F10002745454539003C4A49493000019B
:100856007109050300364949493600064949291EEA
:10086600000036360000000056360000000814224C
:10087600410000141414141400004122140800024C
:100886000151090600324959513E007C1211127C71
:10089600007F49494936003E41414122007F41419E
:1008A600221C007F49494941007F09090901003E90
:1008B6004149497A007F0808087F0000417F4100CE
:1008C600002040413F01007F08142241007F404044
:1008D6004040007F020C027F007F0408107F003E2C
:1008E6004141413E007F09090906003E4151215E12
:1008F600007F091929460046494949310001017F0F
:100906000101003F4040403F001F2040201F003FA4
:100916004038403F00631408146300070870080756
:1009260000615149454300007F41410000552A5569
:100936002A55000041417F000004020102040040E4
:100946004040404000000102040000205454547806
:10095600007F484444380038444444200038444426
:10096600487F00385454541800087E0901020018C4
:10097600A4A4A47C007F080404780000447D400001
:10098600004080847D00007F102844000000417FE5
:100996004000007C04180478007C080404780038C1
:1009A6004444443800FC242424180018242418FC49
:1009B600007C0804040800485454542000043F44B2
:1009C6004020003C4040207C001C2040201C003C75
:1009D6004030403C004428102844001CA0A0A07CC5
:1009E600004464544C440000087700000000007F77
:1009F600000000007708000000100810080014141A
:0B0A06001414141400E7A7FFA0E00088
:100A11002564292025730025642F256400256400A1
:100A2100256320292025730025632F2563004D416F
:100A3100583A202564004D494E3A202564004E4F16
:0C0A4100573A20256400534156454400FC
:030A4D002564001D
:100A50002F923F924F926F927F928F929F92AF927E
:100A6000BF92CF92DF92EF92FF920F931F93CF939B
:100A7000DF93CDB7DEB762970FB6F894DEBF0FBE37
:100A8000CDBF6C013A01862E7901FC0110861782D8
:100A9000848181FFE7C19E012F5F3F4F3D872C87F7
:100AA000C901A0E8888B998BAA8B9FE3992EF3014B
:100AB000849187FC8081882309F4D0C1482D93015B
:100AC0002F5F3F4F4F4F853219F03901842E0AC0F6
:100AD000F901849147FD808192E0690E711C811CAF
:100AE000853229F4B60190E00E94AE23E0CFB12C0C
:100AF00000E010E01032A0F48B3269F030F4803264
:100B000059F0833269F410612CC08D3239F0803392
:100B100039F4116026C01260146023C0186021C02F
:100B200017FD29C090ED980F9A3078F416FF06C093
:100B3000AAE0BA9E900D1124B92E13C0EAE00E9FD0
:100B4000900D1124092F10620CC08E3221F416FD75
:100B500085C1106406C08C3611F4106802C0883656
:100B600051F4F301849187FC8081FFEF6F1A7F0AB3
:100B70008F0A8111BFCF982F9F7D9554933028F411
:100B800024E0E20EF11C99820FC0833631F08337E6
:100B900091F0833509F063C027C0F7018081898314
:100BA00097012E5F3F4F7901288839884A88AA2407
:100BB000A394B12C17C0A7014D5F5F4F5F874E878D
:100BC000F70120803180428016FF03C04B2D50E09A
:100BD00002C04FEF5FEF842DB1010E946F2C5C01CA
:100BE000EE84FF841F7718C097012D5F3F4F3F872A
:100BF0002E87F70120803180428016FF03C04B2DE5
:100C000050E002C04FEF5FEF842DB1010E946F2CC6
:100C10005C011068EE84FF8413FD1DC0802F90E0FE
:100C2000A816B906C0F4B60180E290E00E94AE2397
:100C30000150F4CFF101849147FC8081FFEF2F1A1E
:100C40003F0A4F0AB60190E00E94AE230111015005
:100C500021E0A21AB108A114B10461F7F5C08436ED
:100C600011F0893671F5F70117FF08C060817181B5
:100C70008281938197012C5F3F4F09C06081718110
:100C8000072E000C880B990B97012E5F3F4F7901BF
:100C90001F76312E97FF0AC09095809570956195CB
:100CA0007F4F8F4F9F4F312F3068332E2AE030E037
:100CB000AE014F5F5F4F0E94411E482E4C85441A83
:100CC0004AC0853729F41F7EA12E2AE030E025C0D6
:100CD000512F597FA52E8F36C1F018F4883579F041
:100CE000BDC0803719F0883721F0B8C0852F8061EA
:100CF000A82EA4FE0DC09A2D9460A92E09C014FF41
:100D00000AC0A52FA660AA2E06C028E030E005C0C4
:100D100020E130E002C020E132E0F701A7FE08C088
:100D20006081718182819381A7014C5F5F4F07C011
:100D30006081718180E090E0A7014E5F5F4F7A0192
:100D4000AE014F5F5F4F0E94411E482E5C85451AE1
:100D50008A2D8F77382E36FE0DC0932D9E7FA92EBB
:100D60004B1458F434FE0BC032FC09C0A32DAE7EE8
:100D7000AA2E05C0142DA32C03C0142D01C01B2DB9
:100D8000A4FE0EC0FE01E40DF11D8081803321F42C
:100D9000EA2DE97EAE2E08C0A2FE05C01E5F04C08B
:100DA0008A2D867809F01F5FA3FC11C0A0FE06C043
:100DB000101788F4040DB02EB11A0EC0101760F48D
:100DC000B60180E290E00E94AE231F5FF7CF1017BC
:100DD00018F4011B02C0B42C00E0A4FE10C0B60140
:100DE00080E390E00E94AE23A2FE17C0A1FC03C0E6
:100DF00088E790E002C088E590E0B6010CC08A2D3B
:100E0000867859F0A1FE02C08BE201C080E2A7FC07
:100E10008DE2B60190E00E94AE234B1438F4B60187
:100E200080E390E00E94AE23BA94F7CF4A94E1E0C9
:100E3000F0E0EC0FFD1FE40DF11D8081B60190E0A4
:100E40000E94AE234110F2CF002309F430CEB60148
:100E500080E290E00E94AE230150F6CFF601878138
:100E6000908502C08FEF9FEF62960FB6F894DEBFB9
:100E70000FBECDBFDF91CF911F910F91FF90EF90EB
:100E8000DF90CF90BF90AF909F908F907F906F90AA
:080E90004F903F902F90089550
:100E9800CF92DF92EF920F931F9390918308911155
:100EA8000EC08F3409F0DFC160E080911B0890917B
:100EB8001C080E94A12581E08093830861C18535C3
:100EC800B1F52091190830911A08232B29F1409186
:100ED8001708509118082091860830E0F901EE0FA4
:100EE800FF1F220F331F220F331F220F331F2E0F16
:100EF8003F1FE0911D08F0911E08E20FF31F2681A5
:100F080037814217530708F062C04F5F5F4F509315
:100F18001808409317085BC09091860820918708AD
:100F2800921708F054C09F5F9093860850C084348D
:100F3800A1F52091190830911A08232B29F1409125
:100F48001708509118082091860830E0F901EE0F33
:100F5800FF1F220F331F220F331F220F331F2E0FA5
:100F68003F1FE0911D08F0911E08E20FF31F208536
:100F780031852417350708F06DC141505109509348
:100F880018084093170866C190918608992309F4B8
:100F980061C19150909386085DC18234C1F48091FB
:100FA800190890911A08019731F410921A081092B2
:100FB800190880E0D4C080918508811104C010927E
:100FC800830882E0CCC00E945F2B80E0C8C08F34C9
:100FD80009F045C18091860890E0FC01EE0FFF1FE3
:100FE800880F991F880F991F880F991F8E0F9F1FB1
:100FF800E0911D08F0911E08E80FF91F838180FF1A
:1010080006C061E0848195810E94A125B4C083FF58
:101018002EC08091190890911A08892BC1F410925A
:101028001808109217080480F581E02D309741F0D8
:101038006FE077E280E0099590931808809317088D
:1010480081E090E090931A088093190894C0048076
:10105800F581E02D309731F06091170870911808EC
:1010680081E0099510921A081092190884C08671B7
:1010780009F481C08091190890911A08892BC1F44C
:1010880010921808109217080480F581E02D309707
:1010980041F06FE077E280E009959093180880931B
:1010A800170881E090E090931A088093190863C0AC
:1010B8000480F581E02D309731F160911708709127
:1010C800180881E009958091860890E0FC01EE0FF0
:1010D800FF1F880F991F880F991F880F991F8E0F60
:1010E8009F1FE0911D08F0911E08E80FF91F8381EA
:1010F80084FD05C067E47AE080E00E94F82284EF6E
:1011080091E00E947B2E10921A081092190833C0A1
:101118008091190890911A08892B01F1809186080D
:1011280090E0FC01EE0FFF1F880F991F880F991F91
:10113800880F991F8E0F9F1FE0911D08F0911E08C0
:10114800E80FF91F0480F581E02D6FE077E280E079
:101158000995909318088093170885C080E082301D
:1011680051F4E0912708F09128080995E0912508A5
:10117800F0912608099580918308882309F473C0A3
:101188008091190890911A08892B09F448C0809118
:10119800860890E0FC01EE0FFF1F880F991F880F4B
:1011A800991F880F991F8E0F9F1FE0911D08F091BE
:1011B8001E08E80FF91F838181FF14C0C090DE0765
:1011C800D090DF07E090E007009117081091180809
:1011D80020853185468157816081718182810E9495
:1011E800531241C082FF0CC040911F085091200843
:1011F800608171818281209117080E94001333C099
:1012080083FF31C040911708509118086091E40796
:101218007091E5078091E6070E94131B24C0409156
:101228008608842F90E0FC01EE0FFF1F880F991F9E
:10123800880F991F880F991F8E0F9F1FE0911D0817
:10124800F0911E08E80FF91F6081718182810E9468
:10125800AA1309C0823509F45BCF80E080CF8235BC
:1012680009F456CF88CF1F910F91EF90DF90CF9060
:021278000895D7
:10127A00EF92FF920F93CF9380917508811114C05A
:10128A0081E0809375080AE0E02E03E0F02E00E08A
:10129A0021E233E040E066E373E080E00E94101848
:1012AA001092EC071092EB0762E370E088EE93E08D
:1012BA000E94FB1EC82F882309F46FC187E497E0B8
:1012CA0090930E0880930D0881E080938008C535BD
:1012DA0089F42091EB073091EC078091740890E033
:1012EA0028173907A4F42F5F3F4F3093EC07209358
:1012FA00EB070DC0C43459F48091EB079091EC07C9
:10130A00009729F001979093EC078093EB0780915F
:10131A007508813079F4CF3409F0BFC082E0809338
:10132A0075081092EC071092EB0783E0809374081B
:10133A00C0E009C0823009F068C08091EB07909143
:10134A00EC07892B69F40CE4E02E03E0F02E00E0B0
:10135A002CE533E040E06AE673E080E00E94101872
:10136A008091EB079091EC07019769F40CE4E02E69
:10137A0003E0F02E00E02AE733E040E06AE673E09B
:10138A0080E00E9410188091EB079091EC07029779
:10139A0069F40CE4E02E03E0F02E00E029E833E0E3
:1013AA0040E06AE673E080E00E9410188091EB0743
:1013BA009091EC07039769F40CE4E02E03E0F02E19
:1013CA0000E028E933E040E06AE673E080E00E944A
:1013DA001018CF34C9F483E08093750868EA73E083
:1013EA0080E00E94F82284EF91E00E947B2E109206
:1013FA00EC071092EB0781E08093740880917508DE
:10140A00833009F0C1C00DC0C0E0809175088330F7
:10141A0009F046C08091EB079091EC07892B79F48B
:10142A0001C0C0E00CE4E02E03E0F02E00E021EB66
:10143A0033E040E068EB73E080E00E94101880918E
:10144A00EB079091EC07019769F40CE4E02E03E0B6
:10145A00F02E00E02AEC33E040E068EB73E080E035
:10146A000E941018CF34D9F484E08093750868EA92
:10147A0073E080E00E94F82284EF91E00E947B2EC4
:10148A001092EC071092EB0782E080937408809127
:10149A007508843009F07DC00FC0C0E001C0C0E00B
:1014AA0080917508843009F057C08091EB079091BC
:1014BA00EC07892B89F403C0C0E001C0C0E00CE44A
:1014CA00E02E03E0F02E00E022ED33E040E061EE92
:1014DA0073E080E00E9410188091EB079091EC076E
:1014EA00019769F40CE4E02E03E0F02E00E022EF0D
:1014FA0033E040E061EE73E080E00E9410188091D2
:10150A00EB079091EC07029769F40CE4E02E03E0F4
:10151A00F02E00E02CEF33E040E061EE73E080E073
:10152A000E941018CF34C1F485E08093750868EAE8
:10153A0073E080E00E94F82284EF91E00E947B2E03
:10154A001092EC071092EB0781E080937408809167
:10155A007508853011F50AC0809175088530E9F45F
:10156A008091EB079091EC07892BB9F409E1E02E01
:10157A0002E0F02E00E02DE034E040E061E274E0A9
:10158A0080E00E94101809C080917508843021F704
:10159A0095CF80917508853049F380E0CF910F91FE
:0615AA00FF90EF90089590
:1015B0002F923F924F925F926F927F928F929F9263
:1015C000AF92BF92CF92DF92EF92FF920F931F9351
:1015D000CF93DF93CDB7DEB728970FB6F894DEBF71
:1015E0000FBECDBF9E838D837A83698380917C07F4
:1015F000982F977009F0ABC0E8E7F7E05381869524
:1016000086958695242F30E09581291B310990E03D
:10161000589FB001599F700D1124269F3001279FBC
:10162000700C369F700C112498878F83892B09F4D6
:1016300024C1252F30E03C832B83C301ED81FE8143
:101640008E1B9F0B9C012C5F3F4F3901A980BA80F4
:10165000212C312C4B805C804E0E5F1E0F2EF8E744
:10166000CF2EF7E0DF2EF02D88248394912C68C0D4
:10167000F60180819181A2819301200F311F820F99
:10168000931FA11D37FDAA95FC01E490A7FDE08002
:10169000F12C1A821982C401098002C0880F991F97
:1016A0000A94E2F78E219F21892BB1F0F601878100
:1016B000811109C041E069817A816A0D7B1DC801F1
:1016C0000E947D1B1EC040E069817A816A0D7B1DEE
:1016D000C8010E947D1B15C0F6018781811109C0D8
:1016E00040E069817A816A0D7B1DC8010E947D1BE3
:1016F00008C041E069817A816A0D7B1DC8010E94A2
:101700007D1B29813A812F5F3F4F3A8329832830FF
:10171000310509F60F5F1F4F4016510609F0A8CF9B
:101720003FEF231A330A88E0A80EB11CEB81FC813D
:101730006E0E7F1E2F8138852215330509F49DC05A
:101740008B819C81892B61F30D811E8191CF20902B
:101750007B07E8E7F7E0242F30E09581291B31096A
:10176000289EA0011124552314F4495F5F4F55951D
:1017700047955595479555954795249FB001259FC9
:10178000700D349F700D11246C5F7F4F208131816B
:101790004281260F371F411D77FD4A95F9010491BB
:1017A00047FD008110E0312C2114310409F465C09B
:1017B000ED81FE81E20DF31DFC83EB838D809E8025
:1017C0000F2EF7E06F2E712CF02D482E512CC98072
:1017D000DA80C40CD51CEE24E394F12C0F2EF8E72C
:1017E000AF2EF7E0BF2EF02D40C0C7010D8002C024
:1017F000880F991F0A94E2F780239123892B81F0A7
:10180000F5018781811106C041E0B101C4010E9448
:101810007D1B15C040E0B101C4010E947D1B0FC0BB
:10182000F5018781811106C040E0B101C4010E9429
:101830007D1B05C041E0B101C4010E947D1B2D81CB
:101840003E81215031093E832D833FEF231A330A15
:10185000C214D30451F6641875088FEF881A980AD9
:10186000EB81FC81E815F90541F041145104A9F31D
:1018700029803A807E826D82B8CF28960FB6F89480
:10188000DEBF0FBECDBFDF91CF911F910F91FF90B3
:10189000EF90DF90CF90BF90AF909F908F907F9010
:0C18A0006F905F904F903F902F90089544
:1018AC00CF92DF92EF92CF93DF93CDB7DEB76997EC
:1018BC000FB6F894DEBF0FBECDBF9B01482FFB01C6
:1018CC00849147FD8081880F8056982F990F990F2E
:1018DC00890F6901E42E5FEFC51AD50AE50AF601F6
:1018EC009491E7FC90819053890F823010F080E046
:1018FC0007C16901E42E88E289831F9281E08F93EE
:10190C0089E992E0A0E0AF939F938F93CE0102966A
:10191C009F938F930E945629AE2DC6010296A11D4E
:10192C00FC018491A7FD80818C834E2D96012D5F47
:10193C003F4F4F4FF901949147FD90819D834E2D60
:10194C0096012C5F3F4F4F4FF901249147FD2081A9
:10195C002E830FB6F894DEBF0FBECDBF893439F499
:10196C00943409F0AAC02E3409F0A7C0AAC0873459
:10197C00C1F49F3409F0A1C02E3409F09EC04E2D45
:10198C0096012B5F3F4F4F4FF901949147FD90818A
:10199C00903309F496C081E0913309F0AEC080E039
:1019AC00ACC08035B1F49D3409F087C0233509F003
:1019BC0084C04E2D96012B5F3F4F4F4FF901849100
:1019CC0047FD8081813409F47CC08F3409F075C0E7
:1019DC007CC08534C1F49D3409F06FC0273409F004
:1019EC006CC04E2D96012B5F3F4F4F4FF9019491D8
:1019FC0047FD9081903309F464C081E0913309F084
:101A0C007CC080E07AC0843571F59F3499F4213420
:101A1C0009F053C04E2D96012B5F3F4F4F4FF901EC
:101A2C00849147FD8081813409F44BC08F3409F0D7
:101A3C0044C04DC0953409F040C02E3409F03DC06F
:101A4C004E2D96012B5F3F4F4F4FF901949147FD5F
:101A5C0090818FEB890F8230A0F181E09F3409F0E7
:101A6C004CC080E04AC0833441F59E3431F52435B6
:101A7C0021F5AE2DC6010696A11DFC015491A7FDC2
:101A8C0050814E2D96012B5F3F4F4F4FF9018491A2
:101A9C0047FD8081833449F48FEB850F823088F0C9
:101AAC0081E051112AC080E028C08F3431F48FEBD3
:101ABC00850F823070F0552371F081E38F8387E0BE
:101ACC000BC080E38F8387E007C086E005C086E00B
:101ADC0003C086E001C086E0BE016F5F7F4FFB0153
:101AEC00E80FF11D99E290838F5FFB01E80FF11D68
:101AFC00108280E80E94362703C0882311F3DDCFC3
:101B0C0069960FB6F894DEBF0FBECDBFDF91CF91B3
:081B1C00EF90DF90CF900895D7
:101B24008F929F92AF92BF92CF92DF92EF92FF92E9
:101B3400CF93209155083091560880914F08909189
:101B44005008821B930B7C0122F4EE24FF24E81A34
:101B5400F90A8091530890915408821B930BAC01AD
:101B640022F444275527481B590B6A019701A8EE14
:101B7400B3E00E9462309A0140E050E00E94DF2905
:101B8400283C3105E8F12436310508F440C0C09101
:101B94008D08285C3109A9E8B8E80E946230929562
:101BA40082958F7089279F708927A8E2B0E0A81BCF
:101BB400B1092C2F30E00E94723128E230E040E07D
:101BC40050E00E94DF29CA01B9010E9435234B016C
:101BD4005C016C2F70E080E090E00E9437239B0151
:101BE400AC01C501B4010E9406321816C4F46C2F6E
:101BF40070E080E090E00E9435234B015C010FC04F
:101C0400812C912C6894AA24A6F8BA2C08C00F2E13
:101C1400812C912CF0E8AF2EFFE3BF2EF02D2EE5A2
:101C2400C21621E0D20628F4812C912C5401689428
:101C3400B6F88091490890914A0880369A4EB1F4DA
:101C440087E9E816F10450F423E3E216F10470F096
:101C5400812C912C54016894B6F808C00F2E812C65
:101C6400912CF0ECAF2EF0E4BF2EF02D60918E0895
:101C740070E080E090E00E9435239B01AC01C50137
:101C8400B4010E9456314B015C012091CF07309181
:101C9400D0074091D1075091D2070E942F32209152
:101CA400D7073091D8074091D9075091DA070E949D
:101CB40057316B017C016093D7077093D8078093E9
:101CC400D9079093DA072091D3073091D407409134
:101CD400D5075091D607C501B4010E942F32A70140
:101CE40096010E9457316B017C01C0918B086C2FC7
:101CF40070E080E090E00E9437239B01AC01C701B3
:101D0400B6010E940632181684F46C2F70E080E04D
:101D140090E00E9435236B017C016093D707709398
:101D2400D8078093D9079093DA07C0918C086C2F59
:101D340070E080E090E00E9437239B01AC01C70172
:101D4400B6010E940132882384F46C2F70E080E095
:101D540090E00E9435236B017C016093D707709358
:101D6400D8078093D9079093DA07C701B6010E9478
:101D7400D225862FCF91FF90EF90DF90CF90BF9028
:081D8400AF909F908F9008952D
:101D8C00CF93DF9380915707909158070E94A81A20
:101D9C00C82F8091730881111AC0C13081F581E080
:101DAC0080937308809181088111E5C065E474E02B
:101DBC0080E00E94B422882309F4DDC088EE93E011
:101DCC000E947B2E8091C5060E94A220D4C0C130F7
:101DDC0009F4D1C0109273088091810881110FC051
:101DEC0065E574E080E00E94B422882341F088EE1F
:101DFC0093E00E947B2E8091C5060E94A220CC23EA
:101E0C0009F4BBC0C230F9F480917208882321F028
:101E1C00109272080E94A52C80917108882309F4F5
:101E2C009EC00E94E3312091E9073091EA078217A6
:101E3C00930709F094C08091E7079091E8070E94FE
:101E4C009F1ED1E010C0C33069F4809170088823C4
:101E5C0029F063E674E080E00E94B42210927008CE
:101E6C00D0E053C0D0E081E080937008C43031F4EE
:101E7C006BE674E080E00E94B4226AC0C53009F0C1
:101E8C0044C064E774E080E00E94B4228091710841
:101E9C0081110CC00E94E3319093E8078093E7070F
:101EAC000E94E8319093EA078093E90780917108CA
:101EBC008F5F80937108833041F46BE774E080E0AE
:101ECC000E94B4221092710843C00E94E331209109
:101EDC00E7073091E8078217930739F48091E907F7
:101EEC009091EA070E949F1E35C00E94E331209119
:101EFC00E9073091EA078217930761F58091E707AC
:101F0C009091E8070E949F1E25C0C63009F50E94DB
:101F1C00E3318F3F9740E1F468E874E080E00E9481
:101F2C00B42281E08093720888EE93E00E94D9314C
:101F3C0080E69AEE0E94DE3120E030E040E45FE380
:101F4C00CA01B9010E9431308FEF97E00E949F1EA9
:101F5C00DD2399F088EE93E00E947B2E0EC061E9A0
:101F6C0074E080E00E94B4221092710881E08093AA
:101F7C007008D0E083CFD0E076CF80E0DF91CF91B6
:021F8C000895B6
:101F8E000F931F93CF93DF93CDB7DEB76E970FB638
:101F9E00F894DEBF0FBECDBF80917C088111D4C0F6
:101FAE0080916F07882309F4DDC081E080937C085F
:101FBE0048E466E083E40E94F11881E098E00E9414
:101FCE0006318AE080937B08E3E5F7E081858F9305
:101FDE0080858F9386EE92E0A0E0AF939F938F93D0
:101FEE008E010F5F1F4F1F930F930E945629B8014A
:101FFE0080E80E94B42284E080937C080FB6F894A7
:10200E00DEBF0FBECDBF03C0843009F0A1C08091EA
:10201E005B0790915C078430994258F482E080937C
:10202E007C0881E098E00E9406318AE080937B086C
:10203E0024C068EE73E081E098E00E94172E88239A
:10204E00E1F0E3E5F7E081858F9380858F9386EE4F
:10205E0092E0A0E0AF939F938F938E010F5F1F4F7F
:10206E001F930F930E945629B80180E80E94B42254
:10207E000FB6F894DEBF0FBECDBF80917C088823CB
:10208E0009F45CC080916F07882309F441C065C0D4
:10209E0080916F07811103C083E080937C0868EE06
:1020AE0073E081E098E00E94172E882369F18091F9
:1020BE007B08882321F0815080937B0809C04CE473
:1020CE0066E083E40E94F11884EF91E00E947B2E7B
:1020DE0080917B088530C0F41F928F9387EF92E03A
:1020EE00A0E0AF939F938F938E010F5F1F4F1F93AF
:1020FE000F930E945629B80180E80E94B4220FB6B1
:10210E00F894DEBF0FBECDBF80917C088330C1F442
:10211E0010927C084CE466E083E40E94F11869E1B9
:10212E0072E080E00E94B422882361F08091C5069F
:10213E009091C6060E94A22081E014C081E012C0D8
:10214E0081E010C081E00EC0813009F05DCF30CF4C
:10215E0080917C088230C1F69BCF80917C088230C2
:10216E0099F69DCF6E960FB6F894DEBF0FBECDBF1B
:0A217E00DF91CF911F910F9108959A
:1021880065E084E40E940C2744E6682F8DEF97E011
:102198000E946A2D823091F48091690781110EC0E6
:1021A80080916707482F50E02091A9063091AA0630
:1021B8004217530718F48F5F8093670766E084E43B
:1021C8000E940C2744E6682F8BEF97E00E946A2D47
:1021D800823091F480916A0781110EC0809168075E
:1021E800482F50E02091A9063091AA0642175307BC
:1021F80018F48F5F8093680760E087E40E940C27DB
:1022080044E6682F89EF97E00E946A2D882349F0F9
:10221800823019F410926B0704C0813011F4809356
:102228006B0761E087E40E940C2744E6682F87EF7C
:1022380097E00E946A2D882351F0823021F481E0D2
:1022480080936C0704C0813011F410926C0760E031
:1022580083E40E940C2744E6682F85EF97E00E94EC
:102268006A2D882351F0823021F481E08093690738
:1022780004C0813011F41092690761E083E40E9480
:102288000C2744E6682F83EF97E00E946A2D882385
:1022980051F0823021F481E080936A0704C08130D4
:1022A80011F410926A0766E085E40E940C2744E660
:1022B800682F81EF97E00E946A2D882379F0823099
:1022C80031F46FEA71E080E00E94362707C0813060
:1022D80029F46DEB71E080E00E94362767E085E421
:1022E8000E940C2744E6682F8FEE97E00E946A2D23
:1022F800882379F0823031F46DEC71E080E00E943F
:10230800362707C0813029F46BED71E080E00E9428
:06231800362780E0089565
:10231E000F930CE427E042E46FE484E40E94962DD0
:10232E0022E041E46FE484E40E94962D08E425E067
:10233E0044E469E484E40E94962D26E044E469E4D2
:10234E0084E40E94962D20E047E469E484E40E9430
:10235E00962D21E047E469E484E40E94962D20E066
:10236E0043E469E484E40E94962D21E043E469E4A9
:10237E0084E40E94962D26E045E469E484E40E94FC
:10238E00962D27E045E469E484E40E94962D20E032
:10239E0046E469E484E40E94962D22E045E469E473
:1023AE0084E40E94962D25E045E469E484E40E94CD
:1023BE00962D0CE425E046E469E481E40E94962D16
:1023CE0026E046E469E481E40E94962D27E046E487
:1023DE0069E481E40E94962D22E043E46FE484E4F4
:1023EE000E94962D23E043E46FE484E40E94962D30
:1023FE0024E043E46FE484E40E94962D23E041E45C
:10240E006FE484E40E94962D21E046E46FE484E4B8
:10241E000E94962D26E043E46FE484E40E94962DFC
:10242E0023E045E46FE484E40E94962D24E045E425
:10243E006FE484E40E94962D08E426E041E46FE404
:10244E0084E40E94962D0CE425E042E46FE484E4DB
:10245E000E94962D26E042E46FE484E40E94962DBD
:10246E0021E044E469E484E40E94962D08E420E02F
:10247E0044E469E484E40E94962D0CE423E047E4EE
:10248E006FE484E40E94962D24E047E46FE484E434
:08249E000E94962D0F91089594
:1024A6005F926F927F928F929F92AF92BF92CF92DE
:1024B600DF92EF92FF920F931F93CF93DF93CDB7E7
:1024C600DEB7A1970FB6F894DEBF0FBECDBF3B01B6
:1024D600882E942E552EB22EA32ECF8ED8A2E9A2E8
:1024E600E0912708F0912808099525E1CE0101968B
:1024F6007C01AC01882DB3010E94E31D370190E8F1
:10250600892EE0912108F0912208482D930160E080
:1025160070E080E090E009955F929F928FE29AE0EA
:10252600A0E0AF939F938F93FF92EF920E9456295C
:10253600E0912108F0912208482D93016CE070E0AB
:1025460080E090E00995AF92BF9287E39AE0A0E021
:10255600AF939F938F93FF92EF920E945629E0913B
:102566002108F0912208482D930168E170E080E08F
:1025760090E009951F930F938FE39AE0A0E0AF9345
:102586009F938F93FF92EF920E945629E091210824
:10259600F0912208482D930168E170E080E590E013
:1025A6000995E0912108F09122082F8D38A149A1C3
:1025B6006CE070E080E590E00995E0912508F091E7
:1025C600260809950FB6F894DEBF0FBECDBFA196BB
:1025D6000FB6F894DEBF0FBECDBFDF91CF911F912E
:1025E6000F91FF90EF90DF90CF90BF90AF909F90AC
:0A25F6008F907F906F905F90089522
:102600006F927F928F92CF92DF92EF92FF920F9311
:102610001F93CF93DF93CDB7DEB76E970FB6F894C5
:10262000DEBF0FBECDBF3B01882E6A01F22EE091C6
:102630002708F0912808099525E18E010F5F1F4FAB
:10264000A801882DB3010E94E31D380180E8882E7F
:10265000E0912108F0912208482D930160E070E09C
:1026600080E090E009952F2D30E0790191E6E90EA8
:10267000F11CF901EE0FFF1FE20FF31FEC0DFD1D22
:1026800082818F9381818F9380818F93FF92EF92CC
:1026900081E29AE0A0E0AF939F938F931F930F93F3
:1026A0000E945629E0912108F0912208482D9301BB
:1026B0006CE070E080E090E009958091860890E001
:1026C000FC01EE0FFF1F880F991F880F991F880FBD
:1026D000991F8E0F9F1FE0911D08F0911E08E80FB3
:1026E000F91F868197818F599F4F9F938F93FF92F8
:1026F000EF9289E29AE0A0E0AF939F938F931F93AC
:102700000F930E945629E0912108F0912208482D4C
:10271000930168E170E089E690E00995E091250871
:10272000F091260809950FB6F894DEBF0FBECDBF15
:102730006E960FB6F894DEBF0FBECDBFDF91CF917E
:102740001F910F91FF90EF90DF90CF908F907F902F
:042750006F900895E9
:102754006F927F928F92AF92BF92CF92DF92EF925D
:10276400FF920F931F93CF93DF93CDB7DEB76E978E
:102774000FB6F894DEBF0FBECDBFC62EB72EA82E5F
:10278400D42EE0912708F091280809956091E1077B
:102794007091E2078091E30725E1AE014F5F5F4F3F
:1027A4007A010E94E31D370150E8852EE09121084B
:1027B400F0912208482D930160E070E080E090E001
:1027C40009950D2D10E00F5F1F4FAF92BF92CF926E
:1027D4001F930F9381E19AE0A0E0AF939F938F93AF
:1027E400FF92EF920E945629E0912108F09122086D
:1027F400482D93016EE070E080E090E009958091AF
:10280400870890E001969F938F931F930F9388E11D
:102814009AE0A0E0AF939F938F93FF92EF920E9470
:1028240056290FB6F894DEBF0FBECDBF98E09D15B4
:1028340060F4E0912108F0912208482D930168E1A9
:1028440070E08FE590E009950BC0E0912108F091CC
:102854002208482D930168E170E085E690E009952F
:10286400E0912508F091260809956E960FB6F89424
:10287400DEBF0FBECDBFDF91CF911F910F91FF90AF
:10288400EF90DF90CF90BF90AF908F907F906F903C
:022894000895A5
:102896008F929F92AF92BF92CF92DF92EF92FF926A
:1028A6001F93CF93DF93C7ECD7E00F2EF0E7EF2E01
:1028B600F7E0FF2EF02D0F2EFBECCF2EF7E0DF2EEC
:1028C600F02D10E05E018881882309F460C0F701CD
:1028D60080819181009721F001979183808357C071
:1028E600F6018081811130C011110AC04CE464E008
:1028F60083E40E94F118F6018081813049F145C0D8
:10290600113051F44CE463E083E40E94F118F601BF
:102916008081813029F139C0123051F44CE462E0F3
:1029260083E40E94F118F6018081813009F12DC0FF
:10293600133059F54CE463E081E40E94F118F60186
:1029460080818130E9F021C08130F9F4111106C08F
:1029560048E464E083E40E94F11817C0113031F4B2
:1029660048E463E083E40E94F1180FC0123031F4AA
:1029760048E462E083E40E94F11807C0133029F4AA
:1029860048E463E081E40E94F118F50110821F5FBC
:102996002196F2E0EF0EF11C8FEFC81AD80A143018
:1029A60009F090CFDF91CF911F91FF90EF90DF90CC
:0C29B600CF90BF90AF909F908F9008953D
:1029C20080917F08811109C080916707811183C0BE
:1029D20080916807811174C0089580917E088111E9
:1029E2000AC00E94FC31909304088093030881E09E
:1029F20080937E0802C0813029F50E94FC3120912B
:102A0200030830910408821B930B9C0122F42227B5
:102A12003327281B390B2B303105A4F082E0809339
:102A22007E0880917F08813409F047C083E094E0FA
:102A32000E949F1E80917F08823421F483ED9BE0E7
:102A42000E949F1E80917E08823009F50E943C32CE
:102A520081111DC083E080937E0880917F088134BC
:102A620029F46091B10680E00E949D1780917F0851
:102A7200823429F46091B10681E00E949D1788EEAC
:102A820093E00E947B2E8FEF97E00E949F1E809121
:102A92007E08833071F40E943C3281110CC084EFB5
:102AA20091E00E947B2E10927F0810927E0881E0B6
:102AB200089581E0089581E00895823439F6BECF09
:102AC20010927E0882E480937F08E7E6F7E0818136
:102AD2008150818386CF10927E0891E490937F0883
:082AE2008150809367077DCF4E
:102AEA00CF9361E070E087E098E00E94172E882378
:102AFA0009F480C060E086E40E940C2720E04AE0E6
:102B0A00682F83EC97E00E9489268823E9F08130B8
:102B1A0069F483EC97E00E9417328E35914009F0F0
:102B2A006BC08FE40E942D28C1E013C0823071F47B
:102B3A0083EC97E00E9417328E35914048F482E484
:102B4A000E942D28C1E005C0C0E003C0C0E001C05A
:102B5A00C0E065E085E40E940C2720E04AE0682F87
:102B6A008FEB97E00E9489268823D9F0813061F49F
:102B7A008FEB97E00E9417328F35914090F085E5F0
:102B8A000E942D28C1E00DC0823059F48FEB97E0E6
:102B9A000E9417328E35914020F485E50E942D2837
:102BAA00C1E062E085E40E940C2720E04AE0682F39
:102BBA008BEB97E00E948926882301F1813061F42A
:102BCA008BEB97E00E9417328F359140B8F084E47E
:102BDA000E942D28C1E012C0823081F48BEB97E06D
:102BEA000E9417328E35914048F484E40E942D28C1
:102BFA00C1E004C0C0E002C0C0E0ABCF8C2FCF91CF
:022C0A0008952B
:102C0C002F923F924F926F927F928F92CF92DF9240
:102C1C00EF92FF920F931F93CF93DF93CDB7DEB755
:102C2C00EC970FB6F894DEBF0FBECDBF811161C01B
:102C3C0064E670E089E098E00E94172E882309F47E
:102C4C0055C00E9479310F2EF3E5EF2EF7E0FF2EE1
:102C5C00F02DF70181858F9380858F9386E991E024
:102C6C00A0E0AF939F938F938E01015E1F4F1F9334
:102C7C000F930E9456291801F0E84F2E25E1CE0142
:102C8C0001966C01AC01842DB1010E94E31D36014B
:102C9C0090E8892E482D930168E070E080E090E088
:102CAC000E948531F70185818F9384818F9383EA0C
:102CBC0091E0A0E0AF939F938F931F930F930E948B
:102CCC00562925E1A601842DB1010E94E31D482D52
:102CDC00930164E170E080E090E00E9485310E94F5
:102CEC007F310FB6F894DEBF0FBECDBF82E50E94D8
:102CFC002D2880E090E0EC960FB6F894DEBF0FBE66
:102D0C00CDBFDF91CF911F910F91FF90EF90DF908E
:102D1C00CF908F907F906F904F903F902F90089511
:102D2C002FE236E241E050E069E080EA95E00E9453
:102D3C0025312AE432E340E050E060E087EA95E098
:102D4C000E94253126EB36E240E050E060E08EEA4E
:102D5C0095E00E9425312FE032E340E050E069E03D
:102D6C0085EB95E00E9425312BE032E341E050E009
:102D7C0069E08CEB95E00E94253124EC30E141E0D8
:102D8C0050E069E083EC95E00E94253124E53FE1B9
:102D9C0040E050E069E08AEC95E00E94253120E5A6
:102DAC0030E241E050E069E081ED95E00E94253190
:102DBC0026EC3EE04AE050E069E08FED95E00E94A1
:102DCC0025312DE339E041E050E069E088ED95E0F4
:102DDC000E94253125E234E241E050E060E086EECD
:102DEC0095E00E9425312AEE33E241E050E060E0AC
:102DFC008DEE95E00E94253129E33CE24AE050E05B
:102E0C0068E084EF95E00E94253160E086E40E9442
:102E1C000C27882329F088ED95E00E94C03104C06E
:102E2C0081ED95E00E94C03181E00E9479290895DE
:102E3C006F927F928F92AF92BF92CF92EF92FF924E
:102E4C000F931F93CF93DF93CDB7DEB7EC970FB6ED
:102E5C00F894DEBF0FBECDBF811154C084E690E064
:102E6C000E947B2E0E9479310E94F2209F938F93B7
:102E7C008AEF91E0A0E0AF939F938F938E01015E58
:102E8C001F4F1F930F930E945629580180E8C82E9C
:102E9C0025E1CE0101967C01AC018C2DB5010E947F
:102EAC00E31D370190E8892E482D930168E070E00E
:102EBC0080E090E00E9485310E9440219F938F9387
:102ECC0083E092E0A0E0AF939F938F931F930F93B7
:102EDC000E94562925E1A7018C2DB5010E94E31D06
:102EEC00482D930164E170E080E090E00E94853110
:102EFC000E947F3182E50E942D280FB6F894DEBF28
:102F0C000FBECDBF80E090E0EC960FB6F894DEBF1C
:102F1C000FBECDBFDF91CF911F910F91FF90EF901E
:0E2F2C00CF90BF90AF908F907F906F900895E0
:102F3A00CF93DF93C82FD0E0FE01E953F84F91E019
:102F4A009083FE01EE0FFF1FE059F84F94E6699F48
:102F5A00B001112471836083FE01E553F84F90811B
:102F6A00911135C081110CC048E464E083E40E94E9
:102F7A00F118C553D84F8881813009F049C02BC058
:102F8A00813059F448E463E083E40E94F118C553A0
:102F9A00D84F88818130E1F526C0823059F448E45F
:102FAA0062E083E40E94F118C553D84F88818130CA
:102FBA0079F521C0833061F548E463E081E40E9439
:102FCA00F118C553D84F8881813011F51CC0913052
:102FDA00F9F4811106C04CE464E083E40E94F1181C
:102FEA0017C0813031F44CE463E083E40E94F118A5
:102FFA000FC0823031F44CE462E083E40E94F1189D
:10300A0007C0833029F44CE463E081E40E94F1189C
:06301A00DF91CF91089543
:103020006F927F928F92CF92DF92EF92FF920F93E7
:103030001F93CF93DF93CDB7DEB7EF970FB6F8941A
:10304000DEBF0FBECDBF162FD72EC82E2DAF3EAF81
:103050004FAF3701802E0E947931CF92DF921F93BC
:10306000CE0101966C019F938F930E9456298E0189
:10307000015E1F4FB60180E825E1A8010E94E31D13
:10308000680190E8E92E4E2D960160E070E080E046
:1030900090E00E94853125E1A8016DAD7EAD8FAD38
:1030A0000E94E31D4E2D96016CE070E080E090E000
:1030B0000E94853125E1A801882DB3010E94E31DFE
:1030C0004E2D960168E170E080E090E00E9485312D
:1030D0000E947F310F900F900F900F900F90EF96FE
:1030E0000FB6F894DEBF0FBECDBFDF91CF911F9119
:1030F0000F91FF90EF90DF90CF908F907F906F9027
:02310000089530
:103102004F925F926F927F928F929F92AF92BF92F5
:10311200FF920F931F93CF93DF93F12CC1E0D0E086
:1031220000E41FE1882E912CA12CB12C02C0C0E03A
:10313200D1E0F394C801BE010E94532E80E090E0DA
:103142000E9435239B01AC0160E070E080E89FE3C0
:103152000E942B322B013C01C501B4010E9437238E
:10316200A30192010E942B322B013C0120E030E0AE
:103172004FE753E40E94013288238CF0CC0FDD1F0D
:10318200CC0FDD1FCC0FDD1FC11582E0D80779F20D
:10319200C11588E0D80769F6C0E0D4E0CACF15BCF3
:1031A200A301920160E070E08FE793E40E94563140
:1031B2000E94D225609389080E941F32F5BC81E0EB
:1031C2000E94B430DF91CF911F910F91FF90BF9079
:1031D200AF909F908F907F906F905F904F900895E7
:1031E20021E030E002C0220F331F6A95E2F7483433
:1031F20071F5813421F48BB3282B2BBB08958234D3
:1032020021F488B3282B28BB0895833421F485B395
:10321200282B25BB0895843421F482B3282B22BBAA
:103222000895853421F483B1282B23B90895863477
:1032320031F4E2E6F0E08081282B20830895873480
:10324200E1F5E5E6F0E08081282B208308954C34F7
:10325200A1F5813429F48BB3209528232BBB089543
:10326200823429F488B32095282328BB0895833417
:1032720029F485B32095282325BB0895843429F4A5
:1032820082B32095282322BB0895853429F483B183
:103292002095282323B90895863439F4E2E6F0E034
:1032A20080812095282320830895873431F4E5E630
:0C32B200F0E080812095282320830895FF
:1032BE0021E030E002C0220F331F6A95E2F74F344F
:1032CE0071F5813421F48AB3282B2ABB08958234F8
:1032DE0021F487B3282B27BB0895833421F484B3BC
:1032EE00282B24BB0895843421F481B3282B21BBD1
:1032FE000895853421F482B1282B22B9089586349D
:10330E0031F4E1E6F0E08081282B208308958734A4
:10331E00E1F5E4E6F0E08081282B2083089549341E
:10332E00A1F5813429F48AB3209528232ABB089568
:10333E00823429F487B32095282327BB089583343C
:10334E0029F484B32095282324BB0895843429F4CA
:10335E0081B32095282321BB0895853429F482B1A9
:10336E002095282322B90895863439F4E1E6F0E059
:10337E0080812095282320830895873431F4E4E654
:0C338E00F0E08081209528232083089522
:10339A000E94643158F00E945D3140F029F45F3F89
:1033AA0029F00C94B53151110C946C310C944532BE
:1033BA000E94BD2968F39923B1F3552391F3951B14
:1033CA00550BBB27AA2762177307840738F09F5F3C
:1033DA005F4F220F331F441FAA1FA9F335D00E2EA9
:1033EA003AF0E0E832D091505040E695001CCAF716
:1033FA002BD0FE2F29D0660F771F881FBB1F2617D9
:10340A0037074807AB07B0E809F0BB0B802DBF01AF
:10341A00FF2793585F4F3AF09E3F510578F00C947E
:10342A00B5310C946C315F3FE4F3983ED4F3869542
:10343A0077956795B795F7959F5FC9F7880F911D9F
:10344A009695879597F90895E1E0660F771F881F8B
:10345A00BB1F621773078407BA0720F0621B730B3E
:0C346A00840BBA0BEE1F88F7E095089564
:103476006F927F928F929F92AF92BF92CF92DF927E
:10348600EF92FF920F931F93CF93DF93CDB7DEB7E3
:103496006E970FB6F894DEBF0FBECDBF5C014B0131
:1034A6005F934F933F932F938DE49AE0A0E0AF9301
:1034B6009F938F938E010F5F1F4F1F930F930E9451
:1034C6005629B80180E80E94C22D0FB6F894DEBFD7
:1034D6000FBECDBF882321F168018150E82EF12C63
:1034E600FFEFEF1AFF0AE00EF11E0F2EF8E76F2E20
:1034F600F7E07F2EF02DF301438198012C193D0949
:10350600429FC001439F900D1124F80141918F0104
:10351600B4018A0D9B1D0E94D80A0E151F0559F786
:103526006E960FB6F894DEBF0FBECDBFDF91CF917A
:103536001F910F91FF90EF90DF90CF90BF90AF90CB
:0A3546009F908F907F906F90089582
:103550000F931F93CF938C010E94E126C1E081114C
:1035600001C0C0E090919208992381F1882319F05D
:103570001092910848C00E941029882369F081E0C8
:103580008093910880915508909156089093460831
:1035900080934508C2E037C0209147083091480821
:1035A0008091490890914A088217930720F410925D
:1035B0009108C4E028C08091430890914408801786
:1035C000910720F510929108C5E01DC080919108E7
:1035D000882321F180914F0890915008209145084F
:1035E00030914608821B930B9C0122F4222733273B
:1035F000281B390B80914B0890914C088217930738
:1036000068F4C6E00BC00E94A33108C00E94920D6E
:10361000682F809190080E94C828C3E08C2FCF911A
:063620001F910F910895B7
:10362600BF92CF92DF92EF92FF920F931F93CF93A9
:10363600DF93CDB7DEB7EC970FB6F894DEBF0FBEBB
:10364600CDBF6B01E82EF42EB52EE0912708F09140
:103656002808099525E18E010F5F1F4FA8018E2DC1
:10366600B6010E94E31D680180E8E82EE09121087A
:10367600F09122084E2D960160E070E080E090E027
:103686000995BF92FF928EE19AE0A0E0AF939F93D7
:103696008F931F930F930E945629025E1F4F25E1B9
:1036A600A8018E2DB6010E94E31D980140E8E09125
:1036B6002108F091220860E170E080E090E0099531
:1036C600E0912508F091260809950FB6F894DEBF1B
:1036D6000FBECDBFEC960FB6F894DEBF0FBECDBFC2
:1036E600DF91CF911F910F91FF90EF90DF90CF90D8
:0436F600BF900895E4
:1036FA008038910508F064C06032710508F060C036
:10370A00413021F008F14230F1F10895FB01F695BC
:10371A00E795F695E795F695E795F695FE2FEE2748
:10372A00F795E7958E0F9F1FFC01E050FD4F6770DC
:10373A00772781E090E002C0880F991F6A95E2F727
:10374A009081892B80830895FB01F695E795F6957C
:10375A00E795F695E795F695FE2FEE27F795E79507
:10376A008E0F9F1FFC01E050FD4F6770772781E0A5
:10377A0090E002C0880F991F6A95E2F780959081C0
:10378A00892380830895FB01F695E795F695E795D9
:10379A00F695E795F695FE2FEE27F795E7958E0FA6
:1037AA009F1FFC01E050FD4F6770772781E090E092
:1037BA0002C0880F991F6A95E2F790818927808352
:0237CA00089560
:1037CC000E945D3138F00E94643120F0952311F095
:1037DC000C94B5310C94453211240C946C310E942C
:1037EC00BD2970F3959FC1F3950F50E0551F629F53
:1037FC00F001729FBB27F00DB11D639FAA27F00D3E
:10380C00B11DAA1F649F6627B00DA11D661F829F64
:10381C002227B00DA11D621F739FB00DA11D621F49
:10382C00839FA00D611D221F749F3327A00D611D66
:10383C00231F849F600D211D822F762F6A2F112448
:10384C009F5750409AF0F1F088234AF0EE0FFF1F7B
:10385C00BB1F661F771F881F91505040A9F79E3FD2
:10386C00510580F00C94B5310C946C315F3FE4F34E
:10387C00983ED4F3869577956795B795F795E79528
:10388C009F5FC1F7FE2B880F911D9695879597F931
:02389C0008958D
:10389E00CF93DF93C82FD0E0FE01E953F84F10828B
:1038AE00FE01E553F84F9081911135C081110CC086
:1038BE004CE464E083E40E94F118C553D84F88812C
:1038CE00813009F049C02BC0813059F44CE463E0DB
:1038DE0083E40E94F118C553D84F88818130E1F5F9
:1038EE0026C0823059F44CE462E083E40E94F11861
:1038FE00C553D84F8881813079F521C0833061F569
:10390E004CE463E081E40E94F118C553D84F8881DE
:10391E00813011F51CC09130F9F4811106C048E4D4
:10392E0064E083E40E94F11817C0813031F448E45A
:10393E0063E083E40E94F1180FC0823031F448E452
:10394E0062E083E40E94F11807C0833029F448E452
:0E395E0063E081E40E94F118DF91CF9108959B
:10396C000E945D3138F00E94643120F039F49F3FA1
:10397C0019F426F40C9445320EF4E095E7FB0C9404
:10398C00B531E92F0E94BD2958F3BA1762077307A6
:10399C008407950720F079F4A6F50C946B310EF49E
:1039AC00E0950B2EBA2FA02D0B01B90190010C0143
:1039BC00CA01A0011124FF27591B99F0593F50F45B
:1039CC00503E68F11A16F040A22F232F342F4427B3
:1039DC00585FF3CF469537952795A795F0405395AB
:1039EC00C9F77EF41F16BA0B620B730B840BBAF07B
:1039FC009150A1F0FF0FBB1F661F771F881FC2F7E6
:103A0C000EC0BA0F621F731F841F48F487957795F9
:103A1C006795B795F7959E3F08F0B0CF9395880FB3
:0C3A2C0008F09927EE0F979587950895F4
:103A380090931408809313087093120860931108E8
:103A48005093100840930F088EEA0E94C52A85ED0E
:103A58000E94C52A80E80E94C52A88EA0E94C52AD1
:103A68008FE10E94C52A83ED0E94C52A80E00E944A
:103A7800C52A80E40E94C52A8DE80E94C52A84E1EF
:103A88000E94C52A80E20E94C52A80E00E94C52AB9
:103A980081EA0E94C52A88EC0E94C52A8AED0E9404
:103AA800C52A82E00E94C52A81E80E94C52A8FE8BB
:103AB8000E94C52A89ED0E94C52A81EF0E94C52A65
:103AC8008BED0E94C52A80E40E94C52A84EA0E94E0
:103AD800C52A86EA0E94C52A8EE20E94C52A8FEA74
:103AE8000E94C52A66EC77E080E00E945C260E946E
:083AF80094300E948E21089514
:103B0000CF93DF93C82FD0E0FE01E553F84F6083D9
:103B1000611135C081110CC04CE464E083E40E9463
:103B2000F118C553D84F8881813009F049C02BC0A6
:103B3000813059F44CE463E083E40E94F118C553EA
:103B4000D84F88818130E1F526C0823059F44CE4A9
:103B500062E083E40E94F118C553D84F8881813018
:103B600079F521C0833061F54CE463E081E40E9483
:103B7000F118C553D84F8881813011F51CC06130D0
:103B8000F9F4811106C048E464E083E40E94F1186E
:103B900017C0813031F448E463E083E40E94F118F7
:103BA0000FC0823031F448E462E083E40E94F118EF
:103BB00007C0833029F448E463E081E40E94F118EF
:063BC000DF91CF91089592
:103BC600DF92EF92FF920F931F93CF93DF93D62E40
:103BD600E72EF82EEA01022F0E94C22D582F8017D9
:103BE60060F010E098014D2D5E2D6F2DCE010E94E4
:103BF6003329C00FD11F188239C0081B902F969504
:103C0600091B992369F0FE012FEF290F30E02F5F82
:103C16003F4F2C0F3D1F40E241932E173F07E1F720
:103C2600552399F02D2D3E2D4F2D890FF9015491D5
:103C360047FD5081FE01E90FF11D50832F5F3F4F75
:103C46004F4F9F5F9813F2CF01C0892F002351F089
:103C5600080F90E2FE01E80FF11D90838F5F80133D
:103C6600F9CF01C0082FC00FD11D1882DF91CF9167
:0C3C76001F910F91FF90EF90DF900895D8
:103C8200FA01AA27283051F1203181F1E8946F938B
:103C92006E7F6E5F7F4F8F4F9F4FAF4FB1E03ED031
:103CA200B4E03CD0670F781F891F9A1FA11D680FCF
:103CB200791F8A1F911DA11D6A0F711D811D911D02
:103CC200A11D20D009F468943F912AE0269F112477
:103CD2003019305D3193DEF6CF010895462F4770DB
:103CE200405D4193B3E00FD0C9F7F6CF462F4F7036
:103CF200405D4A3318F0495D31FD4052419302D094
:103D0200A9F7EACFB4E0A695979587957795679539
:103D1200BA95C9F700976105710508959B01AC0139
:103D22000A2E06945795479537952795BA95C9F760
:0C3D3200620F731F841F951FA01D0895D1
:103D3E00CF93DF93EC010E94E126982F81114EC0A4
:103D4E0080919208811114C020914F083091500833
:103D5E002C1B3D0BA90122F444275527421B530B64
:103D6E0020914B0830914C084217530740F439C04C
:103D7E002091550830915608C217D30789F10E9439
:103D8E00EC3080914F089091500890935408809396
:103D9E005308D0935608C093550820918F082111CF
:103DAE000AC0C817D90718F4109290080FC081E006
:103DBE00809390080BC0213049F4C817D90718F426
:103DCE001092900803C081E08093900810924808EA
:103DDE001092470881E08093920803C080E001C0F2
:083DEE00892FDF91CF910895A8
:103DF6000F931F93CF93DF938C01EB0161E070E08B
:103E060085E098E00E94172E882309F445C060E0FB
:103E160086E40E940C2720E04AE0682F87EB97E0B3
:103E26000E948926813039F487EB97E00E94173289
:103E36008017910751F165E085E40E940C2720E088
:103E46004AE0682F83EB97E00E948926813039F497
:103E560083EB97E00E9417328C179D07C1F062E052
:103E660085E40E940C2720E04AE0682F8FEA97E05D
:103E76000E948926813069F48FEA97E00E94173202
:103E8600C817D90741F080E007C08FE405C085E573
:103E960003C080E001C084E4DF91CF911F910F91B0
:023EA60008957D
:103EA800CF93DF930E944831882309F44AC0809158
:103EB8007908811107C086E00E94DA3081E080939A
:103EC80079083FC0813039F487E00E94DA3082E017
:103ED8008093790836C0823039F485E00E94DA3060
:103EE80083E0809379082DC0833059F5C3E5D7E086
:103EF8002E813F81A8E8B3E10E9462302FEF33E0C2
:103F080040E050E00E943D2DA7E3B9E10E949F30B8
:103F180028EE33E040E050E00E943D2DDA01C9016F
:103F280084549D4FAF4FBF4F9987888780359644FB
:103F380020F481E080936F0702C010926F071092FF
:0A3F4800790880E0DF91CF91089521
:103F52006F927F928F92AF92BF92CF92DF92EF9247
:103F62000F931F93CF93DF935C013A01862E862F26
:103F7200BA010E94C22D282F00917B07E02FF0E0AA
:103F820080E890E0BF010E94672E822F621708F43A
:103F9200862F681B66956E9FE0016F9FD00D1124DE
:103FA2008823E9F0E82C630110E0815090E001964B
:103FB200680E791E811C97FD8A94F6014491E7FCF4
:103FC2004081B501CE010E94D80A8FEFC81AD80AE3
:103FD200E80AC00FD11FC614D704E80471F7DF91B5
:103FE200CF911F910F91EF90DF90CF90BF90AF9044
:083FF2008F907F906F900895FD
:103FFA00E7E8F6E01382128215821482178216828B
:10400A0011861086138612861586148617861686DA
:10401A00118A108A138A128A158A148A178A168AAA
:10402A00118E108E81E090E0938F828F22E330E030
:10403A00358F248F2EE531E0378F268F11A210A2FB
:10404A0093A382A395A384A385E090E097A386A374
:10405A0091A780A78FE090E095A784A78CE090E0D5
:10406A0097A786A78AE090E091AB80AB93AB82AB2F
:10407A008AE590E095AB84AB20E530E037AB26AB20
:10408A0088E290E091AF80AF33AF22AF95AF84AFB3
:06409A0017AE16AE0895FA
:1040A0000E947515882379F08CE38093780888E75F
:1040B0008093770887E497E090930E0880930D082B
:1040C00081E0809380080E94602481110CC080915F
:1040D0007608811112C081E0809376088091C50630
:1040E0000E94A2200AC080917608813031F410929B
:1040F00076080E94AA300E94133268EE73E08DEEBB
:1041000097E00E94172E8823D9F0809178088823A1
:1041100059F0815080937808813031F40E94C83082
:104120008091C5060E94A22080917708882341F0E3
:10413000815080937708813019F480E00E94AA3082
:0441400080E008957E
:10414400CF93DF93C82F0E94943060E071E080E841
:104154000E94D82D4091DB075091DC076091DD0768
:1041640089E190E00E94A91FC130A1F5C0E0D0E030
:104174002AEA32E040E0BE018DE490E00E9424226D
:104184002596C431D105A1F71EC0C0E0D0E024EBD0
:1041940032E040E0BE0180E090E00E9424222596B7
:1041A400C431D105A1F70FC0C33069F4C0E06C2F4E
:1041B40070E022EC32E040E080E090E00E942422B3
:1041C400CB5FC431A1F70E948E2164E083E00E949A
:1041D400042B03C0C23041F7D8CFDF91CF910895AB
:1041E4001F93CF93DF93E0915F08F09160080995E6
:1041F400E0915D08F0915E088CE60995D1E081308C
:1042040009F0D0E0E0915D08F0915E088CE009953A
:10421400813009F4DF5FE0915708F091580809955F
:10422400E0915F08F09160080995E0915D08F091D4
:104234005E088DE60995813009F4DF5FE0915B0843
:10424400F0915C080995C82FE0915908F0915A083B
:104254000995182FE0915708F09158080995D11144
:1042640007C08C2F90E0982F8827810F911D02C0E2
:0C4274008FEF9FEFDF91CF911F91089515
:104280001F93CF93DF93E0915F08F0916008099549
:10429000E0915D08F0915E088CE60995D1E08130EF
:1042A00009F0D0E0E0915D08F0915E088BE109959E
:1042B000813009F4DF5FE0915708F09158080995C3
:1042C000E0915F08F09160080995E0915D08F09138
:1042D0005E088DE60995813009F4DF5FE0915B08A7
:1042E000F0915C080995C82FE0915908F0915A089F
:1042F0000995182FE0915708F09158080995D111A8
:1043000007C08C2F90E0982F8827810F911D02C045
:0C4310008FEF9FEFDF91CF911F91089578
:10431C00EF92FF920F931F93CF93DF9381E20E9452
:10432C00C52A80E00E94C52A8FE70E94C52A82E236
:10433C000E94C52A80E00E94C52A83E00E94C52AFB
:10434C00C0E0D3E00F2EF0E0EF2EF5E0FF2EF02DC5
:10435C00E0911308F09114080995E0911108F0917F
:10436C00120888E70995E0911108F091120880E491
:10437C0009958E01005F1F4FE0911108F091120812
:10438C0089910995C017D107B9F7E0910F08F09101
:10439C0010080995E8010E151F05D1F6DF91CF9194
:0A43AC001F910F91FF90EF9008950C
:1043B60080918008882309F443C080917A0881118E
:1043C60019C081E080937A088FEF97E00E9406314A
:1043D600E0910D08F0910E088081813031F448E4B7
:1043E60062E081E40E94F11805C04CE462E081E4D9
:1043F6000E94F118E0910D08F0910E08618172811A
:104406008FEF97E00E94172E8823D1F010927A083A
:10441600E0910D08F0910E08CF01039690930E08D7
:1044260080930D08838181110BC084819581892B2E
:1044360039F44CE462E081E40E94F118109280089D
:024446000895D7
:104448008F929F92AF92BF92CF92DF92EF92FF929C
:104458000F931F93CF93DF938C015B01922ED32F81
:10446800C42F622F732F842F0E94C22DF82E882309
:1044780011F1C92CDD2EEC2EC0E0D0E00F2EF8E7AC
:104488008F2EF7E09F2EF02DF6014491E7FC408136
:10449800F40123812C9FC0012D9F900D1124B5019B
:1044A800800F911F0E94D80A2196FFEFCF1ADF0ACA
:1044B800EF0ACF1548F3DF91CF911F910F91FF902D
:1044C800EF90DF90CF90BF90AF909F908F9008951E
:1044D800CF93DF93FC01433031F48381809592813F
:1044E8008923828333C0413071F5838181110CC0E7
:1044F800928191112FC0809115089091160891838F
:10450800808381E0838305C08F5F838392819111CB
:1045180005C0828383E0809382081FC0891316C078
:10452800EF01CF010E94172E882349F08B818095D7
:104538009A8189238A8382E0809382080EC081E071
:10454800809382080AC0423009F4138210928208CC
:1045580080E003C081E08383E1CFDF91CF910895AC
:10456800CF92DF92EF920F931F93CF93DF93CDB744
:10457800DEB76E970FB6F894DEBF0FBECDBF909131
:104588008308911122C06B01E82EE0912708F09171
:104598002808099524E18E010F5F1F4FA8018E2D71
:1045A800B6010E94E31D980140E8E0912108F091CE
:1045B80022086EE070E080E090E00995E09125081F
:1045C800F0912608099581E001C080E06E960FB64B
:1045D800F894DEBF0FBECDBFDF91CF911F910F9131
:0845E800EF90DF90CF900895E1
:1045F000CF92DF92EF920F931F93CF93DF93CDB7BC
:10460000DEB76E970FB6F894DEBF0FBECDBF6B015D
:10461000E82EE0912708F0912808099525E18E0100
:104620000F5F1F4FA8018E2DB6010E94E31D980158
:1046300040E8E0912108F09122086EE070E080E00F
:1046400090E00995E0912508F091260809956E966D
:104650000FB6F894DEBF0FBECDBFDF91CF911F9193
:0A4660000F91EF90DF90CF900895C6
:10466A00E89409C097FB3EF4909580957095619502
:10467A007F4F8F4F9F4F9923A9F0F92F96E9BB27B8
:10468A009395F695879577956795B795F111F8CF34
:10469A00FAF4BB0F11F460FF1BC06F5F7F4F8F4F9F
:1046AA009F4F16C0882311F096E911C0772321F095
:1046BA009EE8872F762F05C0662371F096E8862F2D
:1046CA0070E060E02AF09A95660F771F881FDAF784
:0A46DA00880F9695879597F90895CB
:1046E4000E94222A60E87DE281E090E00E947D3011
:1046F40045EE5AE260E875E280E090E00E94713095
:1047040082E49BE20E94533060E971E080E090E033
:104714000E94E3300E94D43181E00E94913160E034
:1047240081E00E94252D80E00E943F2E80E00E94BF
:104734002B2E0E949D310E94973160E081E00E94FF
:10474400203080E00E94FD2E80E00E94EB2E0E942B
:0847540027320E942332089570
:10475C000F931F93CF93DF93FB01248121FD03C0A3
:10476C008FEF9FEF2CC022FF16C04781508525810B
:10477C0036814217530744F4A081B1819D012F5F0C
:10478C003F4F318320838C93278130852F5F3F4FA0
:10479C003087278314C08B01EC01FB010184F28567
:1047AC00E02D0995892BE1F6D80117968D919C91F6
:1047BC001897019618969C938E931797CE01DF91BC
:0847CC00CF911F910F91089598
:1047D40042E061E070E083EA97E00E946C2241E0ED
:1047E40068EE73E083EA97E00E946C22882341F02C
:1047F4000E943332833021F48091C1060E94FD2E41
:1048040041E061E070E083EA97E00E946C22882333
:1048140041F00E943332833021F48091C3060E9418
:10482400FD2E41E061E070E083EA97E00E946C2293
:10483400882341F042E061E070E083EA97E00E945F
:064844006C2281E00895E2
:10484A0042E061E070E087EA97E00E946C2241E072
:10485A0068EE73E087EA97E00E946C22882341F0B1
:10486A000E943332833021F48091BD060E94EB2EE0
:10487A0041E061E070E087EA97E00E946C228823B9
:10488A0041F00E943332833021F48091BF060E94A6
:10489A00EB2E41E061E070E087EA97E00E946C222B
:1048AA00882341F042E061E070E087EA97E00E94E5
:0648BA006C2281E008956C
:1048C00080918408882381F180FF06C08E7F8093C9
:1048D00084088FE40E944C078091840881FF06C001
:1048E0008D7F8093840885E50E944C078091840821
:1048F00082FF06C08B7F8093840884E40E944C076B
:104900008091840883FF06C0877F8093840882E4B7
:104910000E944C078091840884FF06C08F7E80939C
:10492000840882E50E944C0781E0909183089111F0
:0649300001C080E00895C3
:104936000F931F9341EA5EE264EA78E28EE89EE214
:104946000E941C1D01EA1EE222E03EE24DEE5DE2FF
:1049560064EA78E28EE89EE20E94F32C22E03EE2D0
:104966004DEE5DE264EA78E28EE89EE20E940C2D4E
:1049760080E50E9442322BE33AE144E252E26EE8DD
:1049860071E284E990E30E940F3080E095E00E9496
:10499600CF318091C5060E94A2201F910F910895E4
:1049A6000E94C5318050954019F48FE00E9436323E
:1049B6000E94C5318154964019F486E00E94363231
:1049C6000E94C5318B5F954019F486E00E9436320D
:1049D6000E94C5318050954029F46FE572E080E071
:1049E6000E9433310E94C5318154964029F46FE606
:1049F60072E080E00E9433310E94C5318B5F9540A2
:0E4A060029F463E872E080E00E9433310895E5
:104A1400EBE9F0E0208122602083EAE9F0E02081E4
:104A240028692083EDE9F0E0208126602083DC0101
:104A3400CB018E7F880F991FAA1FBB1F880F991F58
:104A4400AA1FBB1F9C01AD01220F331F441F551F1A
:104A540060E072E18AE790E00E94DF29DA01C9018F
:104A64000197A109B10980939900892F9A2FAB2F3F
:084A7400BB2780939800089510
:104A7C0080917D0881112AC080916B07882349F1B0
:104A8C0081E080937D0869ED72E080E00E94B422A1
:104A9C0082E080937D0802C0823041F480916B07E4
:104AAC00811110C083E080937D0802C0833061F4D3
:104ABC008091C5069091C6060E94A22010927D0896
:104ACC0081E0089581E0089581E00895813021F717
:044ADC00DACF089590
:104AE000CF93DF93FC019081892F817090FF26C0C6
:104AF00095FD23C0EF0161817281CF0103960E9471
:104B0000172E882319F08881846088839881892FE3
:104B1000847092FF13C0892F8B7F80628883ED8120
:104B2000FE8109959881292F2F7D288393FD06C04A
:104B3000882321F09E7D988301C080E0DF91CF9192
:024B40000895D6
:104B4200AC016623F9F090918508292F30E0F90134
:104B5200EE0FFF1FE35AF84F60911D0870911E0877
:104B620071836083F901E256F84F80918608808351
:104B72009F5F9093850850931E0840931D081092E2
:104B820086080CC0109286081092850880911B0836
:104B920090911C0890931E0880931D080E94D324B4
:024BA200089574
:104BA4000E94C52988F09F5798F0B92F9927B751CB
:104BB400B0F0E1F0660F771F881F991F1AF0BA95BD
:104BC400C9F714C0B13091F00E946B31B1E008957F
:104BD4000C946B31672F782F8827B85F39F0B93F71
:104BE400CCF3869577956795B395D9F73EF4909570
:0E4BF4008095709561957F4F8F4F9F4F08956C
:104C02001F920F920FB60F9211242F933F934F933F
:104C12005F936F937F938F939F93AF93BF93EF9322
:104C2200FF9364B175B1E0913108F091320880913F
:104C3200880809958FEF80938808FF91EF91BF91C3
:104C4200AF919F918F917F916F915F914F913F9122
:0C4C52002F910F900FBE0F901F9018952F
:104C5E0042E061E070E08BEA97E00E946C2241E056
:104C6E0064E873E08BEA97E00E946C22882349F097
:104C7E000E943332833029F448E467E082E40E94D4
:104C8E00F11841E064E670E08BEA97E00E946C2236
:104C9E00882349F00E943332833029F44CE467E0D4
:0A4CAE0082E40E94F11880E00895EE
:104CB800CF93DF93A82FCB01C8E7D7E088839983E8
:104CC800AA83FC012491A7FD20812B839C014A2FF4
:104CD8002F5F3F4F4F4FF901249147FD20812C83CF
:104CE8009C014A2F2E5F3F4F4F4FF901249147FDFA
:104CF80020812D830396A11DFC018491A7FD80814D
:0A4D08008E831F82DF91CF91089582
:104D1200FC019381892F827091FF16C0A081B1811D
:104D22001196B183A083662361F08281882321F0EA
:104D32008150828381E0089542839D7F938382E044
:104D42000895228381E0089561110BC032813323DB
:104D520019F03150328306C022839260938381E03E
:0A4D62000895428311821082089523
:104D6C00CF92DF92EF9287EC96E06C0120E8E22E76
:104D7C008E2DB6010E94560C2EE932E040E08E2DAD
:104D8C00B6010E94642A892B21F487E194E00E94E9
:104D9C009F1E24EA32E040E08E2DB6010E94642A68
:104DAC00892B21F487EE9BE00E949F1E81E0EF90FF
:064DBC00DF90CF90089586
:104DC2000E94F2208F3F2FEF920719F19093520821
:104DD20080935108BC0180914D0890914E080E9429
:104DE200432A9093500880934F0820913B083091BA
:104DF2003C08281B390BA90122F444275527421BE2
:104E0200530B40938E0890933C0880933B0880E0BC
:064E1200089581E00895FF
:104E180021E030E002C0220F331F6A95E2F78134A7
:104E280011F489B31AC0823411F486B316C08334DE
:104E380011F483B312C0843411F480B30EC08534E6
:104E480011F481B10AC0863411F480B106C08734E8
:104E580019F48091630001C080E0282381E009F4FF
:044E680080E0089549
:104E6C00CF92DF92EF92CF936B01E82EFB018491EE
:104E7C00E7FC8081882379F0C0E00E940E31CF5F7F
:104E8C00AE2DC6018C0F911DA11DFC018491A7FDB7
:104E9C0080818111F2CFEBE9F0E0808186FFFDCFBC
:104EAC00EBE9F0E0808180648083CF91EF90DF901C
:044EBC00CF900895F6
:104EC0001F920F920FB60F9211242F933F934F937F
:104ED0005F936F937F938F939F93AF93BF93EF9362
:104EE000FF930E941B32E0912F08F0913008099542
:104EF000FF91EF91BF91AF919F918F917F916F91B2
:104F00005F914F913F912F910F900FBE0F901F9087
:024F10001895F2
:104F12001F920F920FB60F9211242F933F934F932C
:104F22005F936F937F938F939F93AF93BF93EF930F
:104F3200FF930E941F32E0912D08F0912E080995EF
:104F4200FF91EF91BF91AF919F918F917F916F915F
:104F52005F914F913F912F910F900FBE0F901F9035
:024F62001895A0
:104F64001F920F920FB60F9211242F933F934F93DA
:104F74005F936F937F938F939F93AF93BF93EF93BD
:104F8400FF930E944131E0912B08F0912C08099580
:104F9400FF91EF91BF91AF919F918F917F916F910D
:104FA4005F914F913F912F910F900FBE0F901F90E3
:024FB40018954E
:104FB6001F920F920FB60F9211242F933F934F9388
:104FC6005F936F937F938F939F93AF93BF93EF936B
:104FD600FF930E94D130E0912908F0912A080995A3
:104FE600FF91EF91BF91AF919F918F917F916F91BB
:104FF6005F914F913F912F910F900FBE0F901F9091
:025006001895FB
:105008001F920F920FB60F9211242F933F934F9335
:105018005F936F937F938F939F93AF93BF93EF9318
:10502800FF9380919C00E0913308F0913408099532
:10503800FF91EF91BF91AF919F918F917F916F9168
:105048005F914F913F912F910F900FBE0F901F903E
:025058001895A9
:10505A00853531F49091840892609093840810C049
:10506A008F3431F49091840891609093840810C031
:10507A00843431F48091840884608093840808958C
:10508A00823431F48091840888608093840808957A
:10509A00823529F480918408806180938408089578
:1050AA001F920F920FB60F9211242F933F934F9393
:1050BA005F936F937F938F939F93AF93BF93EF9376
:1050CA00FF938CB1E0913508F09136080995FF916C
:1050DA00EF91BF91AF919F918F917F916F915F9166
:1050EA004F913F912F910F900FBE0F901F901895DF
:1050FA00CF93DF9360E080E00E94801D60E081E052
:10510A000E94801D60E082E00E94801D60E083E0D2
:10511A000E94801DC7E8D6E06AA580E00E949D171C
:10512A006AA581E00E949D176AA582E00E949D17E8
:0E513A006AA583E00E949D17DF91CF91089532
:1051480080937300E4E7F0E080818F77808384E8C0
:1051580080838081882324F40AC0815021F407C009
:1051680083E2E4E7F0E0000090819923B4F78091AE
:105178007100887F883221F0803321F082E0089521
:0851880080E0089581E0089524
:10519000CF93C62F90918F08911112C08130C1F426
:1051A00082E00E94542C60E083E00E94542C08C0EE
:1051B0006C2F83E00E94542C60E082E00E94542C0B
:1051C00080918F08813031F48C2F0E94B42E02C060
:0851D000882371F3CF910895CB
:1051D800990F0008550FAA0BE0E8FEEF1616170600
:1051E800E807F907C0F012161306E407F50798F068
:1051F800621B730B840B950B39F40A2661F0232B81
:10520800242B252B21F408950A2609F4A140A695FC
:085218008FEF811D811D089537
:1052200080919008813069F440914F085091500866
:1052300020915508309156082417350798F080E0E2
:10524000089581110EC081E040914F08509150089F
:1052500020915508309156084217530718F080E006
:06526000089580E00895AE
:10526600CF92DF92EF926A01E62EDC01211531051D
:10527600B1F0F6014491E7FC40814C93442341F0A0
:10528600215031094FEFC41AD40AE40A1196EECF21
:105296002A0F3B1F2A173B0711F01D92FBCFEF90F9
:0652A600DF90CF90089597
:1052AC00AFE0B0E0ECE5F9E20C94892B0E891F8994
:1052BC0086E08D831A8309838FEF9FE79F838E830C
:1052CC009E01255E3F4F488D598D6A8DCE0101960A
:1052DC000E942805E885F985E00FF11F10822F96B2
:0652EC00E4E00C94982C94
:1052F200CF93C82F80FF04C086EE95E00E94BB3199
:10530200C2FF04C08DEE95E00E94BB31C1FF07C011
:1053120086EE95E00E94C03180E00E94EB2EC3FF32
:1053220007C08DEE95E00E94C03180E00E94FD2E04
:04533200CF9108957A
:10533600FC01909342088093410870934008609363
:105346003F0850933E0840933D08892B11F080E0BA
:105356000995E0913F08F0914008309711F080E000
:105366000995E0913D08F0913E08309711F080E0F4
:0453760009950895F8
:10537A0057FD9058440F551F59F05F3F71F04795FC
:10538A00880F97FB991F61F09F3F79F087950895E1
:10539A00121613061406551FF2CF4695F1DF08C000
:1053AA00161617061806991FF1CF8695710561051D
:0453BA0008940895B6
:1053BE00A1E21A2EAA1BBB1BFD010DC0AA1FBB1F0B
:1053CE00EE1FFF1FA217B307E407F50720F0A21B7D
:1053DE00B30BE40BF50B661F771F881F991F1A94EA
:1053EE0069F760957095809590959B01AC01BD0114
:0453FE00CF0108953E
:105402000F931F93CF93C82F8B0162E172E080E06C
:105412000E942C31CC2369F0B8018FE00E948930C0
:105422008091A5069091A6060E94D93180E090E075
:1054320004C08091A5069091A606CF911F910F916D
:025442000895CB
:105444000F931F93CF936FE471E38EEB90E30E946D
:10545400F5300E94FD1F07E816E0C0E08C2F0E9483
:10546400AF318F3F2FEF920719F0F80191838083BA
:10547400CF5F0E5F1F4FC03289F7CF911F910F91FD
:02548400089589
:105486006817790758F09B01281B390BC9018F3F14
:1054960037E093079CF08F5F9F4010C0861B970BE9
:1054A6008F3F27E092073CF06FEF7FE09B01281BC0
:1054B600390BC90103C09195819591098150984F87
:0254C600089547
:1054C800CF92DF92EF926B01E82EF6018491E7FC10
:1054D8008081F901549147FD508185130BC08823C1
:1054E80041F08FEFC81AD80AE80A2F5F3F4F4F4F95
:1054F800ECCF582F90E0851B9109EF90DF90CF906B
:02550800089504
:10550A00CF93C82F60E272E080E00E943A31CC2348
:10551A0089F060E070E086E10E94893062E372E01F
:10552A0080E00E94F82288EE93E00E947B2E80E0C1
:10553A0090E004C08091B3069091B406CF9108958B
:10554A00CF93C82F60E272E080E00E943A31CC2308
:10555A0089F060E070E087E10E94893064E472E0DB
:10556A0080E00E94F82288EE93E00E947B2E80E081
:10557A0090E004C08091B5069091B606CF91089547
:10558A00CF93C82FE0911308F09114080995E09180
:10559A001108F091120888E70995E0911108F09135
:1055AA00120880E00995E0911108F09112088C2FF9
:1055BA000995E0910F08F09110080995CF91089587
:1055CA00883219F410926F080895893259F4E091DB
:1055DA006F08F0E0E953F94F10828EEA95E00E94D5
:1055EA00BB310895E0916F08E43140F491E09E0FD9
:0E55FA0090936F08F0E0E953F94F8083089515
:10560800CF93DF93D82FC62F86E20E94C52A80E069
:105618000E94C52A8D2F0E94C52A80E00E94C52AB3
:105628008C2F0E94C52A80E00E94C52A8FEF0E9415
:0E563800C52A8FE20E94C52ADF91CF91089506
:105646000F931F93CF93DF936115710599F0EC01CA
:105656008B01000F111F000F111F000F111F061BDA
:10566600170B080F191FCE010E9470252796C01729
:0E567600D107C9F7DF91CF911F910F910895D1
:10568400853029F470935A0760935907089586303A
:1056940029F470935407609353070895873061F495
:1056A400E3E5F7E07383628380819181680F791F5A
:0A56B4007695679575836483089569
:1056BE00809185088823B9F081508093850890E009
:1056CE00FC01EE0FFF1FE35AF84F2081318130931A
:1056DE001E0820931D08FC01E256F84F808180932E
:0856EE0086080E94D3240895F0
:1056F6002F923F924F925F926F927F928F929F92DC
:10570600AF92BF92CF92DF92EF92FF920F931F93C9
:10571600CF93DF93CDB7DEB7CA1BDB0B0FB6F8947A
:08572600DEBF0FBECDBF0994E8
:10572E000F931F93CF93C82F8B0162E172E080E03D
:10573E000E942C31CC2339F0B8018EE00E948930C2
:10574E0080E090E004C08091A3069091A406CF91D2
:06575E001F910F91089558
:105764000F931F93CF93C82F8B0164E172E080E005
:105774000E942C31CC2339F0B80181E10E94893098
:1057840080E090E004C08091A9069091AA06CF9190
:065794001F910F91089522
:10579A000F931F93CF93C82F8B0169E172E080E0CA
:1057AA000E942C31CC2339F0B80182E10E94893061
:1057BA0080E090E004C08091AB069091AC06CF9156
:0657CA001F910F910895EC
:1057D0000F931F93CF93C82F8B0164E172E080E099
:1057E0000E942C31CC2339F0B80183E10E9489302A
:1057F00080E090E004C08091AD069091AE06CF911C
:065800001F910F910895B5
:105806000F931F93CF93C82F8B016AE172E080E05C
:105816000E942C31CC2339F0B80185E10E948930F1
:1058260080E090E004C08091B1069091B206CF91DD
:065836001F910F9108957F
:10583C000F931F93CF93C82F8B0166E572E080E026
:10584C000E942C31CC2339F0B8018AE10E948930B6
:10585C0080E090E004C08091BB069091BC06CF9193
:06586C001F910F91089549
:105872000E943E2581110EC00E94C70F81110AC0ED
:105882000E94E114811106C083E00E944F1C109215
:10589200810807C06AE083E00E949D1781E080933F
:0658A200810880E008957A
:1058A800813039F4E0914108F0914208862F09953A
:1058B8000895823039F4E0913F08F0914008862F2E
:1058C80009950895833031F4E0913D08F0913E0840
:0658D800862F09950895DA
:1058DE00CF92DF92EF926B01E82EA82FCB014115EC
:1058EE00510531F48C199D09EF90DF90CF900895FA
:1058FE00FC012491A7FD20812223A1F30196A11D75
:06590E0041505109ECCFED
:105914002A88398848885F846E847D848C849B843B
:10592400AA84B984C884DF80EE80FD800C811B8149
:10593400AA81B981CE0FD11D0FB6F894DEBF0FBE78
:06594400CDBFED01089546
:10594A002AE939E949E15EE3CA01B9010E94313025
:10595A0060E081E40E94F73184E10E94393288E8EC
:10596A0093E10E94DE318091A5069091A6060E94DD
:04597A00D931089582
:10597E000E948F110E947D280E9472230E949B24F8
:10598E000E94961681E00E948B3184EF91E00E9476
:10599E007B2E0E94542D84EF95E00E94BB310E9415
:0459AE001E31FDCFDA
:1059B2000F931F93CF938C01E0916108F0916208DD
:1059C2000995C82FE0916108F0916208C80101961B
