:100000000C9449000C945F0D0C945F0D0C945F0DE3
:100010000C945F0D0C945F0D0C945F0D0C945F0DB0
:100020000C945F0D0C945F0D0C945F0D0C945F0DA0
:100030000C945F0D0C945F0D0C94FA0A0C945F0DF8
:100040000C945F0D0C945F0D0C94C40C0C945F0D1C
:100050000C94DC0C0C945F0D0C945F0D0C945F0DF4
:100060000C945F0D0C945F0D0C945F0D0C945F0D60
:100070000C945F0D0C94200B0C94B60C0C945F0D3B
:100080000C94E60C0C945F0D0C945F0D0100055E62
:10009000800011241FBECFEFD0E1DEBFCDBFECE862
:1000A000F0E040E017C0B591A591359125910591FB
:1000B00007FD0CC095918591EF01F92FE82F059070
:1000C0000D92A217B307D9F7FE0104C01D92A21723
:1000D000B307E1F7E139F40731F70E948D080C947A
:0600E0007100F894FFCF4F
:1000E6000810205F00000000000000000000000073
:1000F60000000000000000FCFC00000000000033CF
:100106003300000000FCFC0000FCFC0000000000C6
:100116000000000030FCFC3030FCFC30030F0F0305
:10012600030F0F030078FCCFCFCC8C00000C0C3CE7
:100136003C0F0700001C1CC0F03C0C00000C0F0319
:10014600000E0E0000CEFFF33F0E00001F3F3033BF
:100156001F3F3300000000FCFC0000000000000010
:1001660000000000000000F0F81C04000000000F72
:100176001F38200000041CF8F00000000020381F83
:100186000F000000C0CCFCF0F0FCCCC0000C0F034C
:10019600030F0C0000C0C0F8F8C0C0000000000744
:1001A6000700000000000000000000000000C07C06
:1001B6003C00000000C0C0C0C0C0C000000000007D
:1001C6000000000000000000000000000000003CED
:1001D6003C00000000000080E07C1C0000383E0768
:1001E6000100000000F8FC0C8CFCF800001F3F31F9
:1001F600303F1F00000030FCFC0000000030303FA4
:100206003F30300000383C0CCCFC380000303C3F1E
:1002160033303000000C0CCCFC3C0C00001C3C3095
:10022600333F1C000000C0F0FCFC0000000F0F0C68
:100236003F3F0C0000FCFCCCCCCC8C0000183830C6
:10024600303F1F0000F0F89C8C8C0000001F3F31EF
:10025600313F1F00000C0C0CCCFC3C0000003C3F66
:10026600030000000038FCCCCCFC3800001F3F30F7
:10027600303F1F000078FCCCCCFCF800000030308A
:10028600381F0F00000000F0F00000000000003CE6
:100296003C000000000000F0F00000000000C07C00
:1002A6003C00000080C0E070381808000001030719
:1002B6000E0C0800003030303030300000030303ED
:1002C6000303030008183870E0C08000080C0E070E
:1002D6000301000000383C0CCCFC3800000000375D
:1002E60037000000F0F81CCC4C98F0000F1F383394
:1002F6003233190000F0F81C1CF8F000003F3F03F1
:10030600033F3F0000FCFCCCCCFC7800003F3F30B4
:10031600303F1F0000F8FC0C0C3C3800001F3F303B
:10032600303C1C0000FCFC0C1CF8F000003F3F3089
:10033600381F0F0000FCFCCCCCCC0C00003F3F303B
:100346003030300000FCFCCCCCCC0C00003F3F0031
:100356000000000000F8FC0CCCCCCC00001F3F30A5
:10036600303F1F0000FCFCC0C0FCFC00003F3F000B
:10037600003F3F00000C0CFCFC0C0C000030303F32
:100386003F3030000000000000FCFC00001C3C3048
:10039600303F1F00FCFCC0F03C0C00003F3F000358
:1003A6000F3C300000FCFC0000000000003F3F3026
:1003B60030303000FCFC70C070FCFC003F3F000198
:1003C600003F3F0000FCFCE080FCFC00003F3F01DA
:1003D600073F3F0000F8FC0C0CFCF800001F3F3004
:1003E600303F1F0000FCFC0C0CFCF800003F3F03F4
:1003F6000303010000F8FC0C0CFCF800001F3F3062
:1004060018372F00FCFC8C8CFCF800003F3F0103E2
:100416000F3C30000078FCCC8C0C0C0000303031E6
:10042600333F1E00000C0CFCFC0C0C000000003FCF
:100436003F00000000FCFC0000FCFC00001F3F30F9
:10044600303F1F0000FCFC0000FCFC0000030F3CDA
:100456003C0F0300FCFC008000FCFC003F1F0E0765
:100466000E1F3F00001C7CE0E07C1C0000383E07AD
:10047600073E3800003CFCC0C0FC3C000000003FCA
:100486003F000000000C0CCCFC3C0C00003C3F3351
:1004960030303000000000FCFC0C0C000000003F77
:1004A6003F303000001C7CE08000000000000001AE
:1004B600073E3800000C0CFCFC0000000030303F0A
:1004C6003F00000080E0781E78E080000101000017
:1004D6000001010000000000000000003030303054
:1004E6003030300000070E1C38700000000000009D
:1004F600000000000000606060E0C000001E3F33A6
:10050600333F3F0000FCFC6060E0C000003F3F302E
:10051600303F1F0000C0E06060600000001F3F30F9
:100526003030300000C0E06060FCFC00001F3F304F
:10053600303F3F0000C0E06060E0C000001F3F3277
:100546003233330000C0C0F8FCCCCC000000003FC2
:100556003F00000000C0E06060E0E00000CFDFD8B0
:10056600D8FF7F0000FCFC6060E0C000003F3F0059
:10057600003F3F00000060ECEC0000000000303F50
:100586003F30000000000000ECEC000000C0C0C0DE
:10059600FF7F0000FCFC80C0E06000003F3F0307D7
:1005A6001E38300000000CFCFC0000000000303F4C
:1005B6003F300000C0E0E0C0E0E0C0003F3F000781
:1005C600003F3F0000C0E06060E0C000003F3F0029
:1005D600003F3F0000C0E06060E0C000001F3F3009
:1005E600303F1F0000E0E06060E0C00000FFFF3029
:1005F600303F1F0000C0E06060E0E000001F3F30B9
:1006060030FFFF0000E0E06060E0C000003F3F0018
:100616000000000000C0E06060606000003133331D
:10062600363E1C00006060F8F86060000000001FA5
:100636003F30300000E0E00000E0E000001F3F3007
:10064600303F3F0000E0E00000E0E00000030F3C28
:100656003C0F0300E0E0008000E0E0003F1F0E07D3
:100666000E1F3F000060E08080E0600000303D0F1C
:100676000F3D300000E0E00000E0E00000CFDFD8F2
:10068600D8FF7F0000606060E0E0600000303C3F23
:10069600333030008080C0FC7E0202000101033F3F
:1006A6007E404000000000FEFE0000000000007FCB
:1006B6007F00000002027EFCC080800040407E3F3A
:1006C60003010100C060E0C08080E000010000017D
:0406D600010100001E
:0C06DA0048454C4C4F00574F524C440018
:1006E6002F923F924F925F926F927F928F929F923C
:1006F600AF92BF92CF92DF92EF92FF920F931F932A
:10070600CF93DF93CDB7DEB728970FB6F894DEBF49
:100716000FBECDBF9E838D837A83698380914A0500
:10072600982F977009F0ABC0E6E4F5E05381869503
:1007360086958695242F30E09581291B310990E016
:10074600589FB001599F700D1124269F3001279F95
:10075600700C369F700C112498878F83892B09F4AF
:1007660024C1252F30E03C832B83C301ED81FE811C
:100776008E1B9F0B9C012C5F3F4F3901A980BA80CD
:10078600212C312C4B805C804E0E5F1E0F2EF6E422
:10079600CF2EF5E0DF2EF02D88248394912C68C0AF
:1007A600F60180819181A2819301200F311F820F72
:1007B600931FA11D37FDAA95FC01E490A7FDE080DB
:1007C600F12C1A821982C401098002C0880F991F70
:1007D6000A94E2F78E219F21892BB1F0F6018781D9
:1007E600811109C041E069817A816A0D7B1DC801CA
:1007F6000E94D4081EC040E069817A816A0D7B1D83
:10080600C8010E94D40815C0F6018781811109C06C
:1008160040E069817A816A0D7B1DC8010E94D40877
:1008260008C041E069817A816A0D7B1DC8010E947A
:10083600D40829813A812F5F3F4F3A832983283094
:10084600310509F60F5F1F4F4016510609F0A8CF74
:100856003FEF231A330A88E0A80EB11CEB81FC8116
:100866006E0E7F1E2F8138852215330509F49DC033
:100876008B819C81892B61F30D811E8191CF209004
:100886004905E6E4F5E0242F30E09581291B31097E
:10089600289EA0011124552314F4495F5F4F5595F6
:1008A60047955595479555954795249FB001259FA2
:1008B600700D349F700D11246C5F7F4F2081318144
:1008C6004281260F371F411D77FD4A95F901049194
:1008D60047FD008110E0312C2114310409F465C074
:1008E600ED81FE81E20DF31DFC83EB838D809E80FE
:1008F6000F2EF7E06F2E712CF02D482E512CC9804B
:10090600DA80C40CD51CEE24E394F12C0F2EF6E409
:10091600AF2EF5E0BF2EF02D40C0C7010D8002C0FE
:10092600880F991F0A94E2F780239123892B81F07F
:10093600F5018781811106C041E0B101C4010E9421
:10094600D40815C040E0B101C4010E94D4080FC00C
:10095600F5018781811106C040E0B101C4010E9402
:10096600D40805C041E0B101C4010E94D4082D811C
:100976003E81215031093E832D833FEF231A330AEE
:10098600C214D30451F6641875088FEF881A980AB2
:10099600EB81FC81E815F90541F041145104A9F3F6
:1009A60029803A807E826D82B8CF28960FB6F89459
:1009B600DEBF0FBECDBFDF91CF911F910F91FF908C
:1009C600EF90DF90CF90BF90AF909F908F907F90E9
:0C09D6006F905F904F903F902F9008951D
:1009E20090935B0580935A0570935905609358055F
:1009F2005093570540935605FC010995E09158051F
:100A0200F091590588E70995E0915805F09159054B
:100A120080E00995E0915805F09159058EEA099513
:100A2200E0915805F091590582E00995E091580549
:100A3200F091590580E10995E0915805F091590529
:100A420080EB0995E0915805F091590588EC0995DC
:100A5200E0915805F091590580E40995E091580517
:100A6200F091590581E80995E0915805F0915905F1
:100A72008FE70995E0915805F091590581EA0995AA
:100A8200E0915805F091590586EA0995E0915805DB
:100A9200F091590588EA0995E0915805F0915905B8
:100AA2008FE30995E0915805F091590584EA09957B
:100AB200E0915805F091590583ED0995E0915805AB
:100AC200F091590580E00995E0915805F09159059A
:100AD20085ED0995E0915805F091590580EF09954A
:100AE200E0915805F091590589ED0995E091580575
:100AF200F091590582E20995E0915805F091590566
:100B02008AED0995E0915805F091590582E1099520
:100B1200E0915805F09159058BED0995E091580542
:100B2200F091590580E20995E0915805F091590537
:100B32008DE80995E0915805F091590584E10995F0
:100B4200E0915805F09159058FEA0995E091560513
:100B5200F0915705099566EE70E080E00E947B0AED
:0A0B62000E94D10C0E94E7070895DD
:100B6C004F925F926F927F928F929F92AF92BF92B1
:100B7C00CF92DF92EF92FF921F93CF93DF9310E00F
:100B8C00C1E0D0E00F2EF0E44F2EFFE15F2E612C80
:100B9C00712CF02D882E912CA12CB12C02C0C0E010
:100BAC00D1E01F5F6E01E12CF12CC301B201A70152
:100BBC0096010E94290CCA01B9010E941C099B01D3
:100BCC00AC0160E070E080E89FE30E94550D6B0182
:100BDC007C01C501B4010E941C09A70196010E9469
:100BEC00550D6B017C0120E03FEF4FE757E40E946D
:100BFC00480D88238CF0CC0FDD1FCC0FDD1FCC0FE4
:100C0C00DD1FC11582E0D80751F2C11588E0D80765
:100C1C0041F6C0E0D4E0C5CF1FBCA701960160E04F
:100C2C007FEF8FE797E40E941A0D0E941E0A7093C3
:100C3C005505609354050E94130D1EBD81E00E9462
:100C4C00F00CDF91CF911F91FF90EF90DF90CF9040
:100C5C00BF90AF909F908F907F906F905F904F90D0
:020C6C000895E9
:100C6E0021E030E002C0220F331F6A95E2F74834CC
:100C7E0071F5813421F48BB3282B2BBB089582346C
:100C8E0021F488B3282B28BB0895833421F485B32F
:100C9E00282B25BB0895843421F482B3282B22BB44
:100CAE000895853421F483B1282B23B90895863411
:100CBE0031F4E2E6F0E08081282B2083089587341A
:100CCE00E1F5E5E6F0E08081282B208308954C3491
:100CDE00A1F5813429F48BB3209528232BBB0895DD
:100CEE00823429F488B32095282328BB08958334B1
:100CFE0029F485B32095282325BB0895843429F43F
:100D0E0082B32095282322BB0895853429F483B11C
:100D1E002095282323B90895863439F4E2E6F0E0CD
:100D2E0080812095282320830895873431F4E5E6C9
:0C0D3E00F0E08081209528232083089598
:100D4A0021E030E002C0220F331F6A95E2F74F34E8
:100D5A0071F5813421F48AB3282B2ABB0895823491
:100D6A0021F487B3282B27BB0895833421F484B355
:100D7A00282B24BB0895843421F481B3282B21BB6A
:100D8A000895853421F482B1282B22B90895863436
:100D9A0031F4E1E6F0E08081282B2083089587343E
:100DAA00E1F5E4E6F0E08081282B208308954934B8
:100DBA00A1F5813429F48AB3209528232ABB089502
:100DCA00823429F487B32095282327BB08958334D6
:100DDA0029F484B32095282324BB0895843429F464
:100DEA0081B32095282321BB0895853429F482B143
:100DFA002095282322B90895863439F4E1E6F0E0F3
:100E0A0080812095282320830895873431F4E4E6ED
:0C0E1A00F0E080812095282320830895BB
:100E26000E94280D58F00E94210D40F029F45F3FE2
:100E360029F00C94420D51110C94300D0C945C0D5C
:100E46000E948C0B68F39923B1F3552391F3951BFC
:100E5600550BBB27AA2762177307840738F09F5FD5
:100E66005F4F220F331F441FAA1FA9F335D00E2E42
:100E76003AF0E0E832D091505040E695001CCAF7AF
:100E86002BD0FE2F29D0660F771F881FBB1F261772
:100E960037074807AB07B0E809F0BB0B802DBF0149
:100EA600FF2793585F4F3AF09E3F510578F00C9418
:100EB600420D0C94300D5F3FE4F3983ED4F38695D3
:100EC60077956795B795F7959F5FC9F7880F911D39
:100ED6009695879597F90895E1E0660F771F881F25
:100EE600BB1F621773078407BA0720F0621B730BD8
:0C0EF600840BBA0BEE1F88F7E0950895FE
:100F02000E94210D38F00E94280D20F039F49F3FF5
:100F120019F426F40C945C0D0EF4E095E7FB0C94A6
:100F2200420DE92F0E948C0B58F3BA176207730720
:100F32008407950720F079F4A6F50C942F0D0EF492
:100F4200E0950B2EBA2FA02D0B01B90190010C01D7
:100F5200CA01A0011124FF27591B99F0593F50F4EF
:100F6200503E68F11A16F040A22F232F342F442747
:100F7200585FF3CF469537952795A795F04053953F
:100F8200C9F77EF41F16BA0B620B730B840BBAF00F
:100F92009150A1F0FF0FBB1F661F771F881FC2F77A
:100FA2000EC0BA0F621F731F841F48F4879577958E
:100FB2006795B795F7959E3F08F0B0CF9395880F48
:0C0FC20008F09927EE0F97958795089589
:100FCE00FF920F931F93CF93DF93C0E0D1E0F12CEC
:100FDE00E0915A05F0915B050995E0915805F09165
:100FEE00590588E70995E0915805F091590580E07B
:100FFE000995E0915805F091590580E10995E09128
:10100E005805F091590582E00995E0915805F09147
:10101E0059058F2D806B0995E0915605F091570576
:10102E000995E0915A05F0915B050995E0915805F7
:10103E00F091590588E70995E0915805F091590509
:10104E0080E409958E0100581F4FE0915805F091EC
:10105E00590589910995C017D107B9F7E091560541
:10106E00F09157050995F394E80188E0F812B0CF96
:0C107E00DF91CF911F910F91FF9008951A
:10108A008F929F92AF92BF92CF92DF92EF92FF928E
:10109A000F931F93CF93DF938C015B01922ED32F73
:1010AA00C42F622F732F842F0E94560CF82E882388
:1010BA0011F1C92CDD2EEC2EC0E0D0E00F2EF6E4A3
:1010CA008F2EF5E09F2EF02DF6014491E7FC40812A
:1010DA00F40123812C9FC0012D9F900D1124B5018D
:1010EA00800F911F0E9473032196FFEFCF1ADF0A28
:1010FA00EF0ACF1548F3DF91CF911F910F91FF901F
:10110A00EF90DF90CF90BF90AF909F908F9008950F
:10111A0081E00E94B6050CE424E042E46FE484E432
:10112A000E94400C08E426E043E46FE484E40E9451
:10113A00400C2EEB39E041E069E080E00E946C0C43
:10114A0081E00E943C0D60E07BE480E090E00E9438
:10115A008C0960E07BE480E090E00E94EF096AED90
:10116A0076E080E00E94F00B60EE76E080E00E947C
:10117A00D00B42E95CE064E47BE08FE79CE00E94EC
:10118A00F1042AED36E040E060E070E080E090E0B3
:0E119A000E9445080E94E7070E94A80AFDCFA8
:1011A8008038910508F041C060347105F0F54111AF
:1011B8001FC0FB01F695E795F695E795F695E79537
:1011C800F695FE2FEE27F795E7958E0F9F1FFC01EA
:1011D800E050FF4F6770772781E090E002C0880FEA
:1011E800991F6A95E2F780959081892380830895F5
:1011F800FB01F695E795F695E795F695E795F6954B
:10120800FE2FEE27F795E7958E0F9F1FFC01E05004
:10121800FF4F6770772781E090E002C0880F991F21
:0C1228006A95E2F79081892B808308957D
:10123400E89409C097FB3EF490958095709561956C
:101244007F4F8F4F9F4F9923A9F0F92F96E9BB2722
:101254009395F695879577956795B795F111F8CF9E
:10126400FAF4BB0F11F460FF1BC06F5F7F4F8F4F09
:101274009F4F16C0882311F096E911C0772321F0FF
:101284009EE8872F762F05C0662371F096E8862F97
:1012940070E060E02AF09A95660F771F881FDAF7EE
:0A12A400880F9695879597F9089535
:1012AE0021E030E002C0220F331F6A95E2F781344D
:1012BE0021F48BB328272BBB0895823421F488B3F5
:1012CE00282728BB0895833421F485B3282725BB0E
:1012DE000895843421F482B3282722BB08958534DF
:1012EE0021F483B1282723B90895863431F4E2E638
:1012FE00F0E08081282720830895873429F4E5E6DD
:0A130E00F0E0808128272083089575
:10131800EAE9F0E0208128692083EDE9F0E0208106
:1013280026602083DC01CB01880F991FAA1FBB1FF1
:10133800880F991FAA1FBB1F9C01AD01220F331FE5
:10134800441F551F220F331F441F551F60E072E1D1
:101358008AE790E00E94AE0BDA01C9010197A10962
:10136800B10980939900892F9A2FAB2FBB278093BF
:04137800980008953C
:10137C00CF93C82F8EE495E00E944D0D66EB73E081
:10138C008EE495E00E94D20A882341F00E94590D08
:10139C00813021F464E082E40E94570962E370E03A
:1013AC008EE495E00E94D20A882341F00E94590DE8
:1013BC00813021F464E082E40E9457098EE495E0C8
:1013CC000E94360D882319F08C2F0E94100CCF919F
:0213DC00089572
:1013DE002AB128692AB9E5E9F0E020812660208348
:1013EE00DC01CB01880F991FAA1FBB1F880F991F05
:1013FE00AA1FBB1F9C01AD01220F331F441F551F97
:10140E00220F331F441F551F60E072E18AE790E000
:10141E000E94AE0BDA01C9010197A109B10989B980
:0E142E00892F9A2FAB2FBB2780939000089533
:10143C000E94940B88F09F5798F0B92F9927B751B9
:10144C00B0F0E1F0660F771F881F991F1AF0BA955C
:10145C00C9F714C0B13091F00E942F0DB1E008957E
:10146C000C942F0D672F782F8827B85F39F0B93F70
:10147C00CCF3869577956795B395D9F73EF490950F
:0E148C008095709561957F4F8F4F9F4F08950B
:10149A0080915D05882349F1E0E0F5E0815090E014
:1014AA0001969C01220F331F220F331F220F331F75
:1014BA00281B390B20503B4F808180FF12C082FDD0
:1014CA0010C0438154814230510528F041505109DE
:1014DA005483438306C0846080838181928194838C
:0C14EA0083833796E217F30739F7089563
:1014F600CF93DF93A82FCB01C6E4D5E088839983E9
:10150600AA83FC012491A7FD20812B839C014A2FED
:101516002F5F3F4F4F4FF901249147FD20812C83C8
:101526009C014A2F2E5F3F4F4F4FF901249147FDF3
:1015360020812D830396A11DFC018491A7FD808146
:0A1546008E831F82DF91CF9108957C
:10155000CF9380915D05882319F1C0E02C2F30E0F6
:1015600087E0C89FF0011124E050FB4F808182FF8B
:1015700012C0F901EE0FFF1FEE0FFF1FEE0FFF1F4E
:10158000E21BF30BE050FB4F8B7F80830580F681DD
:10159000E02D8C2F0995CF5F80915D05C817F0F283
:0415A000CF9108954A
:1015A400FC019081838121E0280F2383911109C0DC
:1015B4008083615071097283618381E080935C054B
:1015C4000895981311C0818192818230910538F079
:1015D40001979283818382E080935C050895108251
:1015E40083E080935C05089510925C0580E0089583
:1015F4001F920F920FB60F9211242F933F934F9384
:101604005F936F937F938F939F93AF93BF93EF9366
:10161400FF930E94130D0E944D0AFF91EF91BF9119
:10162400AF919F918F917F916F915F914F913F9176
:0C1634002F910F900FBE0F901F90189583
:101640001F920F920FB60F9211242F933F934F9337
:101650005F936F937F938F939F93AF93BF93EF931A
:10166000FF930E94FA0CFF91EF91BF91AF919F9170
:101670008F917F916F915F914F913F912F910F903B
:081680000FBE0F901F9018959A
:1016880080937300E4E7F0E080818F77808384E8BB
:1016980080838081882324F40AC0815021F407C004
:1016A80083E2E4E7F0E0000090819923B4F78091A9
:1016B8007100887F883221F0803321F082E008951C
:0816C80080E0089581E008951F
:1016D000990F0008550FAA0BE0E8FEEF1616170643
:1016E000E807F907C0F012161306E407F50798F0AB
:1016F000621B730B840B950B39F40A2661F0232BC4
:10170000242B252B21F408950A2609F4A140A6953F
:081710008FEF811D811D08957A
:1017180057FD9058440F551F59F05F3F71F047959A
:10172800880F97FB991F61F09F3F79F0879508957F
:10173800121613061406551FF2CF4695F1DF08C09E
:10174800161617061806991FF1CF869571056105BB
:041758000894089554
:10175C00A1E21A2EAA1BBB1BFD010DC0AA1FBB1FA9
:10176C00EE1FFF1FA217B307E407F50720F0A21B1B
:10177C00B30BE40BF50B661F771F881F991F1A9488
:10178C0069F760957095809590959B01AC01BD01B2
:04179C00CF010895DC
:1017A000CF92DF92EF92CF936B01E82EFB018491F1
:1017B000E7FC8081882379F0C0E00E94510DCF5F63
:1017C000AE2DC6018C0F911DA11DFC018491A7FDBA
:1017D00080818111F2CFCF91EF90DF90CF9008956B
:1017E000CF92DF92EF92CF936B01E82EFB018491B1
:1017F000E7FC8081882379F0C0E00E94030DCF5F71
:10180000AE2DC6018C0F911DA11DFC018491A7FD79
:1018100080818111F2CFCF91EF90DF90CF9008952A
:10182000282F30E097E0899FF0011124E050FB4F12
:10183000808183FD0DC0F901EE0FFF1FEE0FFF1F2A
:10184000EE0FFF1FE21BF30BE050FB4F8E7F8083F8
:021850000895F9
:10185200052E97FB1EF400940E940B0D57FD07D036
:101862000E94AE0B07FC03D04EF40C940B0D509566
:0E1872004095309521953F4F4F4F5F4F0895A1
:101880000F931F93CF93DF93162FC42FD22F402F88
:10189000622F8C2F0E943706412F6D2F8C2F0E94B4
:0C18A000A506DF91CF911F910F910895D4
:1018AC00CF92DF92EF926B01E82EA82FCB01FC01B7
:1018BC002491A7FD2081222319F00196A11DF7CFB9
:0C18CC008C199D09EF90DF90CF900895DB
:1018D80057E0859FC0011124FC01E050FB4F36837F
:1018E8002583608350E05283418380915D058F5F3B
:0618F80080935D050895D8
:1018FE00E4E7F0E084EA80838081882324F408956D
:10190E00815021F4089583E2E4E7F0E00000908135
:06191E009923B4F70895BF
:10192400E4E7F0E084E980838081882324F4089547
:10193400815021F4089583E2E4E7F0E0000090810F
:061944009923B4F7089599
:10194A00092E0394000C11F4882352F0BB0F40F4C3
:10195A00BF2B11F460FF04C06F5F7F4F8F4F9F4F03
:02196A000895DE
:10196C001F920F920FB60F9211248F9380919C00AF
:0C197C008F910F900FBE0F901F901895D8
:101988001F920F920FB60F9211248F938CB18F91E3
:0A1998000F900FBE0F901F901895DE
:1019A20080E094E0E0E0F1E0DF019C011D92215033
:0619B2003040E1F708954A
:1019B8001F920F920FB60F9211240F900FBE0F9027
:0419C8001F901895BF
:1019CC001F920F920FB60F9211240F900FBE0F9013
:0419DC001F901895AB
:1019E000882321F087B7846087BF089587B78B7FEE
:0419F00087BF089510
:1019F40080915205909153059093890080938800BB
:021A0400089543
:101A0600EBE9F0E0908195FFFDCF80939C0008956F
:101A160090958095709561957F4F8F4F9F4F089554
:0E1A260080915405909155059DBD8CBD08958D
:0E1A34005058BB27AA270E9492070C94A50CBD
:0E1A420000240A9416161706180609060895C1
:0E1A500000240A9412161306140605060895C3
:0E1A5E00E894BB2766277727CB0197F90895F8
:0C1A6C00FC0181E09081911180E0089560
:0C1A7800882311F078940895F8940895E4
:0C1A840097F99F6780E870E060E008952B
:0A1A90000E94680B08F481E008953D
:081A9A0021E0FC012383089503
:081AA2005D9BFECF8CB9089595
:081AAA000E9423070C94A50C17
:061AB20080915C0508951F
:061AB8009FEF80EC089591
:041ABE000C94000084
:00000001FF
