:100000000C9449000C9441060C9441060C94410652
:100010000C9441060C9441060C9441060C94410644
:100020000C9441060C9441060C9441060C94410634
:100030000C9441060C9441060C948F040C944106D8
:100040000C9441060C9441060C942F060C94410626
:100050000C9445060C9441060C9441060C94410600
:100060000C9441060C9441060C9441060C944106F4
:100070000C9441060C94DB040C9425060C94410668
:100080000C9446060C9441060C9441060100017341
:10009000800011241FBECFEFD0E1DEBFCDBFECE862
:1000A000F0E040E017C0B591A591359125910591FB
:1000B00007FD0CC095918591EF01F92FE82F059070
:1000C0000D92A217B307D9F7FE0104C01D92A21723
:1000D000B307E1F7E139F40731F70E9411030C94FB
:0600E000AC05F894FFCF0F
:1000E6004F925F926F927F928F929F92AF92BF9242
:1000F600FF920F931F93CF93DF93F12CC1E0D0E0D3
:1001060000E81EE3882E912CA12CB12C02C0C0E081
:10011600D1E0F394C801BE010E94740580E090E02E
:100126000E94D4029B01AC0160E070E080E89FE38E
:100136000E9437062B013C01C501B4010E94D6027C
:10014600A30192010E9437062B013C0120E03FEFFC
:100156004FE757E40E942A0688238CF0CC0FDD1F58
:10016600CC0FDD1FCC0FDD1FC11582E0D80779F259
:10017600C11588E0D80769F6C0E0D4E0CACF1FBC35
:10018600A301920160E07FEF8FE797E40E94F705F5
:100196000E94B40370936B0160936A010E94DB05B1
:1001A600FEBC81E00E94B705DF91CF911F910F91B0
:1001B600FF90BF90AF909F908F907F906F905F90D1
:0401C6004F900895B9
:1001CA0010C00E94050658F00E94FE0540F029F46E
:1001DA005F3F29F00C941F0651110C940D060C94E4
:1001EA003E060E94230568F39923B1F3552391F340
:1001FA00951B550BBB27AA2762177307840738F08C
:10020A009F5F5F4F220F331F441FAA1FA9F335D0E8
:10021A000E2E3AF0E0E832D091505040E695001C9C
:10022A00CAF72BD0FE2F29D0660F771F881FBB1F56
:10023A00261737074807AB07B0E809F0BB0B802D34
:10024A00BF01FF2793585F4F3AF09E3F510578F060
:10025A000C941F060C940D065F3FE4F3983ED4F30A
:10026A00869577956795B795F7959F5FC9F7880F34
:10027A00911D9695879597F90895E1E0660F771F86
:10028A00881FBB1F621773078407BA0720F0621B17
:0E029A00730B840BBA0BEE1F88F7E0950895E6
:1002A80021E030E002C0220F331F6A95E2F748349C
:1002B80071F5813421F48BB3282B2BBB089582343C
:1002C80021F488B3282B28BB0895833421F485B3FF
:1002D800282B25BB0895843421F482B3282B22BB14
:1002E8000895853421F483B1282B23B908958634E1
:1002F80031F4E2E6F0E08081282B208308958734EA
:10030800E1F5E5E6F0E08081282B208308954C3460
:10031800A1F5813429F48BB3209528232BBB0895AC
:10032800823429F488B32095282328BB0895833480
:1003380029F485B32095282325BB0895843429F40E
:1003480082B32095282322BB0895853429F483B1EC
:100358002095282323B90895863439F4E2E6F0E09D
:1003680080812095282320830895873431F4E5E699
:0C037800F0E08081209528232083089568
:1003840021E030E002C0220F331F6A95E2F74F34B8
:1003940071F5813421F48AB3282B2ABB0895823461
:1003A40021F487B3282B27BB0895833421F484B325
:1003B400282B24BB0895843421F481B3282B21BB3A
:1003C4000895853421F482B1282B22B90895863406
:1003D40031F4E1E6F0E08081282B2083089587340E
:1003E400E1F5E4E6F0E08081282B20830895493488
:1003F400A1F5813429F48AB3209528232ABB0895D2
:10040400823429F487B32095282327BB08958334A5
:1004140029F484B32095282324BB0895843429F433
:1004240081B32095282321BB0895853429F482B112
:100434002095282322B90895863439F4E1E6F0E0C2
:1004440080812095282320830895873431F4E4E6BD
:0C045400F0E0808120952823208308958B
:1004600011C00E94FE0538F00E94050620F039F404
:100470009F3F19F426F40C943E060EF4E095E7FB3A
:100480000C941F06E92F0E94230558F3BA17620740
:1004900073078407950720F079F4A6F50C940C06F1
:1004A0000EF4E0950B2EBA2FA02D0B01B90190018F
:1004B0000C01CA01A0011124FF27591B99F0593FD3
:1004C00050F4503E68F11A16F040A22F232F342F1B
:1004D0004427585FF3CF469537952795A795F04069
:1004E0005395C9F77EF41F16BA0B620B730B840B7E
:1004F000BAF09150A1F0FF0FBB1F661F771F881F36
:10050000C2F70EC0BA0F621F731F841F48F487958D
:1005100077956795B795F7959E3F08F0B0CF93957F
:0E052000880F08F09927EE0F9795879508959C
:10052E00CF93C82F84E691E00E9433066AE070E014
:10053E0084E691E00E946704882341F00E943B0606
:10054E00813021F460E086E40E944B036AE070E0A3
:10055E0084E691E00E946704882341F00E943B06E6
:10056E00813021F460E086E40E944B0384E691E042
:10057E000E941306882319F08C2F0E94450580E0F7
:10058E000E94F005AB01BC014F5F5F4F6F4F7F4F75
:0A059E0080E00E94E905CF91089566
:1005A800E89409C097FB3EF4909580957095619505
:1005B8007F4F8F4F9F4F9923A9F0F92F96E9BB27BB
:1005C8009395F695879577956795B795F111F8CF37
:1005D800FAF4BB0F11F460FF1BC06F5F7F4F8F4FA2
:1005E8009F4F16C0882311F096E911C0772321F098
:1005F8009EE8872F762F05C0662371F096E8862F30
:1006080070E060E02AF09A95660F771F881FDAF786
:0A061800880F9695879597F90895CD
:1006220008E420E046E46FE484E40E945E050CE402
:1006320025E044E46FE484E40E945E0526E044E49D
:100642006FE484E40E945E0527E932E04AE069E053
:1006520080E00E94880581E00E94730081E00E9490
:10066200190662EE75E083ED95E00E94CA0540E04E
:100672005FEF6FEF7FEF80E00E94E90544E453E310
:1006820062E271E181E00E94E9050E943D040E945C
:04069200B504FBCFE1
:1006960021E030E002C0220F331F6A95E2F7813471
:1006A60021F48BB328272BBB0895823421F488B319
:1006B600282728BB0895833421F485B3282725BB32
:1006C6000895843421F482B3282722BB0895853403
:1006D60021F483B1282723B90895863431F4E2E65C
:1006E600F0E08081282720830895873429F4E5E601
:0A06F600F0E080812827208308959A
:10070000CF92DF92EF92FF920F931F93CF93DF93DD
:100710008C01C0E0D0E0C12CD12C7601E0916C01BD
:10072000F0916D01C801099590E0A0E0B0E00C2EB9
:1007300004C0880F991FAA1FBB1F0A94D2F7C82AAA
:10074000D92AEA2AFB2A0F5F1F4F2896C032D1050B
:1007500029F7C701B601DF91CF911F910F91FF904B
:08076000EF90DF90CF900895A7
:100768000E942B0588F09F5798F0B92F9927B75109
:10077800B0F0E1F0660F771F881F991F1AF0BA953D
:10078800C9F714C0B13091F00E940C06B1E0089589
:100798000C940C06672F782F8827B85F39F0B93F7B
:1007A800CCF3869577956795B395D9F73EF49095F0
:0E07B8008095709561957F4F8F4F9F4F0895EC
:1007C60080917101882349F1E0E0F1E0815090E0E9
:1007D60001969C01220F331F220F331F220F331F56
:1007E600281B390B20503F4F808180FF12C082FDAD
:1007F60010C0438154814230510528F041505109BF
:100806005483438306C0846080838181928194836C
:0C08160083833796E217F30739F7089543
:10082200CF92DF92EF92FF920F931F93CF93DF93BA
:100832006A017B018C01C0E0D0E0C701B6010C2E39
:1008420004C096958795779567950A94D2F7E091BB
:100852006E01F0916F01C801099528960F5F1F4F35
:10086200C032D10551F7DF91CF911F910F91FF90C7
:08087200EF90DF90CF90089594
:10087A00CF9380917101882319F1C0E02C2F30E0C9
:10088A0087E0C89FF0011124E050FF4F808182FF6A
:10089A0012C0F901EE0FFF1FEE0FFF1FEE0FFF1F31
:1008AA00E21BF30BE050FF4F8B7F80830580F681BC
:1008BA00E02D8C2F0995CF5F80917101C817F0F256
:0408CA00CF9108952D
:1008CE00FC019081838121E0280F2383911109C0BF
:1008DE008083615071097283618381E0809370011E
:1008EE000895981311C0818192818230910538F05C
:1008FE0001979283818382E0809370010895108224
:10090E0083E08093700108951092700180E0089545
:10091E001F920F920FB60F9211242F933F934F9366
:10092E005F936F937F938F939F93AF93BF93EF9349
:10093E00FF930E94DB050E94E303FF91EF91BF91AD
:10094E00AF919F918F917F916F915F914F913F9159
:0C095E002F910F900FBE0F901F90189566
:10096A00CF93809172018823F9F0C0E08C2F90E038
:10097A00FC01EE0FFF1FE80FF91FEA5BFE4F208113
:10098A0020FF0DC0FC01EE0FFF1F8E0F9F1FFC0101
:10099A00EA5BFE4F0180F281E02D8C2F0995CF5F33
:0C09AA0080917201C81710F3CF910895DE
:1009B6001F920F920FB60F9211242F933F934F93CE
:1009C6005F936F937F938F939F93AF93BF93EF93B1
:1009D600FF930E94C105FF91EF91BF91AF919F9147
:1009E6008F917F916F915F914F913F912F910F90D2
:0809F6000FBE0F901F90189531
:1009FE00990F0008550FAA0BE0E8FEEF1616170622
:100A0E00E807F907C0F012161306E407F50798F089
:100A1E00621B730B840B950B39F40A2661F0232BA2
:100A2E00242B252B21F408950A2609F4A140A6951E
:080A3E008FEF811D811D089559
:100A460057FD9058440F551F59F05F3F71F0479579
:100A5600880F97FB991F61F09F3F79F0879508955E
:100A6600121613061406551FF2CF4695F1DF08C07D
:100A7600161617061806991FF1CF8695710561059A
:040A86000894089533
:100A8A00282F30E097E0899FF0011124E050FF4FB2
:100A9A00808183FD0DC0F901EE0FFF1FEE0FFF1FCE
:100AAA00EE0FFF1FE21BF30BE050FF4F8E7F808398
:020ABA0008959D
:100ABC000F931F93CF93DF93162FC42FD22F402F5A
:100ACC00622F8C2F0E945401412F6D2F8C2F0E946E
:0C0ADC00C201DF91CF911F910F9108958E
:100AE800AA1BBB1B51E107C0AA1FBB1FA617B7074C
:100AF80010F0A61BB70B881F991F5A95A9F7809568
:080B08009095BC01CD01089598
:100B100057E0859FC0011124FC01E050FF4F368350
:100B20002583608350E052834183809171018F5F00
:060B30008093710108959D
:100B3600092E0394000C11F4882352F0BB0F40F4E5
:100B4600BF2B11F460FF04C06F5F7F4F8F4F9F4F25
:020B5600089500
:100B5800EC010E9448060E944706CE010E94490601
:060B6800CE010E944306CD
:100B6E00882321F087B7846087BF089587B78B7F6E
:040B7E0087BF089590
:100B82008091680190916901909389008093880017
:020B92000895C4
:100B940090936F0180936E0170936D0160936C016B
:020BA4000895B2
:100BA600E199FECF9FBB8EBB6DBBE29AE19A089599
:0E0BB60080916A0190916B019DBD8CBD0895E8
:0E0BC400E199FECF9FBB8EBBE09A8DB30895E2
:0E0BD20024E0829FC00111240E9411040895A6
:0E0BE00024E0829FC00111240E94800308952A
:0E0BEE005058BB27AA270E9430020C949B058A
:0E0BFC0000240A941616170618060906089516
:0E0C0A0000240A941216130614060506089517
:0E0C1800E894BB2766277727CB0197F908954C
:0C0C2600FC0181E09081911180E00895B4
:0C0C3200882311F078940895F894089538
:0C0C3E0097F99F6780E870E060E008957F
:0A0C4A008F9380919C008F91189504
:0A0C54000E94FF0408F481E00895F7
:080C5E008F938CB18F91189562
:080C660021E0FC012383089545
:080C6E000E94E5000C949B05B7
:060C760080917001089559
:060C7C009FEF80EC0895DB
:040C82000C940000CE
:040C86000E94710057
:020C8A001895BB
:020C8C001895B9
:020C8E000895C7
:020C90000895C5
:020C92000895C3
:00000001FF
