:100000000C944F000C941B100C941B100C941B10A0
:100010000C941B100C941B100C941B100C941B10B4
:100020000C941B100C941B100C941B100C941B10A4
:100030000C941B100C941B100C94920C0C941B1021
:100040000C941B100C941B100C940D0D0C941B1095
:100050000C941B100C941B100C941B100C941B1074
:100060000C941B100C941B100C941B100C941B1064
:100070000C941B100C94BB0C0C94E40C0C941B10F3
:100080000C941B100C941B100C941B10010002C448
:100090008002C402C800203E02C802DD8000112494
:1000A0001FBECFEFD0E1DEBFCDBFECE8F0E040E017
:1000B00017C0B591A59135912591059107FD0CC00B
:1000C00095918591EF01F92FE82F05900D92A217D8
:1000D000B307D9F7FE0104C01D92A217B307E1F7D9
:1000E000ED39F40731F70E94DD0A0C947700F8949B
:0200F000FFCF40
:1000F20051003A003F004D41494E31003C00520050
:020102003E00BD
:08010400256C7500256C580004
:10010C002F923F924F926F927F928F929F92AF92CB
:10011C00BF92CF92DF92EF92FF920F931F93CF93E8
:10012C00DF93CDB7DEB762970FB6F894DEBF0FBE84
:10013C00CDBF6C013A01862E7901FC011086178225
:10014C00848181FFE7C19E012F5F3F4F3D872C8744
:10015C00C901A0E8888B998BAA8B9FE3992EF30198
:10016C00849187FC8081882309F4D0C1482D9301A8
:10017C002F5F3F4F4F4F853219F03901842E0AC043
:10018C00F901849147FD808192E0690E711C811CFC
:10019C00853229F4B60190E00E94980BE0CFB12C87
:1001AC0000E010E01032A0F48B3269F030F48032B1
:1001BC0059F0833269F410612CC08D3239F08033E0
:1001CC0039F4116026C01260146023C0186021C07D
:1001DC0017FD29C090ED980F9A3078F416FF06C0E1
:1001EC00AAE0BA9E900D1124B92E13C0EAE00E9F1E
:1001FC00900D1124092F10620CC08E3221F416FDC3
:10020C0085C1106406C08C3611F4106802C08836A3
:10021C0051F4F301849187FC8081FFEF6F1A7F0A00
:10022C008F0A8111BFCF982F9F7D9554933028F45E
:10023C0024E0E20EF11C99820FC0833631F0833733
:10024C0091F0833509F063C027C0F7018081898361
:10025C0097012E5F3F4F7901288839884A88AA2454
:10026C00A394B12C17C0A7014D5F5F4F5F874E87DA
:10027C00F70120803180428016FF03C04B2D50E0E7
:10028C0002C04FEF5FEF842DB1010E94470E5C015D
:10029C00EE84FF841F7718C097012D5F3F4F3F8777
:1002AC002E87F70120803180428016FF03C04B2D32
:1002BC0050E002C04FEF5FEF842DB1010E94470E5A
:1002CC005C011068EE84FF8413FD1DC0802F90E04C
:1002DC00A816B906C0F4B60180E290E00E94980B13
:1002EC000150F4CFF101849147FC8081FFEF2F1A6C
:1002FC003F0A4F0AB60190E00E94980B0111015081
:10030C0021E0A21AB108A114B10461F7F5C084363A
:10031C0011F0893671F5F70117FF08C06081718102
:10032C008281938197012C5F3F4F09C0608171815D
:10033C00072E000C880B990B97012E5F3F4F79010C
:10034C001F76312E97FF0AC0909580957095619518
:10035C007F4F8F4F9F4F312F3068332E2AE030E084
:10036C00AE014F5F5F4F0E949B08482E4C85441A8C
:10037C004AC0853729F41F7EA12E2AE030E025C023
:10038C00512F597FA52E8F36C1F018F4883579F08E
:10039C00BDC0803719F0883721F0B8C0852F806137
:1003AC00A82EA4FE0DC09A2D9460A92E09C014FF8E
:1003BC000AC0A52FA660AA2E06C028E030E005C012
:1003CC0020E130E002C020E132E0F701A7FE08C0D6
:1003DC006081718182819381A7014C5F5F4F07C05F
:1003EC006081718180E090E0A7014E5F5F4F7A01E0
:1003FC00AE014F5F5F4F0E949B08482E5C85451AEB
:10040C008A2D8F77382E36FE0DC0932D9E7FA92E08
:10041C004B1458F434FE0BC032FC09C0A32DAE7E35
:10042C00AA2E05C0142DA32C03C0142D01C01B2D06
:10043C00A4FE0EC0FE01E40DF11D8081803321F479
:10044C00EA2DE97EAE2E08C0A2FE05C01E5F04C0D8
:10045C008A2D867809F01F5FA3FC11C0A0FE06C090
:10046C00101788F4040DB02EB11A0EC0101760F4DA
:10047C00B60180E290E00E94980B1F5FF7CF101737
:10048C0018F4011B02C0B42C00E0A4FE10C0B6018D
:10049C0080E390E00E94980BA2FE17C0A1FC03C061
:1004AC0088E790E002C088E590E0B6010CC08A2D88
:1004BC00867859F0A1FE02C08BE201C080E2A7FC55
:1004CC008DE2B60190E00E94980B4B1438F4B60103
:1004DC0080E390E00E94980BBA94F7CF4A94E1E045
:1004EC00F0E0EC0FFD1FE40DF11D8081B60190E0F2
:1004FC000E94980B4110F2CF002309F430CEB601C4
:10050C0080E290E00E94980B0150F6CFF6018781B3
:10051C00908502C08FEF9FEF62960FB6F894DEBF06
:10052C000FBECDBFDF91CF911F910F91FF90EF9038
:10053C00DF90CF90BF90AF909F908F907F906F90F7
:08054C004F903F902F9008959D
:100554002F923F924F925F926F927F928F929F92CF
:10056400AF92BF92CF92DF92EF92FF920F931F93BD
:10057400CF93DF93CDB7DEB7C954D1090FB6F89442
:10058400DEBF0FBECDBF2C0180E00E94640F259614
:100594006CAF7DAF8EAF9FAF259784E00E94640F50
:1005A4002A966FAF2A9720E8622E7E013FE1E30E80
:1005B400F11C01E021E0A701862DB2010E94D40BB9
:1005C4004E0142E2840E911C05E022E0A401862D36
:1005D400B2010E94D40B5E0188E2A80EB11C07E0B0
:1005E40026E0A501862DB2010E94D40B6E019BE288
:1005F400C90ED11C09E028E0A601862DB2010E9493
:10060400D40B0AE02AE0AE01425D5F4F862DB201B1
:100614000E94D40B8E010B5E1F4FA801862DB201E0
:100624000E9455091401A0E84A2E842DB1010E94AC
:10063400AE096AAF7BAF8CAF9DAF3501B0E88B2EAE
:10064400882DB3010E94AE09962E560120E8C22ED1
:100654008C2DB5010E94AE09D62EA80160E88D2D1F
:100664000E947D0E29966CAF7DAF8EAF9FAF299708
:10067400C701A0E821968DAF9EAFAFAF219722EFBF
:1006840030E040E0BC018A2F0E94040A81113AC183
:100694002AAD3BAD2115310569F491E0D91205C0AD
:1006A400FE013196CE0145961AC08091DA0281117D
:1006B400F7CF28C18D2D8B7F21F48091DA0281112F
:1006C400EFCF2396AEADBFAD23972A173B0709F0B2
:1006D40019C12A96BFAD2A97B91114C1E1CF11925D
:1006E400E817F907E1F7CE018E969C0140E82AAF9E
:1006F4003BAF4CAF24EF30E040E06AAD7BAD8CAD56
:100704000E94040A81115EC08D2D0E94900F8D2DD0
:100714000E94900F91FFF6C031E0D31241C0299698
:100724008CAD9DADAEADBFAD2997892B8A2B8B2B9C
:1007340059F41092DA020E94071040E050E0BA0126
:1007440081E00E949A0A35C081E00E94640F2996D4
:100754000CAD1DAD2EAD3FAD2997A7E50A27A4E04A
:100764001A27061717072807390779F48FEF80939C
:10077400DA0229964CAD5DAD6EAD7FAD299781E06F
:100784000E949A0A0E94121014C01092DA0240E0E9
:1007940050E0BA0181E00E949A0A0E94121009C036
:1007A40029964CAD5DAD6EAD7FAD29978D2D0E9420
:1007B4009A0A8D2D0E94900F94FF04C06AE38D2D38
:1007C4000E943E0F26EF30E040E06AAD7BAD8CAD79
:1007D4000E94040A811122C08D2D0E94900F92FF65
:1007E40091C0B1E0DB1211C00E941510882309F4F6
:1007F40089C00E944B0F0E94FD0FAC0160E070E0C5
:1008040081E00E949A0A0E9412108D2D0E94900F7E
:1008140094FF04C06FE38D2D0E943E0F8D2D0E9426
:10082400900F93FF03C08D2D0E94310FBE01605DB8
:100834007F4F8D2D0E949E0480E00E94640F24E06F
:10084400AE014E5D5F4F0E946D0584E00E94640F0F
:1008540022E0AE01485D5F4F0E946D058D2D0E9420
:10086400900F96FF07C048EF50E060E0CE0101967C
:100874000E945C0D4EEF50E060E0CE0101960E94B4
:100884005C0D21964DAD5EAD6FAD2197CE01019605
:100894000E945C0D40E051E060E0CE0101960E94B0
:1008A4005C0D642DA101CE0101960E945C0D682DA2
:1008B400A301CE0101960E945C0D6C2DA501CE0111
:1008C40001960E945C0D44EF50E060E0CE01019679
:1008D4000E945C0DAE01405D5F4F60E8CE01019661
:1008E4000E945C0D42E051E060E0CE0101960E945E
:1008F4005C0D8D2D0E94900F95FF04C0CE010196D2
:100904000E94700FC75BDF4F0FB6F894DEBF0FBEB7
:10091400CDBFDF91CF911F910F91FF90EF90DF90AA
:10092400CF90BF90AF909F908F907F906F905F908B
:080934004F903F902F900895B1
:10093C000F931F93CF93DF938B01C82FD0E0FE0151
:10094C00E295F295F07FFE27E07FFE27E050FF4F07
:10095C00808182FF11C0FE01E295F295F07FFE27A7
:10096C00E07FFE27E050FF4F628173818481958187
:10097C0022E0A8010E946D05FE01E295F295F07F40
:10098C00FE27E07FFE27E050FF4F808183FF11C0E0
:10099C00FE01E295F295F07FFE27E07FFE27E05006
:1009AC00FF4F628173818481958124E0A8010E94AC
:1009BC006D05FE01E295F295F07FFE27E07FFE27A4
:1009CC00E050FF4F808184FF11C0FE01E295F2954B
:1009DC00F07FFE27E07FFE27E050FF4F628173819E
:1009EC008481958121E0A8010E94F405FE01E29525
:1009FC00F295F07FFE27E07FFE27E050FF4F8081CD
:100A0C0085FF11C0FE01E295F295F07FFE27E07F95
:100A1C00FE27E050FF4F628173818481958122E033
:100A2C00A8010E94F405FE01E295F295F07FFE27E5
:100A3C00E07FFE27E050FF4F808186FF11C0FE0152
:100A4C00E295F295F07FFE27E07FFE27E050FF4F06
:100A5C00628173818481958123E0A8010E94F40551
:100A6C00FE01E295F295F07FFE27E07FFE27E05035
:100A7C00FF4F808187FF11C0FE01E295F295F07F58
:100A8C00FE27E07FFE27E050FF4F62817381848157
:100A9C00958124E0A8010E94F405FE01E295F295EF
:100AAC00F07FFE27E07FFE27E050FF4F8081918191
:100ABC0090FF08C0628173818481958125E0A80133
:0E0ACC000E94F405DF91CF911F910F910895C4
:100ADA00FF920F931F93CF93DF93CDB7DEB729977A
:100AEA000FB6F894DEBF0FBECDBF8A01F22E9F93D8
:100AFA008F937F936F9388E091E0A0E0AF939F93E9
:100B0A008F93CE0101969F938F930E94A50D0FB6E6
:100B1A00F894DEBF0FBECDBF8981882309F44EC089
:100B2A0020E001C0282F81E0820FE1E0F0E0EC0F25
:100B3A00FD1FE80FF11D90819111F4CF8F15B0F0D0
:100B4A00882379F0FE013196D80130E02F5F3F4FBC
:100B5A002E0F3F1F91919D93E217F307D9F701C01A
:100B6A0080E0F801E80FF11D10822DC04F2D481BBF
:100B7A0069F0F8012FEF240F30E02F5F3F4F200F6D
:100B8A00311F90E39193E217F307E1F7882389F085
:100B9A00FE013196D801A40FB11D8150282F30E0F3
:100BAA002F5F3F4F2E0F3F1F91919D93E217F3073F
:100BBA00D9F7F801EF0DF11D108205C0FF2081F26F
:100BCA004F2D80E0D6CF29960FB6F894DEBF0FBE20
:0E0BDA00CDBFDF91CF911F910F91FF90089535
:100BE800FF920F931F93CF93DF93CDB7DEB72B9769
:100BF8000FB6F894DEBF0FBECDBF8A01F22E9F93C9
:100C08008F937F936F9384E091E0A0E0AF939F93DD
:100C18008F93CE0101969F938F930E94A50D0FB6D7
:100C2800F894DEBF0FBECDBF8981882309F44CC07C
:100C380080E001C0832F31E0380FE1E0F0E0EC0FF5
:100C4800FD1FE30FF11D90819111F4CF3F15A8F01E
:100C5800332371F0FE013196D80190E001968E0F92
:100C68009F1F21912D93E817F907D9F701C030E0AC
:100C7800F801E30FF11D10822CC04F2D431B61F0CA
:100C8800F8018FEF840F90E00196800F911F20E309
:100C98002193E817F907E1F7332389F0FE0131962C
:100CA800D801A40FB11D3150232F30E02F5F3F4FE3
:100CB8002E0F3F1F81918D93E217F307D9F7F801A3
:100CC800EF0DF11D108205C0FF2089F24F2D30E095
:100CD800D7CF2B960FB6F894DEBF0FBECDBFDF91EE
:0A0CE800CF911F910F91FF90089526
:100CF2004F925F926F927F928F929F92AF92BF922A
:100D0200FF920F931F93CF93DF93F12CC1E0D0E0BA
:100D120000E41FE1882E912CA12CB12C02C0C0E06E
:100D2200D1E0F394C801BE010E94E90E80E090E098
:100D32000E945B0B9B01AC0160E070E080E89FE3E6
:100D42000E940B102B013C01C501B4010E945D0BF6
:100D5200A30192010E940B102B013C0120E03FEF06
:100D62004FE757E40E94021088238CF0CC0FDD1F5E
:100D7200CC0FDD1FCC0FDD1FC11582E0D80779F241
:100D8200C11588E0D80769F6C0E0D4E0CACF1FBC1D
:100D9200A301920160E07FEF8FE797E40E94CF0FFB
:100DA2000E940A0C7093D5026093D4020E94C10F74
:100DB200FEBC81E00E94860FDF91CF911F910F91BF
:100DC200FF90BF90AF909F908F907F906F905F90B9
:040DD2004F900895A1
:100DD60021E030E002C0220F331F6A95E2F7483463
:100DE60071F5813421F48BB3282B2BBB0895823403
:100DF60021F488B3282B28BB0895833421F485B3C6
:100E0600282B25BB0895843421F482B3282B22BBDA
:100E16000895853421F483B1282B23B908958634A7
:100E260031F4E2E6F0E08081282B208308958734B0
:100E3600E1F5E5E6F0E08081282B208308954C3427
:100E4600A1F5813429F48BB3209528232BBB089573
:100E5600823429F488B32095282328BB0895833447
:100E660029F485B32095282325BB0895843429F4D5
:100E760082B32095282322BB0895853429F483B1B3
:100E86002095282323B90895863439F4E2E6F0E064
:100E960080812095282320830895873431F4E5E660
:0C0EA600F0E0808120952823208308952F
:100EB20021E030E002C0220F331F6A95E2F74F347F
:100EC20071F5813421F48AB3282B2ABB0895823428
:100ED20021F487B3282B27BB0895833421F484B3EC
:100EE200282B24BB0895843421F481B3282B21BB01
:100EF2000895853421F482B1282B22B908958634CD
:100F020031F4E1E6F0E08081282B208308958734D4
:100F1200E1F5E4E6F0E08081282B2083089549344E
:100F2200A1F5813429F48AB3209528232ABB089598
:100F3200823429F487B32095282327BB089583346C
:100F420029F484B32095282324BB0895843429F4FA
:100F520081B32095282321BB0895853429F482B1D9
:100F62002095282322B90895863439F4E1E6F0E089
:100F720080812095282320830895873431F4E4E684
:0C0F8200F0E08081209528232083089552
:100F8E000E94DD0F58F00E94D60F40F029F45F3F0B
:100F9E0029F00C94F70F51110C94E50F0C941810C6
:100FAE000E94C80D68F39923B1F3552391F3951B55
:100FBE00550BBB27AA2762177307840738F09F5F6C
:100FCE005F4F220F331F441FAA1FA9F335D00E2ED9
:100FDE003AF0E0E832D091505040E695001CCAF746
:100FEE002BD0FE2F29D0660F771F881FBB1F261709
:100FFE0037074807AB07B0E809F0BB0B802DBF01E0
:10100E00FF2793585F4F3AF09E3F510578F00C94AE
:10101E00F70F0C94E50F5F3FE4F3983ED4F38695FB
:10102E0077956795B795F7959F5FC9F7880F911DCF
:10103E009695879597F90895E1E0660F771F881FBB
:10104E00BB1F621773078407BA0720F0621B730B6E
:0C105E00840BBA0BEE1F88F7E095089594
:10106A000E94D60F38F00E94DD0F20F039F49F3F1E
:10107A0019F426F40C9418100EF4E095E7FB0C947E
:10108A00F70FE92F0E94C80D58F3BA1762077307C2
:10109A008407950720F079F4A6F50C94E40F0EF472
:1010AA00E0950B2EBA2FA02D0B01B90190010C016E
:1010BA00CA01A0011124FF27591B99F0593F50F486
:1010CA00503E68F11A16F040A22F232F342F4427DE
:1010DA00585FF3CF469537952795A795F0405395D6
:1010EA00C9F77EF41F16BA0B620B730B840BBAF0A6
:1010FA009150A1F0FF0FBB1F661F771F881FC2F711
:10110A000EC0BA0F621F731F841F48F48795779524
:10111A006795B795F7959E3F08F0B0CF9395880FDE
:0C112A0008F09927EE0F9795879508951F
:10113600FA01AA27283051F1203181F1E8946F9302
:101146006E7F6E5F7F4F8F4F9F4FAF4FB1E03ED0A8
:10115600B4E03CD0670F781F891F9A1FA11D680F46
:10116600791F8A1F911DA11D6A0F711D811D911D79
:10117600A11D20D009F468943F912AE0269F1124EE
:101186003019305D3193DEF6CF010895462F477052
:10119600405D4193B3E00FD0C9F7F6CF462F4F70AD
:1011A600405D4A3318F0495D31FD4052419302D00B
:1011B600A9F7EACFB4E0A6959795879577956795B1
:1011C600BA95C9F700976105710508959B01AC01B1
:1011D6000A2E06945795479537952795BA95C9F7D8
:0C11E600620F731F841F951FA01D089549
:1011F2008F929F92AF92BF92CF92DF92EF92FF9225
:10120200CF93DF93EC01688179818A819B8161159B
:1012120071058105910521F464E279ED8BE597E092
:101222002DE133EF41E050E00E94940E49015A0152
:101232009B01AC01A7EAB1E40E947B0F6B017C0128
:10124200ACEEB4EFA50194010E94AE0FDC01CB011C
:101252008C0D9D1DAE1DBF1DB7FF03C00197A109D7
:10126200B04888839983AA83BB839F77DF91CF910C
:10127200FF90EF90DF90CF90BF90AF909F908F90B4
:1012820008950E94F908089584EC92E00E94F908FA
:101292000895A0E0B0E08093C4029093C502A093A9
:0812A200C602B093C7020895D3
:1012AA006F927F928F92CF92DF92EF920F931F935A
:1012BA00CF93DF933B01882E8A014AE350E00E94D4
:1012CA00FD0E6B01E82E4EE350E0882DB3010E941B
:1012DA00FD0E3B01882EC114D104E10469F16115A8
:1012EA007105810549F1C616D706E80628F5AE2D1F
:1012FA00C6010196A11D86159705A805D0F4E80137
:10130A00682DA301FC012491A7FD20812993019650
:10131A00A11D84179507A607A9F782E0C80ED11C5C
:10132A00E11C6C187D088E08EFEF6E1A7E0A060D16
:10133A00171DF801108202C0F8011082DF91CF91C7
:10134A001F910F91EF90DF90CF908F907F906F90C9
:02135A000895F4
:10135C00CF92DF92EF926B01E82E40E050E0BA01A1
:10136C003DC0440F551F661F771F440F551F661F46
:10137C00771F440F551F661F771F440F551F661F9D
:10138C00771F90ED980F9A3058F490E0C097092E83
:10139C00000CAA0BBB0B482B592B6A2B7B2B1EC0AA
:1013AC009FEB980F963058F490E0C797092E000CDD
:1013BC00AA0BBB0B482B592B6A2B7B2B0FC09FE91D
:1013CC00980F963058F490E087559109092E000C2F
:1013DC00AA0BBB0B482B592B6A2B7B2BF601849148
:1013EC00E7FC80819FEFC91AD90AE90A8111B9CFAC
:0C13FC00CB01BA01EF90DF90CF90089574
:101408006F927F928F92CF92DF92EF926B01E82ECC
:101418003901842EFB018491E7FC8081882379F1CE
:10142800F901949187FC9081992319F1891323C0BC
:101438002FEFC21AD20AE20AA82DC3010196A11DF4
:1014480002C032131AC03C018A2EF6013491E7FC1F
:1014580030812FEFC21AD20AE20A332381F0FC014D
:101468002491A7FD20810196A11D2111EACF81E0D9
:101478000EC081E00CC081E00AC081E008C081E0B4
:10148800F301949187FC9081911101C080E0EF9065
:0C149800DF90CF908F907F906F900895B0
:1014A400CF93DF93FC01433031F4838180959281A3
:1014B4008923828333C0413071F5838181110CC04B
:1014C400928191112FC08091C8029091C902918399
:1014D400808381E0838305C08F5F83839281911130
:1014E40005C0828383E08093DB021FC0891316C08A
:1014F400EF01CF010E94D50E882349F08B8180959E
:101504009A8189238A8382E08093DB020EC081E082
:101514008093DB020AC0423009F413821092DB028A
:1015240080E003C081E08383E1CFDF91CF91089510
:10153400CF92DF92EF92FF920F931F9390E0FC0102
:10154400E295F295F07FFE27E07FFE27E050FF4F03
:101554000281138124813581C680D780E084F1849F
:10156400C016D106E206F306F8F0FC01E295F29506
:10157400F07FFE27E07FFE27E050FF4FC284D38434
:10158400E484F5840C151D052E053F0568F082954D
:101594009295907F9827807F9827FC01E050FF4F19
:1015A40042835383648375831F910F91FF90EF905F
:0615B400DF90CF900895C6
:1015BA0061EC7EE081E090E00E94580F0CE424E0A8
:1015CA0042E46FE484E40E94AB0E08E425E042E4BE
:1015DA0069E484E40E94AB0E26E042E469E484E410
:1015EA000E94AB0E27E042E469E484E40E94AB0E59
:1015FA0029E33CE044E650E069E080E992E00E9499
:10160A00BA0F2BEE3FE040E050E060E087E992E05D
:10161A000E94BA0F2DE130E140E050E060E08EE92F
:10162A0092E00E94BA0F81E00E94F10F0E94B30F6C
:02163A00FDCFE2
:10163C00CF92DF92EF92FF929B01482F60E070E017
:10164C00CB0125C0E0EDE50FEA3008F5DC01CB015C
:10165C00880F991FAA1FBB1F6C017D01CC0CDD1CD0
:10166C00EE1CFF1CCC0CDD1CEE1CFF1CC80ED91E86
:10167C00EA1EFB1E852F90E0C097092E000CAA0BCA
:10168C00BB0BBC01CD016C0D7D1D8E1D9F1DF90189
:10169C00549147FD50812F5F3F4F4F4F5111D2CF87
:0A16AC00FF90EF90DF90CF900895BB
:1016B600E89409C097FB3EF49095809570956195E6
:1016C6007F4F8F4F9F4F9923A9F0F92F96E9BB279C
:1016D6009395F695879577956795B795F111F8CF18
:1016E600FAF4BB0F11F460FF1BC06F5F7F4F8F4F83
:1016F6009F4F16C0882311F096E911C0772321F079
:101706009EE8872F762F05C0662371F096E8862F10
:1017160070E060E02AF09A95660F771F881FDAF767
:0A172600880F9695879597F90895AE
:101730000F931F93CF93DF93FB01248121FD03C0FF
:101740008FEF9FEF2CC022FF16C047815085258167
:1017500036814217530744F4A081B1819D012F5F68
:101760003F4F318320838C93278130852F5F3F4FFC
:101770003087278314C08B01EC01FB010184F285C3
:10178000E02D0995892BE1F6D80117968D919C9152
:101790001897019618969C938E931797CE01DF9118
:0817A000CF911F910F910895F4
:1017A800CF92DF92EF920F936B01E82E021710F1A0
:1017B800A82FCB01820F911DA11DFC018491A7FDCB
:1017C80080818823C9F090E031E0390F2F5FFA015A
:1017D800E90FF11D8083021780F0AE2DC601820F3C
:1017E800911DA11DFC018491A7FD8081932F81117A
:1017F800EBCF03C030E001C030E0FA01E30FF11D88
:0C18080010820F91EF90DF90CF900895B8
:101814000E94D00D88F09F5798F0B92F9927B7519F
:10182400B0F0E1F0660F771F881F991F1AF0BA9580
:10183400C9F714C0B13091F00E94E40FB1E00895EB
:101844000C94E40F672F782F8827B85F39F0B93FDD
:10185400CCF3869577956795B395D9F73EF4909533
:0E1864008095709561957F4F8F4F9F4F08952F
:1018720042E060E070E080EC92E00E94520A41E0B7
:1018820064E873E080EC92E00E94520A882349F0F7
:101892000E940F10833029F448E464E082E40E943D
:1018A200EB0641E064E670E080EC92E00E94520AAE
:1018B200882349F00E940F10833029F44CE464E03D
:0A18C20082E40E94EB0680E0089526
:1018CC00CF92DF92EF92FF920F931F93CF93DF9300
:1018DC006A017B018C01C0E0D0E0C701B6010C2E7F
:1018EC0004C096958795779567950A94D2F7E09101
:1018FC00D602F091D702C801099528960F5F1F4FA9
:10190C00C032D10551F7DF91CF911F910F91FF900C
:08191C00EF90DF90CF900895D9
:101924001F920F920FB60F9211242F933F934F9350
:101934005F936F937F938F939F93AF93BF93EF9333
:10194400FF930E94C10FE091CC02F091CD02099562
:10195400FF91EF91BF91AF919F918F917F916F9183
:101964005F914F913F912F910F900FBE0F901F9059
:021974001895C4
:101976001F920F920FB60F9211242F933F934F93FE
:101986005F936F937F938F939F93AF93BF93EF93E1
:10199600FF930E949A0FE091CA02F091CB0209953B
:1019A600FF91EF91BF91AF919F918F917F916F9131
:1019B6005F914F913F912F910F900FBE0F901F9007
:0219C600189572
:1019C8001F920F920FB60F9211242F933F934F93AC
:1019D8005F936F937F938F939F93AF93BF93EF938F
:1019E800FF9380919C00E091CE02F091CF0209957F
:1019F800FF91EF91BF91AF919F918F917F916F91DF
:101A08005F914F913F912F910F900FBE0F901F90B4
:021A180018951F
:101A1A001F920F920FB60F9211242F933F934F9359
:101A2A005F936F937F938F939F93AF93BF93EF933C
:101A3A00FF938CB1E091D002F091D1020995FF9108
:101A4A00EF91BF91AF919F918F917F916F915F912C
:101A5A004F913F912F910F900FBE0F901F901895A5
:101A6A00CF93DF93FC01208120FF1BC0EC01618131
:101A7A00728103960E94D50E882319F088818460AA
:101A8A008883888182FF0FC08B7F8883ED81FE81E6
:101A9A000995988193FD08C0882331F09E7F988329
:0E1AAA0003C080E001C080E0DF91CF9108957D
:101AB800DC019A01462F8C91882339F0CD010196DB
:101AC800DC0101965C915111FBCFF901849147FD2E
:101AD8008081882381F02F5F3F4F4F4F1196FD0182
:101AE80031978083F901849147FD80812F5F3F4FB3
:0A1AF8004F4F8111F3CF1C920895A7
:101B0200990F0008550FAA0BE0E8FEEF161617060C
:101B1200E807F907C0F012161306E407F50798F074
:101B2200621B730B840B950B39F40A2661F0232B8D
:101B3200242B252B21F408950A2609F4A140A69509
:081B42008FEF811D811D089544
:101B4A00AFE0B0E0EBEAFDE00C94390E0E891F8994
:101B5A0086E08D831A8309838FEF9FE79F838E83A5
:101B6A009E01255E3F4F488D598D6A8DCE010196A3
:101B7A000E948600E885F985E00FF11F10822F96F2
:061B8A00E4E00C94700E73
:101B900057FD9058440F551F59F05F3F71F047951E
:101BA000880F97FB991F61F09F3F79F08795089503
:101BB000121613061406551FF2CF4695F1DF08C022
:101BC000161617061806991FF1CF8695710561053F
:041BD00008940895D8
:101BD400A1E21A2EAA1BBB1BFD010DC0AA1FBB1F2D
:101BE400EE1FFF1FA217B307E407F50720F0A21B9F
:101BF400B30BE40BF50B661F771F881F991F1A940C
:101C040069F760957095809590959B01AC01BD0135
:041C1400CF0108955F
:101C18000F931F93CF93DF936115710599F0EC0132
:101C28008B01000F111F000F111F000F111F061B42
:101C3800170B080F191FCE010E94350D2796C017E4
:0E1C4800D107C9F7DF91CF911F910F91089539
:101C56002F923F924F925F926F927F928F929F92B6
:101C6600AF92BF92CF92DF92EF92FF920F931F93A4
:101C7600CF93DF93CDB7DEB7CA1BDB0B0FB6F89455
:081C8600DEBF0FBECDBF0994C3
:101C8E00CF92DF92EF926B01E82EA82FCB01411578
:101C9E00510531F48C199D09EF90DF90CF90089586
:101CAE00FC012491A7FD20812223A1F30196A11D01
:061CBE0041505109ECCF7A
:101CC4002A88398848885F846E847D848C849B84C8
:101CD400AA84B984C884DF80EE80FD800C811B81D6
:101CE400AA81B981CE0FD11D0FB6F894DEBF0FBE05
:061CF400CDBFED010895D3
:101CFA0020E1829FC0011124FC01E050FF4F808146
:101D0A0080FF05C0862FBA010E94AE09089581FF9F
:0E1D1A0005C0862FBA010E941E0B0895089581
:101D2800052E97FB1EF400940E94A30F57FD07D0C1
:101D38000E94EA0D07FC03D04EF40C94A30F5095B3
:0E1D48004095309521953F4F4F4F5F4F0895C6
:101D56000F931F93CF93DF93162FC42FD22F402FAD
:101D6600622F8C2F0E94EB06412F6D2F8C2F0E9425
:0C1D76005907DF91CF911F910F91089544
:101D82008091C8029091C902019621F41092C90271
:101D92001092C8028091C8029091C9020196909354
:081DA200C9028093C8020895F4
:101DAA002091C8023091C902FC0140815181F90198
:101DBA00E41BF50BE617F70728F0FC0131832083B3
:081DCA0081E0089580E0089516
:101DD200AA1BBB1B51E107C0AA1FBB1FA617B7074F
:101DE20010F0A61BB70B881F991F5A95A9F780956B
:081DF2009095BC01CD0108959C
:101DFA00A82FCB01FC012491A7FD2081421729F0CD
:101E0A00222331F00196A11DF5CFBC018A2F089536
:081E1A0060E070E080E0089533
:101E2200092E0394000C11F4882352F0BB0F40F4E6
:101E3200BF2B11F460FF04C06F5F7F4F8F4F9F4F26
:021E4200089501
:101E4400A29FB001B39FC001A39F700D811D1124F7
:0E1E5400911DB29F700D811D1124911D0895E6
:101E620090E1899FF0011124E050FF4F428153819C
:0A1E7200648175810E94C80F089575
:101E7C0090E1899FF0011124E050FF4F0684F78513
:0A1E8C00E02D309709F00995089544
:101E96008091DC02882341F00E9445099093D90283
:0A1EA6008093D802892BC1F3089540
:101EB000CF93DF93EB010E947906D093CD02C093BC
:081EC000CC02DF91CF910895DF
:101EC80020E1829FC0011124FC01E050FF4F628194
:081ED800738184819581089556
:101EE00048E465E085E40E94EB064CE465E085E4A7
:061EF0000E94EB060895BC
:101EF6000E94220FA59F900DB49F900DA49F800D68
:061F0600911D1124089555
:101F0C00882321F087B7846087BF089587B78B7FBC
:041F1C0087BF0895DE
:101F200020E1829FC0011124FC01E050FF4F80811D
:041F300091810895FE
:101F34008091D2029091D30290938900809388007B
:021F44000895FE
:101F460090958095709561957F4F8F4F9F4F08951F
:101F5600B7FF0C947B0F0E947B0F821B930B089597
:0E1F660064E070E080E992E00E940C0E0895A5
:0E1F7400FC01368325836083528341830895E8
:0E1F82008091D4029091D5029DBD8CBD089532
:0E1F900024E0829FC00111240E94660C089577
:0E1F9E005058BB27AA270E9446080C94110F2A
:0E1FAC0000240A941616170618060906089552
:0E1FBA0000240A941216130614060506089554
:0E1FC800E894BB2766277727CB0197F9089589
:0C1FD6008CEA92E00E94AA0281E00895CB
:0C1FE200882311F078940895F894089575
:0C1FEE0097F99F6780E870E060E00895BC
:0A1FFA008091D8029091D902089559
:0A2004000E94810D08F481E00895A8
:08200E0081E08093DC020895DB
:082016000E94D7070C94110F82
:06201E008091DB02089531
:062024001092DC02089599
:06202A008091DC02089524
:062030009FEF80EC089513
:042036000C94000006
:04203A0081E00895A4
:04203E00010000009D
:00000001FF
