:100000000C9449000C9434180C9434180C94341843
:100010000C9434180C9434180C9434180C94341830
:100020000C9434180C9434180C9434180C94341820
:100030000C9434180C9434180C94A4130C943418A5
:100040000C9434180C9434180C941F140C94341819
:100050000C9434180C9434180C9434180C943418F0
:100060000C9434180C9434180C9434180C943418E0
:100070000C9434180C94CD130C94F6130C9434187F
:100080000C9434180C9434180C9434180100030A9E
:10009000800011241FBECFEFD0E1DEBFCDBFECE862
:1000A000F0E040E017C0B591A591359125910591FB
:1000B00007FD0CC095918591EF01F92FE82F059070
:1000C0000D92A217B307D9F7FE0104C01D92A21723
:1000D000B307E1F7E139F40731F70E9473080C9494
:0600E0006F17F894FFCF3A
:1000E60068076C094C836A9074A07AC0008068889F
:0600F60000846C82008111
:1000FC0051003A003F004D41494E31003C00520046
:02010C003E00B3
:08010E00256C7500256C5800FA
:07011600286E756C6C2900D6
:06011D00286E696C290048
:100124002F923F924F926F927F928F929F92AF92B3
:10013400BF92CF92DF92EF92FF920F931F93CF93D0
:10014400DF93CDB7DEB72E970FB6F894DEBF0FBEA0
:10015400CDBF4C016B0138011A8219828FEF9FEFDA
:100164009C838B831E821D8258874F833A872987FD
:10017400A12CB12CD6012D913D914C912A0D3B1D02
:10018400411DB7FC4A95F901849147FD8081811195
:1001940016C0F601208331834283F901849147FD1F
:1001A4008081853209F00FC21901442EFFEF2F1A06
:1001B4003F0A4F0AD6012D923D924C921BC08532C4
:1001C40041F3B401082E000C990B0E94DA0F4FEF93
:1001D400A41AB40ACFCF2C32DCF02D3229F52981B0
:1001E4003A8121603A8329830196A11DF601808317
:1001F4009183A283F60180819181A281FC012491E3
:10020400A7FD20812B3239F729813A812460EACF76
:10021400203221F429813A812860E4CF233251F439
:1002240029813A812061DECF203321F429813A816A
:100234002260D8CFB701C6010E9445129E838D83E8
:1002440097FF0BC029813A81F1E02F273A83298354
:100254009195819591099E838D8389819A8180FFEF
:1002640003C08D7F9A838983F60180819181A28165
:10027400FC012491A7FD20812E3261F40196A11D79
:10028400F60180839183A283B701C6010E944512BF
:100294009C838B83C6010E943D0F182FD6012C919D
:1002A40011968C91119712969C91E22FF82F8491BC
:1002B40097FD8081082E000C990B0E94BD1789368A
:1002C40009F44AC084F4833609F419C134F485323C
:1002D40009F445C18136E1F050C18436E9F188362C
:1002E4000CF4E9C04AC1803709F4B0C03CF48E363E
:1002F40009F4D6C08F3609F46DC03FC1853709F4BF
:100304004AC0883709F485C0833709F036C10DC166
:10031400612F70E0A701CE010B960E940000892B8B
:1003240009F448C1F60180819181A2819C014A2F80
:100334002F5F3F4F4F4F208331834283FC01249131
:10034400A7FD2081AE01455F5F4FBE016F5F7F4F08
:10035400C4010E9400002BC1612F70E0970141E0AD
:1003640050E0CE010B960E94400C892B09F422C167
:10037400F60180819181A2810196A11D80839183E0
:10038400A283AE01455F5F4FBE016F5F7F4FC40123
:100394000E94100A0CC1612F70E0970140E050E008
:1003A400CE010B960E94400C892B09F403C1F6017F
:1003B40080819181A2810196A11D80839183A28372
:1003C400AE01455F5F4FBE016F5F7F4FC4010E9466
:1003D4000311EDC0612F70E0970140E050E0CE01C1
:1003E4000B960E94400C892B09F4E4C0F60180812D
:1003F4009181A2810196A11D80839183A283AE0184
:10040400455F5F4FBE016F5F7F4FC4010E94E20DE5
:10041400CEC0612F70E0970140E050E0CE010B9612
:100424000E94400C892B09F4C5C0F601808191819A
:10043400A2819C014A2F2F5F3F4F4F4F208331836E
:100444004283FC012491A7FD208120C0970140E054
:1004540050E060EF70E0CE010B960E94400C892BB7
:1004640009F4A8C0F60180819181A2810196A11DA1
:1004740080839183A2838B859C85892B31F400E052
:1004840010E02DE131E040E08CC028E7AE01455F8B
:100494005F4FBE016F5F7F4FC4010E94150687C086
:1004A400A501460D571D612F70E09701CE010B96F3
:1004B4000E9400007FC0612F70E0A701CE010B965F
:1004C4000E940000892B09F475C0F6018081918196
:1004D400A2819C014A2F2F5F3F4F4F4F20833183CE
:1004E4004283FC012491A7FD2081AE01455F5F4F4B
:1004F400BE016F5F7F4FC4010E94000058C01038D6
:1005040009F058C0F60180819181A2810196A11D54
:1005140080839183A283D701ED91FC911197CF0140
:1005240002968D939C93808126C0103809F042C0B6
:10053400F60180819181A2810196A11D808391831E
:10054400A283D701ED91FC911197CF0103968D936E
:100554009C9320813181428100E010E022C0103858
:1005640049F5F6012081318142812F5F3F4F4F4F82
:100574002083318342838B870EC085E28B87F6010B
:100584002082318242821A8219821E821D828FEF5A
:100594009FEF9C838B839E01255F3F4F40E801E0E2
:1005A40010E0BE016F5F7F4FC4010E9408128A0DE4
:1005B4009B1D0AC0F60180819181A2810196A11D33
:1005C40080839183A283C5012E960FB6F894DEBF73
:1005D4000FBECDBFDF91CF911F910F91FF90EF9090
:1005E400DF90CF90BF90AF909F908F907F906F904F
:0805F4004F903F902F900895F5
:1005FC002F923F924F925F926F927F928F929F9227
:10060C00AF92BF92CF92DF92EF92FF920F931F9314
:10061C00CF93DF93CDB7DEB7C954D1090FB6F89499
:10062C00DEBF0FBECDBF2C0180E00E944C1725967B
:10063C006CAF7DAF8EAF9FAF259784E00E944C17B7
:10064C002A966FAF2A9720E8622E7E013FE1E30ED7
:10065C00F11C01E021E0A701862DB2010E9481125C
:10066C004E0142E2840E911C05E022E0A401862D8D
:10067C00B2010E9481125E0188E2A80EB11C07E053
:10068C0026E0A501862DB2010E9481126E019BE22B
:10069C00C90ED11C09E028E0A601862DB2010E94EA
:1006AC0081120AE02AE0AE01425D5F4F862DB20155
:1006BC000E9481128E010B5E1F4FA801862DB20184
:1006CC000E943C0E1401A0E84A2E842DB1010E9418
:1006DC00950E6AAF7BAF8CAF9DAF3501B0E88B2E1A
:1006EC00882DB3010E94950E962E560120E8C22E3D
:1006FC008C2DB5010E94950ED62EA80160E88D2D8B
:10070C000E94EE1529966CAF7DAF8EAF9FAF2997E7
:10071C00C701A0E821968DAF9EAFAFAF21972CEF0C
:10072C0030E040E0BC018A2F0E948C0F81113AC14D
:10073C002AAD3BAD2115310569F491E0D91205C004
:10074C00FE013196CE0145961AC0809106038111A7
:10075C00F7CF28C18D2D8B7F21F480910603811159
:10076C00EFCF2396AEADBFAD23972A173B0709F009
:10077C0019C12A96BFAD2A97B91114C1E1CF1192B4
:10078C00E817F907E1F7CE018E969C0140E82AAFF5
:10079C003BAF4CAF2EEF30E040E06AAD7BAD8CADA3
:1007AC000E948C0F81115EC08D2D0E948F178D2D94
:1007BC000E948F1791FFF6C031E0D31241C02996E9
:1007CC008CAD9DADAEADBFAD2997892B8A2B8B2BF4
:1007DC0059F4109206030E94201840E050E0BA0130
:1007EC0081E00E944B1135C081E00E944C17299684
:1007FC000CAD1DAD2EAD3FAD2997A7E50A27A4E0A2
:10080C001A27061717072807390779F48FEF8093F3
:10081C00060329964CAD5DAD6EAD7FAD299781E099
:10082C000E944B110E942B1814C01092060340E03A
:10083C0050E0BA0181E00E944B110E942B1809C0B4
:10084C0029964CAD5DAD6EAD7FAD29978D2D0E9477
:10085C004B118D2D0E948F1794FF04C06AE38D2DD0
:10086C000E94191720E031E040E06AAD7BAD8CAD01
:10087C000E948C0F811122C08D2D0E948F1792FF28
:10088C0091C0B1E0DB1211C00E942E18882309F42C
:10089C0089C00E9426170E941618AC0160E070E017
:1008AC0081E00E944B110E942B188D2D0E948F17F6
:1008BC0094FF04C06FE38D2D0E9419178D2D0E949B
:1008CC008F1793FF03C08D2D0E940C17BE01605D26
:1008DC007F4F8D2D0E94020780E00E944C1724E070
:1008EC00AE014E5D5F4F0E94040984E00E944C17DC
:1008FC0022E0AE01485D5F4F0E9404098D2D0E94DD
:10090C008F1796FF07C042E051E060E0CE010196E0
:10091C000E946E1448E051E060E0CE0101960E9406
:10092C006E1421964DAD5EAD6FAD2197CE01019643
:10093C000E946E144AE051E060E0CE0101960E94E4
:10094C006E14642DA101CE0101960E946E14682DC7
:10095C00A301CE0101960E946E146C2DA501CE014F
:10096C0001960E946E144EEF50E060E0CE010196AD
:10097C000E946E14AE01405D5F4F60E8CE0101969F
:10098C000E946E144CE051E060E0CE0101960E9492
:10099C006E148D2D0E948F1795FF04C0CE01019609
:1009AC000E946417C75BDF4F0FB6F894DEBF0FBE13
:1009BC00CDBFDF91CF911F910F91FF90EF90DF9002
:1009CC00CF90BF90AF909F908F907F906F905F90E3
:0809DC004F903F902F90089509
:1009E400AF92BF92CF92DF92EF92FF920F931F9339
:1009F400CF93DF93C0910903CC2309F409C160911B
:100A0400DB027091DC028091DD020E9431168C01C0
:100A14006091D8027091D9028091DA020E94311655
:100A24007C01C13009F041C060E080E00E94991768
:100A3400C0E0D0E001151105E9F080910403909124
:100A440005038C0F9D1FB8010E946F162091DB02D5
:100A54003091DC024091DD025901C42EA80EB91E6A
:100A6400C11C97FDCA94AC2DC501F5018491A7FD65
:100A7400808101C080E20E94BB162196C031D1055D
:100A8400C9F62091D8023091D9024091DA0260E08F
:100A940081E00E943715809104039091050301962B
:100AA4009093050380930403B3C0C23009F041C09E
:100AB40060E081E00E949917C0E0D0E0E114F10405
:100AC400E9F080910203909103038C0F9D1FB701FD
:100AD4000E946F162091D8023091D9024091DA0217
:100AE4005901C42EA80EB91EC11C97FDCA94AC2D81
:100AF400C501F5018491A7FD808101C080E20E94B7
:100B0400BB162196C031D105C9F62091DB02309184
:100B1400DC024091DD0260E080E00E9437158091A4
:100B240002039091030301969093030380930203BD
:100B34006FC0C33009F06CC060E080E00E94991778
:100B4400C0E0D0E001151105E9F080910403909113
:100B540005038C0F9D1FB8010E946F162091DB02C4
:100B64003091DC024091DD025901C42EA80EB91E59
:100B7400C11C97FDCA94AC2DC501F5018491A7FD54
:100B8400808101C080E20E94BB162196C031D1054C
:100B9400C9F660E081E00E949917C0E0D0E0E1145A
:100BA400F104E9F080910203909103038C0F9D1FDF
:100BB400B7010E946F162091D8023091D90240915A
:100BC400DA025901C42EA80EB91EC11C97FDCA949D
:100BD400AC2DC501F5018491A7FD808101C080E29F
:100BE4000E94BB162196C031D105C9F68091040339
:100BF40090910503019690930503809304038091DB
:100C040002039091030301969093030380930203DC
:100C1400DF91CF911F910F91FF90EF90DF90CF90D4
:060C2400BF90AF9008959F
:100C2A00AFE0B0E0EBE1F6E00C9454151C016B0167
:100C3A005A8349832B83FB01828193818480958027
:100C4A00E080F180A680B78097FD03C0E894E1F8C0
:100C5A0002C081E090E0E981FA814080518062809F
:100C6A0073809701207133273D832C838401E4FE2E
:100C7A0007C0411451046104710411F002501109B2
:100C8A00F701E870FF27FF83EE83E3FE02C00150FD
:100C9A001109F6010084F185E02D3197FF87EE876F
:100CAA00EA0DFB1D10829C01201B310B3987288716
:100CBA00C701827099279B878A87EB818E2FEE0F57
:100CCA00990B9C01215431093D872C872E853F853C
:100CDA002230310530F48C819D81892B09F041C085
:100CEA005BC0411451046104710459F18E859F85DA
:100CFA0001979F878E87C2018F7099278A30910545
:100D0A0014F4C09602C0895A9F4FEC85FD857A97E4
:100D1A0048F49C012062215631092A31310510F428
:100D2A000E94AC17EE85FF85EA0DFB1D80830150FA
:100D3A00110984E076946794579447948A95D1F779
:100D4A00C5CF88859985800F911F1816190674F2E8
:100D5A00101611060CF0BFCFEA85FB85EF2B31F692
:100D6A00BACFE981FA8180819181A281B381892BED
:100D7A008A2B8B2B89F0EE85FF85EA0DFB1D3197B7
:100D8A002B8120838E859F8502979F878E87FC0102
:100D9A00EA0DFB1D80E38083EE81FF81EF2B59F082
:100DAA002E853F85215031093F872E87F901EA0DAB
:100DBA00FB1D80E28083F6012085318521503109AF
:100DCA008E859F85281B390B8A0D9B1DAC0160E817
:100DDA008401C1010E9426109C01F1018081918148
:100DEA0090FF06C0F60182819381821793070CF463
:0A0DFA00C9012F96E2E10C94701578
:100E04000F931F93CF93DF938B01C82FD0E0FE0184
:100E1400E295F295F07FFE27E07FFE27EE5FFE4F1E
:100E2400808182FF11C0FE01E295F295F07FFE27DA
:100E3400E07FFE27EE5FFE4F62817381848195819E
:100E440022E0A8010E940409FE01E295F295F07FD8
:100E5400FE27E07FFE27EE5FFE4F808183FF11C0F7
:100E6400FE01E295F295F07FFE27E07FFE27EE5F1C
:100E7400FE4F628173818481958124E0A8010E94E0
:100E84000409FE01E295F295F07FFE27E07FFE273C
:100E9400EE5FFE4F808184FF11C0FE01E295F29562
:100EA400F07FFE27E07FFE27EE5FFE4F62817381B5
:100EB4008481958121E0A8010E948B09FE01E295BD
:100EC400F295F07FFE27E07FFE27EE5FFE4F8081E4
:100ED40085FF11C0FE01E295F295F07FFE27E07FC9
:100EE400FE27EE5FFE4F628173818481958122E04B
:100EF400A8010E948B09FE01E295F295F07FFE277E
:100F0400E07FFE27EE5FFE4F808186FF11C0FE0169
:100F1400E295F295F07FFE27E07FFE27EE5FFE4F1D
:100F2400628173818481958123E0A8010E948B09E9
:100F3400FE01E295F295F07FFE27E07FFE27EE5F4B
:100F4400FE4F808187FF11C0FE01E295F295F07F8C
:100F5400FE27E07FFE27EE5FFE4F6281738184816E
:100F6400958124E0A8010E948B09FE01E295F29587
:100F7400F07FFE27E07FFE27EE5FFE4F80819181A8
:100F840090FF08C0628173818481958125E0A80166
:0E0F94000E948B09DF91CF911F910F9108955C
:100FA2008F929F92AF92BF92CF92DF92EF92FF9277
:100FB2000F931F93CF93C82F84FB442740F90F2E22
:100FC200F4EE8F2EF2E09F2EF02DF40162818081EB
:100FD20091810E94A515C5FB442740F90F2EF7EE1B
:100FE200AF2EF2E0BF2EF02DF5016281808191815A
:100FF2000E94A515C6FB442740F90F2EFAEECF2E0C
:10100200F2E0DF2EF02DF6016281808191810E9453
:10101200A5154C2F441F4427441F0F2EFDEEEF2E23
:10102200F2E0FF2EF02DF7016281808191810E9412
:10103200A5150EED12E041E0F801628180819181F7
:101042000E94A51582E30E94B51740E0F801628173
:10105200808191810E94A51582E30E94B5174C2FD1
:101062004170F4016281808191810E94A515C1FBCA
:10107200442740F9F5016281808191810E94A51582
:10108200C2FB442740F9F6016281808191810E946E
:10109200A515C3FB442740F9F70162818081918144
:1010A2000E94A51541E0F8016281808191810E9430
:1010B200A51582E30E94B51740E0F80162818081A4
:1010C20091810E94A51582E30E94B517CF911F91CD
:1010D2000F91FF90EF90DF90CF90BF90AF909F90D5
:0410E2008F9008954E
:1010E60067E476E181E090E00E9440170CE424E09A
:1010F60042E46FE484E40E941B1620E042E46FE4BD
:1011060084E40E941B1621E042E46FE484E40E941A
:101116001B1622E042E46FE484E40E941B1623E0DF
:1011260042E46FE484E40E941B1626E042E46FE486
:1011360084E40E941B1627E042E46FE484E40E94E4
:101146001B16A12C0F2EF0E3CF2ED12CF02D0F2E37
:10115600F2E3EF2EF12CF02D01E310E021E040E365
:1011660050E062E370E081E390E00E941A132BEEF8
:1011760032E144E650E069E082E992E00E94CC1751
:1011860024E038E140E050E060E089E992E00E9426
:10119600CC1726E338E140E050E060E080EA92E0D8
:1011A6000E94CC1787E08F931F9288E38F9386E087
:1011B6008F930F2EF8E38F2E912CF02D0F2EF3E048
:1011C600AF2EF02D0F2EF8E3CF2ED12CF02D6894F4
:1011D600EE24E1F808E310E021E048E350E060E0A7
:1011E60088E390E00E94AD0C80E00E94EE1681E05C
:1011F6000E940A180F900F900F900F900E94C5172B
:02120600FDCF1A
:10120800FF920F931F93CF93DF93CDB7DEB7299744
:101218000FB6F894DEBF0FBECDBF8A01F22E9F93A2
:101228008F937F936F9382E191E0A0E0AF939F93B8
:101238008F93CE0101969F938F930E9483160FB6CA
:10124800F894DEBF0FBECDBF8981882309F44EC054
:1012580020E001C0282F81E0820FE1E0F0E0EC0FF0
:10126800FD1FE80FF11D90819111F4CF8F15B0F09B
:10127800882379F0FE013196D80130E02F5F3F4F87
:101288002E0F3F1F91919D93E217F307D9F701C0E5
:1012980080E0F801E80FF11D10822DC04F2D481B8A
:1012A80069F0F8012FEF240F30E02F5F3F4F200F38
:1012B800311F90E39193E217F307E1F7882389F050
:1012C800FE013196D801A40FB11D8150282F30E0BE
:1012D8002F5F3F4F2E0F3F1F91919D93E217F3070A
:1012E800D9F7F801EF0DF11D108205C0FF2081F23A
:1012F8004F2D80E0D6CF29960FB6F894DEBF0FBEEB
:0E130800CDBFDF91CF911F910F91FF900895FF
:10131600FF920F931F93CF93DF93CDB7DEB72B9733
:101326000FB6F894DEBF0FBECDBF8A01F22E9F9393
:101336008F937F936F938EE091E0A0E0AF939F939E
:101346008F93CE0101969F938F930E9483160FB6BB
:10135600F894DEBF0FBECDBF8981882309F44CC047
:1013660080E001C0832F31E0380FE1E0F0E0EC0FC0
:10137600FD1FE30FF11D90819111F4CF3F15A8F0E9
:10138600332371F0FE013196D80190E001968E0F5D
:101396009F1F21912D93E817F907D9F701C030E077
:1013A600F801E30FF11D10822CC04F2D431B61F095
:1013B600F8018FEF840F90E00196800F911F20E3D4
:1013C6002193E817F907E1F7332389F0FE013196F7
:1013D600D801A40FB11D3150232F30E02F5F3F4FAE
:1013E6002E0F3F1F81918D93E217F307D9F7F8016E
:1013F600EF0DF11D108205C0FF2089F24F2D30E060
:10140600D7CF2B960FB6F894DEBF0FBECDBFDF91B8
:0A141600CF911F910F91FF900895F0
:10142000A2E0B0E0E6E1FAE00C9454154C016B0147
:10143000FB0122813381A480B580808191819A83D0
:10144000898366807780FA012080318042805380D2
:10145000B201A10157FE07C044275527BA0142191E
:1014600053096409750937FD03C08D7F9A83898309
:10147000950157FC05C0898182FD02C083FF02C02F
:1014800021503109CE0101967C010AE010E0C6012D
:101490000E947D0D57FC03C0298122FF0AC00197DD
:1014A000F301E80FF91F57FC02C02BE209C02DE23F
:1014B00007C023FF06C00197F301E80FF91F20E2E0
:1014C0002083E980FA80F601208531852150310999
:1014D000281B390B860D971DAC0160E88501C401FE
:1014E0000E9426109C01F4018081918190FF06C02A
:1014F000F60182819381821793070CF4C901229629
:06150000E2E10C947015FD
:101506004F925F926F927F928F929F92AF92BF920D
:10151600FF920F931F93CF93DF93F12CC1E0D0E09E
:1015260000E41FE1882E912CA12CB12C02C0C0E052
:10153600D1E0F394C801BE010E946F1680E090E0EE
:101546000E94CB119B01AC0160E070E080E89FE354
:101556000E9424182B013C01C501B4010E94CD1143
:10156600A30192010E9424182B013C0120E03FEFC9
:101576004FE757E40E941B1888238CF0CC0FDD1F21
:10158600CC0FDD1FCC0FDD1FC11582E0D80779F225
:10159600C11588E0D80769F6C0E0D4E0CACF1FBC01
:1015A600A301920160E07FEF8FE797E40E94E817BE
:1015B6000E9449137093FD026093FC020E94D317A8
:1015C600FEBC81E00E948517DF91CF911F910F919C
:1015D600FF90BF90AF909F908F907F906F905F909D
:0415E6004F90089585
:1015EA0010C00E94F61758F00E94EF1740F029F435
:1015FA005F3F29F00C94101851110C94FE170C94AB
:10160A0031180E94B71468F39923B1F3552391F363
:10161A00951B550BBB27AA2762177307840738F057
:10162A009F5F5F4F220F331F441FAA1FA9F335D0B4
:10163A000E2E3AF0E0E832D091505040E695001C68
:10164A00CAF72BD0FE2F29D0660F771F881FBB1F22
:10165A00261737074807AB07B0E809F0BB0B802D00
:10166A00BF01FF2793585F4F3AF09E3F510578F02C
:10167A000C9410180C94FE175F3FE4F3983ED4F3D1
:10168A00869577956795B795F7959F5FC9F7880F00
:10169A00911D9695879597F90895E1E0660F771F52
:1016AA00881FBB1F621773078407BA0720F0621BE3
:0E16BA00730B840BBA0BEE1F88F7E0950895B2
:1016C80021E030E002C0220F331F6A95E2F7483468
:1016D80071F5813421F48BB3282B2BBB0895823408
:1016E80021F488B3282B28BB0895833421F485B3CB
:1016F800282B25BB0895843421F482B3282B22BBE0
:101708000895853421F483B1282B23B908958634AC
:1017180031F4E2E6F0E08081282B208308958734B5
:10172800E1F5E5E6F0E08081282B208308954C342C
:10173800A1F5813429F48BB3209528232BBB089578
:10174800823429F488B32095282328BB089583344C
:1017580029F485B32095282325BB0895843429F4DA
:1017680082B32095282322BB0895853429F483B1B8
:101778002095282323B90895863439F4E2E6F0E069
:1017880080812095282320830895873431F4E5E665
:0C179800F0E08081209528232083089534
:1017A40021E030E002C0220F331F6A95E2F74F3484
:1017B40071F5813421F48AB3282B2ABB089582342D
:1017C40021F487B3282B27BB0895833421F484B3F1
:1017D400282B24BB0895843421F481B3282B21BB06
:1017E4000895853421F482B1282B22B908958634D2
:1017F40031F4E1E6F0E08081282B208308958734DA
:10180400E1F5E4E6F0E08081282B20830895493453
:10181400A1F5813429F48AB3209528232ABB08959D
:10182400823429F487B32095282327BB0895833471
:1018340029F484B32095282324BB0895843429F4FF
:1018440081B32095282321BB0895853429F482B1DE
:101854002095282322B90895863439F4E1E6F0E08E
:1018640080812095282320830895873431F4E4E689
:0C187400F0E08081209528232083089557
:10188000CF93DF93DC01F90168387105F1F05CF466
:101890006138710561F164387105C9F1603871050D
:1018A00009F056C034C0603C710561F1603F7105BC
:1018B00009F443C0603A710509F04AC0C081D18182
:1018C000CE010296918380832AC0C081D181CE014E
:1018D000029691838083452B39F04881042E000CB9
:1018E000550B660B770B21C0488150E02EC0C0819C
:1018F000D181CE01049691838083488159816A8188
:101900007B8113C0C081D181CE0102961AC0C081F3
:10191000D181CE01029691838083452BA1F048812D
:101920005981052E000C660B770B4D935D936D93DB
:101930007C93139781E090E00DC0C081D181CE01EE
:101940000396918380834881598160E070E0EDCFF8
:0A19500080E090E0DF91CF91089550
:10195A004F925F926F927F928F929F92AF92CF92A5
:10196A00DF92EF920F931F93CF93DF93CDB7DEB73A
:10197A000F2EFDEE6F2EF2E07F2EF02DF3019183F4
:10198A008083AAEEB2E011965C934E9347EE52E042
:10199A00FA01118300830F2EF4EE4F2EF2E05F2E30
:1019AA00F02DF201D182C08201EE12E0F80191829B
:1019BA0080828EED92E0CA88DB88FC01D182C082E7
:1019CA00F301628312962C93FA01E282F201A28257
:1019DA002989F80122832C89FC01228384E10E944F
:1019EA00331782E00E94A91688E20E94A9168CE0A9
:1019FA000E94A91686E00E94A9160E94E11784E1B6
:101A0A000E943317DF91CF911F910F91EF90DF90D2
:101A1A00CF90AF909F908F907F906F905F904F90F4
:021A2A0008951D
:101A2C0011C00E94EF1738F00E94F61720F039F41D
:101A3C009F3F19F426F40C9431180EF4E095E7FB53
:101A4C000C941018E92F0E94B71458F3BA176207B8
:101A5C0073078407950720F079F4A6F50C94FD170D
:101A6C000EF4E0950B2EBA2FA02D0B01B9019001AD
:101A7C000C01CA01A0011124FF27591B99F0593FF1
:101A8C0050F4503E68F11A16F040A22F232F342F39
:101A9C004427585FF3CF469537952795A795F04087
:101AAC005395C9F77EF41F16BA0B620B730B840B9C
:101ABC00BAF09150A1F0FF0FBB1F661F771F881F54
:101ACC00C2F70EC0BA0F621F731F841F48F48795AC
:101ADC0077956795B795F7959E3F08F0B0CF93959E
:0E1AEC00880F08F09927EE0F979587950895BB
:101AFA00A0E0B0E0E3E8FDE00C945615DC01280113
:101B0A001696AD90BC901797F70180819181129635
:101B1A00ED91FC9113971896CD91DC911997219725
:101B2A00F7FF02C0E1E0F0E0CA0DDB1D188269018F
:101B3A00A1E0B0E08F01021B130B4C01F2E08F22EF
:101B4A009924052C000C66087708CE018A199B098E
:101B5A00CA15DB0519F1411551056105710589F0B1
:101B6A00CB01BA01A30192010E94D914CA01A62F7E
:101B7A00B72F605D6A9341E0C41AD108A901BC017C
:101B8A00E4CF98012C0D3D1D121613064CF31C14BC
:101B9A001D0434F48114910419F702C080E090E026
:101BAA00AB2B31F4F701208131812F7E31832083E1
:0A1BBA00CDB7DEB7E0E10C94721520
:101BC400A2E0B0E0E8EEFDE00C9458155C016B0176
:101BD400FB012281338184809580808191819A8365
:101BE40089836680778037FD03C08D7F9A838983DC
:101BF400FA014081518162817381CE0101967C0199
:101C040008E010E09401C6010E947D0D298124FFA3
:101C140006C00197F301E80FF91F20E3208329810F
:101C240023FF06C00197F301E80FF91F20E2208388
:101C3400E980FA80F6012085318521503109281B7D
:101C4400390B860D971DAC0160E88401C5010E9423
:101C540026109C01F5018081918190FF06C0F60158
:101C640082819381821793070CF4C9012296EEE0D6
:041C74000C94741543
:101C78006F927F928F92CF92DF92EF920F931F9382
:101C8800CF93DF933B01882E8A014AE350E00E94FC
:101C980096166B01E82E4EE350E0882DB3010E94A2
:101CA80096163B01882EC114D104E10469F161152F
:101CB8007105810549F1C616D706E80628F5AE2D47
:101CC800C6010196A11D86159705A805D0F4E8015F
:101CD800682DA301FC012491A7FD20812993019679
:101CE800A11D84179507A607A9F782E0C80ED11C85
:101CF800E11C6C187D088E08EFEF6E1A7E0A060D3F
:101D0800171DF801108202C0F8011082DF91CF91EF
:101D18001F910F91EF90DF90CF908F907F906F90F1
:021D280008951C
:101D2A00CF92DF92EF926B01E82E40E050E0BA01C9
:101D3A003DC0440F551F661F771F440F551F661F6E
:101D4A00771F440F551F661F771F440F551F661FC5
:101D5A00771F90ED980F9A3058F490E0C097092EAB
:101D6A00000CAA0BBB0B482B592B6A2B7B2B1EC0D2
:101D7A009FEB980F963058F490E0C797092E000C05
:101D8A00AA0BBB0B482B592B6A2B7B2B0FC09FE945
:101D9A00980F963058F490E087559109092E000C57
:101DAA00AA0BBB0B482B592B6A2B7B2BF601849170
:101DBA00E7FC80819FEFC91AD90AE90A8111B9CFD4
:0C1DCA00CB01BA01EF90DF90CF9008959C
:101DD6006F927F928F92EF92FF920F931F93CF9302
:101DE600DF93CDB7DEB761970FB6F894DEBF0FBEAF
:101DF600CDBFFE01319651E1DF011D925A95E9F7FB
:101E0600A2E0B1E0BA83A9839C838B8377FF09C0E4
:101E16008FE490E090930101809300018FEF9FEF94
:101E260019C03901842E7C01615071097F836E834C
:101E36009801682DA301CF010E94BF1548855985D9
:101E46002E813F814217530708F49A01F701E20FEA
:101E5600F31F108261960FB6F894DEBF0FBECDBF9A
:101E6600DF91CF911F910F91FF90EF908F907F9010
:041E76006F900895CC
:101E7A00CF92DF92EF92DC0190E0292F30E0220F1F
:101E8A00331F6901032E000CEE086E2DA6014A517C
:101E9A005F4F6F4F6A01E62EFA018491E7FC808159
:101EAA0081110DC02F5F3F4F032E000C440B2A51A6
:101EBA003F4F4F4FF901849147FD808124C0CD9057
:101ECA00DD90EC901297F6014491E7FC408184136F
:101EDA0015C02F5F3F4F032E000C440B2A513F4F72
:101EEA004F4FF901949147FD90815FEFC51AD50ACA
:101EFA00E50ACD92DD92EC92129701C09F5F9B306A
:0E1F0A0008F4BBCF892FEF90DF90CF900895A1
:101F18006F927F928F92CF92DF92EF926B01E82EB1
:101F28003901842EFB018491E7FC8081882379F1B3
:101F3800F901949187FC9081992319F1891323C0A1
:101F48002FEFC21AD20AE20AA82DC3010196A11DD9
:101F580002C032131AC03C018A2EF6013491E7FC04
:101F680030812FEFC21AD20AE20A332381F0FC0132
:101F78002491A7FD20810196A11D2111EACF81E0BE
:101F88000EC081E00CC081E00AC081E008C081E099
:101F9800F301949187FC9081911101C080E0EF904A
:0C1FA800DF90CF908F907F906F90089595
:101FB4000F931F93CF93DF93DB01109719F48FEFE7
:101FC4009FEF3DC02D913C91119730FF25C017968E
:101FD4004D915C91189715962D913C911697421747
:101FE400530778F41296ED91FC911397808312961F
:101FF4002D913C9113972F5F3F4F13963C932E9353
:10200400129717962D913C9118972F5F3F4F189672
:102014003C932E93179713C01D96ED91FC911E9738
:10202400309769F2EB01092F182F0995892B39F69E
:102034008F819885019698878F83812F902FDF91C8
:08204400CF911F910F91089547
:10204C006F927F928F92AF92BF92CF92DF92EF926C
:10205C00FF920F931F93CF93DF935C013A01862E6F
:10206C00E901670181E0C822DD24E0FC03C02017F0
:10207C00310758F09E01682DA301C5010E94B712CB
:10208C00C017D10710F0CE0118C07801EC1AFD0A68
:10209C00E114F10449F0B50180E290E00E94DA0FFE
:1020AC0081E0E81AF108F4CFCD2831F49E01682DB7
:1020BC00A301C5010E94B712C801DF91CF911F91F6
:1020CC000F91FF90EF90DF90CF90BF90AF908F90DB
:0620DC007F906F90089553
:1020E200A3E8B0E0E7E7F0E10C945A155C0149017E
:1020F200CF57DF4F488359836A83C158D040C12CE0
:10210200D12CCF57DF4F2881C158D040CE57DF4F57
:102112009881C258D040CD57DF4F8881C358D040F4
:10212200E22FF92F949187FD90819923E9F07401B0
:10213200860120E830E0AE014F5F5F4FBE016F576E
:102142007F4FC5010E9492008C0D9D1D8C159D052F
:102152004CF48FE490E090930101809300018FEFA3
:102162009FEF03C06C01CDCFC601CD57DF4FECE02E
:042172000C9476153E
:10217600CF93DF93FC01433031F4838180959281C4
:102186008923828333C0413071F5838181110CC06C
:10219600928191112FC08091F0029091F10291836A
:1021A600808381E0838305C08F5F83839281911151
:1021B60005C0828383E0809307031FC0891316C07E
:1021C600EF01CF010E945B16882349F08B81809531
:1021D6009A8189238A8382E0809307030EC081E077
:1021E600809307030AC0423009F413821092070352
:1021F60080E003C081E08383E1CFDF91CF91089532
:10220600A2E0B0E0E9E0F1E10C9458155C016B0145
:10221600FB012281338184809580808191819A831C
:1022260089836680778037FD03C08D7F9A83898393
:10223600FA014081518162817381CE0101967C0150
:102246000AE010E09401C6010E947D0DE980FA8043
:10225600F6012085318521503109281B390B860D61
:10226600971DAC0160E88401C5010E9426109C01FF
:10227600F5018081918190FF06C0F60182819381EC
:10228600821793070CF4C9012296EEE00C9474159C
:10229600CF92DF92EF92FF920F931F9390E0FC0193
:1022A600E295F295F07FFE27E07FFE27EE5FFE4F78
:1022B6000281138124813581C680D780E084F18430
:1022C600C016D106E206F306F8F0FC01E295F29597
:1022D600F07FFE27E07FFE27EE5FFE4FC284D384A9
:1022E600E484F5840C151D052E053F0568F08295DE
:1022F6009295907F9827807F9827FC01EE5FFE4F8E
:1023060042835383648375831F910F91FF90EF90EF
:06231600DF90CF90089556
:10231C00CF92DF92EF92FF929B01482F60E070E02A
:10232C00CB0125C0E0EDE50FEA3008F5DC01CB016F
:10233C00880F991FAA1FBB1F6C017D01CC0CDD1CE3
:10234C00EE1CFF1CCC0CDD1CEE1CFF1CC80ED91E99
:10235C00EA1EFB1E852F90E0C097092E000CAA0BDD
:10236C00BB0BBC01CD016C0D7D1D8E1D9F1DF9019C
:10237C00549147FD50812F5F3F4F4F4F5111D2CF9A
:0A238C00FF90EF90DF90CF900895CE
:10239600E89409C097FB3EF49095809570956195F9
:1023A6007F4F8F4F9F4F9923A9F0F92F96E9BB27AF
:1023B6009395F695879577956795B795F111F8CF2B
:1023C600FAF4BB0F11F460FF1BC06F5F7F4F8F4F96
:1023D6009F4F16C0882311F096E911C0772321F08C
:1023E6009EE8872F762F05C0662371F096E8862F24
:1023F60070E060E02AF09A95660F771F881FDAF77B
:0A240600880F9695879597F90895C1
:102410006F927F928F92CF92DF92EF92FF920F9303
:102420001F93CF93DF936C01FB013901842EC80108
:10243000C281D38104811581E080F180232B242B7C
:1024400031F426E1622E21E0722E20E0822E0097E8
:1024500021F4882DB3010E943116D7FD04C0C8179E
:10246000D90708F4CE019C01682DA301C6010E9482
:102470002610DF91CF911F910F91FF90EF90DF9089
:0A248000CF908F907F906F90089529
:10248A00DC012D913D914C911297F901849147FD00
:10249A0080818A3221F080E090E07AE011C02F5FDB
:1024AA003F4F4F4F2D933D934C93DB01ED91FC91A0
:1024BA001197CF0102968D939C9380819181089503
:1024CA002D913D914C911297F901549147FD5081FC
:1024DA0050535A3080F4789FF001799FF00D1124FF
:1024EA00CF01850F911D2F5F3F4F4F4F2D933D9386
:0824FA004C931297E5CF089501
:10250200CF92DF92EF920F936B01E82E021710F138
:10251200A82FCB01820F911DA11DFC018491A7FD63
:1025220080818823C9F090E031E0390F2F5FFA01F2
:10253200E90FF11D8083021780F0AE2DC601820FD4
:10254200911DA11DFC018491A7FD8081932F811112
:10255200EBCF03C030E001C030E0FA01E30FF11D20
:0C25620010820F91EF90DF90CF90089551
:10256E006F927F928F92CF92DF92EF920F931F9383
:10257E00CF93DF938C016A01E62EE9013A01862E94
:10258E00620E731E811C37FD8A94C614D704E804AC
:10259E0079F0F6018491E7FC8081B801082E000CD9
:1025AE00990B0E94DA0F8FEFC81AD80AE80AEDCFFE
:1025BE00CE01DF91CF911F910F91EF90DF90CF90D1
:0825CE008F907F906F9008953B
:1025D60042E060E070E080ED92E00E94BB1041E0D6
:1025E60064E873E080ED92E00E94BB10882349F016
:1025F6000E942818833029F448E464E082E40E94AB
:10260600640B41E064E670E080ED92E00E94BB104E
:10261600882349F00E942818833029F44CE464E0AA
:0E26260082E40E94640B0E94F20480E008959A
:10263400AF92CF92DF92EF92FF920F931F93E2EC4F
:10264400F2E093838283718360835583448326837A
:1026540012870187F086E782D486C386A58661E067
:1026640081E00E94D71561E080E00E94D71560E008
:1026740081E00E94051660E080E00E9405161F912B
:0E2684000F91FF90EF90DF90CF90AF900895F0
:102692000E94BF1488F09F5798F0B92F9927B7511D
:1026A200B0F0E1F0660F771F881F991F1AF0BA95F4
:1026B200C9F714C0B13091F00E94FD17B1E008953E
:1026C2000C94FD17672F782F8827B85F39F0B93F30
:1026D200CCF3869577956795B395D9F73EF49095A7
:0E26E2008095709561957F4F8F4F9F4F0895A3
:1026F000CF92DF92EF92FF920F931F93CF93DF93CE
:102700006A017B018C01C0E0D0E0C701B6010C2E4C
:1027100004C096958795779567950A94D2F7E091CE
:10272000FE02F091FF02C801099528960F5F1F4F26
:10273000C032D10551F7DF91CF911F910F91FF90DA
:08274000EF90DF90CF900895A7
:102748001F920F920FB60F9211242F933F934F931E
:102758005F936F937F938F939F93AF93BF93EF9301
:10276800FF930E94D317E091F402F091F5020995C6
:10277800FF91EF91BF91AF919F918F917F916F9151
:102788005F914F913F912F910F900FBE0F901F9027
:02279800189592
:10279A001F920F920FB60F9211242F933F934F93CC
:1027AA005F936F937F938F939F93AF93BF93EF93AF
:1027BA00FF930E94A317E091F202F091F3020995A8
:1027CA00FF91EF91BF91AF919F918F917F916F91FF
:1027DA005F914F913F912F910F900FBE0F901F90D5
:0227EA00189540
:1027EC001F920F920FB60F9211242F933F934F937A
:1027FC005F936F937F938F939F93AF93BF93EF935D
:10280C00FF9380919C00E091F602F091F7020995FC
:10281C00FF91EF91BF91AF919F918F917F916F91AC
:10282C005F914F913F912F910F900FBE0F901F9082
:02283C001895ED
:10283E001F920F920FB60F9211242F933F934F9327
:10284E005F936F937F938F939F93AF93BF93EF930A
:10285E00FF938CB1E091F802F091F9020995FF9186
:10286E00EF91BF91AF919F918F917F916F915F91FA
:10287E004F913F912F910F900FBE0F901F90189573
:10288E00CF93DF93FC01208120FF1BC0EC016181FF
:10289E00728103960E945B16882319F088818460EA
:1028AE008883888182FF0FC08B7F8883ED81FE81B4
:1028BE000995988193FD08C0882331F09E7F9883F7
:0E28CE0003C080E001C080E0DF91CF9108954B
:1028DC00DC019A01462F8C91882339F0CD010196A9
:1028EC00DC0101965C915111FBCFF901849147FDFC
:1028FC008081882381F02F5F3F4F4F4F1196FD0150
:10290C0031978083F901849147FD80812F5F3F4F80
:0A291C004F4F8111F3CF1C92089574
:10292600990F0008550FAA0BE0E8FEEF16161706DA
:10293600E807F907C0F012161306E407F50798F042
:10294600621B730B840B950B39F40A2661F0232B5B
:10295600242B252B21F408950A2609F4A140A695D7
:082966008FEF811D811D089512
:10296E0057FD9058440F551F59F05F3F71F0479532
:10297E00880F97FB991F61F09F3F79F08795089517
:10298E00121613061406551FF2CF4695F1DF08C036
:10299E00161617061806991FF1CF86957105610553
:0429AE0008940895EC
:1029B200A1E21A2EAA1BBB1BFD010DC0AA1FBB1F41
:1029C200EE1FFF1FA217B307E407F50720F0A21BB3
:1029D200B30BE40BF50B661F771F881F991F1A9420
:1029E20069F760957095809590959B01AC01BD014A
:0429F200CF01089574
:1029F600E4EDF2E020813181428153816DE27FE78F
:102A060085E99CE40E94DE16DC01CB010196A11D3E
:102A1600B11DE4EDF2E080839183A283B383F1E1FB
:0E2A2600B695A79597958795FA95D1F70895DF
:102A34000F931F93CF93DF936115710589F08C0178
:102A4400EC0187E0869F9001879F300D1124020FCF
:102A5400131FCE010E9447142796C017D107C9F748
:0A2A6400DF91CF911F910F910895AB
:102A6E00CF92DF92EF926901E42E0E949917F60140
:102A7E008491E7FC8081882361F09FEFC91AD90AFF
:102A8E00E90A0E94BB16F6018491E7FC8081811150
:0A2A9E00F4CFEF90DF90CF90089581
:102AA8002F923F924F925F926F927F928F929F9256
:102AB800AF92BF92CF92DF92EF92FF920F931F9344
:102AC800CF93DF93CDB7DEB7CA1BDB0B0FB6F894F5
:082AD800DEBF0FBECDBF099463
:102AE0002A88398848885F846E847D848C849B849E
:102AF000AA84B984C884DF80EE80FD800C811B81AC
:102B0000AA81B981CE0FD11D0FB6F894DEBF0FBEDA
:062B1000CDBFED010895A8
:102B1600FC012081442351F081E090E002C0880F3F
:102B2600991F6A95E2F7922F982B0AC041E050E070
:102B360002C0440F551F6A95E2F7942F9095922391
:042B460090830895DB
:102B4A00FC012081442351F081E090E002C0880F0B
:102B5A00991F6A95E2F7922F982B0AC041E050E03C
:102B6A0002C0440F551F6A95E2F7942F909592235D
:042B7A0090830895A7
:102B7E00A2E0B0E0E5ECF5E10C9462158C013A832D
:102B8E0029839E012F5F3F4F0E947110F801208113
:102B9E0024FF02C08FEF9FEF2296E4E00C947E1587
:102BAE0041E0611140E0813041F4E2ECF2E06681F7
:102BBE00828193810E948B150895811107C0E2ECEA
:0E2BCE00F2E06585818592850E948B15089541
:102BDC0020E1829FC0011124FC01EE5FFE4F808139
:102BEC0080FF05C0862FBA010E94950E089581FFC3
:0E2BFC0005C0862FBA010E948E11089508951B
:102C0A00813049F4E2ECF2E0462F668180819181BD
:102C1A000E948B150895811108C0E2ECF2E0462F5C
:0C2C2A006585878190850E948B150895B8
:102C36000F931F93CF93DF93162FC42FD22F402FBE
:102C4600622F8C2F0E94640B412F6D2F8C2F0E94B8
:0C2C5600D20BDF91CF911F910F910895D8
:102C6200CF92DF92EF926B01E82EA82FCB01FC01ED
:102C72002491A7FD2081222319F00196A11DF7CFEF
:0C2C82008C199D09EF90DF90CF90089511
:102C8E008091F0029091F102019621F41092F102DE
:102C9E001092F0028091F0029091F10201969093C1
:082CAE00F1028093F002089589
:102CB6002091F0023091F102FC0140815181F9012D
:102CC600E41BF50BE617F70728F0FC013183208398
:082CD60081E0089580E00895FB
:102CDE00AA1BBB1B51E107C0AA1FBB1FA617B70734
:102CEE0010F0A61BB70B881F991F5A95A9F7809550
:082CFE009095BC01CD01089581
:102D0600A0E0B0E0E9E8F6E10C9464159E01265FC8
:102D16003F4F4F81588569858D819E810E94581746
:062D2600E2E00C948015B0
:102D2C00A82FCB01FC012491A7FD2081241741F091
:102D3C000196A11D2111F6CF60E070E080E00895AE
:062D4C00BC018A2F08956E
:102D5200CF93C82FE1EEF2E040E062818081918161
:102D62000E94A5158C2F0E94D10782E00E94331782
:042D7200CF91089560
:102D7600CF93C82FE1EEF2E041E06281808191813C
:102D86000E94A5158C2F0E94D10782E00E9433175E
:042D9600CF9108953C
:102D9A00092E0394000C11F4882352F0BB0F40F45F
:102DAA00BF2B11F460FF04C06F5F7F4F8F4F9F4F9F
:022DBA0008957A
:102DBC00DB018F939F930E947A17BF91AF91A29FD3
:102DCC00800D911DA39F900DB29F900D112408951D
:102DDC0090910903981741F0109205031092040387
:0E2DEC001092030310920203809309030895CE
:102DFA00A29FB001B39FC001A39F700D811D112432
:0E2E0A00911DB29F700D811D1124911D089520
:102E180090E1899FF0011124EE5FFE4F42815381BA
:0A2E2800648175810E94DA17089595
:102E320090E1899FF0011124EE5FFE4F0684F78531
:0A2E4200E02D309709F0099508957E
:102E4C0080910803882341F00E94FB1490930103A6
:0A2E5C0080930003892BC1F3089551
:102E6600882351F090E0E9EFF0E03197F1F700C0E8
:0A2E760000009F5F8913F7CF089555
:102E8000CF93DF93EB010E94830AD093F502C093A6
:082E9000F402DF91CF910895D7
:102E980020E1829FC0011124FC01EE5FFE4F628198
:082EA800738184819581089576
:102EB0000F931F9389019A01462F6FEF7FE70E94BE
:082EC000EB0E1F910F91089524
:102EC80048E465E085E40E94640B4CE465E085E431
:062ED8000E94640B089546
:102EDE00EC010E943B180E943A18CE010E943C1849
:062EEE00CE010E9438181D
:102EF4000E94FD16A59F900DB49F900DA49F800D78
:062F0400911D1124089547
:102F0A00882321F087B7846087BF089587B78B7FAE
:042F1A0087BF0895D0
:102F1E0020E1829FC0011124FC01EE5FFE4F8081F3
:042F2E0091810895F0
:102F3200811103C080E8860F02C080EC860F0E94D8
:042F4200A91608952F
:102F46008091FA029091FB02909389008093880009
:022F56000895DC
:102F58009C01215631092A31310510F48F759927C2
:022F68000895CA
:102F6A00882329F090E000009F5F8913FCCF089521
:102F7A009C01215431092A31310508F480620895EF
:0E2F8A0064E070E082E992E00E941A1508955A
:0E2F9800FC01368325836083528341830895B4
:0E2FA6008091FC029091FD029DBD8CBD0895AE
:0E2FB40024E0829FC00111240E94781308952A
:0E2FC20081E00E94A9168AE00E94331708954C
:0E2FD0005058BB27AA270E94160D0C94CD1650
:0E2FDE0000240A941616170618060906089510
:0E2FEC0000240A941216130614060506089512
:0E2FFA00E894BB2766277727CB0197F9089547
:0C3008008EEA92E00E94FE0281E0089532
:0C301400882311F078940895F894089532
:0C30200097F99F6780E870E060E0089579
:0A302C0080910003909101030895C4
:0A3036000E94931408F481E008954D
:0830400081E08093080308956C
:083048000E94F50A0C94CD165C
:06305000809107030895C2
:063056001092080308952A
:06305C00809108030895B5
:063062009FEF80EC0895D1
:043068000C940000C4
:04306C0081E0089562
:043070000E94710049
:023074000895BD
:023076000895BB
:023078000895B9
:00000001FF
