:0400000035EF00F0E8
:100008005D82FACF01F0FBCF02F0F2A003D081505D
:10001800F29021D09EA00FD075EC1AF001D81BD019
:100028000500FA6E00017A51FD6E7B51FE6E7C511F
:10003800FF6EFA501200A1A203D06FEC1AF00BD099
:10004800BAA203D069EC1AF006D09EAA02D09E9AF2
:1000580002D0A4BAA49A02C0FBFF01C0FAFF5D92C5
:06006800110017EF13F078
:10100000004D41494E3100256C5800256C75003A61
:10101000003C003E003F005100520000000E000165
:10102000EE6F000EED6F000E7BEC19F003C0DBF0ED
:1010300004C0DCF0040E7BEC19F003500001E36FF8
:101040004AC003F04BC004F0E70E056E010E066EB9
:10105000010E076E87EC18F04AC003F04BC004F095
:10106000DD0E056E020E066E050E076E87EC18F09B
:101070004AC003F04BC004F0EF0E056E060E066E7C
:10108000070E076E87EC18F04AC003F04BC004F05F
:10109000E40E056E080E066E090E076E87EC18F05A
:1010A0004AC003F04BC004F0EB0E056E0A0E066E4C
:1010B0000A0E076E87EC18F04AC008F04BC009F022
:1010C000B30E0A6E20EC15F0DD0E036E05EC14F085
:1010D00003C0EDF004C0EEF0EF0E036E05EC14F06B
:1010E00003500001EA6FE40E036E05EC14F00350A8
:1010F0000001F76FB30E276EF7511AEC17F027C0F7
:10110000F3F028C0F4F029C0F5F02AC0F6F0E70E9D
:10111000036E170E046EA5EC16F00009D8A4120099
:101120000001ED51EE11D8A407D0F705D8B419D0BD
:101130009851D8B4120015D0F751D8B404D0040E89
:10114000F719D8A403D09851D8A40BD0DB51ED19CE
:1011500003E1DC51EE19D8A41200E351EA19D8A436
:101160001200F26BF251BD0FD96EDA6ADF6AF22B10
:10117000130EF265F7D7EB0E036E0F0E046EA5EC9F
:1011800016F00009D8A47FD00001F751EFEC19F058
:1011900000019851D8A402D0010E01D0000E031610
:1011A000000E041604B61200F751EFEC19F004A279
:1011B00012000001F705D8A44FD0F351F411F51136
:1011C000F611D8A410D0986B80EC1AF0000E056EC2
:1011D000000E066E000E076E000E086E0001F7513D
:1011E00096EC14F044D0F7517BEC19F0570E000147
:1011F000F3194C6E040EF4194D6E000EF5194E6E77
:10120000000EF6194F6E03504C1819E104504D189A
:1012100016E105504E1813E106504F18D8A40FD010
:101220009869F3C005F0F4C006F0F5C007F0F6C009
:1012300008F0F75196EC14F087EC1AF018D0986B80
:10124000000E056E000E066E000E076E000E086E94
:10125000F75196EC14F0F0D7F3C005F0F4C006F0A7
:10126000F5C007F0F6C008F0F75196EC14F0000155
:10127000F751EFEC19F004A806D03A0E046E000105
:10128000F75162EC18F0EB0E036E150E046EA5EC30
:1012900016F00009D8A42BD00001F751EFEC19F09B
:1012A00004A412000001F705D8A415D08AEC1AF0A6
:1012B0000009D8B41200B1EC19F07BEC1AF003C0AD
:1012C00005F004C006F0076A086A0001F75196ECC1
:1012D00014F087EC1AF00001F751EFEC19F004A8B4
:1012E00006D03F0E046E0001F75162EC18F00001C9
:1012F000F751EFEC19F004A604D00001F751C1EC4E
:1013000019F0D10E466E0001F751B5EC0CF0000E4D
:101310007BEC19F003C032F004C033F005C034F0A8
:1013200006C035F0DD0E366E040E376E67EC11F038
:10133000040E7BEC19F003C032F004C033F005C09A
:1013400034F006C035F0EF0E366E020E376E67ECE5
:1013500011F00001F751EFEC19F004AC0AD0BD0E0A
:10136000036E010E046E0450D8A4100E056EE0EC5E
:1013700016F0BD0E036E110E046E0450D8A4100EAC
:10138000056EE0EC16F0BD0E036EE70E046E056A06
:10139000E0EC16F0BD0E036E190E046E0450D8A4D6
:1013A000100E056EE0EC16F0BD0E036EDD0E046E41
:1013B000056AE0EC16F0BD0E036EEF0E046E056AD2
:1013C000E0EC16F0BD0E036EE40E046E056AE0EC70
:1013D00016F0BD0E036E0F0E046E0450D8A4100E4E
:1013E000056EE0EC16F0BD0E036ED10E046E056ABC
:1013F000E0EC16F0BD0E036E130E046E0450D8A47C
:10140000100E056EE0EC16F00001F751EFEC19F04C
:1014100004AA1200BD0E0B6ED1EC19F01200A10E41
:101420000B6E000E0D6E000E0C6E020E0E6E6DEC4D
:101430000FF0A10E0B6E070E0D6ED00E0C6E010E8E
:101440000E6E6DEC0FF00009D8B425D08DEC1AF0BB
:10145000020AD8B420D08DEC1AF0030AD8A405D023
:10146000AD0E036E61EC1AF016D08DEC1AF0E806A2
:10147000D8A411D0AD0E036E046A000E066E010EE4
:10148000056EAAEC18F00009D8B405D0030E036E5F
:10149000440E0EEC18F0A10E0B6E070E0D6ED00E62
:1014A0000C6E010E0E6E6DEC0FF00009D8B425D055
:1014B0008DEC1AF0020AD8B420D08DEC1AF0030A91
:1014C000D8A405D0AD0E036E61EC1AF016D08DECE9
:1014D0001AF0E806D8A411D0AD0E036E046A000E0F
:1014E000066E020E056EAAEC18F00009D8B405D0FD
:1014F000030E036E440E0EEC18F0A10E0B6E070ED9
:101500000D6ED00E0C6E010E0E6E6DEC0FF000091C
:10151000D8B425D08DEC1AF0020AD8B420D08DECC6
:101520001AF0030AD8A405D0AD0E036E61EC1AF0D0
:1015300016D08DEC1AF0E806D8A411D0AD0E036ECB
:10154000046A000E066E040E056EAAEC18F000097F
:10155000D8B405D0030E036E440E0EEC18F0A10EA5
:101560000B6E070E0D6ED00E0C6E010E0E6E6DEC36
:101570000FF00009D8B425D08DEC1AF0020AD8B4C7
:1015800020D08DEC1AF0030AD8A405D0AD0E036E5E
:1015900061EC1AF016D08DEC1AF0E806D8A411D040
:1015A000AD0E036E046A000E066E080E056EAAEC00
:1015B00018F00009D8B405D0030E036E440E0EECEB
:1015C00018F0A10E0B6E070E0D6ED00E0C6E010EF4
:1015D0000E6E6DEC0FF00009D8B425D08DEC1AF02A
:1015E000020AD8B420D08DEC1AF0030AD8A405D092
:1015F000AD0E036E61EC1AF016D08DEC1AF0E80611
:10160000D8A411D0AD0E036E046A000E066E100E43
:10161000056EAAEC18F00009D8B405D0030E036ECD
:10162000440E0EEC18F0A10E0B6E070E0D6ED00ED0
:101630000C6E010E0E6E6DEC0FF00009D8B425D0C3
:101640008DEC1AF0020AD8B420D08DEC1AF0030AFF
:10165000D8A405D0AD0E036E61EC1AF016D08DEC57
:101660001AF0E806D8A411D0AD0E036E046A000E7D
:10167000066E200E056EAAEC18F00009D8B405D04D
:10168000030E036E440E0EEC18F0A10E0B6E070E47
:101690000D6ED00E0C6E010E0E6E6DEC0FF000098B
:1016A000D8B412008DEC1AF0020AD8B412008DECF6
:1016B0001AF0030AD8A405D0AD0E036E61EC1AF03F
:1016C00012008DEC1AF0E806D8A41200AD0E036EDD
:1016D000046A000E066E400E056EAAEC18F00009B2
:1016E000D8B41200030E036E440E0EEC18F0120074
:1016F0001150D96EDA6ADFCFF6FF100EF76E000ECA
:10170000F86E0800F550250AD8A41DD11150D96EE5
:10171000DA6ADF2A000E0001846F000E836F83C037
:1017200095F0856986691150D96EDA6ADF50166EB8
:1017300016C0F6FF100EF76E000EF86E0800F5CF1B
:101740001BF007D0162A10D0690E1B6E0DD01B6A35
:101750000BD01B50580AD8B4F7D7340AD8B4F2D7F4
:10176000190AD8B4F1D7F3D716C0F6FF100EF76EEA
:10177000000EF86E0800F550580AD8B430D016C0E4
:10178000F6FF100EF76E000EF86E0800F550750AA1
:10179000D8B425D0D3D01250D96EDA6ADF50DF2A00
:1017A000DF2AD96EDA6ADECF13F0DDCF14F013C072
:1017B00017F014C018F0196A1A6A18D01250D96EAE
:1017C000DA6A040EDF26DF5CD96EDA6ADECF17F044
:1017D000DECF18F0DECF19F0DECF1AF007D01B50A5
:1017E000690AD8B4D8D7050AD8B4E8D71150D96E49
:1017F000DA6A1628DF6E94D0200E1B6E1B06000ED0
:101800001B24D96EDA6A010EDA2217C003F018C061
:1018100004F019C005F01AC006F00A0E076E000E9B
:10182000086E000E096E000E0A6E86EC17F003506B
:10183000300FDF6E17C003F018C004F019C005F0B8
:101840001AC006F00A0E076E000E086E000E096E32
:10185000000E0A6E64EC15F003C017F004C018F017
:1018600005C019F006C01AF01750181019101A10F8
:10187000D8B414D01B50D8B411D0C0D7000E1B243C
:10188000D96EDA6A010EDA22DF50136E1350036E3E
:10189000046A10C005F027EC16F01B2A200E1B1856
:1018A000D8B41200EBD7200E1B6E17500F0B156E1D
:1018B0000A0E156002D0300E01D0370E15261B0619
:1018C000000E1B24D96EDA6A010EDA2215C0DFFF82
:1018D000040E136ED8901A32193218321732132EA2
:1018E000F9D71750181019101A10D8B414D01B506B
:1018F000D8B411D0DAD7000E1B24D96EDA6A010EE3
:10190000DA22DF50136E1350036E046A10C005F024
:1019100027EC16F01B2A200E1B18D8B41200EBD7A8
:1019200016C0F6FF100EF76E000EF86E0800F550A8
:10193000580AD8B4B8D72D0AD8B45ED71150D96E8A
:10194000DA6ADF2A12001150D96EDA6ADFCFF6FFA9
:10195000100EF76E000EF86E0800F550036E046A64
:1019600010C005F027EC16F0E9D7496E4950110D6B
:10197000330EF324D96E020EF420DA6EDECF47F078
:10198000DDCF48F047A416D04950110D350EF32491
:10199000D96E020EF420DA6EDECF32F0DECF33F0F5
:1019A000DECF34F0DECF35F046C036F0020E376EB3
:1019B00067EC11F04950110D330EF324D96E020E6D
:1019C000F420DA6EDECF47F0DDCF48F047A616D020
:1019D0004950110D350EF324D96E020EF420DA6E43
:1019E000DECF32F0DECF33F0DECF34F0DECF35F0B5
:1019F00046C036F0040E376E67EC11F04950110DF9
:101A0000330EF324D96E020EF420DA6EDECF47F0E7
:101A1000DDCF48F047A816D04950110D350EF324FC
:101A2000D96E020EF420DA6EDECF32F0DECF33F064
:101A3000DECF34F0DECF35F046C036F0010E376E23
:101A4000C2EC11F04950110D330EF324D96E020E81
:101A5000F420DA6EDECF47F0DDCF48F047AA16D08B
:101A60004950110D350EF324D96E020EF420DA6EB2
:101A7000DECF32F0DECF33F0DECF34F0DECF35F024
:101A800046C036F0020E376EC2EC11F04950110D0F
:101A9000330EF324D96E020EF420DA6EDECF47F057
:101AA000DDCF48F047AC16D04950110D350EF32468
:101AB000D96E020EF420DA6EDECF32F0DECF33F0D4
:101AC000DECF34F0DECF35F046C036F0030E376E91
:101AD000C2EC11F04950110D330EF324D96E020EF1
:101AE000F420DA6EDECF47F0DDCF48F047AE16D0F7
:101AF0004950110D350EF324D96E020EF420DA6E22
:101B0000DECF32F0DECF33F0DECF34F0DECF35F093
:101B100046C036F0040E376EC2EC11F04950110D7C
:101B2000330EF324D96E020EF420DA6EDECF47F0C6
:101B3000DDCF48F048A012004950110D350EF324B6
:101B4000D96E020EF420DA6EDECF32F0DECF33F043
:101B5000DECF34F0DECF35F046C036F0050E376EFE
:101B6000C2EC11F01200000E036E000E046E000EA7
:101B7000056E2E0E076E090E066E000E086E000E24
:101B8000096E000E0A6E000E0B6EFF0E0C6EFF0E3D
:101B90000D6E000E0E6E000E0F6E000E106E000E1B
:101BA000116E000E126E000E136E000EB9EC13F0E3
:101BB000000E036E000E046E000E056E260E076EFC
:101BC000090E066E000E086E000E096E000E0A6EFB
:101BD000000E0B6EFF0E0C6EFF0E0D6E000E0E6EE5
:101BE000000E0F6E000E106E000E116E000E126EC3
:101BF000000E136E010EB9EC13F0000E036E000E12
:101C0000046E000E056E2E0E076E090E066E000E97
:101C1000086E000E096E000E0A6E000E0B6EFF0EAF
:101C20000C6EFF0E0D6E000E0E6E000E0F6E000E8F
:101C3000106E000E116E000E126E000E136E020E6C
:101C4000B9EC13F0000E036E000E046E000E056E6C
:101C5000240E076E090E066E010E086E000E096E48
:101C6000000E0A6E000E0B6EFF0E0C6EFF0E0D6E58
:101C7000000E0E6E000E0F6E000E106E000E116E36
:101C8000000E126E000E136E030EB9EC13F0000E70
:101C9000036E000E046E000E056E2E0E076E050E0E
:101CA000066E000E086E000E096E000E0A6E000E23
:101CB0000B6EFF0E0C6E000E0D6E000E0E6E000E03
:101CC0000F6E000E106E000E116E000E126E000EE2
:101CD000136E040EB9EC13F0260E036E350E046E6F
:101CE000000E056E340E076E820E066E000E086E34
:101CF000000E096E000E0A6E000E0B6EFF0E0C6ECB
:101D0000FF0E0D6E000E0E6E000E0F6E000E106EAA
:101D1000000E116E000E126E000E136E060EB9EC60
:101D200013F0CE0E1B6E320E1C6E000E1D6E900E4A
:101D30001E6E340E1F6E000E206EC5EC12F01200E7
:101D4000046E0428D8A405D00F01256B246B236BE7
:101D500012000450D8A408D003A003D00F0125819D
:101D600012000F01259112000450D8B4F5D70404D5
:101D7000D8A408D003A003D00F01258312000F01BF
:101D800025931200020E0418D8A408D003A003D093
:101D90000F01258512000F0125951200030E04186E
:101DA000D8A408D003A003D00F01258712000F018B
:101DB000259712000404D8B4DDD7040E0418D8A463
:101DC00008D003A003D00F01258912000F01259927
:101DD0001200050E0418D8A408D003A003D00F01E8
:101DE000258B12000F01259B1200060E0418D8A4A3
:101DF00008D003A003D00F01258D12000F01259DEF
:101E00001200070E0418D8A408D003A003D00F01B5
:101E1000258F12000F01259F1200080E0418D8A468
:101E200008D003A003D00F01248112000F012491D8
:101E30001200090E0418D8A408D003A003D00F0183
:101E4000248312000F01249312000A0E0418D8A450
:101E500008D003A003D00F01248512000F012495A0
:101E600012000B0E0418D8A408D003A003D00F0151
:101E7000248712000F0124971200100E0418D8A412
:101E800008D003A003D00F01238112000F0123917A
:101E90001200110E0418D8A408D003A003D00F011B
:101EA000238312000F0123931200120E0418D8A4EA
:101EB00008D003A003D00F01238512000F01239542
:101EC0001200130E0418D8A4120003A003D00F01AF
:101ED000238712000F0123971200030E0E18D8A4B7
:101EE00015D00B50D96EDA6A020ED9260B50E16E6E
:101EF000E26A020EE126E7500F6E0B50E16EE26AD5
:101F0000030EE126E750FF0A0F14DF6E0E04D8A47B
:101F10007CD00B50D96EDA6A030ED926DF50D8A4D4
:101F20000CD00B50D96EDA6A020ED926DF50D8A435
:101F300004D00BC003F061EC1AF00B50D96EDA6AD2
:101F4000030ED9260B50E16EE26A030EE126E7503C
:101F50000F6E0F28DF6E0B50D96EDA6A020ED9268B
:101F6000DF50D8A419D00B50D96EDA6A020ED926E8
:101F70000B50E16EE26A030EE126E7500F6E0B5044
:101F8000E16EE26A020EE126E7500F10DF6E030EEB
:101F90000001976F030E12000B50D96EDA6A030E20
:101FA000D9260B50E16EE26A020EE126DE50E618F9
:101FB000D8A42BD00BC003F0046A0CC005F00DC0F0
:101FC00006F0AAEC18F00009D8B41AD00B50D96E5C
:101FD000DA6A020ED9260B50E16EE26A020EE126A1
:101FE000E7500F6E0B50E16EE26A030EE126E750F8
:101FF000FF0A0F14DF6E020E0001976F020E12002F
:10200000010E0001976F010E1200020E0E18D8A4E7
:1020100006D00B50D96EDA6A030ED926DF6A0001AA
:10202000976B000E1200296E000E216E090E226EB3
:102030003D0E236E000E246EFAC01DF0FBC01EF094
:10204000FCC01FF0FDC020F0000E2B6E000E2A6EAB
:10205000000E316E000E306E21C003F022C004F07D
:1020600023C005F024C006F030501D0FD96EDA6A87
:10207000DF501C6E1C50076E086A096A0A6A64EC1D
:1020800015F003C025F004C026F005C027F006C0F7
:1020900028F0E80E076E030E086E000E096E000EA3
:1020A0000A6E25C003F026C004F027C005F028C042
:1020B00006F064EC15F003C010F004C011F005C088
:1020C00012F006C013F02950146E156A166A176ACA
:1020D000B9EC17F010C02CF011C02DF012C02EF08A
:1020E00013C02FF02F5018E12C04000E2D58010EB4
:1020F0002E58D8B011D030C01CF01C3ACD501C184E
:10210000CF0B1C18CD6E2C5000082A6E2D50D8A075
:10211000E82A00082B6E0AD0304A312A31BE9CD7FB
:10212000315004E1040E305CD8A096D7010E51EC7A
:102130001AF0010E2DEC1AF02AC08DF02BC08EF093
:102140008DC0CEFF8EC0CFFF1200100E146E010E98
:1021500036EC1AF0B3EC0DF0000E336E010E326E59
:10216000140E346E340E356E000E366E23EC1AF0FB
:102170000101D36B4F0E0B6E440E0C6ED3290D6E06
:102180004C0E0E6E440EE0EC19F00101D32B030E41
:10219000D365F0D7480E036E010E046E090E056E6E
:1021A000000E076E640E066ECE0E086E2C0E096EC3
:1021B000000E0A6ECBEC18F0500E036E010E046E8A
:1021C000000E056E000E076E000E066EB20E086E53
:1021D000340E096E000E0A6ECBEC18F0580E036E2A
:1021E000010E046E000E056E000E076E000E066EE8
:1021F000200E086E350E096E000E0A6ECBEC18F03C
:10220000010E3FEC1AF017EC1AF00FEC0AF0FBD7B6
:1022100050C0D9FF51C0DAFFDFA01200030E5024D6
:10222000036E000E5120046E20EE01F05050D926AE
:102230005150DA22DECF05F0DDCF06F0AAEC18F01F
:102240000009D8B40BD050C0D9FF51C0DAFFDF501D
:10225000040950C0D9FF51C0DAFFDF6E50C0D9FF6A
:1022600051C0DAFFDFA4120050C0D9FF51C0DAFF1D
:10227000DF50FB0B50C0D9FF51C0DAFFDF6E20EEFC
:1022800005F05050D9265150DA2201D80AD0050065
:10229000FA6EDE50FD6EDE50FE6EDE50FF6EFA50BE
:1022A0001200526E50C0D9FF51C0DAFFDFB61200E3
:1022B0005250D8B4120050C0D9FF51C0DAFFDF50DD
:1022C000FE0B50C0D9FF51C0DAFFDF6E1200380E8E
:1022D000206E070E216E32C022F033C023F034C0CE
:1022E00024F035C025F01EEC19F0426A01D0422AD4
:1022F0004250380FD96EDA6ADF50D8A4F8D7375079
:10230000425CD8A017D0436A0BD04350380FD96E27
:10231000DA6A36504324E16EE26ADFCFE7FF432AF0
:102320004250435CD8A0F1D736504224D96EDA6AC5
:10233000DF6A12004250375C416E436A07D0365064
:102340004324D96EDA6A300EDF6E432A4150435C73
:10235000D8A0F5D7436A0CD04350380FD96EDA6A4B
:10236000365043244124E16EE26ADFCFE7FF432A7F
:102370004250435CD8A0F0D736503724D96EDA6A81
:10238000DF6A1200380E206E0B0E216E32C022F072
:1023900033C023F034C024F035C025F01EEC19F012
:1023A000446A01D0442A4450380FD96EDA6ADF50AB
:1023B000D8A4F8D73750445CD8A017D0456A0BD0C2
:1023C0004550380FD96EDA6A36504524E16EE26A1C
:1023D000DFCFE7FF452A4450455CD8A0F1D73650FF
:1023E0004424D96EDA6ADF6A12004450375C436EC7
:1023F000456A07D036504524D96EDA6A300EDF6E52
:10240000452A4350455CD8A0F5D7456A0CD04550C5
:10241000380FD96EDA6A365045244324E16EE26AF9
:10242000DFCFE7FF452A4450455CD8A0F0D73650AF
:102430003724D96EDA6ADF6A1200086E03C005F02D
:10244000010E066E052A02D0D8900636052EFCD75E
:102450000650076E510E0824096E0A6A0F0E0A22F2
:102460004A0E0818D8A404D09A0E096E0F0E0A6EF0
:10247000460E0818D8A404D0970E096E0F0E0A6EE7
:102480004F0E0418D8B407D06F0E0418D8B403D078
:102490000450D8A40FD009C0D9FF0AC0DAFFDF501A
:1024A000056E0750FF0A051409C0D9FF0AC0DAFFFC
:1024B000DF6E1200490E0418D8B407D0690E041854
:1024C000D8B403D00404D8A4120009C0D9FF0AC0AC
:1024D000DAFFDF50071009C0D9FF0AC0DAFFDF6E4C
:1024E0001200086E03C005F0010E066E052A02D028
:1024F000D8900636052EFCD70650076E480E0824E5
:10250000096E0A6A0F0E0A224A0E0818D8A404D0CF
:10251000910E096E0F0E0A6E460E0818D8A404D04C
:102520008E0E096E0F0E0A6E4C0E0418D8B407D02A
:102530006C0E0418D8B403D00450D8A40FD009C02E
:10254000D9FF0AC0DAFFDF50056E0750FF0A0514F5
:1025500009C0D9FF0AC0DAFFDF6E1200480E041866
:10256000D8B407D0680E0418D8B403D00404D8A493
:10257000120009C0D9FF0AC0DAFFDF50071009C0F6
:10258000D9FF0AC0DAFFDF6E12001BC003F01CC0C7
:1025900004F01DC005F01EC006F01FC007F020C0EB
:1025A00008F0FDEC19F01A0E9FEC19F0CD0E15187D
:1025B00006E1AB0E161817101810D8B421D0236AF4
:1025C0002350110D330EF324D96E020EF420DA6E6F
:1025D000DECF21F0DDCF22F022A603D02350C1ECC4
:1025E00019F0232A180E2364EBD7CD0E146EAB0E10
:1025F000156E000E166E000E176E1A0E8DEC19F089
:10260000246A2450110D330EF324D96E020EF420E7
:10261000DA6EDECF21F0DDCF22F022A603D02450E7
:1026200052EC19F0242A180E2464EBD71200700E15
:10263000F66E320EF76E000EF86E02EE00F010EE3F
:1026400033F00900F5CFEEFFE550E150FAE1700EEE
:10265000F66E300EF76E000EF86E01EE7CF010EEA6
:1026600053F00900F5CFEEFFE550E150FAE1080E16
:10267000F66E350EF76E000EF86E00EEFAF010EE04
:1026800006F00900F5CFEEFFE550E150FAE102EE69
:1026900033F011EEA9F0EE6AE550E150FCE1E250B2
:1026A000FAE101EE00F07C0EEE6AE806FDE100EED4
:1026B00060F0530EEE6AE806FDE100EE55F0080EFC
:1026C000EE6AE806FDE15D905D920001A5EF10F075
:1026D000000E0E6E000E0F6E000E106E000E116ECC
:1026E000000E146E000E136E05501324036E065078
:1026F0001420046E01D80BD00500FA6E00016E5153
:10270000FD6E6F51FE6E7051FF6EFA501200126E28
:1027100013C009F0D8900936D8900936D8900936F8
:1027200012C00AF00B6A0C6A0D6A092A05D0D8900B
:102730000A360B360C360D36092EF9D70A500E1212
:102740000B500F120C5010120D501112134A142A74
:1027500014BECAD7145004E1040E135CD8A0C4D729
:102760000EC005F00FC006F010C007F011C008F051
:102770001200146E1450110D410EF324D96E020E86
:10278000F420DA6E03C0DEFF04C0DEFF05C0DEFF0A
:102790001450110D330EF324D96E020EF420DA6EAC
:1027A00006C0DEFF07C0DDFF1450110D350EF32407
:1027B000D96E020EF420DA6E08C0DEFF09C0DEFF1B
:1027C0000AC0DEFF0BC0DEFF1450110D390EF324DA
:1027D000D96E020EF420DA6E0CC0DEFF0DC0DEFFF3
:1027E0000EC0DEFF0FC0DEFF1450110D3D0EF324AE
:1027F000D96E020EF420DA6E10C0DEFF11C0DEFFCB
:1028000012C0DEFF13C0DEFF1200000E0B6E000EC2
:102810000C6E000E0D6E000E0E6E2ED0040ED890B3
:102820000B360C360D360E36E82EF9D72F0E0F6408
:1028300005D03A0E0F6002D0D00E0FD0400E0F64BC
:1028400005D0470E0F6002D0C90E07D0600E0F648E
:1028500013D0670E0F6010D0A90E0F24076E086A00
:10286000FF0E0822096A0A6A07500B1208500C1260
:1028700009500D120A500E12032A0304D96EDA6AA7
:10288000DF500F6E0F50D8A4C9D70BC003F00CC097
:1028900004F00DC005F00EC006F01200136E100E0D
:1028A00013640CD013C003F0046A000E066E040E0D
:1028B000056EA5EC15F00350136E9B8C100E1318CB
:1028C000D8B42BD0080E1318D8B41ED0040E131889
:1028D000D8B411D0020E1318D8B404D0000E126E62
:1028E000700E03D0000E126E580E116E11C00FF054
:1028F00012C010F004D0000E106E600E0F6E0FC0EC
:102900000DF010C00EF004D0000E0E6E680E0D6EAD
:102910000DC00BF00EC00CF004D0000E0C6E700E4B
:102920000B6E0BC0D3FFD3B41200FDD7116E115044
:10293000110D350EF324D96E020EF420DA6E11500B
:10294000110D390EF324E16E020EF420E26EDE501A
:10295000E65CDE50E658DE50E658DE50E658D8A079
:1029600012001150110D3D0EF324D96E020EF42009
:10297000DA6E1150110D350EF324E16E020EF420C3
:10298000E26EDE50E65CDE50E658DE50E658DE5081
:10299000E658D8A012001150110D350EF324D96E4F
:1029A000020EF420DA6E05C0DEFF06C0DEFF07C0AF
:1029B000DEFF08C0DEFF1200000E226E000E236E46
:1029C000000E246E000E29D02F0E266427D03A0E5A
:1029D000266024D0D00E2624206E216AFF0E2122EC
:1029E00022C010F023C011F024C012F025C013F053
:1029F0000A0E146E000E156E000E166E000E176E87
:102A0000B9EC17F020501024226E21501120236EB3
:102A1000000E1220246E000E1320256E1C2A1C04AA
:102A2000D96EDA6ADF50266E2650D8A4CDD722C0E0
:102A30001CF023C01DF024C01EF025C01FF01200A2
:102A400008C003F009C004F0000E066E3A0E056ED1
:102A500003EC19F003C00DF004C00EF008C003F041
:102A600009C004F0000E066E3E0E056E03EC19F070
:102A700003C00BF004C00CF00D500E10D8B41FD0E2
:102A80000B500C10D8B41BD00B500D5C0C500E58D2
:102A9000D8B015D00D4A0E2A0CD00DC0D9FF0EC0EB
:102AA000DAFF0A50E16EE26ADFCFE7FF0D4A0E2A35
:102AB0000A2A0B500D5C0C500E58D8A0EED70A50C5
:102AC000D96EDA6ADF6A1200000E0B6E000E0C6E11
:102AD000000E0D6E000E0E6E0750081009100A1041
:102AE000D8B42AD0010E0F6E06D0D890073608361B
:102AF00009360A360F2A0AAEF8D7D8900B360C36AC
:102B00000D360E360750035C08500458095005581E
:102B10000A500658D8A009D00750035E0850045A3E
:102B20000950055A0A50065A0B80D8900A320932C9
:102B3000083207320F2EE1D70BC003F00CC004F0AF
:102B40000DC005F00EC006F01200086A06AE06D0F1
:102B5000056C061ED8B0062A010E086E04AE06D01B
:102B6000036C041ED8B0042A010E081A000E0A6E67
:102B7000000E096E05500610D8B41CD0010E076E69
:102B800004D0D89005360636072A06AEFAD7D89074
:102B900009360A360550035C06500458D8A005D003
:102BA0000550035E0650045A0980D890063205325B
:102BB000072EEDD70850D8B404D0096C0A1ED8B03F
:102BC0000A2A09C003F00AC004F01200000E136EB6
:102BD000000E126E12C00CF0D8900C36D8900C3645
:102BE000D8900C360C5008C00DF009C00EF00AC089
:102BF0000FF00BC010F0E82A05D0D89010320F3239
:102C00000E320D32E82EF9D70D50116E06501224F7
:102C1000036E07501320046E11C005F001D80BD0CD
:102C20000500FA6E00017151FD6E7251FE6E735116
:102C3000FF6EFA501200124A132A13BECBD713505C
:102C400005E1040E125CD8B01200C4D71200055082
:102C5000D8B403D00550D8A404D0035092EC1AF095
:102C600012000550D96EDA6A090ED926DE50DE1040
:102C7000D8B414D00550D96EDA6A090ED926055099
:102C8000E16EE26A020EE126DE50E65CE650800A62
:102C90000A6EDE50800A0A58D8B012000550D96E6C
:102CA000DA6A020ED926DF50066E0550D96EDA6A4E
:102CB000DF500624D96EDA6A03C0DFFF0550D96EF3
:102CC000DA6A020ED926DE2A000EDD221200A50ED7
:102CD0000B6E000E0D6E000E0C6E020E0E6E6DEC85
:102CE0000FF0A50E0B6E000E0D6E640E0C6E010E35
:102CF0000E6E6DEC0FF00009D8B40CD08DEC1AF00C
:102D0000030AD8A407D0010E036E480E046E440EC9
:102D100071EC12F0A50E0B6E030E0D6E840E0C6E90
:102D2000010E0E6E6DEC0FF00009D8B40CD08DECD6
:102D30001AF0030AD8A407D0010E036E4C0E046EDD
:102D4000440E71EC12F0000E120014D00350D96E34
:102D5000DA6ADF50056E04C0F6FF100EF76E000E43
:102D6000F86E0800F5500518D8B402D0010E120014
:102D7000032A042A0350D96EDA6ADF50D8B40BD084
:102D800004C0F6FF100EF76E000EF86E0800F55046
:102D90000009D8A4DBD7010E066E0350D96EDA6A9B
:102DA000DF50D8A40BD004C0F6FF100EF76E000E53
:102DB000F86E0800F5500009D8B4066A06501200F3
:102DC00001D0032A0350D96EDA6ADF50D8B419D083
:102DD000F8D704C0F6FF05C0F7FF000EF86E0350E9
:102DE000D96EDA6A0F0EF76403D00800F55005D0EB
:102DF000F6CFE9FFF7CFEAFFEF50DF6E044A052A6E
:102E0000032A04C0F6FF05C0F7FF000EF86E0F0E90
:102E1000F76403D00800F55005D0F6CFE9FFF7CFEF
:102E2000EAFFEF500009D8A4D4D70350D96EDA6A6C
:102E3000DF6A12002D6E2D50110D330EF324D96E62
:102E4000020EF420DA6EDECF2BF0DDCF2CF02BA0BB
:102E50000DD027C003F005EC14F003C027F004C028
:102E600028F005C029F006C02AF012002D50110DDF
:102E7000330EF324D96E020EF420DA6EDECF2BF07F
:102E8000DDCF2CF02BA2120027C01CF0DCEC14F0DC
:102E90001CC027F01DC028F01EC029F01FC02AF05A
:102EA00012009DC010F09EC011F09FC012F0A0C093
:102EB00013F02D0E146E7F0E156E950E166E4C0EC1
:102EC000176EB9EC17F0010E102400019D6F000E73
:102ED00011209E6F000E12209F6F000E1320A06F16
:102EE0009DC01EF09EC01FF09FC020F0A0C021F02A
:102EF000120E05D0D890213220321F321E32E82E19
:102F0000F9D71EC01CF01FC01DF01200075008109A
:102F100009100A10D8B424D0010E0B6E06D0D89038
:102F20000736083609360A360B2A0AAEF8D7075094
:102F3000035C08500458095005580A500658D8A098
:102F400008D00750035E0850045A0950055A0A5029
:102F5000065AD8900A320932083207320B2EE7D7C8
:102F600003C003F004C004F005C005F006C006F07D
:102F70001200000E186E000E196E000E1A6E000E72
:102F80001B6E10A008D01450182615501922165088
:102F90001A2217501B22D8901436153616361736BB
:102FA000D890133212321132103210501110121008
:102FB0001310D8A4E6D718C010F019C011F01AC029
:102FC00012F01BC013F01200000E0001F96F000E8A
:102FD000F86F19D0F8C053F0F9C054F0D8905336B8
:102FE0005436D89053365436D890533654365350BE
:102FF0000101CF25506E5450D021516E08EC11F0D4
:103000000001F84BF92B0101D1510001F85D0101DC
:10301000D2510001F959D8B01200DCD7096E03C0B3
:1030200004F0010E056E042A02D0D8900536042E55
:10303000FCD70550066E480E0924076E086A0F0E6D
:1030400008224A0E0918D8A404D0910E076E0F0E5C
:10305000086E460E0918D8A404D08E0E076E0F0E07
:10306000086E07C0D9FF08C0DAFF0650DF1A120049
:1030700001500000320001500000320001500000F9
:10308000320001500000320000000001E80300643B
:10309000000164000064000164000064000000009E
:1030A00001E8030064000164000064000000000106
:1030B0000A00000A00010A000000000102040801E1
:0330C000020408FF
:1030C400086E0850110D410EF324D96E020EF4203F
:1030D400DA6EDE50DE10DE10D8B412000850110D86
:1030E400410EF324D96E020EF420DA6E01D81200D8
:1030F4000500FA6EDE50FD6EDE50FE6EDE50FF6E91
:10310400FA5004C003F008501200086A0ED00650AA
:103114000324D96E000E0420DA6E05500824E16EF3
:10312400E26ADFCFE7FF062A082A0650075CD8A028
:1031340009D006500324D96E000E0420DA6EDF5045
:10314400D8A4E5D705500824D96EDA6ADF6A1200DC
:1031540003C0D9FF04C0DAFFDECF07F0DDCF08F0EB
:10316400075000018F5D096E085090590A6E055092
:10317400095C06500A58D8A00AD003C0D9FF04C07D
:10318400DAFF8FC0DEFF90C0DDFF010E1200000EDB
:10319400120020EE05F00350D9260450DA2208C0AC
:1031A400DEFF09C0DEFF0AC0DEFF03C0D9FF04C092
:1031B400DAFF05C0DFFF20EE01F00350D9260450EA
:1031C400DA2206C0DEFF07C0DDFF12001DC01FF0BB
:1031D40008D01CC010F01F0E116E1EC012F078EC47
:1031E4000BF01FC0F6FF100EF76E000EF86E08000D
:1031F400F5500009D8A4EDD7000E1D6E000E1C6E0C
:10320400120003C0D9FF04C0DAFF0550DE18D8A4A9
:1032140005D003C003F004C004F0120003C0D9FFBA
:1032240004C0DAFF034A042ADF50D8A4EAD7000E08
:10323400036E000E046E1200220E266E20C027F0CC
:10324400000E2A6E000E296E000E316E000E306ED6
:10325400270E1C6E21C01DF0260E1E6EE8EC18F021
:1032640020502924D96EDA6ADF6A120001140000A2
:1032740014000114000014000114000014000114CF
:1032840000001400011400001400011400001400D4
:0F329400011400001400011400001400000000D9
:1032A4001A6E1A509FEC19F01A50110D350EF324B2
:1032B400D96E020EF420DA6E15C0DEFF16C0DEFFF2
:1032C40017C0DEFF18C0DEFF12007FB2FED703C0B6
:1032D40062FF05C061FF7F9E7F9C7F84F29E550E36
:1032E4007E6EAA0E7E6E7F82F28E7FB2FED77F94B0
:1032F4001200076E0750110D350EF324D96E020E1D
:10330400F420DA6EDECF03F0DECF04F0DECF05F07A
:10331400DECF06F01200186E1850040DF3CF06F03D
:10332400F4CF07F014C008F015C009F016C00AF075
:1033340017C00BF0E6EC15F01200196E1950040DCD
:10334400F3CF05F0F4CF06F068EC13F005C015F0E8
:1033540006C016F007C017F008C018F012000001EC
:103364009651D8B4120051EC17F01CC087F01DC060
:1033740088F0000187518811D8A41200F4D7196E7F
:1033840019507BEC19F003C014F004C015F005C00B
:1033940016F006C017F019508DEC19F01200050E46
:1033A400036E480E046E450E71EC12F0050E036EAA
:1033B4004C0E046E450E71EC12F012000DC003F0B9
:1033C4000EC004F00C5071EC12F00DC003F00BC0F1
:1033D40004F00C501DEC12F01200056E0550110D96
:1033E400330EF324D96E020EF420DA6EDECF03F02E
:1033F400DDCF04F0120003C071F004C072F005C008
:1034040073F006C06EF007C06FF008C070F01200D1
:1034140000018F2907E19029D8A404D0000E906FF1
:10342400000E8F6F8F4B902B1200480E0101CF6F4F
:10343400010ED06F000ED26F040ED16FE4EC17F0C2
:103444001200325013EC10F034C07AF035C07BF027
:1034540036C07CF01200036E9E900350D8B402D0A4
:103464009D8012009D90120014504EEC14F0FF0E3B
:10347400036EFF0EA0EC0EF01200036EF28C0350EC
:10348400D8B402D0F28E1200F29E12007FB2FED7A0
:1034940003C062FF7F9E7F9C7F8061501200036E99
:1034A4000350D8B402D0CD801200CD901200680E23
:1034B4004A6E010E4B6E0EEC08F0010E1200035022
:1034C400D96EDA6A8FC0DEFF90C0DDFF1200BA92B7
:1034D40089C07CFF8AC07DFF1200A1928BC0B2FF1D
:1034E4008CC0B3FF12009E908DC0CEFF8EC0CFFF64
:1034F400120087C003F088C004F01200010E00011E
:10350400966F12000102040857040001966B120022
:10351400000196511200000197511200010E120091
:04352400120012007F
:020000040020DA
:08000000FFFFFFFFFFFFFFFF00
:020000040030CA
:0E0000001C187F7CF90A90FFFFC0FFE0FF4054
:00000001FF
