:0400000064EF00F0B9
:100008005182E1CF08F0E2CF09F0D9CF0AF0DACF78
:100018000BF0F3CF0CF0F4CF0DF0F2A008D0815024
:10002800F290030E016E410EAEEC99F03BD09EA00B
:1000380005D0ACEC9BF09BEC94F034D0A1A203D09B
:10004800A6EC9BF02FD0BAA203D0A0EC9BF02AD04C
:100058009EAA21D09E9AAE509AEC9BF02B0EAE1819
:10006800D8A403D045500209456E2D0EAE18D8A469
:1000780003D045500409456E2A0EAE18D8A403D003
:1000880045500109456E2F0EAE18D8A40BD0455027
:100098000809456E07D0A4AA05D0A49A0F011D51DE
:1000A8008DEC9BF00DC0F4FF0CC0F3FF0BC0DAFF22
:1000B8000AC0D9FF09C0E2FF08C0E1FF5192110050
:0400C800F2EF98F0CB
:10FCB400000608205F0000000000000000002F0084
:10FCC4000000000700070000147F147F1400242A9A
:10FCD4007F2A12002313086462003649552250001B
:10FCE400000503000000001C224100000041221C0A
:10FCF400000014083E08140008083E08080000002C
:10FD0400A060000008080808080000606000000007
:10FD14002010080402003E5149453E0000427F4045
:10FD240000004261514946002141454B31001814FD
:10FD3400127F10002745454539003C4A49493000A7
:10FD44000171090503003649494936000649492924
:10FD54001E0000363600000000563600000008146D
:10FD64002241000014141414140000412214080049
:10FD7400020151090600324959513E007C12111208
:10FD84007C007F49494936003E41414122007F4180
:10FD940041221C007F49494941007F0909090100AA
:10FDA4003E4149497A007F0808087F0000417F41AD
:10FDB40000002040413F01007F08142241007F40A1
:10FDC400404040007F020C027F007F0408107F0047
:10FDD4003E4141413E007F09090906003E4151214F
:10FDE4005E007F091929460046494949310001014D
:10FDF4007F0101003F4040403F001F2040201F0082
:10FE04003F4038403F00631408146300070870083B
:10FE14000700615149454300007F414100AA55AAAA
:10FE240055AA55000041417F00000402010204006C
:10FE3400404040404000000305000000205454545A
:10FE440078007F484444380038444444200038440F
:10FE540044487F00385454541800087E09010200B5
:10FE640018A4A4A47C007F080404780000447D4006
:10FE740000004080847D00007F1028440000004181
:10FE84007F4000007C04180478007C080404780097
:10FE9400384444443800FC2424241800182424182A
:10FEA400FC007C0804040800485454542000043F17
:10FEB400444020003C4040207C001C2040201C008A
:10FEC4003C4030403C004428102844001CA0A0A022
:10FED4007C004464544C440000107C820000000008
:10FEE400FF00000000827C1000000006090906499A
:10FEF4004E50555420454D47204D555445205245AC
:10FF04004C454153454400494E50555420454D47B6
:10FF1400204D555445205052455353454400494EB5
:10FF2400484942495420412052454C454153454497
:10FF340000494E484942495420422052454C4541CB
:10FF440053454400494E50555420454D4720524591
:10FF54004C454153454400494E5055542052455355
:10FF64002052454C454153454400494E4849424975
:10FF7400542041205052455353454400494E48496A
:10FF84004249542042205052455353454400494E5F
:10FF940050555420454D4720505245535345440035
:10FFA400494E5055542052455320505245535345C1
:10FFB4004400494E50555420412052454C4541532C
:10FFC400454400494E50555420422052454C454129
:10FFD40053454400494E50555420412050524553F6
:10FFE40053454400494E50555420422050524553E5
:0BFFF400534544002564000D0A000086
:020000040001F9
:10000000000E346E000E336E000E366E000E356E2E
:10001000000E286E000E276E3DC01FF0070E1F1643
:10002000D8A4E0D03DC00EF00F6A000E116E080E8D
:10003000106E05EC96F03C501F6E206A0E501F02A9
:10004000F3CF21F0F4CF22F02002F35022260F50FC
:100050001F02F35022263E501EC023F0246A235E66
:10006000000E245A21502302F3CF25F0F4CF26F0BE
:100070002402F350262622502302F3502626040E93
:1000800025242D6E000E26202E6E000E346E000EDE
:10009000336E98D0000E366E000E356E88D03C5010
:1000A0003302F3CF1FF0F4CF20F03402F3502026B8
:1000B0001F503A24216E20503B20226E2D502126C5
:1000C0002E502222355021263650222221C0F6FF02
:1000D00022C0F7FF000EF86E0800F550276E286A60
:1000E000376A37C01FF0010E206E000E216E1F2AE6
:1000F00003D0D890203621361F2EFBD7275020164C
:100100002850211620502110D8B447D04050D8A4F0
:1001100022D035501A240E6E36501B200F6E3750E9
:1001200033C01FF034C020F0D8901F362036D8904E
:100130001F362036D8901F3620361F26000E20226C
:100140001C501F24106E1D502020116E010E126EC7
:10015000EAEC8FF026D035501A240E6E36501B2054
:100160000F6E375033C01FF034C020F0D8901F36C8
:100170002036D8901F362036D8901F3620361F26BE
:10018000000E20221C501F24106E1D502020116EC6
:10019000000E126EEAEC8FF004D04050D8B4DBD7DA
:1001A000B8D7372A070E37649CD7354A362A3C50D1
:1001B0001F6E206A1F50355C20503658D8A06FD76C
:1001C000334A342A3DC00EF00F6A000E116E080E3D
:1001D000106E05EC96F00E50335C0F503458D8B0CA
:1001E000120058D73C503D02F3CF0EF0F4CF0FF081
:1001F000000E116E080E106E05EC96F03E501EC0FB
:100200001FF0206A1F5E000E205A0E501F02F3CF0F
:1002100021F0F4CF22F02002F35022260F501F02CB
:10022000F3502226040E21242D6E000E22202E6E65
:100230002D503A241F6E2E503B20206E1FC0F6FF1B
:1002400020C0F7FF000EF86E0800F550296E2A6AEC
:10025000000E2C6E070E2B6E000E306E000E2F6EF1
:1002600053D0000E326E000E316E43D02BC01FF003
:10027000010E206E000E216E1F2A03D0D89020366A
:1002800021361F2EFBD7295020162A502116205028
:100290002110D8B425D04050D8A411D02F501A2402
:1002A0000E6E30501B200F6E31501C24106E3250D9
:1002B0001D20116E010E126EEAEC8FF015D02F503A
:1002C0001A240E6E30501B200F6E31501C24106EFD
:1002D00032501D20116E000E126EEAEC8FF004D029
:1002E0004050D8B4ECD7DAD72B06D8A02C06314A28
:1002F000322A3D501F6E206A1F50315C2050325808
:10030000D8A0B4D72F4A302A3C501F6E206A1F5005
:100310002F5C20503058D8B01200A3D7400E33ECD9
:1003200095F0FF0E0E6EFF0E99EC89F04F0E166ED3
:10033000410E176E030E186E4C0E196E440E1CEC17
:100340009BF0490E166E420E176E040E186E4C0E80
:10035000196E440E1CEC9BF0490E166E420E176E81
:10036000050E186E4C0E196E440E1CEC9BF0490ED7
:10037000166E420E176E060E186E4C0E196E440E57
:100380001CEC9BF04F0E166E440E176E010E186E8D
:100390004C0E196E440E1CEC9BF04F0E166E440E64
:1003A000176E020E186E4C0E196E440E1CEC9BF06C
:1003B0004F0E166E440E176E030E186E4C0E196E0D
:1003C000440E1CEC9BF04F0E166E440E176E040E7E
:1003D000186E4C0E196E440E1CEC9BF0490E166EF6
:1003E000460E176E010E186E4C0E196E440E1CEC64
:1003F0009BF0490E166E460E176E020E186E4C0ECE
:10040000196E440E1CEC9BF0490E166E460E176ECC
:10041000030E186E4C0E196E440E1CEC9BF0490E28
:10042000166E460E176E040E186E4C0E196E440EA4
:100430001CEC9BF0490E166E460E176E050E186EDC
:100440004C0E196E440E1CEC9BF0490E166E460EB7
:10045000176E060E186E4C0E196E440E1CEC9BF0B7
:10046000490E166E460E176E070E186E4C0E196E5C
:10047000440E1CEC9BF0100E1B6E270E1C6E000E23
:100480001D6E000E1E6E020E1F6E02EC87F0100E27
:100490001B6E270E1C6E000E1D6E000E1E6E020ED1
:1004A0001F6E25EC86F0100E1B6E270E1C6E000EC4
:1004B0001D6E000E1E6E020E1F6E47EC85F0010EC3
:1004C00075EC97F0010E3CEC97F0010E03EC97F001
:1004D000000E166E0A0E156EFBEC8BF0000E166EFB
:1004E000140E156E31EC8BF0000E166E1E0E156E8E
:1004F00066EC8AF0100E1B6E270E1C6E000E1D6E31
:10050000000E1E6E040E1F6EBCEC88F0100E1B6EEB
:10051000270E1C6E000E1D6E000E1E6E040E1F6E4A
:10052000DFEC87F0010EE7EC97F0010EAEEC97F0F0
:10053000000E166E500E156E8FEC8DF0000E166EBE
:100540005A0E156EC5EC8CF0A00E1B6E860E1C6E3E
:10055000010E1D6E000E1E6E53EC99F0000E1B6E08
:10056000960E1C6E000E1D6E000E1E6EE8EC94F0D2
:10057000010E90EC90F0010E0E6E010E7FEC9BF0E0
:10058000010E56EC9BF0640E166E370E176E010EC0
:10059000186E0C0E196E370E1A6E010E1B6EEE0ED3
:1005A0001C6E360E1D6E010E1E6E8AEC92F0000E51
:1005B0000001DF6F000EDE6F000EE16F000EE06FD6
:1005C0007B0EE26F000EE36F000EE46F000EE56F2E
:1005D00087EC96F01CEC92F057EC98F0000E29ECAA
:1005E0009AF0010E29EC9AF0030E29EC9AF0020E13
:1005F00029EC9AF0C0EC98F0FDD7AC0E166E85CFC2
:100600001AF0020E1A161A500E6E0F6A000E116EB4
:10061000020E106E05EC96F00E50176E040E186E5A
:100620008DEC98F01B6E1B50D8B411D01B04D8A4CD
:1006300005D0010E4F104F6E5050506E020E1B1819
:10064000D8A405D0020E4F104F6E5050506EAA0E17
:10065000166E85CF1AF0040E1A161A500E6E0F6A17
:10066000000E116E040E106E05EC96F00E50176E13
:10067000040E186E8DEC98F01B6E1B50D8B411D080
:100680001B04D8A405D0040E4F104F6E5050506E6E
:10069000020E1B18D8A405D0080E4F104F6E5050F4
:1006A000506EA80E166E85CF1AF0080E1A161A5044
:1006B0000E6E0F6A000E116E080E106E05EC96F0AD
:1006C0000E50176E040E186E8DEC98F01B6E1B50BA
:1006D000D8B411D01B04D8A405D0100E4F104F6E03
:1006E0005050506E020E1B18D8A405D0200E4F108B
:1006F0004F6E5050506EA60E166E85CF1AF0100E2B
:100700001A161A500E6E0F6A000E116E100E106E31
:1007100005EC96F00E50176E040E186E8DEC98F0E6
:100720001B6E1B50D8B411D01B04D8A405D0400EAA
:100730004F104F6E5050506E020E1B18D8A405D0AB
:10074000800E4F104F6E5050506EA40E166E85CF17
:100750001AF0200E1A161A500E6E0F6A000E116E45
:10076000200E106E05EC96F00E50176E040E186EEB
:100770008DEC98F01B6E1B50D8B413D01B04D8A47A
:1007800006D0000E4F104F6E010E5010506E020E2C
:100790001B18D8A406D0000E4F104F6E020E50103A
:1007A000506EA20E166E85CF1AF0400E1A161A5011
:1007B0000E6E0F6A000E116E400E106E05EC96F074
:1007C0000E50176E040E186E8DEC98F01B6E1B50B9
:1007D000D8B413D01B04D8A406D0000E4F104F6E0F
:1007E000040E5010506E020E1B18D8A406D0000E36
:1007F0004F104F6E080E5010506EA00E166E85CF23
:100800001AF0800E1A161A500E6E0F6A000E116E34
:10081000800E106E05EC96F00E50176E040E186EDA
:100820008DEC98F01B6E1B50D8B412001B04D8A49A
:1008300006D0000E4F104F6E100E5010506E020E6C
:100840001B18D8A41200000E4F104F6E200E50102F
:10085000506E12000F6E0F04D8A422D0020E0E1894
:10086000D8A403D0F80E0F012D17040E0E18D8A42B
:1008700005D00F012D51F80B01092D6F060E0E1832
:10088000D8A405D00F012D51F80B02092D6F080EC9
:100890000E18D8A405D00F012D51F80B03092D6FA8
:1008A000020E0F18D8A422D0020E0E18D8A403D01E
:1008B000C70E0F012D17040E0E18D8A405D00F0176
:1008C0002D51C70B08092D6F060E0E18D8A405D0A0
:1008D0000F012D51C70B10092D6F080E0E18D8A44B
:1008E00005D00F012D51C70B18092D6F030E0F18DE
:1008F000D8A420D0020E0E18D8A403D03F0E0F01AA
:100900002D17040E0E18D8A405D00F012D513F0B42
:1009100040092D6F060E0E18D8A405D00F012D51D9
:100920003F0B80092D6F080E0E18D8A403D0C00EFF
:100930000F012D13040E0F18D8A420D0020E0E188C
:10094000D8A403D0FC0E0F012C17040E0E18D8A447
:1009500005D00F012C51FC0B01092C6F060E0E184F
:10096000D8A405D00F012C51FC0B02092C6F080EE6
:100970000E18D8A403D0030E0F012C13050E0F1868
:10098000D8A40CD0020E0E18D8A402D00F012C95BA
:10099000040E0E18D8A402D00F012C85060E0F18D5
:1009A000D8A40CD0020E0E18D8A402D00F012C959A
:1009B000020E0E18D8A402D00F012C85070E0F18B6
:1009C000D8A420D0020E0E18D8A403D03F0E0F01D9
:1009D0002C17040E0E18D8A405D00F012C513F0B74
:1009E00040092C6F060E0E18D8A405D00F012C510B
:1009F0003F0B80092C6F080E0E18D8A403D0C00E30
:100A00000F012C13080E0F18D8A420D0020E0E18B8
:100A1000D8A403D0FC0E0F012B17040E0E18D8A477
:100A200005D00F012B51FC0B01092B6F060E0E1880
:100A3000D8A405D00F012B51FC0B02092B6F080E17
:100A40000E18D8A403D0030E0F012B13090E0F1894
:100A5000D8A40CD0020E0E18D8A402D00F012B95EA
:100A6000040E0E18D8A402D00F012B850A0E0F1801
:100A7000D8A41200020E0E18D8A402D00F012B9990
:100A8000020E0E18D8A412000F012B8912001FC0ED
:100A900047F047C00EF0080E2AEC84F04F0E166E99
:100AA000450E176E040E186E4C0E196E440E1CEC9B
:100AB0009BF00F014651F00B0C09466F000E0E6EB5
:100AC000900E0F6ED00E106E030E116E1BC020F034
:100AD0001CC021F01DC022F01EC023F0020ED890D1
:100AE0002036213622362336E82EF9D720C012F0E0
:100AF00021C013F022C014F023C015F046EC96F08C
:100B0000FF0E0E24256EFF0E0F20266EFF0E102006
:100B1000276EFF0E1120286E2850271003E12604AF
:100B2000D8A038D0000E0E6E900E0F6ED00E106E44
:100B3000030E116E1BC020F01CC021F01DC022F05E
:100B40001EC023F0020ED8902036213622362336DE
:100B5000E82EF9D7040ED8902036213622362336D7
:100B6000E82EF9D720C012F021C013F022C014F0F3
:100B700023C015F046EC96F0FF0E0E24256EFF0EF6
:100B80000F20266EFF0E1020276EFF0E1120286EFC
:100B9000030E3FD028502710261004E1400E255C9C
:100BA000D8A039D0000E0E6E900E0F6ED00E106EC3
:100BB000030E116E1BC020F01CC021F01DC022F0DE
:100BC0001EC023F0020ED89020362136223623365E
:100BD000E82EF9D7020ED890203621362236233659
:100BE000E82EF9D720C012F021C013F022C014F073
:100BF00023C015F046EC96F0FF0E0E24256EFF0E76
:100C00000F20266EFF0E1020276EFF0E1120286E7B
:100C1000020E246E01D0246A24C00EF0475001EC6D
:100C20009AF02850271003E12604D8A008D0FF0E20
:100C3000256E000E266E000E276E000E286E25C053
:100C40000EF04750A5EC9AF012001FC048F048C0C3
:100C50000EF0070E2AEC84F04F0E166E450E176E3E
:100C6000050E186E4C0E196E440E1CEC9BF06E5067
:100C7000F00B0C096E6E000E0E6E900E0F6ED00E05
:100C8000106E030E116E1BC020F01CC021F01DC0A1
:100C900022F01EC023F0020ED890203621362236D4
:100CA0002336E82EF9D720C012F021C013F022C05D
:100CB00014F023C015F046EC96F0FF0E0E24256EBE
:100CC000FF0E0F20266EFF0E1020276EFF0E112044
:100CD000286E2850271003E12604D8A038D0000E33
:100CE0000E6E900E0F6ED00E106E030E116E1BC0A6
:100CF00020F01CC021F01DC022F01EC023F0020E07
:100D0000D8902036213622362336E82EF9D7040E25
:100D1000D8902036213622362336E82EF9D720C047
:100D200012F021C013F022C014F023C015F046ECDD
:100D300096F0FF0E0E24256EFF0E0F20266EFF0E7E
:100D40001020276EFF0E1120286E030E3FD0285072
:100D50002710261004E1400E255CD8A039D0000EE3
:100D60000E6E900E0F6ED00E106E030E116E1BC025
:100D700020F01CC021F01DC022F01EC023F0020E86
:100D8000D8902036213622362336E82EF9D7020EA7
:100D9000D8902036213622362336E82EF9D720C0C7
:100DA00012F021C013F022C014F023C015F046EC5D
:100DB00096F0FF0E0E24256EFF0E0F20266EFF0EFE
:100DC0001020276EFF0E1120286E020E246E01D017
:100DD000246A24C00EF0485001EC9AF028502710E5
:100DE00003E12604D8A008D0FF0E256E000E266E63
:100DF000000E276E000E286E25C00EF04850A5ECA0
:100E00009AF012001FC049F049C00EF0060E2AECFD
:100E100084F04F0E166E450E176E060E186E4C0EB1
:100E2000196E440E1CEC9BF07150F00B0C09716EA6
:100E3000000E0E6E900E0F6ED00E106E030E116E21
:100E40001BC020F01CC021F01DC022F01EC023F0EA
:100E5000020ED8902036213622362336E82EF9D7D6
:100E600020C012F021C013F022C014F023C015F0EE
:100E700046EC96F0FF0E0E24256EFF0E0F20266E18
:100E8000FF0E1020276EFF0E1120286E285027100D
:100E900003E12604D8A038D0000E0E6E900E0F6E1F
:100EA000D00E106E030E116E1BC020F01CC021F07E
:100EB0001DC022F01EC023F0020ED890203621362D
:100EC00022362336E82EF9D7040ED8902036213664
:100ED00022362336E82EF9D720C012F021C013F0B5
:100EE00022C014F023C015F046EC96F0FF0E0E243D
:100EF000256EFF0E0F20266EFF0E1020276EFF0EB0
:100F00001120286E030E3FD028502710261004E130
:100F1000400E255CD8A039D0000E0E6E900E0F6EDC
:100F2000D00E106E030E116E1BC020F01CC021F0FD
:100F30001DC022F01EC023F0020ED89020362136AC
:100F400022362336E82EF9D7020ED89020362136E5
:100F500022362336E82EF9D720C012F021C013F034
:100F600022C014F023C015F046EC96F0FF0E0E24BC
:100F7000256EFF0E0F20266EFF0E1020276EFF0E2F
:100F80001120286E020E246E01D0246A24C00EF0B7
:100F9000495001EC9AF02850271003E12604D8A00C
:100FA00008D0FF0E256E000E266E000E276E000E76
:100FB000286E25C00EF04950A5EC9AF012001FC013
:100FC0004AF04AC00EF0050E2AEC84F04F0E166E61
:100FD000470E176E040E186E4C0E196E440E1CEC64
:100FE0009BF07450F00B0C09746E000E0E6E900E98
:100FF0000F6ED00E106E030E116E1BC020F01CC0C1
:1010000021F01DC022F01EC023F0020ED890203621
:10101000213622362336E82EF9D720C012F021C01F
:1010200013F022C014F023C015F046EC96F0FF0E2A
:101030000E24256EFF0E0F20266EFF0E1020276E49
:10104000FF0E1120286E2850271003E12604D8A097
:1010500038D0000E0E6E900E0F6ED00E106E030E76
:10106000116E1BC020F01CC021F01DC022F01EC05C
:1010700023F0020ED8902036213622362336E82E71
:10108000F9D7040ED8902036213622362336E82EA2
:10109000F9D720C012F021C013F022C014F023C0F1
:1010A00015F046EC96F0FF0E0E24256EFF0E0F2075
:1010B000266EFF0E1020276EFF0E1120286E030EE5
:1010C0003FD028502710261004E1400E255CD8A000
:1010D00039D0000E0E6E900E0F6ED00E106E030EF5
:1010E000116E1BC020F01CC021F01DC022F01EC0DC
:1010F00023F0020ED8902036213622362336E82EF1
:10110000F9D7020ED8902036213622362336E82E23
:10111000F9D720C012F021C013F022C014F023C070
:1011200015F046EC96F0FF0E0E24256EFF0E0F20F4
:10113000266EFF0E1020276EFF0E1120286E020E65
:10114000246E01D0246A24C00EF04A5001EC9AF0BB
:101150002850271003E12604D8A008D0FF0E256EE2
:10116000000E266E000E276E000E286E25C00EF0B3
:101170004A50A5EC9AF012001FC04BF04BC00EF085
:10118000040E2AEC84F04F0E166E470E176E030EF7
:10119000186E4C0E196E440E1CEC9BF07750F00B41
:1011A0000C09776E000E0E6E900E0F6ED00E106E44
:1011B000030E116E1BC020F01CC021F01DC022F0D8
:1011C0001EC023F0020ED890203621362236233658
:1011D000E82EF9D720C012F021C013F022C014F07D
:1011E00023C015F046EC96F0FF0E0E24256EFF0E80
:1011F0000F20266EFF0E1020276EFF0E1120286E86
:101200002850271003E12604D8A038D0000E0E6E17
:10121000900E0F6ED00E106E030E116E1BC020F0DC
:101220001CC021F01DC022F01EC023F0020ED89079
:101230002036213622362336E82EF9D7040ED890F0
:101240002036213622362336E82EF9D720C012F078
:1012500021C013F022C014F023C015F046EC96F024
:10126000FF0E0E24256EFF0E0F20266EFF0E10209F
:10127000276EFF0E1120286E030E3FD02850271036
:10128000261004E1400E255CD8A039D0000E0E6E69
:10129000900E0F6ED00E106E030E116E1BC020F05C
:1012A0001CC021F01DC022F01EC023F0020ED890F9
:1012B0002036213622362336E82EF9D7020ED89072
:1012C0002036213622362336E82EF9D720C012F0F8
:1012D00021C013F022C014F023C015F046EC96F0A4
:1012E000FF0E0E24256EFF0E0F20266EFF0E10201F
:1012F000276EFF0E1120286E020E246E01D0246A84
:1013000024C00EF04B5001EC9AF02850271003E156
:101310002604D8A008D0FF0E256E000E266E000E03
:10132000276E000E286E25C00EF04B50A5EC9AF0EB
:1013300012000F6E0F28D8A405D00F01256B246B67
:10134000236B12000F50D8A408D00EA003D00F01B9
:10135000258112000F01259112000F50D8B4F5D746
:101360000F04D8A408D00EA003D00F0125831200CB
:101370000F0125931200020E0F18D8A408D00EA05A
:1013800003D00F01258512000F0125951200030ED1
:101390000F18D8A408D00EA003D00F012587120083
:1013A0000F01259712000F04D8B4DDD7040E0F18D3
:1013B000D8A408D00EA003D00F01258912000F0178
:1013C00025991200050E0F18D8A408D00EA003D03E
:1013D0000F01258B12000F01259B1200060E0F181E
:1013E000D8A408D00EA003D00F01258D12000F0144
:1013F000259D1200070E0F18D8A408D00EA003D008
:101400000F01258F12000F01259F1200080E0F18E3
:10141000D8A408D00EA003D00F01248112000F0120
:1014200024911200090E0F18D8A408D00EA003D0E2
:101430000F01248312000F01249312000A0E0F18CB
:10144000D8A408D00EA003D00F01248512000F01EC
:10145000249512000B0E0F18D8A408D00EA003D0AC
:101460000F01248712000F0124971200100E0F188D
:10147000D8A408D00EA003D00F01238112000F01C1
:1014800023911200110E0F18D8A408D00EA003D07B
:101490000F01238312000F0123931200120E0F1865
:1014A000D8A408D00EA003D00F01238512000F018D
:1014B00023951200130E0F18D8A412000EA003D00B
:1014C0000F01238712000F0123971200165004E129
:1014D000650E155CD8A004D0000E166E640E156E55
:1014E000020E4718D8A425D0CB50176E186AD89092
:1014F00017361836D89017361836040E1726000EF1
:10150000182215501702F3CF19F0F4CF1AF0180271
:10151000F3501A2616501702F3501A2619C00EF06F
:101520001AC00FF0000E116E640E106ED8EC99F018
:101530007CD0040E4718D8A425D06C50176E186ABA
:10154000D89017361836D89017361836040E172646
:10155000000E182215501702F3CF19F0F4CF1AF02D
:101560001802F3501A2616501702F3501A2619C003
:101570000EF01AC00FF0000E116E640E106ED8EC53
:1015800099F053D0060E4718D8A426D00F013A512F
:10159000176E186AD89017361836D890173618363E
:1015A000040E1726000E182215501702F3CF19F05B
:1015B000F4CF1AF01802F3501A2616501702F350FF
:1015C0001A2619C00EF01AC00FF0000E116E640E2C
:1015D000106ED8EC99F029D0080E4718D8A429D05D
:1015E0000F013751176E186AD89017361836D890F1
:1015F00017361836040E1726000E1822155017023B
:10160000F3CF19F0F4CF1AF01802F3501A2616503F
:101610001702F3501A2619C00EF01AC00FF0000E70
:10162000116E640E106ED8EC99F00EC01BF00FC056
:101630001CF01BC017F01CC018F0D89018321732DD
:10164000D8901832173217500F01476F1BC017F090
:10165000030E1716173A46511718CF0B1718466F77
:101660001200165004E1650E155CD8A004D0000EDF
:10167000166E640E156E020E4818D8A425D0CB50F5
:10168000176E186AD89017361836D890173618364D
:10169000040E1726000E182215501702F3CF19F06A
:1016A000F4CF1AF01802F3501A2616501702F3500E
:1016B0001A2619C00EF01AC00FF0000E116E640E3B
:1016C000106ED8EC99F07CD0040E4818D8A425D020
:1016D0006C50176E186AD89017361836D89017368F
:1016E0001836040E1726000E182215501702F3CFD5
:1016F00019F0F4CF1AF01802F3501A2616501702F8
:10170000F3501A2619C00EF01AC00FF0000E116E19
:10171000640E106ED8EC99F053D0060E4818D8A479
:1017200026D00F013A51176E186AD890173618361E
:10173000D89017361836040E1726000E18221550AA
:101740001702F3CF19F0F4CF1AF01802F3501A264B
:1017500016501702F3501A2619C00EF01AC00FF0D7
:10176000000E116E640E106ED8EC99F029D0080EA0
:101770004818D8A429D00F013751176E186AD8908D
:1017800017361836D89017361836040E1726000E5E
:10179000182215501702F3CF19F0F4CF1AF01802DF
:1017A000F3501A2616501702F3501A2619C00EF0DD
:1017B0001AC00FF0000E116E640E106ED8EC99F086
:1017C0000EC01BF00FC01CF01BC017F01CC018F09F
:1017D000D89018321732D8901832173217506F6ECF
:1017E0001BC017F0030E1716173A6E501718CF0BC1
:1017F00017186E6E1200165004E1650E155CD8A025
:1018000004D0000E166E640E156E020E4918D8A490
:1018100025D0CB50176E186AD89017361836D89046
:1018200017361836040E1726000E18221550170208
:10183000F3CF19F0F4CF1AF01802F3501A2616500D
:101840001702F3501A2619C00EF01AC00FF0000E3E
:10185000116E640E106ED8EC99F07CD0040E49180D
:10186000D8A425D06C50176E186AD8901736183641
:10187000D89017361836040E1726000E1822155069
:101880001702F3CF19F0F4CF1AF01802F3501A260A
:1018900016501702F3501A2619C00EF01AC00FF096
:1018A000000E116E640E106ED8EC99F053D0060E37
:1018B0004918D8A426D00F013A51176E186AD8904B
:1018C00017361836D89017361836040E1726000E1D
:1018D000182215501702F3CF19F0F4CF1AF018029E
:1018E000F3501A2616501702F3501A2619C00EF09C
:1018F0001AC00FF0000E116E640E106ED8EC99F045
:1019000029D0080E4918D8A429D00F013751176ED5
:10191000186AD89017361836D89017361836040E2D
:101920001726000E182215501702F3CF19F0F4CF26
:101930001AF01802F3501A2616501702F3501A26FE
:1019400019C00EF01AC00FF0000E116E640E106E6A
:10195000D8EC99F00EC01BF00FC01CF01BC017F0A4
:101960001CC018F0D89018321732D890183217329D
:101970001750726E1BC017F0030E1716173A7150EE
:101980001718CF0B1718716E1200165004E1650E70
:10199000155CD8A004D0000E166E640E156E020EF3
:1019A0004A18D8A425D0CB50176E186AD89017368D
:1019B0001836D89017361836040E1726000E18223F
:1019C00015501702F3CF19F0F4CF1AF01802F350A4
:1019D0001A2616501702F3501A2619C00EF01AC014
:1019E0000FF0000E116E640E106ED8EC99F07CD0E2
:1019F000040E4A18D8A425D06C50176E186AD890D7
:101A000017361836D89017361836040E1726000EDB
:101A1000182215501702F3CF19F0F4CF1AF018025C
:101A2000F3501A2616501702F3501A2619C00EF05A
:101A30001AC00FF0000E116E640E106ED8EC99F003
:101A400053D0060E4A18D8A426D00F013A51176E6B
:101A5000186AD89017361836D89017361836040EEC
:101A60001726000E182215501702F3CF19F0F4CFE5
:101A70001AF01802F3501A2616501702F3501A26BD
:101A800019C00EF01AC00FF0000E116E640E106E29
:101A9000D8EC99F029D0080E4A18D8A429D00F0103
:101AA0003751176E186AD89017361836D8901736EF
:101AB0001836040E1726000E182215501702F3CF01
:101AC00019F0F4CF1AF01802F3501A261650170224
:101AD000F3501A2619C00EF01AC00FF0000E116E46
:101AE000640E106ED8EC99F00EC01BF00FC01CF005
:101AF0001BC017F01CC018F0D89018321732D890BD
:101B0000183217321750756E1BC017F0030E1716D8
:101B1000173A74501718CF0B1718746E120016501E
:101B200004E1650E155CD8A004D0000E166E640E9C
:101B3000156E020E4B18D8A425D0CB50176E186A1C
:101B4000D89017361836D89017361836040E172640
:101B5000000E182215501702F3CF19F0F4CF1AF027
:101B60001802F3501A2616501702F3501A2619C0FD
:101B70000EF01AC00FF0000E116E640E106ED8EC4D
:101B800099F07CD0040E4B18D8A425D06C50176E59
:101B9000186AD89017361836D89017361836040EAB
:101BA0001726000E182215501702F3CF19F0F4CFA4
:101BB0001AF01802F3501A2616501702F3501A267C
:101BC00019C00EF01AC00FF0000E116E640E106EE8
:101BD000D8EC99F053D0060E4B18D8A426D00F019C
:101BE0003A51176E186AD89017361836D8901736AB
:101BF0001836040E1726000E182215501702F3CFC0
:101C000019F0F4CF1AF01802F3501A2616501702E2
:101C1000F3501A2619C00EF01AC00FF0000E116E04
:101C2000640E106ED8EC99F029D0080E4B18D8A489
:101C300029D00F013751176E186AD8901736183609
:101C4000D89017361836040E1726000E1822155095
:101C50001702F3CF19F0F4CF1AF01802F3501A2636
:101C600016501702F3501A2619C00EF01AC00FF0C2
:101C7000000E116E640E106ED8EC99F00EC01BF0C1
:101C80000FC01CF01BC017F01CC018F0D890183201
:101C90001732D890183217321750786E1BC017F0D1
:101CA000030E1716173A77501718CF0B1718776EC1
:101CB00012004F505010D8B412004FA00CD0FE0E9E
:101CC0004F144F6EFF0E5014506ED80E116EFF0E53
:101CD000126E2BEC9BF04FA20CD0FD0E4F144F6EEA
:101CE000FF0E5014506EB60E116EFF0E126E2BECDE
:101CF0009BF04FA40CD0FB0E4F144F6EFF0E5014F0
:101D0000506EE80E116EFF0E126E2BEC9BF04FA67C
:101D10000CD0F70E4F144F6EFF0E5014506EC70EBE
:101D2000116EFF0E126E2BEC9BF04FA80CD0EF0E35
:101D30004F144F6EFF0E5014506E6E0E116EFF0E4C
:101D4000126E2BEC9BF04FAA0CD0DF0E4F144F6E8F
:101D5000FF0E5014506E220E116EFF0E126E2BEC01
:101D60009BF04FAC0CD0BF0E4F144F6EFF0E5014B3
:101D7000506E800E116EFF0E126E2BEC9BF04FAE6C
:101D80000CD07F0E4F144F6EFF0E5014506E350E58
:101D9000116EFF0E126E2BEC9BF050A00CD0FF0EBC
:101DA0004F144F6EFE0E5014506E920E116EFF0EB9
:101DB000126E2BEC9BF050A20CD0FF0E4F144F6E06
:101DC000FD0E5014506E480E116EFF0E126E2BEC6D
:101DD0009BF050A40CD0FF0E4F144F6EFB0E50140E
:101DE000506E0B0E116EFF0E126E2BEC9BF050A678
:101DF0000CD0FF0E4F144F6EF70E5014506EF30EB2
:101E0000116EFE0E126E2BEC9BF050A80CD0FF0E44
:101E10004F144F6EEF0E5014506EA40E116EFF0E45
:101E2000126E2BEC9BF050AA1200FF0E4F144F6E57
:101E3000DF0E5014506E5B0E116EFF0E126E2BEC07
:101E40009BF012001950D96EDA6ADECFF6FFDDCFB3
:101E5000F7FF000EF86E0800F550250AD8A4A8D0A8
:101E60001950D96EDA6ADE2A000EDD22000E00015A
:101E70008B6F000E8A6F8AC044F08C698D6919508F
:101E8000D96EDA6ADECF1EF0DDCF1FF01EC0F6FF7E
:101E90001FC0F7FF000EF86E0800F550640AD8B4B2
:101EA0000BD01EC0F6FF1FC0F7FF000EF86E080033
:101EB000F550690AD8A475D01A50D96EDA6A020EA4
:101EC000DF26DF5CD96EDA6ADECF20F0DECF21F0CC
:101ED000010E1E241B6E000E1F201C6E1950D96EA1
:101EE000DA6A1BC0DEFF1CC0DDFF200E246E21AEAF
:101EF00002D0010E01D0000E1D6E2406300E2424E7
:101F0000D96EDA6A010EDA2220C00EF021C00FF07D
:101F1000000E116E0A0E106E20EC98F00EC014F038
:101F20000FC015F0E7EC9AF01450300FDF6E20C0B0
:101F30000EF021C00FF0000E116E0A0E106E05ECAF
:101F400096F00EC020F00FC021F020502110D8B420
:101F500003D02450D8A4D1D72450D8B41DD01D50BC
:101F6000D8B41AD02406300E2424D96EDA6A010EB1
:101F7000DA222D0EDF6E10D0300E2424D96EDA6AEC
:101F8000010EDA22DF501B6E1B500E6E0F6A18C056
:101F900010F07BEC95F0242A200E2418D8B41200FF
:101FA000EBD71950D96EDA6ADE2A000EDD22120054
:101FB0001950D96EDA6ADECFF6FFDDCFF7FF000EDB
:101FC000F86E0800F5500E6E0F6A18C010F07BEC2A
:101FD00095F0E7D70F5003E1800E0E5CD8B01200E9
:101FE000115005E1200E105CD8B012008ED0120006
:101FF00010C013F0070E1316010E146E132A02D030
:10200000D8901436132EFCD710C015F011C016F05E
:10201000D89016321532D89016321532D890163222
:102020001532070ED89015361636E82EFBD7700EEF
:102030001524176E010E1620186E0E501724D96E37
:102040000F501820DA6E1450DF12120010C013F077
:10205000070E1316010E146E132A02D0D8901436F0
:10206000132EFCD71450FF0A156E10C016F011C0C5
:1020700017F0D89017321632D89017321632D890FF
:1020800017321632070ED89016361736E82EFBD7C1
:10209000700E1624186E010E1720196E0E5018249B
:1020A000D96E0F501920DA6E1550DF16120010C0CD
:1020B00013F0070E1316010E146E132A02D0D890D7
:1020C0001436132EFCD710C015F011C016F0D8909E
:1020D00016321532D89016321532D8901632153283
:1020E000070ED89015361636E82EFBD7700E15243D
:1020F000176E010E1620186E0E501724D96E0F5051
:102100001820DA6E1450DF1A12001250000AD8B4E8
:102110009DD7010AD8B46CD7030AD8A41200C7D738
:102120000001DE6F000E0001D66F240ED76FF40E93
:10213000D86F000ED96FCEC0D2F0CFC0D3F0D0C0D0
:10214000D4F0D1C0D5F0000EE06F000EDF6F000EAE
:10215000E66F000EE56FD6C00EF0D7C00FF0D8C006
:1021600010F0D9C011F0E551D20FD96EDA6ADF5004
:10217000276E2750126E136A146A156A46EC96F0A1
:102180000EC0DAF00FC0DBF010C0DCF011C0DDF0E3
:10219000E80E126E030E136E000E146E000E156E16
:1021A000DAC00EF0DBC00FF0DCC010F0DDC011F0C3
:1021B00046EC96F00EC01BF00FC01CF010C01DF0D6
:1021C00011C01EF00001DE511F6E206A216A226AD2
:1021D00083EC99F01BC0E1F01CC0E2F01DC0E3F0FD
:1021E0001EC0E4F00001E45118E1E105000EE259DF
:1021F000010EE359D8B011D0E5C027F0273ACD50F1
:102200002718CF0B2718CD6EE1510008DF6FE25180
:10221000D8A0E82A0008E06F0AD0E54BE62BE6BF1D
:102220009AD7E65104E1040EE55DD8A094D7010EDB
:1022300067EC9BF0010E44EC9BF0DFC092F0E0C035
:1022400093F092C0CEFF93C0CFFF12001550D96E0D
:10225000DA6A030ED926DFA23ED01550D96EDA6AAB
:10226000DE2A000EDD221650D8B42CD01550D96EBF
:10227000DA6A020ED926DF50D8B40ED01550D96EC6
:10228000DA6A020ED9261550E16EE26A020EE126E4
:10229000E750196E19044CD01550D96EDA6A020E47
:1022A000D92617C0DFFF1550D96EDA6A030ED9267A
:1022B0001550E16EE26A030EE126E750FD0BDF6E7A
:1022C000020E12001550D96EDA6A020ED92618C015
:1022D000DFFF010E12001650D8A42CD01550D96E75
:1022E000DA6A020ED926DF50D8B40FD01550D96E55
:1022F000DA6A020ED9261550E16EE26A020EE12674
:10230000E750196E1904DF6E1CD01550D96EDA6AC9
:10231000020ED92618C0DFFF1550D96EDA6A030EF7
:10232000D9261550E16EE26A030EE126E750020954
:10233000DF6ECFD71550D96EDA6A020ED92617C0D4
:10234000DFFF000E1200126A12507C0FD96EDA6A9B
:10235000DF50D8B46CD01250020DF350740FD96E08
:10236000DA6ADE50DE10D8B41BD01250020DF350E2
:10237000740FD96EDA6ADECF0EF0DDCF0FF0FF0EEC
:102380000E24106EFF0E0F20116E1250020DF3502E
:10239000740FD96EDA6A10C0DEFF11C0DDFF47D0BE
:1023A0001250800FD96EDA6ADF50D8A41AD01250BA
:1023B000D8A403D08C50FD0B13D01204D8A403D0A2
:1023C0008C50FB0B0DD0020E1218D8A403D08C50E9
:1023D000F70B06D0030E1218D8A403D08C50EF0BC5
:1023E0008C6E1250800FD96EDA6ADE04D8A41AD02F
:1023F0001250D8A403D08C50020913D01204D8A4D0
:1024000003D08C5004090DD0020E1218D8A403D0AA
:102410008C50080906D0030E1218D8A403D08C5093
:1024200010098C6E12507C0FD96EDA6ADF6A122A9C
:10243000030E126489D71200210EC3EC95F0000E32
:10244000C3EC95F07F0EC3EC95F0220EC3EC95F033
:10245000000EC3EC95F0030EC3EC95F0000E136E66
:10246000000E126E01D80BD00500FA6E00018751E4
:10247000FD6E8851FE6E8951FF6EFA50120001D830
:102480000BD00500FA6E4150FD6E4250FE6E435077
:10249000FF6EFA50780E120001D80BD00500FA6ECC
:1024A0004150FD6E4250FE6E4350FF6EFA50400E9A
:1024B0001200116A01D811D00500FA6E4150FD6E6C
:1024C0004250FE6E4350FF6EFA50700E1224D96EC9
:1024D000010E1320DA6EDF501200124A132A112A5D
:1024E0000F0E1164E7D71206D8A0130601D80BD03F
:1024F0000500FA6E00018451FD6E8551FE6E865115
:10250000FF6EFA501200124A132A020E135CD8B062
:102510001200A8D716C087F017C088F018C089F03D
:1025200019C041F01AC042F01BC043F01CC084F037
:102530001DC085F01EC086F0AE0EC3EC95F0D50E22
:10254000C3EC95F0800EC3EC95F0A80EC3EC95F0AB
:102550001F0EC3EC95F0D30EC3EC95F0000EC3EC48
:1025600095F0400EC3EC95F08D0EC3EC95F0140E73
:10257000C3EC95F0200EC3EC95F0000EC3EC95F083
:10258000A10EC3EC95F0C80EC3EC95F0DA0EC3ECC7
:1025900095F0020EC3EC95F0810EC3EC95F08F0E12
:1025A000C3EC95F0D90EC3EC95F0F10EC3EC95F0A9
:1025B000DB0EC3EC95F0400EC3EC95F0A40EC3EC1B
:1025C00095F0A60EC3EC95F02E0EC3EC95F0AF0E71
:1025D000C3EC95F0B50E0E6EFC0E0F6EC7EC96F0C8
:1025E0000DEC9BF01200116E11507C0FD96EDA6A5F
:1025F000010EDF6E0E500F6E106A1150020DF35077
:10260000740FD96EDA6A0FC0DEFF10C0DDFF115003
:10261000800FD96EDA6ADF50D8A41AD01150D8A42E
:1026200003D08C50020913D01104D8A403D08C50CD
:1026300004090DD0020E1118D8A403D08C5008093B
:1026400006D0030E1118D8A403D08C5010098C6E3C
:102650001150800FD96EDA6ADE04D8A4120011502E
:10266000D8A404D08C50FD0B8C6E12001104D8A499
:1026700004D08C50FB0B8C6E1200020E1118D8A4E3
:1026800004D08C50F70B8C6E1200030E1118D8A4D6
:1026900012008C50EF0B8C6E1200940E156E000E13
:1026A0000E6E420E23EC99F0166E0A0E176E0A0E8D
:1026B000186E26EC91F01A6E1A50D8B407D0020E9C
:1026C0001A18D8A403D045500209456E9C0E156E09
:1026D000010E0E6E420E23EC99F0166E0A0E176E66
:1026E0000A0E186E26EC91F01A6E1A50D8B414D057
:1026F000020E1A18D8A410D09C0E0E6E6FEC9BF030
:10270000E90E0E5C030E0F58D8A003D045500809FF
:1027100002D045500109456E980E156E020E0E6EE0
:10272000420E23EC99F0166E0A0E176E0A0E186E02
:1027300026EC91F01A6E1A50D8B41200020E1A1834
:10274000D8A4120045500409456E1200136E0EC045
:1027500010F0010E116E102A02D0D8901136102EF2
:10276000FCD71150126E510E1324146E156A0F0E01
:1027700015224A0E1318D8A404D09A0E146E0F0E08
:10278000156E460E1318D8A404D0970E146E0F0EB3
:10279000156E4F0E0F18D8B407D06F0E0F18D8B49F
:1027A00003D00F50D8A40FD014C0D9FF15C0DAFF42
:1027B000DF50106E1250FF0A101414C0D9FF15C05C
:1027C000DAFFDF6E1200490E0F18D8B407D0690E79
:1027D0000F18D8B403D00F04D8A4120014C0D9FF26
:1027E00015C0DAFFDF50121014C0D9FF15C0DAFF90
:1027F000DF6E1200136E0EC010F0010E116E102A63
:1028000002D0D8901136102EFCD71150126E480EFF
:102810001324146E156A0F0E15224A0E1318D8A42D
:1028200004D0910E146E0F0E156E460E1318D8A418
:1028300004D08E0E146E0F0E156E4C0E0F18D8B4F9
:1028400007D06C0E0F18D8B403D00F50D8A40FD0F7
:1028500014C0D9FF15C0DAFFDF50106E1250FF0A06
:10286000101414C0D9FF15C0DAFFDF6E1200480E35
:102870000F18D8B407D0680E0F18D8B403D00F04BF
:10288000D8A4120014C0D9FF15C0DAFFDF5012100F
:1028900014C0D9FF15C0DAFFDF6E1200106E1050A1
:1028A000800FD96EDA6A0EC0DFFF1050800FD96E2C
:1028B000DA6ADF50D8A41AD01050D8A403D08C50B4
:1028C000FD0B13D01004D8A403D08C50FB0B0DD0FB
:1028D000020E1018D8A403D08C50F70B06D0030EAC
:1028E0001018D8A403D08C50EF0B8C6E1050800FB2
:1028F000D96EDA6ADE04D8A412001050D8A404D02D
:102900008C5002098C6E12001004D8A404D08C5094
:1029100004098C6E1200020E1018D8A404D08C503A
:1029200008098C6E1200030E1018D8A412008C50E7
:1029300010098C6E1200036A0350080DF350AE0F9D
:10294000D96EDA6A0001DFA03ED00350080DF350C3
:10295000AE0FD96EDA6ADFB436D00350080DF350EB
:10296000B10FD96EDA6A010EDB5004E1020EDE5CB3
:10297000D8A00AD00350080DF350B10FD96EDA6A0F
:10298000DE06000EDD5A1FD00350080DF350AE0FC7
:10299000D96EDA6A0350080DF350AE0FE16EE26AA9
:1029A000E7500409DF6E0350080DF350AF0FD96EE6
:1029B000DA6A0350080DF350B10FE16EE26ADECF20
:1029C000E6FFDDCFE5FF032A020E0364B5D7120050
:1029D0004F0E166E430E176E060E186E480E196EC9
:1029E000440E1CEC9BF0490E166E430E176E070E3C
:1029F000186E480E196E440E1CEC9BF0000E0E6E05
:102A0000900E0F6ED00E106E030E116E1BC01FF0D5
:102A10001CC020F01DC021F01EC022F0040ED89072
:102A20001F36203621362236E82EF9D71FC012F085
:102A300020C013F021C014F022C015F046EC96F02F
:102A4000FF0E0E24236EFF0E0F20246EAC98AC9C5C
:102A5000AB9CAB8EAC8AAB88AC8423C0AFFF010EBD
:102A60005FEC9BF012001E6E100E1E640CD01EC098
:102A70000EF00F6A000E116E040E106E05EC96F04B
:102A80000E501E6E9B8C100E1E18D8B42BD0080E44
:102A90001E18D8B41ED0040E1E18D8B411D0020EC1
:102AA0001E18D8B404D0000E1D6E700E03D0000E98
:102AB0001D6E580E1C6E1CC01AF01DC01BF004D0F9
:102AC000000E1B6E600E1A6E1AC018F01BC019F0B3
:102AD00004D0000E196E680E186E18C016F019C0DA
:102AE00017F004D0000E176E700E166E16C0D3FFCE
:102AF000D3B41200FDD71050D8B403D01050D8A4CE
:102B000004D00E50BCEC9BF012001050D96EDA6A63
:102B1000090ED926DE50DE10D8B414D01050D96E6C
:102B2000DA6A090ED9261050E16EE26A020EE12639
:102B3000DE50E65CE650800A156EDE50800A1558BD
:102B4000D8B012001050D96EDA6A020ED926DECF44
:102B500011F0DDCF12F01050D96EDA6ADECF13F02B
:102B6000DDCF14F011501324D96E12501420DA6EF8
:102B70000EC0DFFF1050D96EDA6A020ED926DE2AA7
:102B8000000EDD221200106E01D80BD00500FA6E87
:102B900000018751FD6E8851FE6E8951FF6EFA501B
:102BA000120001D80BD00500FA6E4150FD6E425064
:102BB000FE6E4350FF6EFA50780E120001D80BD013
:102BC0000500FA6E4150FD6E4250FE6E4350FF6E9E
:102BD000FA50000E120001D80BD00500FA6E4150D9
:102BE000FD6E4250FE6E4350FF6EFA5010501200C0
:102BF00001D812000500FA6E00018451FD6E855166
:102C0000FE6E8651FF6EFA501200136A11AE06D0A6
:102C1000106C111ED8B0112A010E136E0FAE06D023
:102C20000E6C0F1ED8B00F2A010E131A000E156E6F
:102C3000000E146E10501110D8B41CD0010E126E7C
:102C400004D0D89010361136122A11AEFAD7D89087
:102C50001436153610500E5C11500F58D8A005D000
:102C600010500E5E11500F5A1480D890113210324D
:102C7000122EEDD71350D8B404D0146C151ED8B052
:102C8000152A14C00EF015C00FF01200000E166EBB
:102C9000000E176E000E186E000E196E12501310F3
:102CA00014101510D8B42AD0010E1A6E06D0D89080
:102CB00012361336143615361A2A15AEF8D7D890B0
:102CC000163617361836193612500E5C13500F5838
:102CD0001450105815501158D8A009D012500E5E3B
:102CE00013500F5A1450105A1550115A1680D8907C
:102CF00015321432133212321A2EE1D716C00EF0EA
:102D000017C00FF018C010F019C011F01200500ECB
:102D10002B6E010E2C6EF80E2D6EFF0E2E6EE2C085
:102D20002FF0E3C030F0E4C031F0E5C032F04DECFC
:102D30009AF0500E0E6E010E0F6ED2EC9AF00E50FD
:102D400001016E6F6F6B1ED06F513C02F3CF38F0F4
:102D5000F4CF39F00001DE5138241A6EDF513920EA
:102D60001B6EE0C01CF0E1C01DF0500E01016F258C
:102D7000D96EDA6A010EDA22DF501E6E00EC80F0A6
:102D800001016F2B6E516F5DD8B01200DDD70EC000
:102D90003AF00FC03BF00EC0F6FF0FC0F7FF000E79
:102DA000F86E0800F5CF3CF0010E0E24106E000EF8
:102DB0000F20116E10C0F6FF11C0F7FF000EF86E65
:102DC0000800F5CF3DF0020E0E24106E000E0F200D
:102DD000116E10C0F6FF11C0F7FF000EF86E08006C
:102DE000F5CF3EF0030E0E24106E000E0F20116E74
:102DF00010C0F6FF11C0F7FF000EF86E0800F5CF07
:102E00003FF0406A12000E6E0E50D8B41AD0020E77
:102E10004718D8A402D0CA841200040E4718D8A4B8
:102E200002D06B841200060E4718D8A403D00F01FD
:102E300039851200080E4718D8A412000F013685F4
:102E40001200020E4718D8A402D0CA9413D0040E60
:102E50004718D8A402D06B940DD0060E4718D8A4FA
:102E600003D00F01399506D0080E4718D8A402D018
:102E70000F0136958B9E12000E6E0E50D8B41AD0EC
:102E8000020E4818D8A402D0CA841200040E4818B2
:102E9000D8A402D06B841200060E4818D8A403D020
:102EA0000F0139851200080E4818D8A412000F012E
:102EB00036851200020E4818D8A402D0CA9413D046
:102EC000040E4818D8A402D06B940DD0060E4818F2
:102ED000D8A403D00F01399506D0080E4818D8A4FD
:102EE00002D00F0136958B9C12000E6E0E50D8B496
:102EF0001AD0020E4918D8A402D0CA841200040EB7
:102F00004918D8A402D06B841200060E4918D8A420
:102F100003D00F0139851200080E4918D8A41200F9
:102F20000F0136851200020E4918D8A402D0CA94A7
:102F300013D0040E4918D8A402D06B940DD0060EFD
:102F40004918D8A403D00F01399506D0080E4918A6
:102F5000D8A402D00F0136958B9A12000E6E0E5037
:102F6000D8B41AD0020E4A18D8A402D0CA841200CB
:102F7000040E4A18D8A402D06B841200060E4A1818
:102F8000D8A403D00F0139851200080E4A18D8A41E
:102F900012000F0136851200020E4A18D8A402D082
:102FA000CA9413D0040E4A18D8A402D06B940DD042
:102FB000060E4A18D8A403D00F01399506D0080E82
:102FC0004A18D8A402D00F0136958B9812000E6EC5
:102FD0000E50D8B41AD0020E4B18D8A402D0CA840E
:102FE0001200040E4B18D8A402D06B841200060EF7
:102FF0004B18D8A403D00F0139851200080E4B18C6
:10300000D8A412000F0136851200020E4B18D8A466
:1030100002D0CA9413D0040E4B18D8A402D06B94DB
:103020000DD0060E4B18D8A403D00F01399506D049
:10303000080E4B18D8A402D00F0136958B961200BB
:10304000136A0FAE06D00E6C0F1ED8B00F2A010EF9
:10305000136E11AE04D0106C111ED8B0112A10508E
:103060001110D8B418D0010E126E04D0D8901036BA
:103070001136122A11AEFAD710500E5C11500F58AB
:10308000D8A004D010500E5E11500F5AD8901132B3
:103090001032122EF1D71350D8B404D00E6C0F1E7C
:1030A000D8B00F2A0EC00EF00FC00FF01200000EA5
:1030B0000101096F050E086F000E0B6F0A0E0A6FF3
:1030C000000E0D6F0F0E0C6F000E0F6F140E0E6FB3
:1030D000000E016F000E006F000E036F000E026FF6
:1030E000000E076F000E066F000E056F000E046FD6
:1030F00000C10EF0000E4EEC94F002C10EF0010E75
:103100004EEC94F006C10EF0020E4EEC94F004C1A9
:103110000EF0030E4EEC94F012001650D96EDA6ADF
:10312000010ED9261750DE18D8A405D01650D96E36
:10313000DA6ADF6A23D01650D96EDA6A1850DE5C7C
:10314000D8A012D01650D96EDA6ADF6A1650D96E3E
:10315000DA6A010ED92617C0DFFF1750D8A402D0B3
:10316000010E1200020E12001650D96EDA6A1650C5
:10317000E16EE26AE750196E1928DF6E000E120048
:103180001C6A1C50080DF350AE0FD96EDA6A0001AC
:10319000DFA423D01C50080DF350AE0FD96EDA6AAD
:1031A000FB0EDF161C50080DF350AE0FE16EE26A05
:1031B000DFCFE7FF1C50080DF350B30FD96EDA6A6A
:1031C00001D80BD00500FA6EDE50FD6EDE50FE6EAB
:1031D000DE50FF6EFA501C5012001C2A020E1C64B6
:1031E000D0D71200F60EF66E350EF76E010EF86EA1
:1031F00000EEAEF010EE24F00900F5CFEEFFE55042
:10320000E150FAE101EE70F012EE00F0EE6AE550E6
:10321000E150FCE1E250FAE101EE00F0500EEE6AFE
:10322000E806FDE100EE60F04E0EEE6AE806FDE114
:1032300000EE3AF0170EEE6AE806FDE15190519269
:1032400000018EEF81F0146E0EC00FF0010E106EB3
:103250000F2A02D0D89010360F2EFCD71050116EC6
:103260003F0E1424126E136A0F0E13224A0E141806
:10327000D8A404D0880E126E0F0E136E460E1418CA
:10328000D8A404D0850E126E0F0E136E12C0D9FF93
:1032900013C0DAFFDF5011140009D8B402D0010EB8
:1032A0001200000E1200490E166E430E176E030E2A
:1032B000186E4C0E196E440E1CEC9BF0490E166EE7
:1032C000430E176E040E186E4C0E196E440E1CEC55
:1032D0009BF0000E0E6E240E0F6EF40E106E000E9C
:1032E000116E1BC012F01CC013F01DC014F01EC0E4
:1032F00015F046EC96F00E04C86EC650F00B0809A7
:10330000C66EC68A1200000E236E000E246E000EDA
:10331000256E000E266E1BA008D01F5023262050BD
:1033200024222150252222502622D8901F362036D2
:1033300021362236D8901E321D321C321B321B50D1
:103340001C101D101E10D8A4E6D723C01BF024C0EB
:103350001CF025C01DF026C01EF01200076E01C033
:1033600002F0010E036E022A02D0D8900336022E1C
:10337000FCD70350046E480E0724056E066A0F0E34
:1033800006224A0E0718D8A404D0910E056E0F0E1F
:10339000066E460E0718D8A404D08E0E056E0F0ECA
:1033A000066E05C0D9FF06C0DAFF0450DF1A12000E
:1033B000000E136E000E126E10501110D8B41CD0F7
:1033C000010E146E04D0D89010361136142A11AEA6
:1033D000FAD7D8901236133610500E5C11500F5891
:1033E000D8A005D010500E5E11500F5A1280D89000
:1033F00011321032142EEDD712C00EF013C00FF0A0
:1034000012000F6E020E0F18D8A405D0CA500E1865
:10341000FC0B0E18CA6E040E0F18D8A405D06B5002
:103420000E18FC0B0E186B6E060E0F18D8A406D0E3
:103430000F0139510E18FC0B0E18396F080E0F18BA
:10344000D8A412000F0136510E18FC0B0E18366F5F
:103450001200126E1250D8A405D008C10EF0000E52
:10346000F3EC92F01204D8A405D00AC10EF0010EBC
:10347000F3EC92F0030E1218D8A405D00CC10EF094
:10348000030EF3EC92F0020E1218D8A412000EC133
:103490000EF0020EF3EC92F012002F0E0001D26F2C
:1034A0002BC0D3F02CC0D4F0000ED66F000ED56F19
:1034B000000EDD6F000EDC6FD30E256E2DC026F0E2
:1034C0002EC027F0D20E286E6FEC9AF00001D55175
:1034D0002B24D96ED6512C20DA6EDF6A120026C05A
:1034E00029F027C02AF008D025C018F0290E196E3F
:1034F00028C01AF022EC8FF029C0F6FF2AC0F7FF8F
:10350000000EF86E0800F5500009D8A4EDD7000EA3
:10351000266E000E256E12000CD00FC0F6FF10C0F4
:10352000F7FF000EF86E0800F55094EC9BF00F4A80
:10353000102A0FC0F6FF10C0F7FF000EF86E08004B
:10354000F5500009D8B41200E8D70F6E020E0F181C
:10355000D8B40EC0CBFF040E0F18D8B40EC06CFF49
:10356000060E0F18D8B40EC03AFF080E0F18D8A4D4
:1035700012000EC037FF12000EC014F00FC015F07D
:1035800008D014C0D9FF15C0DAFF10C0DFFF144AFD
:10359000152A1206D8A013061228F3E11328D8B46E
:1035A0001200EFD70EC010F00FC011F002D00E4A7B
:1035B0000F2A0EC0D9FF0FC0DAFFDF50D8A4F7D70B
:1035C00010500E5C0E6E11500F580F6E120015BE8B
:1035D00005D014C014F015C015F0120014C016F078
:1035E00015C017F0161E171E164A172A16C014F01B
:1035F00017C015F012000901000000743701090A14
:103600000000009A360109640000006E37010102D3
:1036100004080102040801020408700E0E6E010E77
:103620000F6E000E116E000E106E020E136E000E65
:10363000126EBCEC9AF0120018C00EF019C00FF018
:103640001750FAEC93F018C00EF016C00FF0175098
:10365000A6EC93F0120011C00FF012C010F08CEC29
:103660009AF0FB0E0F6EFF0E106E8CEC9AF01200AB
:103670000E6A05D00E2A00000E28D8B403D0C7A0C9
:10368000C7B4F8D79E9612000E6E9E900E50D8B416
:1036900002D09D8012009D9012004DEC93F0BBEC87
:1036A0009BF0FDEC82F059EC8EF012000E6EF28C65
:1036B0000E50D8B402D0F28E1200F29E12000E6E9E
:1036C0000E50D8B402D09D8A12009D9A12000E6E40
:1036D0000E50D8B402D0CD801200CD9012000E5002
:1036E000D96EDA6ADECF0EF0DDCF0FF0120038ECC3
:1036F0009BF0C584C5B4FED79E96C75012000E50ED
:10370000D8B402D0F2861200F29612000F6E0FC0EB
:10371000C9FF38EC9BF0C5501200016E0F0121A3C8
:10372000FDD701C01CFF12000E6EACA2FED70EC06A
:10373000ADFF1200016EACA2FED701C0ADFF1200BA
:10374000BA928EC07CFF8FC07DFF1200A19290C004
:10375000B2FF91C0B3FF12009E9092C0CEFF93C003
:10376000CFFF1200C580C5B0FED79E961200A3EC15
:0A37700091F0120012001200120086
:020000040020DA
:08000000FFFFFFFFFFFFFFFF00
:020000040030CA
:0E0000001C187F7CF90A90FFFFC0FFE0FF4054
:00000001FF
