:04000000CCEF00F051
:100008004C82FACF0CF0FBCF0DF0E1CF0EF0E2CF2F
:100018000FF0D9CF10F0DACF11F0F3CF12F0F4CF00
:1000280013F00E0138A108D0389137EC0FF09FEC8F
:1000380009F0B9EC0EF09AD038A504D0389532EC16
:100048000FF094D038A904D038992DEC0FF08ED049
:1000580038AD04D0389D28EC0FF088D036AB04D0EA
:10006800985078EC0DF082D036AF04D0F151E5EC21
:100078000DF07CD037A304D0EA5142EC0FF076D0D3
:1000880037A704D0E35141EC0FF070D037AB04D060
:10009800DC5140EC0FF06AD029A968D09351D8B44C
:1000A8001ED093A102D093911AD093A302D0939318
:1000B80016D093A502D0939512D093A702D0939708
:1000C8000ED093A902D093990AD093AB02D0939BF8
:1000D80006D093AD02D0939D02D093BF939F9B51BE
:1000E800D8B41ED0A8A102D0A8911AD0A8A302D033
:1000F800A89316D0A8A502D0A89512D0A8A702D078
:10010800A8970ED0A8A902D0A8990AD0A8AB02D067
:10011800A89B06D0A8AD02D0A89D02D0A8BFA89FD2
:10012800A851D8B41ED0A8A102D0A8911AD0A8A3CB
:1001380002D0A89316D0A8A502D0A89512D0A8A737
:1001480002D0A8970ED0A8A902D0A8990AD0A8AB27
:1001580002D0A89B06D0A8AD02D0A89D02D0A8BF07
:10016800A89FB551D8A4B5AB01D0B59B13C0F4FF77
:1001780012C0F3FF11C0DAFF10C0D9FF0FC0E2FFB1
:100188000EC0E1FF0DC0FBFF0CC0FAFF4C9211003E
:040198007BEF0EF0FB
:100E000000003250800B0001F66F32503224FD6F2B
:100E100031BEFD81FD51D8B40ED0FD29D8A408D033
:100E2000000E2F6E000E306E000E316E000E326E10
:100E3000318E326A08D0000E2F6E000E306E000E1A
:100E4000316E000E326E3650800BF61B3650362453
:100E5000FE6F35BEFE81FE51D8B40ED0FE29D8A457
:100E600008D0000E336E000E346E000E356E000E8C
:100E7000366E358E366A08D0000E336E000E346E34
:100E8000000E356E000E366E3350341035103610AD
:100E9000D8A417D0000E2F6E000E306E000E316EEB
:100EA000000E326E800E31127F0E3212F651321267
:100EB0002FC02FF030C030F031C031F032C032F0EE
:100EC0001200FD51D8A409D0000E2F6E000E306E16
:100ED000000E316E000E326E1200FE51FDC0EEF0BB
:100EE000EF6BEE5F000EEF5B7F0EEE25F76F000EEF
:100EF000EF21F86F2FC0F2F030C0F3F031C0F4F002
:100F000032C0F5F0000E2F6E000E306E000E316E06
:100F1000000E326E000EF96F000EFA6F000EFB6FBE
:100F2000000EFC6FFE6B28D0FE51D8B411D0D890C3
:100F3000F237F337F437F537D8902F36303631366D
:100F40003236FCBF2F80D890F937FA37FB37FC37A1
:100F50003350F25D3450F3593550F4593650F55949
:100F6000D8A009D0FC8D3350F25F3450F35B35507C
:100F7000F45B3650F55BFE2B190EFE65D5D7F251AA
:100F8000F311F411F511D8B411D0F9810FD0D89024
:100F90002F36303631363236FCBF2F80D890F937B5
:100FA000FA37FB37FC37F707D8A0F80731AEEFD791
:100FB000FE6BFCAF17D0FF0EF915EE6FFF0EFA15A2
:100FC000EF6FFF0EFB15F06F7F0EFC15F16FEE510A
:100FD000EF11F011F111D8B403D0010EFE6F02D061
:100FE0002FB0FBD7FE51D8B41FD0010E2F26000E14
:100FF00030223122322232A017D02FC0EEF030C082
:10100000EFF031C0F0F032C0F1F0F135F133F033F0
:10101000EF33EE33EEC02FF0EFC030F0F0C031F020
:10102000F1C032F0F74BF82BF8BF10D0F85103E1C4
:10103000F729D8A00BD0000EF86FF769000E2F6EBD
:10104000000E306E000E316E000E326EF8BF05D00D
:10105000F85110E1F705D8B00DD0000EF86F000E72
:10106000F76F000E2F6E000E306E000E316E000E08
:10107000326EF66BF7C0FDF0FDA102D0318E01D0CB
:10108000319ED890FD31326E11D70101846F010E6F
:101090000101856FCF6ACF82010ED26E866B8551BA
:1010A000040DF3CF82F1F4CF83F182C118F083C134
:1010B00019F0000E19BEFF0E1A6E1B6E000E146E94
:1010C000FA0E156E000E166E000E176E8BEC0CF0FD
:1010D00014C021F015C022F016C023F017C024F070
:1010E000000EFFEC08F021C044F022C045F023C000
:1010F00046F024C047F0000E2F6E000E306E800EBA
:10110000316E3F0E326E44C033F045C034F046C0FD
:1011100035F047C036F001EC07F02FC044F030C086
:1011200045F031C046F032C047F001018451216ED4
:10113000226A236A246A010EFFEC08F021C02FF016
:1011400022C030F023C031F024C032F044C033F06C
:1011500045C034F046C035F047C036F001EC07F02A
:101160002FC044F030C045F031C046F032C047F0E7
:1011700044C014F045C015F046C016F047C017F043
:10118000000E186E000E196E800E1A6E470E1B6E42
:1011900009EC0AF0D8A00BD0020E01018503F35030
:1011A000856F100ECF26862B030E866578D744C038
:1011B00014F045C015F046C016F047C017F0A6EC75
:1011C0000BF014C087F115C088F1010187510008A8
:1011D000876F8851D8A0E82A0008886F0E013891DF
:1011E00087C1CDFF88C1CEFF87C1E8F088C1E9F093
:1011F000010EECEC0EF0010EC7EC0EF01200296EA1
:101200002950D8A424AE1AD021C025F022C026F03F
:1012100023C027F024C028F0251E261E271E281EC6
:10122000252A000E26222722282225C02BF026C0A0
:101230002CF027C02DF028C02EF008D021C02BF0B4
:1012400022C02CF023C02DF024C02EF021502210FB
:1012500023102410D8A409D0000E216E000E226E97
:10126000000E236E000E246E1200960E2A6E06D01B
:101270002A2AD8902E322D322C322B32000E2B14EB
:10128000256E000E2C14266E000E2D14276EFE0EF9
:101290002E14286E2550261027102810D8B40DD0F3
:1012A000E7D72A2A010E2B26000E2C222D222E22D1
:1012B000D8902E322D322C322B32000E2B14256E6C
:1012C000000E2C14266E000E2D14276EFF0E2E1409
:1012D000286E2550261027102810D8B407D0E1D743
:1012E0002A06D8902B362C362D362E362DBE03D01E
:1012F000020E2A60F5D72AA02D9ED8902A322AC045
:1013000025F0266A276A286A25C028F0276A266AF7
:10131000256A25502B1226502C1227502D122850AA
:101320002E122950D8A424AE01D02E8E2BC021F02D
:101330002CC022F02DC023F02EC024F012000B6A26
:1013400063D00B50080DF350600FD96EDA6A0001BC
:10135000DFA059D00B50080DF350600FD96EDA6A38
:10136000DFB451D00B50080DF350630FD96EDA6A19
:10137000010EDB5004E1020EDE5CD8A00AD00B5057
:10138000080DF350630FD96EDA6ADE06000EDD5ADF
:101390003AD00B50080DF350600FD96EDA6ADFA80F
:1013A00013D00B50080DF350650FD96EDA6A01D8CF
:1013B0001AD00500FA6EDE50FD6EDE50FE6EDE5075
:1013C000FF6EFA500B5012000B50080DF350600FD7
:1013D000D96EDA6A0B50080DF350600FE16EE26AC5
:1013E000E7500409DF6E0B50080DF350610FD96E02
:1013F000DA6A0B50080DF350630FE16EE26ADECF3C
:10140000E6FFDDCFE5FF0B2A41500B5CD8B01200A0
:1014100098D7000E14141C6E000E15141D6E800E4D
:1014200016141E6E7F0E17141F6E1C501D101E10FA
:101430001F10D8A408D0000E146E000E156E000EFA
:10144000166E000E176E000E18141C6E000E191486
:101450001D6E800E1A141E6E7F0E1B141F6E1C5004
:101460001D101E101F10D8A408D0000E186E000EFC
:10147000196E000E1A6E000E1B6E17AE09D0146C9A
:10148000151ED8B0152A161ED8B0162A800E17566B
:101490001BAE09D0186C191ED8B0192A1A1ED8B064
:1014A0001A2A800E1B56000E141A000E151A000E72
:1014B000161A800E171A000E181A000E191A000EAE
:1014C0001A1A800E1B1A1850145C195015581A500D
:1014D00016581B501758D8B002D0D8901200D88098
:1014E00012001450D96EDA6ADF50196E1450D96E9A
:1014F000DA6A030ED926DF501A6E1450D96EDA6AF2
:10150000030ED9261450E16EE26A030EE126E7507D
:10151000176E1728DF6E1950D8A41CD01450D96E3E
:10152000DA6A1450E16EE26AE7501A24DF6EFF0EA9
:101530001524176EFF0E1620186E1450D96EDA6A35
:10154000010ED92617C0DEFF18C0DDFF010E406E68
:10155000010E12001A501918D8A428D01450D96EB0
:10156000DA6A010ED926010EDB5004E1020EDE5CC0
:10157000D8A00CD01450D96EDA6A010ED926DE0636
:10158000000EDD5A020E406E020E12001450D96E8B
:10159000DA6A1450E16EE26AE750176E1A50FF0AD9
:1015A0001714DF6E030E406E030E1200406A000E29
:1015B00012000150D96EDA6ADF50066E0150D96E02
:1015C000DA6A030ED926DF50076E0150D96EDA6A47
:1015D000030ED9260150E16EE26A030EE126E750C0
:1015E000046E0428DF6E0650D8A41CD00150D96EBA
:1015F000DA6A0150E16EE26AE7500724DF6EFF0EFF
:101600000224046EFF0E0320056E0150D96EDA6AC3
:10161000010ED92604C0DEFF05C0DDFF010E406EBD
:10162000010E120007500618D8A428D00150D96E18
:10163000DA6A010ED926010EDB5004E1020EDE5CEF
:10164000D8A00CD00150D96EDA6A010ED926DE0678
:10165000000EDD5A020E406E020E12000150D96ECD
:10166000DA6A0150E16EE26AE750046E0750FF0A41
:101670000414DF6E030E406E030E1200406A000E6B
:1016800012001B6E14C016F0010E176E162A02D03F
:10169000D8901736162EFCD71750186E1B50BF0F58
:1016A0001B6E410E1B18D8A402D0920E15D0420E0C
:1016B0001B18D8A402D09A0E0FD0430E1B18D8B412
:1016C0001200440E1B18D8A402D0A70E05D0450E58
:1016D0001B18D8A404D0AF0E196E0E0E1A6E1B5034
:1016E0001924196E000E1A201A6E440E1518D8B45B
:1016F00007D0640E1518D8B403D01550D8A40FD055
:1017000019C0D9FF1AC0DAFFDF50166E1850FF0A51
:10171000161419C0D9FF1AC0DAFFDF6E1200410E8D
:101720001518D8B407D0610E1518D8B403D0150415
:10173000D8A4120019C0D9FF1AC0DAFFDF50181060
:1017400019C0D9FF1AC0DAFFDF6E12001634173441
:101750001D6E1D50D8A409D0000E146E000E156E1B
:10176000000E166E000E176E120014C018F015C091
:1017700019F016C01AF017C01BF0200E05D0D89033
:101780001B321A3219321832E82EF9D718501C6E53
:10179000168EFF0E1416FF0E1516FF0E1616000EEF
:1017A0001716960E1D5E1DAE0DD01D50800A970FA8
:1017B000D8A0D2D7D89017321632153214321D3E27
:1017C000F9D70DD01F0E1D6407D0C6D7D890143698
:1017D0001536163617361D061D50D8A4F7D71C50DF
:1017E000D8B408D0171E161E151E146C000E152234
:1017F0001622172214C014F015C015F016C016F0EA
:1018000017C017F01200186E14C016F0010E176EF4
:10181000162A02D0D8901736162EFCD71750196EFC
:10182000400E18241A6E1B6A0F0E1B224F0E15183D
:10183000D8B407D06F0E1518D8B403D01550D8A45B
:101840000FD01AC0D9FF1BC0DAFFDF50166E195037
:10185000FF0A16141AC0D9FF1BC0DAFFDF6E120090
:10186000490E1518D8B407D0690E1518D8B403D08E
:101870001504D8A412001AC0D9FF1BC0DAFFDF502C
:1018800019101AC0D9FF1BC0DAFFDF6E1200186EE4
:1018900014C016F0010E176E162A02D0D890173613
:1018A000162EFCD71750196E380E18241A6E1B6AA4
:1018B0000F0E1B224C0E1518D8B407D06C0E15183D
:1018C000D8B403D01550D8A40FD01AC0D9FF1BC06C
:1018D000DAFFDF50166E1950FF0A16141AC0D9FF2E
:1018E0001BC0DAFFDF6E1200480E1518D8B407D0FF
:1018F000680E1518D8B403D01504D8A412001AC065
:10190000D9FF1BC0DAFFDF5019101AC0D9FF1BC066
:10191000DAFFDF6E1200000E1C6E000E1D6E000E50
:101920001E6E000E1F6E185019101A101B10D8B41E
:101930002AD0010E206E06D0D890183619361A36E5
:101940001B36202A1BAEF8D7D8901C361D361E3603
:101950001F361850145C195015581A5016581B5041
:101960001758D8A009D01850145E1950155A1A509B
:10197000165A1B50175A1C80D8901B321A32193233
:101980001832202EE1D71CC014F01DC015F01EC067
:1019900016F01FC017F012004CA202D00AEF0DF093
:1019A0001B6EEA0E146E0BEC0FF0EA0E146E000EB6
:1019B000166E5F0E156E71EC0AF00009D8B40AD0ED
:1019C0003CEC0FF0E806D8A405D0060E146E420ECB
:1019D00009EC0EF0EA0E146E000E166E050E156E72
:1019E00071EC0AF00009D8B40AD03CEC0FF0E8061C
:1019F000D8A405D0060E146E420E09EC0EF0EA0EC5
:101A0000146EF7EC0EF00009D8B412001B5047EC2E
:101A10000EF01200086EEA0E016E1BEC0FF0EA0EDB
:101A2000016E000E036E5F0E026ED9EC0AF0000923
:101A3000D8B40AD03EEC0FF0E806D8A405D0060EC4
:101A4000016E420E28EC0EF0EA0E016E000E036EDF
:101A5000050E026ED9EC0AF00009D8B40AD03EECAB
:101A60000FF0E806D8A405D0060E016E420E28EC51
:101A70000EF0EA0E016E01EC0FF00009D8B412006E
:101A8000085061EC0EF012001C6A2DD01C50080D9D
:101A9000F350600FD96EDA6A0001DFA423D01C5026
:101AA000080DF350600FD96EDA6AFB0EDF161C507A
:101AB000080DF350600FE16EE26ADFCFE7FF1C50C4
:101AC000080DF350650FD96EDA6A01D80BD0050006
:101AD000FA6EDE50FD6EDE50FE6EDE50FF6EFA5086
:101AE0001C5012001C2A41501C5CD8B01200CED7EA
:101AF000026E02C003F0280E0318D8A402D0426A76
:101B00001200290E0318D8A40BD05A0E4224D96E05
:101B1000DA6A010EDA22DF6A000EE0EC0EF0120043
:101B2000140E426012005A0E4224D96EDA6A010E77
:101B3000DA2203C0DFFF422A1200400EA9EC0EF0A9
:101B40004F0E1C6E420E1D6E060E1E6E200E1F6E78
:101B5000440E92EC0EF0010E45EC08F0090E146EE6
:101B60000A0E156E980E166E190E176E000E186E70
:101B7000000EC1EC0DF0010ED4EC0EF023EC0FF0D2
:101B8000FDD71B6E1B50080DF350650FD96EDA6A36
:101B900016C0DEFF17C0DEFF18C0DEFF1B50080DA9
:101BA000F350600FD96EDA6A14C0DFFF1550196E5A
:101BB0001A6A1B50080DF350610FD96EDA6A19C00A
:101BC000DEFF1AC0DDFF412A1200026E02C003F0E0
:101BD0003C0E0318D8A402D0436A0ED03E0E031860
:101BE000D8A40AD06E0E4324D96EDA6A010EDA2226
:101BF000DF6A010EE0EC0EF0140E436012006E0E70
:101C00004324D96EDA6A010EDA2203C0DFFF432AC9
:101C10001200176E14C015F0010E166E152A02D0B0
:101C2000D8901636152EFCD71650186E380E17247D
:101C3000196E1A6A0F0E1A2219C0D9FF1AC0DAFFDC
:101C4000DF50181819C0D9FF1AC0DAFFDF6E120072
:101C5000046E01C002F0010E036E022A02D0D89079
:101C60000336022EFCD70350056E380E0424066E90
:101C7000076A0F0E072206C0D9FF07C0DAFFDF5040
:101C8000051806C0D9FF07C0DAFFDF6E1200146E18
:101C90001450080DF350600FD96EDA6A0001DFB6F8
:101CA00012001450080DF350600FD96EDA6A145008
:101CB000080DF350600FE16EE26AE750FE0BDF6E35
:101CC0001200016E0150080DF350600FD96EDA6AF0
:101CD0000001DFB612000150080DF350600FD96EFD
:101CE000DA6A0150080DF350600FE16EE26AE750C6
:101CF000FE0BDF6E120001EE00F0820EEE6AE806C7
:101D0000FDE100EE60F08E0EEE6AE806FDE100EE09
:101D100037F0150EEE6AE806FDE14C904C9200019A
:101D20009DEF0DF0206E1EC014F01FC015F01D5069
:101D300047EC0CF01EC014F01CC015F01D5003EC55
:101D40000CF01EC014F020C015F01D5041EC0BF03B
:101D50001200050E156E0F0E146EF10EE82EFED752
:101D6000142EFCD7152EFAD70000080E0E01496F6D
:101D700012003D4A3E2A3D04F00E3E58D8A0120003
:101D8000000E3D243D6E900E3E203E6E1200146EFD
:101D90001404D8A403D00E012E8112001450D8A42C
:101DA00012000E012E911200146EF28C1404D8A4AD
:101DB00002D0F28E12001450D8A41200F29E12002B
:101DC000016E0150040D320EF324D96E010EF42081
:101DD000DA6E000EDB801200146E1404D8A402D058
:101DE000CF8012001450D8A41200CF9012001450CB
:101DF000D96EDA6ADF50D8A402D0010E1200000EAC
:101E000012000150D96EDA6ADF50D8A402D0010E58
:101E10001200000E12001450D96EDA6A030ED92691
:101E2000010EDF6E1200146A01D0142A3F50145CB8
:101E3000D8B01200FAD70150D96EDA6A030ED9264B
:101E4000010EDF6E120044EC0DF013EC0FF01200E7
:101E500037C02EFF38C02FFF120039C0C1FF3AC073
:101E6000C2FF12003BC0C7FF3CC0C8FF1200E8C061
:101E7000CDFFE9C0CEFF12004050120040501200CA
:061E800012001200120026
:020000040020DA
:10000000FF0FFF0FFF0FFF0FFF0FFF0FFF0FFF0F80
:020000040030CA
:0C0000008CD7FFE784C7FFCFFCFFFFFF99
:00000001FF
